:100000000C94A5070C94DD070C94DD070C94503478
:100010000C94DD070C94DD070C94DD070C94DD07D0
:100020000C94DD070C94DD070C9427170C94C61E66
:100030000C94DD070C94DD070C94DD070C94DD07B0
:100040000C94DD070C94362A0C94DD070C94DD0724
:100050000C94DD070C940C180C94DD070C94DD0750
:100060000C94DD070C94DD070C94DD070C94DD0780
:100070000C94DD070C94DD070C94DD070C94DD0770
:100080000C94DD070C94DD070C94DD070C94DD0760
:100090000C94DD070C94DD070C94DD070C94DD0750
:1000A0000C94DD070C94DD070C94DD070501098035
:1000B000A101850319012AB700150126B700950192
:1000C00075108100C0050C0901A101850419012AE0
:1000D000A002150126A002950175108100C005013E
:1000E0000906A1018506050719E029E71500250184
:1000F0009508750181020507190029EF15002501F2
:1001000095F075018102050819012905950575010C
:100110009102950175039101C00660FF0961A1017B
:100120000962150026FF00952075088102096315F4
:100130000026FF00952075089102C005010906A15F
:1001400001050719E029E7150025019508750181CA
:10015000029501750881010507190029FF15002680
:10016000FF00950675088100050819012905950508
:1001700075019102950175039101C0436170732D62
:10018000206C6F636B000A00556E646566002D532A
:100190007973200A002D4E756D200A002D46756E6C
:1001A000630A002D426173650A004C617965720033
:1001B0000A004C6F747573202D35382D00000A002D
:1001C00000DA0281FFD9F1DB20A4A62EAF00A0C087
:1001D00000A1C800AED580A81FD300408D14200018
:1001E000783C1E1E140A05FD377A585A000004E6B2
:1001F000D6B4460200210116000000742FE5A3E0EA
:10020000094302145D003D8889C65436C3174FE484
:10021000E21132E3D88794292C1FA5FF53606DDCCF
:100220003109F08B6869C1BAA99C253E2A60CD3E90
:100230006CC74C7AEFB863F093FA40E654648B1FB6
:10024000ECCB2BBF15ADE7E9C378F8A76BC1C4842D
:10025000997318D4C3A96355908086985B9510ADA7
:10026000586DCC50825BD064C7151351A4BA7B9FE4
:10027000D71BEB93BE0600C9BB0F5CF59C99080D1C
:100280003CE82FFAE70976BAE87DB23A689E3A1060
:1002900024B71083DDFF4BF514E80100686CDDAA7C
:1002A00022A92337C51FFB1BAA89055B94C06AE8F6
:1002B000C3425A328E6B5FABDF1CE449C1844226D5
:1002C00046F08A199016786FE8C19BA0899369B6A9
:1002D000149D250A1DB9B3C47B948D4A7C44B6AAEB
:1002E0006A0025FB315A6E4183CCE023E6001F9162
:1002F000549B5BEEEBD7B329A955E36156B85C9DDF
:10030000D199B820DBBC02F01B00760BDBF3B17691
:10031000AE65876915E37EC732BCAB00BEF1E34E24
:100320001C5076A78D51768206F9DAF8A0B2796F63
:1003300000D76074C044F421A05DAD2CC6C142D882
:10034000FFCD918ADA2AC4CF732D6F6CA241F1A937
:10035000125DD197E2F1E7BF06665CCE7AACEE3D66
:1003600099D95F117F8B9F92D06D8DA176026D8C94
:10037000002E46B79F34AD58DA33BA9982B154553E
:10038000A0855E80F532C5D2D170E190D0C55CCF3A
:10039000231C04E0DBF7159B751F95CCF136729298
:1003A000E68D1605FE1248B6F27EF1F98E7AA9772F
:1003B000692D8B2484D94CBFF34D7F03FF10E73C9C
:1003C000A61C139A5EF3D9C5262CA0F106CF3522C0
:1003D00039C08A1A66398458DEBA4224168C039AC8
:1003E00006A6F2E18D4C4F40B9C0E78D21C9B38715
:1003F0007C8E4ECE5A11F546BFAC8A09FCFEBCFA83
:10040000556D57E95029017E3F6FC92B6A4EED01AA
:100410002BD16083B5DFF9697000004E9CD7660070
:10042000ED5D2E0001B004C4120000276F92CAB126
:10043000C467FB020000000004595A0001010101D9
:10044000010101010102020202020202020203038F
:10045000030303030303040404040404040505055F
:100460000505060606060607070707070808080821
:10047000090909090A0A0A0B0B0B0C0C0C0D0D0DCE
:100480000E0E0E0F0F0F1010111111121213131464
:1004900014151516161717181819191A1A1B1B1CDC
:1004A0001D1D1E1E1F202021222223242425262636
:1004B000272829292A2B2C2D2D2E2F30313232336B
:1004C0003435363738393A3B3C3D3E3F4041424374
:1004D0004445464748494A4C4D4E4F505153545558
:1004E0005658595A5B5D5E5F616264656668696B08
:1004F0006C6D6F7072737577787A7B7D7E80828386
:100500008587888A8C8E8F91939596989A9C9EA0C9
:10051000A2A3A5A7A9ABADAFB1B3B5B7BABCBEC0D6
:10052000C2C4C6C9CBCDCFD1D4D6D8DBDDDFE2E49F
:10053000E7E9EBEEF0F3F5F8FAFDFF222325262894
:10054000292A2C2D2F3032333536383A3B3D3E4068
:1005500042434547494A4C4E5051535557595A5CAE
:100560005E6062646668696B6D6F71737577797BC5
:100570007D7F81838587898A8C8E90929496989AC4
:100580009C9E9FA1A3A5A7A8AAACAEAFB1B3B4B6D9
:10059000B8B9BBBCBEBFC1C2C3C5C6C7C9CACBCC34
:1005A000CDCED0D1D2D2D3D4D5D6D7D7D8D9D9DA07
:1005B000DADBDBDBDCDCDCDCDCDDDDDDDDDCDCDC7C
:1005C000DCDCDBDBDBDADAD9D9D8D7D7D6D5D4D3A4
:1005D000D2D2D1D0CECDCCCBCAC9C7C6C5C3C2C179
:1005E000BFBEBCBBB9B8B6B4B3B1AFAEACAAA8A7D6
:1005F000A5A3A19F9E9C9A98969492908E8C8A898E
:10060000878583817F7D7B79777573716F6D6B696A
:1006100068666462605E5C5A5957555351504E4C3F
:100620004A4947454342403E3D3B3A3836353332EE
:10063000302F2D2C2A2928262523220000000000F7
:10064000000000000000010204060A0F17202C3AE7
:100650004A5D71879DB3C7DAE9F5FCFFFCF5E9DA7D
:10066000C7B39D87715D4A3A2C20170F0A06040212
:100670000100000000000000000000A900AA00A97D
:1006800000AA00A900AA00A900AA00A900AA00A91E
:1006900000AA00A900AA00A900AA00165C1E001F5B
:1006A000002000210022002B0014001A0008001571
:1006B000001700320004001600070009000A00506D
:1006C000611D001B00060019000500AE004C000172
:1006D00053E3642C6251002D0027002600250024DE
:1006E0000023002F00130012000C0018001C00341F
:1006F0000033000F000E000D000B004F7138003763
:1007000000360010001100AE002A00025365742864
:1007100072520001003A003B003C003D003E0001E7
:1007200000010001000100010001000100010001C1
:1007300000010001000100010001000100010001B1
:10074000000100010001000100010001004E004411
:100750000043004200410040003F00010001000151
:100760000001000100010001000100010001000181
:100770000001000100010001000100010001000171
:100780000001000100010001004B00010001000117
:100790000001000100010001000100010001000151
:1007A0000001000100010001000100010001000141
:1007B0000001000100010001000100010001000131
:1007C0000001000100010001000100010001000121
:1007D0000001000100010001000100010001000111
:1007E0000001000100010001000100010001000101
:1007F00000010001000100010001000100010001F1
:10080000000100005C010001000100145C1A5C01A1
:1008100000010001000100010001000100010001D0
:1008200000010001000100010001000100010001C0
:10083000000100010001000100010001000100C2EF
:100840005CCA5CC95C010001000100CD5CC65CC5EE
:100850005C010001000100CE5CC85CC75C010001C6
:10086000000100CF5CCC5CCB5C0100010001000109
:10087000000100010001000100010007087F0807D6
:10088000003E5B4F5B3E003E6B4F6B3E001C3E7C70
:100890003E1C00183C7E3C18001C577D571C001C59
:1008A0005E7F5E1C0000183C180000FFE7C3E7FFF6
:1008B00000001824180000FFE7DBE7FF0030483A8B
:1008C000060E00262979292600407F0505070040ED
:1008D0007F05253F005A3CE73C5A007F3E1C1C0820
:1008E00000081C1C3E7F0014227F2214005F5F0062
:1008F0005F5F0006097F017F00006689956A0060DE
:10090000606060600094A2FFA2940008047E040866
:100910000010207E20100008082A1C0800081C2A4D
:100920000808001E10101010000C1E0C1E0C0030C9
:10093000383E383000060E3E0E0600000000000073
:100940000000005F000000000700070000147F1493
:100950007F1400242A7F2A120023130864620036C1
:100960004956205000000807030000001C224100E7
:10097000000041221C00002A1C7F1C2A0008083E9F
:10098000080800008070300000080808080800000F
:1009900000606000002010080402003E5149453EFE
:1009A0000000427F40000072494949460021414908
:1009B0004D33001814127F10002745454539003C7F
:1009C0004A49493100412111090700364949493650
:1009D00000464949291E0000001400000000403470
:1009E0000000000008142241001414141414000024
:1009F00041221408000201590906003E415D594E8A
:100A0000007C1211127C007F49494936003E414169
:100A10004122007F4141413E007F49494941007FD9
:100A200009090901003E41415173007F0808087F10
:100A30000000417F4100002040413F01007F081439
:100A40002241007F40404040007F021C027F007F27
:100A50000408107F003E4141413E007F090909061C
:100A6000003E4151215E007F09192946002649496F
:100A700049320003017F0103003F4040403F001F17
:100A80002040201F003F4038403F0063140814639B
:100A9000000304780403006159494D4300007F417D
:100AA000414100020408102000004141417F000440
:100AB00002010204004040404040000003070800DB
:100AC000002054547840007F28444438003844447F
:100AD000442800384444287F0038545454180000F7
:100AE000087E09020018A4A49C78007F08040478FA
:100AF0000000447D4000002040403D00007F102861
:100B000044000000417F4000007C04780478007CB1
:100B10000804047800384444443800FC182424189D
:100B20000018242418FC007C0804040800485454CD
:100B300054240004043F4424003C4040207C001C1A
:100B40002040201C003C4030403C004428102844F9
:100B5000004C9090907C004464544C440000083653
:100B6000410000000077000000004136080000024C
:100B700001020402003C2623263C00000000000085
:100B800000404040F0F8F8FF38FFF8F83FF8F8FF71
:100B900038FFF8F8F040404000000000000080C03E
:100BA000C0C0800000C0C08000000080C0C000C085
:100BB000C0000080C0C00000000000C0C0C0C0C0B5
:100BC00000C0C000000000000000000000000000A5
:100BD0000000000000000000000000000000000015
:100BE0000000000000000000000000000000000005
:100BF00000000000000000000000C0F0F8FC3E1EF5
:100C000006010000007F4141417F007F4141417F5B
:100C1000000080C0E07E5B4F5BFEC00000C000DCD7
:100C2000D7DEDEDED7DC00C00000000000000000E0
:100C300000000000000000000000000000000000B4
:100C400000494949FFFFFFFFE0DFBFBF00BFBFDF33
:100C5000E0FFFFFFFF49494900000000001F3F601F
:100C600060E0BF1F007F7F071E381E077F7F007F69
:100C70007F0E1F3B716000000000007F7F0C0C0C9A
:100C8000007E7E007F7E0303007F7E03037E7E0363
:100C9000037F7E000F3E703C063C703E0F00327BAF
:100CA00049493F7E007F7E0303001E3F69696F262E
:100CB00000000000000000000000030F1F3F3C7810
:100CC00070600000007F4141417F007F4141417FD2
:100CD00000307B7F7830202030787F3B0003000F8E
:100CE0007F0F0F0F7F0F00030000000000000000C7
:100CF00000000000000000000000000000000000F4
:100D000000010101070F0F7F0F7F0F0F7E0F0F7F75
:100D10000F7F0F0F0701010100000000000000001D
:100D200000000101000000000000000000000000C1
:100D300000000000000000000000000000000000B3
:100D400000000000000000000000000000000000A3
:100D50000000000000000000000000000000000093
:100D60000000000000000000000000000000000083
:100D70000000000000000000000000000000000073
:100D80000000000000000000000000000000000063
:100D90000000000000000000000000000000000053
:100DA0000000000000000000000000000000000043
:100DB000000000000000000000000000AF00AE00D6
:100DC0000000000000000000000000000000000023
:100DD0000000000000000000000000000000000013
:100DE0000000007E0F00D4FFFFFFC7000000780066
:100DF000000000000000002A2B2800000000000076
:100E00000000000000000000000029000000002C8D
:100E10001E3420212224342627252E362D3738272C
:100E20001E1F202122232425263333362E37381F38
:100E30000405060708090A0B0C0D0E0F10111213FA
:100E40001415161718191A1B1C1D2F3130232D3598
:100E50000405060708090A0B0C0D0E0F10111213DA
:100E60001415161718191A1B1C1D2F3130354C0973
:100E7000025B00030100A0FA090400000103010164
:100E8000000921110100012240000705810308002B
:100E90000109040100020300000009211101000101
:100EA000222200070582032000010705030320001A
:100EB00001090402000103000000092111010001E1
:100EC000226D0007058403200001120100020000CA
:100ED0000008EDFEB0232301010203011C0376008C
:100EE000690061006C003A0066003600340063005F
:100EF000320062003300630000001C034C006F00EE
:100F00007400750073002000350038002000470091
:100F10006C006F00770000002C0354007700650020
:100F200065007400790073002000570069006C00B0
:100F3000640020005400680069006E006B006900C6
:100F40006E00670000000403090411241FBECFEFE8
:100F5000DAE0DEBFCDBF04B603FE18C080916006A4
:100F600090916106A0916206B09163068730904B24
:100F7000A740B04B59F4109260061092610610928F
:100F8000620610926306E0E0F8E3099511E0A0E044
:100F9000B1E0EAE0FDE602C005900D92A43FB10782
:100FA000D9F726E0A4EFB1E001C01D92A036B20748
:100FB000E1F70E94542A0C945F360C940000E8ED8F
:100FC000F0E080818E7F80831092E2001092DA0040
:100FD0001092E100A0EEB0E08C9181608C93808152
:100FE0008F77808319BCA7EDB0E08C918E7F8C93B6
:100FF00080818F7E80831092300608952091E400D6
:101000003091E50095E6A9012091EC00822F8170D6
:1010100020FF06C08091E80080FF06C080E00895B0
:101020002091E80022FD1AC080915E06882389F095
:10103000853089F08091EB0085FD0FC02091E400A0
:101040003091E50042175307F9F29150E1F684E040
:10105000089582E0089583E0089581E00895EF9275
:10106000FF920F931F93CF937C018B010E94FE0789
:10107000C82F811117C08091E80085FD0BC08091B9
:10108000E8008E778093E8000E94FE07882399F39A
:10109000C82F08C0F70181917F018093F1000150B2
:1010A000110949F78C2FCF911F910F91FF90EF906D
:1010B0000895CF93FC0180915E06843001F5C091C4
:1010C000E900CF702091EC00922F917020FD90E804
:1010D000C92B82E08093E9008091E80080FF0CC07A
:1010E00050E040E060E270E0CF010E942F08809164
:1010F000E8008E778093E800CF70C093E900CF912D
:1011000008958091560687FF13C08091E80082FF02
:1011100006C08091E8008B778093E80004C080913E
:101120005E068111F2CF089580915E068823D9F37F
:101130008091E80080FFF8CF8091E8008E77ECCFB7
:10114000982F9093E900242F762F50E0891731F0E3
:101150007091EC002091ED005091F00021FD07C04E
:101160009F5F973071F78093E90081E00895309197
:10117000EB003E7F3093EB003091ED003D7F3093EC
:10118000ED003091EB0031603093EB007093EC0098
:101190002093ED005093F0002091EE0027FDE0CF6A
:1011A00080E00895B0E0A0E0E8EDF8E00C948A3526
:1011B000C8EDD0E088818F7E8883E7EDF0E0808104
:1011C0008160808384E082BF81E0809330068881E3
:1011D0008E7F888302EE10E0F80110821092DA0010
:1011E00081EEC82ED12CF601108288818F778883FA
:1011F00088818068888388818F7D888319BC10925C
:101200005E0610925506109254061092530690EE08
:10121000E92EF12CF70180818B7F808388818160AA
:10122000888342E060E080E00E94A008F6018081AF
:101230008E7F8083F80180818160808380818860D7
:101240008083F70180818E7F80838881806188839D
:10125000CDB7DEB7E8E00C94A635FC0180915C06C2
:1012600090915D0686179707A0F06115710529F426
:101270009091E8009E779093E80090E061157105E9
:1012800051F4911108C08091E80082FF34C080E0E1
:101290000895BC01F2CF80915E068823C1F18530AC
:1012A000C1F18091E80083FD30C08091E80082FDAB
:1012B000EACF8091E80080FFE1CF8091F300209198
:1012C000F200382F6115710519F02830310558F0FA
:1012D00091E02830310509F090E02091E8002E7768
:1012E0002093E800CBCF81918093F1006150710988
:1012F0002F5F3F4FE7CF80915E06882341F0853016
:1013000041F08091E80083FFBECF81E0089582E044
:10131000089583E008950895089508958091320610
:1013200008952FB7F8946091270670912806809150
:10133000290690912A062FBF089520917C0122232F
:10134000C9F020912B0627FF15C0E62FE695E695FC
:10135000E695EE31D8F4E80FF92FF11D677021E022
:1013600030E001C0220F6A95EAF720958281282398
:1013700022830895FC01329608962191621303C0DE
:10138000DF0111971C92E817F907B9F7089520912A
:101390007C012223C1F020912B0627FF14C0E62FE9
:1013A000E695E695E695EE31F8F4E80FF92FF11D94
:1013B000677021E030E001C0220F6A95EAF7828170
:1013C000822B82830895FC0132962FEF30E0419109
:1013D000641751F02F3F19F4411101C0232F3F5FD3
:1013E0003630A9F72F3F09F40895820F911D27FD8C
:1013F0009A95FC0162830895209125063091260676
:101400002817390771F09093260680932506E091FE
:101410002306F0912406309721F00084F185E02D19
:101420000995089520912106309122062817390741
:1014300071F09093220680932106E0912306F091AB
:101440002406309721F00680F781E02D0995089554
:10145000FC01680F791F8FEF91E32191822728E02B
:1014600030E087FF09C0880F892721503109C9F76B
:10147000E617F70791F70895880FF7CFFA01811162
:1014800001C0FB0109950895EFEFF3E0118282811D
:1014900084608283089580910204982F9E7F61F476
:1014A000817082608093020480910504803B18F073
:1014B0008FEA8093050408958231B0F381708061D2
:1014C000F1CFAF92BF92DF92EF92FF920F931F93F3
:1014D000CF93DF93082F162FE901E42FF0E0E55CAE
:1014E000FB4F611110C0E4915E2F4E2F4983E883BA
:1014F0005A83DF91CF911F910F91FF90EF90DF9072
:10150000BF90AF900895E62EF12C4491D42EE42F95
:10151000F0E026E0829FC00111242FEF30E0B901F6
:101520000E946C35802F90E0880F991F55E5569FDB
:10153000D001579FB00D11248A1B9B0B982F990F38
:10154000890F5901AE18BF08AE9ED001AF9EB00DF5
:10155000BE9EB00D11245B2F189F80011124012F16
:1015600011275901A01AB10AAE9E8001AF9E100D3D
:10157000BE9E100D11245901A81AB108AE9CC001DD
:10158000AF9C900DBE9C900D1124892F9927281B8C
:10159000390B2E9FC0012F9F900D3E9F900D11245F
:1015A000E92F62307105A1F050F46115710509F45D
:1015B0009DCF6130710581F0EB2F512F97CF6430B3
:1015C000710569F080F06630710509F48FCFF4CFB2
:1015D000E42F4B2F592F8ACFE42F412F87CFEB2FAA
:1015E000542F492F83CF4B2F5D2DE12F7FCF80E0EC
:1015F0000895F894E82FE295EF70F0E031A1282FDC
:101600002F7081E090E001C0880F2A95EAF7982FAB
:101610009095932391A392A1892B82A37894089506
:1016200090912B0692FF06C0282F28712830F9F4DC
:10163000877F846093FF06C0282F28712831F1F43A
:10164000877E846120912C0620FF06C0382F3871D8
:101650003830D9F4877F816021FF06C0282F287198
:101660002831D1F4877E816194FD877E0895282FEB
:1016700024712430F9F68B7F8860DCCF282F247109
:10168000243101F78B7E8861DDCF382F3171313005
:1016900019F78E7F8860E0CF282F2171213121F743
:1016A0008E7E8861E1CFCF93DF93EC018238910584
:1016B000B1F108F040C08133910509F49DC048F5AF
:1016C0008932910509F48DC08A9709F49CC0C1152F
:1016D00022E5D20708F0BDC0C11531E5D30708F0F7
:1016E00025C1C83ED10508F0A3C0C13ED10588F58B
:1016F000C83AD10508F08EC0C53AD10508F0F6C049
:10170000C130D10531F1209721F1C430D10508F560
:1017100045C08533910509F45FC0C997C1F6809132
:101720002B06837009F037C180912C0683FF11C00E
:10173000C9E2D0E00EC0833E910599F170F4803E7D
:10174000910501F1823E910511F680912B0682FDF3
:1017500021C0CE01DF91CF910895863E910561F1C0
:10176000873E910571F1843E910509F0B0CF8091DB
:101770002C0681FFEECF80912B06C7EED0E084FDD2
:101780000DC0E7CF80912B0680FD33C090912C06D1
:1017900090FFDFCFC3EED0E084FFDBCFD0E0C0E02E
:1017A000D8CF80912B0682FDF3C090912C0690FD3E
:1017B000F2C084FFCECFF2CF80912B0683FDDDCF28
:1017C000C8CF80912B0683FDE9C090912C0691FF34
:1017D000F0CFC4EED0E0BDCF80912B0685FFB9CF0E
:1017E000A7CF80912B0685FDDCC080912C0683FF5E
:1017F000B0CFC9E3D0E0ADCF80912B0686FFA9CF53
:10180000CAE2D0E0A6CF80912B0686FFA2CFC1E32B
:10181000D0E09FCFCF3BD10508F6C85AD0E0CC0F1F
:10182000DD1FC857DE4F0990D881C02DD46491CFF9
:10183000C11540E5D40708F064C0C11580E4D8079D
:1018400008F05CC0CE019A9581159F4108F481CFC4
:10185000A5CFC11536E5D30718F5C11545E5D40761
:1018600008F07DC0C11584E5D80708F073C09C2F2F
:10187000969596959E0123703327C115D34508F49C
:101880005AC0C1E0D0E002C0CC0FDD1F2A95E2F7BC
:1018900030E2939FC0011124C82BD92BDA6859CFAD
:1018A000C1158AE5D80778F4C11529E5D20708F0F3
:1018B00061C0C11538E5D30708F470CFDC2FCC2701
:1018C000C06FD06A46CFCE0190568115904208F085
:1018D00065CF8D2F8F710E94100B90E0982F882775
:1018E00088279F719C012C2BE90142C0C55AD0E08A
:1018F000CB57DE4FC881D0E0D0642BCFDF70D06AE9
:1019000028CF2C2F26952695237080E2289F9001C2
:1019100011248C2F8370C1E0D0E002C0CC0FDD1FFA
:101920008A95E2F7C22BD32BDD6813CFDC2FCC27AF
:10193000C16FD06A0ECFC1E0D0E002C0CC0FDD1F76
:101940002A95E2F720E2929FC0011124C82BD92BDF
:10195000DC68FFCEDC2FCC27C46FD06AFACE8C2F88
:101960000E94100BC82FD0E0DC2FCC27CC27DF71D2
:10197000D062EFCE8C2F8F700E94100B34E0D69582
:10198000C7953A95E1F7CF709C2FEC01D069E1CE75
:10199000C2EED0E0DECEC0EED0E0DBCEC6EED0E0D0
:1019A000D8CEC5E3D0E0D5CE0E94910908958091AC
:1019B000DF02882331F01092DF0210928F02109222
:1019C0008E02089580959091DD0298239093DD0218
:1019D000089510926D0210926C0210926B0208959D
:1019E00080916A0290913902981301C008958F5F27
:1019F0008770FACFA82FA77023E0969587952A9530
:101A0000E1F7FC01EE0FFF1FE80FF91FE60FF71FCC
:101A100050E040E080E0219130E00A2E02C036958F
:101A200027950A94E2F721703327042E01C0220F74
:101A30000A94EAF7822B4F5F5F4F4330510559F705
:101A40000895903FC9F09A3080F48630A8F4282F8A
:101A500030E06BE172E0A901E6E09E9F400D511D70
:101A60001124CA010E94FA0C08959C5F923020F460
:101A700068E172E090E0F6CF80E00895262F2770AD
:101A800091E001C0990F2A95EAF723E076956795D2
:101A90002A95E1F7FB01EE0FFF1FE60FF71FE40F9A
:101AA000F51F50E040E0682F70E08191DF01119751
:101AB0009B01042E02C0369527950A94E2F7217007
:101AC00021952827292328272C934F5F5F4F4330E8
:101AD000510559F70895282F862F903F79F09A30B5
:101AE00070F4263058F4622F70E026E0929F600D6B
:101AF000711D11244BE152E00E943E0D08959C5F40
:101B00009230E0F7622F70E048E152E0F5CF982F75
:101B100092959F7011F0892F94E0282F2695269595
:101B200011F09E5F822F869509F09F5F892F08959F
:101B30009C013A9521153F4150F5FC01EE27F170CB
:101B4000BC0166277270AC01442754709C012227A7
:101B5000387094FF0EC080E1EF2B09F480E0672B12
:101B600009F08062452B09F08064232B89F080689E
:101B7000089581E0EF2B09F480E0672B09F0826083
:101B8000452B09F08460232B19F08860089580E0CC
:101B90000895B0E0A0E0EFECFDE00C948A356C0114
:101BA0007B0164E670E088E70E94CA32EC0197FD91
:101BB00012C010E000E0F601E00FF11F849164E62E
:101BC00070E00E943633EC01892B29F40F5F1F4F20
:101BD0000E151F0581F70E94AC33CE01CDB7DEB7DD
:101BE000E8E00C94A63580911E0690911F06911195
:101BF00003C091E089270895882369F062E070E0CE
:101C00008DEB9DE00E94C90D892B19F080911E0675
:101C1000089510921E0680911E06EBCFCF93C091BF
:101C20001E0680911F068823D1F00E949109605AF8
:101C300075418F4F9F4F60931A0670931B068093D8
:101C40001C0690931D06C11108C062E070E08BEB8A
:101C50009DE00E94C90D892B29F0C0911E068C2F92
:101C6000CF91089581E080931E06F7CF80932D06D3
:101C700070932F0660932E0680915E068430F9F4EF
:101C80008093E9008FEF9091E800815095FD06C0A8
:101C900095ED9A95F1F700008111F5CF8091E8005C
:101CA00085FF0DC050E040E063E070E08DE296E01B
:101CB0000E942F088091E8008E778093E8000895B5
:101CC000BC0184E00E94360E0895BC0183E00E94AE
:101CD000360E0895CF93DF93EC0180917C01882329
:101CE000B1F180912B0687FF32C060E284E08093DF
:101CF000E9008FEF9091E800815095FD06C095EDC9
:101D00009A95F1F700008111F5CF8091E80085FFE9
:101D10001BC080917C0170E050E040E0811104C064
:101D200050E040E068E070E0CE010E942F08809112
:101D3000E8008E778093E80080E2FE01A3E3B6E03E
:101D400001900D928A95E1F7DF91CF91089568E0B7
:101D500081E0CDCF81E08093E00080E28093D800E5
:101D60001092C9008FE19EE40197F1F700C00000D6
:101D700087E090EBDC018093600690936106A0936E
:101D80006206B093630688E19CE00FB6F894A895CC
:101D9000809360000FBE90936000FFCF6091770149
:101DA0008091020480FF20C08091760143E0849FEF
:101DB000C0011124855B9C4F539A2BB1277F3BB107
:101DC00038605FB7F894FC01649FE00DF11D1124A9
:101DD000BF0168177907D1F45FBF8FE594E00197E1
:101DE000F1F700C000000895809178019091790189
:101DF00023E0829FF0011124E55BFC4F8917A0F6D8
:101E00001182108212828F5F3396F8CFFC014191CC
:101E1000CF01E8E03BB9000000C047FF2BB9440FF9
:101E2000000000C000C000C02BB900C0EA9591F7C7
:101E3000D0CF9091020490FF0EC090917801209134
:101E4000790133E0939FF0011124E55BFC4F921779
:101E500018F00E94CE0E08958183608342839F5FB5
:101E60003396F5CFA3E0B0E0E8E3FFE00C949035C3
:101E70009091020490FF0DC0403B08F04FEA9E0194
:101E80002F5F3F4F0E94610A4B8169818A810E94C6
:101E9000190F2396E2E00C94AC35CF93DF93EC015D
:101EA000E2E0F4E0438162818C810E94320F8C81F8
:101EB0008F5F8C83DF91CF910895CF93DF93EC01F7
:101EC000EC81F0E0E55CFA4F4491E2E0F4E06281FD
:101ED00081810E94320F8C818F5F8C83DF91CF9143
:101EE0000895E2E0F4E080818E7F80830E94440ABE
:101EF000EFEFF3E08281816082832FEF80E792E051
:101F0000215080409040E1F700C000000E94CE0EBA
:101F10000895B0E0A0E0EFE8FFE00C9488357C0184
:101F20005B016A018091EC0201E010E08A3010F45C
:101F30000AE010E0C1E0D0E0B501C701F601099563
:101F4000811104C021960C171D072CF4CDB7DEB704
:101F5000EAE00C94A435CC9F9001CD9F300D300D5C
:101F6000112490E080E045E34A95F1F700000196E6
:101F700082179307C1F7E0CF80919A02811110C0B8
:101F80008091D80080618093D8008AE18A95F1F72A
:101F900000C08091D90080FF0AC081E080939A023E
:101FA00081E090919A02913009F080E0089582E0FA
:101FB00080939A020E94DF0710925E06F1CF0E9482
:101FC000BC0F811103C0809120060895E091230683
:101FD000F0912406309729F00190F081E02D0995C9
:101FE000089580E008950F931F930E94BC0F8823EB
:101FF00029F00E9491091F910F9108950E94910963
:102000000091ED021091EE022091EF023091F0026A
:10201000600F711F821F931FEECF1F93CF93DF932B
:10202000162F8A3039F481E00E94B010DF91CF91F1
:102030001F9108958D3011F480E0F6CFC0911806FD
:10204000D091190696E0FE01A2E1B6E001900D9252
:102050009A95E1F7803E90F186E0FE0111928A9513
:10206000E9F7C0911806D0911906111133C046E066
:1020700050E0BE0182E196E00E94FA359E012251B5
:102080003440892B91F52A5F3F4F40910F04642F14
:1020900070E0C9010E946C35481B463010F4240FD3
:1020A000311D211572E0370710F030E020E02E5E80
:1020B0003B4F3093190620931806B8CFF6E08F9F58
:1020C000B00111246558774F46E050E0CE010E94E0
:1020D000E435C7CF9E012A5F3F4FFE012E173F0711
:1020E00031F2808180958193F9CFC90145E09695C1
:1020F00087954A95E1F741E050E0BA0102C0660FCA
:10210000771F8A95E2F7CB0160911004709111045A
:10211000862B972BB9016B5F7F4FE5E0769567952E
:10212000EA95E1F702C0440F551F6A95E2F7842B48
:10213000952B9093110480931004A5CF1F93CF93F8
:10214000DF93EC01162FFE018491811104C0DF9111
:10215000CF911F910895612F0E940D102196F3CF0A
:10216000CF93382FE0911806F0911906E251F44010
:1021700020910F04622F70E0CF010E946C35281B64
:10218000822F332369F066E00E94B735C82FC15013
:1021900010F4CF91089560E080E20E940D10F7CF17
:1021A0009F01280F311D2115324018F080E0F0E02A
:1021B000E0E08E0F9F2F911D8E5E9B4F909319062E
:1021C00080931806E6CF60E08EEB91E00E949E10AF
:1021D00060E08DEB91E00E949E1060E082EB91E068
:1021E0000E949E1060E080EB91E00E949E1060E0F3
:1021F0008AEA91E00E949E1080915F060E94870DFE
:10220000813009F1882341F0823009F1833019F1DE
:1022100060E088E891E003C060E083EA91E00E941A
:102220009E1060E086E891E00E949E100E94DF0F01
:1022300081FB662760F98BE791E00E949E1081E0A8
:102240000E94B010089560E08CE991E0E8CF60E072
:1022500085E991E0E4CF60E08EE891E0E0CFCF93B4
:10226000DF93C7E2D2E060E0CE010E942B362196D8
:10227000C11584E0D807B9F7DF91CF9108950F9386
:102280001F93CF93DF93142F022F843020F56230F9
:1022900010F598E0899FE001112484E0689FB00167
:1022A0001124C60FD71FC95FDD4F82E090E04423A1
:1022B00011F090E080E0632F8C0F9D1F0E942B3661
:1022C00083E090E0112311F081E090E0602F8C0F0B
:1022D0009D1F0E942B36DF91CF911F910F91089582
:1022E0001F93CF93DF93122F8430E0F46A30D0F441
:1022F0004630C0F4C42FD0E0CC0FDD1F9CE0699FB6
:10230000C00DD11D112498E7899FC00DD11D112446
:10231000632FCE0187960E942B36612FCE018896BF
:102320000E942B36DF91CF911F910895B0E0A0E07D
:10233000ECE9F1E10C948435A0900904B0900A0412
:1023400081E090E090930A04809309048BE7C82E03
:1023500086E0D82E9BE9E92E96E0F92EC0E04701F1
:1023600010E014C0F301259134914D2F612F8C2F73
:102370000E94701182E0680E711CDF5FD63091F709
:102380008CE0880E911C1F5F1A3019F03401D0E0E8
:10239000E9CF8601D0E0F8012591349141E06D2F1D
:1023A0008C2F0E943F11F80132962591349140E024
:1023B0006D2F8C2F0E943F110C5F1F4FD13099F46D
:1023C00088E0C80ED11CCF5F88E7E80EF11CC4304E
:1023D00009F0C5CFB0920A04A0920904CDB7DEB7C8
:1023E000EEE00C94A035D1E0D6CFCF93C82F6FEF9D
:1023F000811163E483E290E00E942B366FEFC111FC
:1024000069EF84E290E00E942B366FEFC11166EB1A
:1024100085E290E00E942B36CF91089580E00E94E3
:10242000F51160E086E290E00E942B360E94961142
:102430000E942F1181E00E94F5110895CF93C92FBA
:10244000682F84E090E00E942B366C2F82E290E0AF
:102450000E942B36CF910895FF920F931F93CF9335
:10246000DF93F42E843070F5623060F528E0829FAF
:102470008001112434E0639FB0011124060F171F5F
:10248000095F1D4F82E090E0442311F090E080E06E
:10249000800F911F0E941736C82FD0E0DC2FCC2769
:1024A00083E090E0FF2011F081E090E0800F911F29
:1024B0000E9417369E01282BC901CDB7DEB7E5E093
:1024C0000C94A93590E080E0F8CF0F931F93CF9341
:1024D000DF93843030F56A3020F5463010F5C42F94
:1024E000D0E0CC0FDD1F2CE0629FC00DD11D112468
:1024F00038E7839FC00DD11D1124CE0187960E941D
:102500001736082F10E0102F0027CE0188960E9462
:1025100017369801282BC901DF91CF911F910F9198
:10252000089590E080E0F8CF20910D0430910E04E2
:10253000232BC9F4703F39F4603FA9F480910B0458
:1025400090910C040895843070F47A3038F4663039
:1025500050F4462F672F0E94651208957D3F31F495
:1025600041E0623040F090E080E008957C3FD9F790
:102570006230C8F740E00E942C120895CF92DF929B
:10258000FF920F931F93CF93DF936C0100915F062F
:102590008091D402082BC7E0D0E010E0FC2EC801E7
:1025A0000C2E02C0959587950A94E2F780FD0CC029
:1025B0002197A0F7F12C8F2DDF91CF911F910F91D3
:1025C000FF90DF90CF900895B6018C2F0E94941257
:1025D0000E94530B019761F3EECFCF93DF93EC0191
:1025E0000E94BE12BE010E9494120E94530BDF9102
:1025F000CF910895FC0183819481892B29F08081FA
:10260000918189238F3F51F480E00895843FE1F761
:1026100017C0883EA8F0813FB9F712C08081918130
:102620000E94ED1292959F70963099F358F4925F44
:102630009F70923048F7803F19F040F7883E20F7AE
:1026400081E008959A5FF4CF83E290E00E9417360C
:10265000833489F484E290E00E941736893F59F46C
:1026600085E290E00E94173691E0863B09F090E009
:10267000892F8170089580E0FCCFCF9384E090E0B3
:102680000E941736C82F82E290E00E941736982FDA
:102690008C2FCF910895CF92DF92EF92FF926B0132
:1026A0007C010E944B0AB701A60188E090E00E94DD
:1026B0003D36FF90EF90DF90CF900895A3E0B0E01B
:1026C000E4E6F3E10C948C35082FF62E142FE22E5D
:1026D0008091020480FF3DC0E82FE695F0E0E552CE
:1026E000FE4F90819093FF038E7F8230B1F5403B87
:1026F00008F04FEA9E012F5F3F4F6F2D802F0E9401
:10270000610A4B8169818A810E94190F80910304BB
:10271000801308C0809104048F1104C080910504C7
:10272000811729F080910104826080930104009355
:102730000304F092040410930504EE2051F060911C
:1027400002047091030480910404909105040E9496
:102750004B132396E6E00C94A835923019F41091AF
:102760000504D4CF963091F600910304CFCFE2E078
:10277000F4E0438121E1421B08F440E021E0628162
:1027800081810E945E130895E2E0F4E0438121E13B
:10279000420F08F44FEF21E0628181810E945E13B5
:1027A0000895E2E0F4E0628121E1621B08F460E058
:1027B00021E0438181810E945E130895E2E0F4E00C
:1027C000628121E1620F08F46FEF21E04381818192
:1027D0000E945E130895E2E0F4E0818121E04381EC
:1027E000628188500E945E130895E2E0F4E08181E6
:1027F00021E043816281885F0E945E130895809189
:102800000604882319F08150809306046091020425
:102810007091030480910404909105040E944B136D
:10282000089580910604833018F48F5F8093060426
:102830006091020470910304809104049091050456
:102840000E944B130895E2E0F4E083E0808311825C
:102850008FEF828387E583831482AFEFB3E0129614
:102860008C911297836012968C9360817181828122
:1028700093810E944B13089568EE7EEF90E080E014
:102880000E94493660E082E090E00E942B3660E0D2
:1028900083E090E00E942B361092D40260E084E046
:1028A00090E00E942B3664E082E290E00E942B369A
:1028B00060E085E090E00E942B3660E086E090E0EA
:1028C0000E942B366FEF87E090E00E942B3640E0AD
:1028D00050E0BA0188E090E00E943D3660E08DE073
:1028E00090E00E942B3640E050E0BA0188E190E091
:1028F0000E943D3660E087E190E00E942B3640E088
:1029000050E0BA018CE190E00E943D3670E060E05A
:1029100080E290E00E94493640E050E0BA0188E150
:1029200090E00E943D3680E00E94F5110E940E1258
:1029300040E050E0BA018FE090E00E943D3640E078
:1029400050E0BA0183E190E00E943D360895B0E086
:10295000A0E0EDEAF4E10C948B357901C82F880FE3
:10296000DD0B41155105A9F0FE0193E0EE0FFF1FAD
:102970009A95E1F7E050FF4F8181928185569D4FF6
:10298000208130E04217530708F49A01A9010E9400
:102990000736CE010E94F634D82E8823D1F00115D7
:1029A0001105B9F083E0CC0FDD1F8A95E1F7FE0138
:1029B000E050FF4F438150E00417150708F4A801C9
:1029C000C050DF4F6C817D8165567D4FC7010E94ED
:1029D00007368D2DCDB7DEB7E7E00C94A735A3E021
:1029E000B0E0E5EFF4E10C948E358091E002909137
:1029F000E102A091E202B091E3022FB7F894409176
:102A00002706509128066091290670912A062FBF4B
:102A1000481B590B6A0B7B0B81E04436510561055D
:102A2000710508F480E09091DD02998344365105E8
:102A30006105710520F42091AF02291381E0909186
:102A4000DE029A83811106C081E02091B002291331
:102A500001C080E09091DF029B83811105C08091CD
:102A6000B10211E08917C9F010E000E030E020E089
:102A700043E050E0BE016F5F7F4F89E00E94A714E2
:102A8000182F882351F00E9491096093E0027093FF
:102A9000E1028093E2029093E302812F2396E4E027
:102AA0000C94AA35A4E0B0E0E8E5F5E10C948E358D
:102AB0004091CC025091CD026091CE027091CF0234
:102AC0002FB7F8948091270690912806A0912906A7
:102AD000B0912A062FBF841B950BA60BB70B11E0F4
:102AE00084369105A105B10518F10E94F30F6E5FC0
:102AF0007F4F8F4F9F4F69837A838B839C8310E036
:102B000000E030E020E044E050E0BE016F5F7F4F26
:102B100085E00E94A714182F882351F00E94910984
:102B20006093CC027093CD028093CE029093CF023B
:102B3000812F2496E4E00C94AA358F929F92AF9255
:102B4000BF92EF92FF920F931F93CF937B01942F2D
:102B5000B901A801F70180809180A280B380EFB70E
:102B6000F8940091270610912806209129063091AB
:102B70002A06EFBF081919092A093B09043611056D
:102B80002105310518F4C1E0992381F010E000E03F
:102B900030E020E00E94A714C82F882339F00E945B
:102BA0009109F70160837183828393838C2FCF9186
:102BB0001F910F91FF90EF90BF90AF909F908F90DB
:102BC0000895A1E0B0E0E7EEF5E10C948E35809138
:102BD0001E0689832091BA0290E041E02817190669
:102BE00009F440E001E010E09E012F5F3F4F68EEE6
:102BF00072E08BE00E949D152196E4E00C94AA35CA
:102C0000A8E0B0E0E6E0F6E10C948E3585E0E2E085
:102C1000F4E0DE01119601900D928A95E1F7809122
:102C2000FF0390910004A09101048E839F83A887E5
:102C300041E08885811101C040E008E010E09E017C
:102C40002F5F3F4F64EE72E08AE00E949D15811174
:102C5000109201042896E4E00C94AA35A1E0B0E0BB
:102C6000E4E3F6E10C948E350E94DF0F898341E0A6
:102C70009091AE02981301C040E001E010E09E0187
:102C80002F5F3F4F69ED72E088E00E949D1521960D
:102C9000E4E00C94AA350F931F9341E09091AC02AD
:102CA00080915F06981301C040E001E010E02FE53D
:102CB00036E065ED72E086E00E949D15882389F07C
:102CC00041E09091AD028091D402981301C040E0A0
:102CD00001E010E024ED32E060ED72E087E00E9458
:102CE0009D151F910F9108950F931F93CF93DF931D
:102CF000EC0145E050E061EA72E00E94FA3541E003
:102D0000892B09F440E005E010E09E0164EC72E0DC
:102D100082E00E949D15DF91CF911F910F91089540
:102D2000A1E0B0E0E6E9F6E10C948535762E4A01A3
:102D30005901680101E010E09E012F5F3F4F50E014
:102D400040E070E060E00E94A714182F882309F487
:102D500040C0F40140815181628173812FB7F894A2
:102D60008091270690912806A0912906B0912A0605
:102D70002FBF841B950BA60BB70B84369105A105BD
:102D8000B10538F4B701C6010E94280A9981891754
:102D900001F18701950150E040E070E060E0872D8F
:102DA0000E94A714B82EB701C6010E94280A11E09C
:102DB0009981981310E01B2139F00E949109F401C8
:102DC0006083718382839383812F2196EDE00C943D
:102DD000A135A701B601C5010E940736F5CFA5E0D0
:102DE000B0E0E5EFF6E10C948A356B0185E0E82E62
:102DF000F12C0CE912E09E012F5F3F4F40EC52E0B6
:102E000061E080E00E949016882349F095E0FE0181
:102E10003196ABEBB2E001900D929A95E1F795E017
:102E2000EBEBF2E0D60101900D929A95E1F7259631
:102E3000E8E00C94A63590E080E00E942536883EBC
:102E40009E4F19F40E942413089580E008951F9264
:102E50000F920FB60F9211242F933F934F935F93CE
:102E60006F937F938F939F93AF93BF93EF93FF9352
:102E70008091E10082FF09C08091E20082FF05C0DD
:102E80008091E1008B7F8093E1008091DA0080FFE8
:102E900024C08091D80080FF20C08091DA008E7F0E
:102EA0008093DA008091D90080FFA9C080E189BDBC
:102EB00082E189BD09B400FEFDCF81E080935E060A
:102EC00080913006811109C00E94DF070E94D2085C
:102ED0008091E20084608093E2008091E10080FFB5
:102EE0001CC08091E20080FF18C08091E2008E7FBC
:102EF0008093E2008091E20080618093E200809103
:102F0000D80080628093D80019BC85E080935E066B
:102F100080916F00826080936F008091E10084FF58
:102F200032C08091E20084FF2EC080E189BD82E141
:102F300089BD89B5982F917080FFFBCF8091D80013
:102F40008F7D8093D8008091E1008F7E8093E10097
:102F50008091E2008F7E8093E2008091E2008160A8
:102F60008093E20080915506882309F44EC084E0E6
:102F700080935E0680915E0680916F008D7F8093C6
:102F80006F000E94DF0F8091E10083FF27C08091D6
:102F9000E20083FF23C08091E100877F8093E100FE
:102FA00082E080935E06109255068091E1008E7F4C
:102FB0008093E1008091E2008E7F8093E200809117
:102FC000E20080618093E20042E060E080E00E94E5
:102FD000A0088091F00088608093F000FF91EF914D
:102FE000BF91AF919F918F917F916F915F914F9121
:102FF0003F912F910F900FBE0F901F90189519BC05
:1030000010925E061092300668CF8091E30087FD33
:1030100093E090935E06AECF78941F921FB61F92F6
:1030200011248F939F93AF93BF9380912706909124
:103030002806A0912906B0912A060196A11DB11D6E
:103040008093270690932806A0932906B0932A061A
:10305000BF91AF919F918F911F901FBE1F901895A8
:103060009C014FB7F8948091270690912806A09173
:103070002906B0912A064FBF821B930B08952FB7E4
:10308000F8948091270690912806A0912906B09186
:103090002A062FBF08950E94BC0F882319F00E94B2
:1030A0003F1808950E94F30FCB0108956091020428
:1030B000669570E041E050E08BE791E00E94ED35CD
:1030C000892B19F481E0809300040E944B1890939F
:1030D000FA038093F90380910104846080930104D2
:1030E00008959091020490FF31C0917081112FC01A
:1030F00092609093020480910104816080930104A6
:10310000662351F0609102047091030480910404DD
:10311000909105040E944B1360910204669570E043
:1031200041E050E08BE791E00E94ED35892BB1F052
:103130000E94440A81E08093FC0320E04091050452
:1031400060910404809103040E945E130895893005
:1031500010F09061CECF880F982BCBCF0E945618DD
:10316000E9CF809102048695815009F488E061E0FE
:103170000E94711808958091020486958F5F8930AE
:1031800008F081E061E00E947118089590910204B6
:1031900090FF08C09695981728F0961718F40E948B
:1031A000BB18089561E00E9471180895CF93C82F4D
:1031B00080912C0682FF0CC08091DF028C1741F0B9
:1031C0000E943F1890938F0280938E02C093DF027B
:1031D000CF910895AFE0B0E0E0EFF8E10C948535D1
:1031E0008E010F5F1F4F8AE0D8011D928A95E9F783
:1031F00088EBC82E81E0D82EF12CE12CAA24A394D0
:10320000B12C23EC822E21E0922EF60181916F01E8
:103210008F3F09F442C0F894E82FE295EF70F0E098
:1032200021A18F70A50102C0440F551F8A95E2F7B6
:10323000CA01922F982B91A392A18095892382A3F2
:10324000789400C0EDEBF1E0712C31E021912F3F3B
:1032500009F46BC0A22FA295AF70B0E090968C914C
:1032600090E02F7002C0959587952A95E2F780FD32
:103270005CC0832F782A330F8E169F0639F7F6012C
:10328000319780818F3F11F00E94F90A50EA5A95D8
:10329000F1F7F801EE0DFF1D70828FEFE81AF80AC2
:1032A00095E0E916F10409F0B0CF4AE050E0B8012A
:1032B00081EF92E00E94FA35009741F02AE0F80190
:1032C000A1EFB2E001900D922A95E1F70091FC0286
:1032D000892B69F181E0809392020E943F189093BC
:1032E00091028093900280919002909191020E94AD
:1032F0003018059700F110E00F5B1C4F45E050E0DF
:1033000061EF72E0C8010E94FA35D12C892B51F08F
:1033100085E0E1EFF2E0D80101900D928A95E1F7A6
:10332000DD24D3941092920207C080E0A3CF809155
:1033300092028111D8CFD12C0E94BC0FC82EE091EF
:10334000FC02DE011B967D01882309F4A8C085E0FC
:103350001D928A95E9F70E2F10E00F5B1C4F8091AC
:10336000EC028A3008F068C04FEE56E1B701C801A0
:103370000E94890F882309F481C044E756E1B70110
:10338000C8010E94890F882309F478C042EC51E2F9
:10339000B701C8010E94890F882309F46FC042E574
:1033A00055E1B701C8010E94890F882309F466C05E
:1033B0004BE456E1B701C8010E94890F882309F444
:1033C0005DC04EE256E1B701C8010E94890F882313
:1033D00009F454C04FEE54E1B701C8010E94890FAF
:1033E000882309F44BC040E056E1B701C8010E94B0
:1033F000890F882309F442C041EE55E1B701C801A5
:103400000E94890F8823D1F11092EC028091FB0277
:1034100090E045E050E0B7018F5B9C4F0E94FA3589
:1034200021E020939902892BE1F4C12C8C2D8D2968
:103430002F96EDE00C94A135809193029091940227
:103440000E943018843F914008F08ECF80919902FD
:10345000882359F385E0F70111928A95E9F71092D4
:103460009902A091FB02B0E0AF5BBC4F85E0FE018A
:103470003B9601900D928A95E1F7D8CF8091EC02AE
:103480008F3F31F08F5F8093EC028A3008F4BECF1B
:103490000E943F189093940280939302D7CF00919B
:1034A000FB0210E00F5B1C4FF0E0EF5BFC4F85E090
:1034B000ACE9B2E001900D928A95E1F765E070E029
:1034C0008CE992E00E94280A80939B0285E0E1EA61
:1034D000F2E0D80101900D928A95E1F74091150331
:1034E00050E06091140370E0605F7C4FC7010E9460
:1034F00007368B858093A70261E070E0C7010E94C8
:10350000280A8093A6028090A8029090A902A09019
:10351000AA02B090AB028091950290919602A09180
:103520009702B091980288169906AA06BB06D1F0B8
:103530008092950290929602A0929702B092980281
:103540000E94BC0F81110EC00E949109861A970A31
:10355000A80AB90A8092ED029092EE02A092EF02C0
:10356000B092F0028091AC0280935F068091AD0230
:103570008093D4028091AE02809320068091AF02A6
:103580008093DD028091B0028093DE028091B102CF
:103590000E94D6188091B902882379F180FF0DC06E
:1035A0008091B20280FF30C09091020491609093AC
:1035B000020460E086950E9471188091B90281FF33
:1035C00009C020E04091B5026091B4028091B3023D
:1035D0000E945E138091B90282FF06C08091B802FA
:1035E0008823A9F00E9456188091B90283FF03C076
:1035F00081E08093FC031092B9028091BA02882383
:1036000049F00E940E0E12CF0E94710FD6CF0E9479
:10361000440AEACF0E94F30D09CF8091DD02909118
:10362000DE02892B8093F6018091DF02882329F145
:103630000E943F1820918E0230918F02821B930BC3
:103640008838934110F00E94D70C8091F601909138
:10365000DF02892B8093F60180917C018823E1F1C0
:1036600080912B0687FF38C08EE1E8EFF1E090E013
:103670008150A0F591110E94D70C40E250E06EE617
:1036800072E086EF91E00E94FA35892B21F180E209
:10369000E6EFF1E0AEE6B2E001900D928A95E1F737
:1036A000E0912306F09124063097A9F080917C01E7
:1036B000882359F080912B0687FF07C08091F6017F
:1036C0008093F70186E08093F6010280F381E02D7C
:1036D00086EF91E00995089586E0C7CF21912223D6
:1036E00039F29F5FC5CF90E080E00E94120A90E01F
:1036F00080E00E94FC091092DE020E940D1B0895DA
:10370000982F9670963031F4886080935F060E94FF
:10371000731B0895877FF9CF80915F06982F96706D
:10372000963021F488600E94801B0895877FFBCF2C
:1037300021E030E001C0220F8A95EAF720958091C0
:103740005F0682230E94801B089590916D028095F0
:10375000892380936D02282F277091F4282F082E3B
:10376000000C330B9217130659F090912C0692FF20
:1037700007C08595859585950E94981B0E94E90C48
:10378000089590912C0692FB222720F9281769F0C2
:1037900080FB92F990932C0680912B0690912C0639
:1037A0000E941E1282E00E94A51B089521E030E0D5
:1037B00001C0220F8A95EAF780915F06822B0E9452
:1037C000801B08958093D4020E94731B0895109269
:1037D000DD0280917C01E8EFF1E0882361F08091C7
:1037E0002B0687FF08C08EE1DF011D928A95E9F75D
:1037F0000E94731B089586E0F7CFAAE2B0E0E3E0F1
:10380000FCE10C948F3586E596E02091F100DC0117
:103810002D93CD01B6E08E359B07B9F78091570601
:10382000833009F472C0B8F4813009F449C08230A1
:1038300009F4B3C08091E80083FF96C280915606D8
:10384000909157069A3008F08FC2E92FF0E0EF59B7
:10385000F94C0C94D7358A3009F48EC08B3009F4BA
:1038600071C0893039F780915606813219F78091FD
:103870005A0690915B06009711F00297D9F6809155
:10388000E800877F8093E8008091E80082FF38C0DD
:103890009091F3008091F200029731F48091F10051
:1038A000813011F0863021F48091F100809332064E
:1038B0008091E8008B778093E8000E948108BACF5E
:1038C00080915606813A09F0B5CF8091E800877F54
:1038D0008093E80080915A0690915B06892B61F4F1
:1038E00060E283E396E070E00E942D098091E80099
:1038F0008B778093E8009ECF60E090E080E0F3CF8C
:1039000080915E068111C0CF95CF80915606813A95
:1039100009F090CF80915A0690915B06892B09F0AF
:1039200089CF8091E800877F8093E8008091E8004C
:1039300080FFFCCF80917C018093F1008091E800B2
:103940008E77B9CF80915606813209F073CF80917E
:103950005A0690915B06892B09F06CCF8091E800A4
:10396000877F8093E8000E948108809158068093A9
:103970007C010E94E71B5ECF80915606813209F0E0
:1039800059CF8091E800877F8093E8000E948108EA
:1039900080915906809331064DCF80915606813A29
:1039A00009F048CF8091E800877F8093E8008091FC
:1039B000E80080FFFCCF80913106BECF803899F0BF
:1039C000823809F0D1C180915A068F70873008F093
:1039D000CBC18093E9008091EB0085FB882780F9BB
:1039E0001092E90006C080915306909154069111FF
:1039F00082609091E800977F9093E8008093F100B7
:103A00001092F1008091E8008E77AAC1882309F412
:103A100098C1823009F0A8C18091580681119BC1DC
:103A200080915A068F702FEF280F263008F09CC126
:103A30008093E9002091EB0020FF8DC1933031F499
:103A40008091EB0080628093EB0085C19091EB0048
:103A500090619093EB0021E030E001C0220F8A9545
:103A6000EAF72093EA001092EA008091EB00886068
:103A7000EACF811179C1109158061F778091E30038
:103A80008078812B8093E3008091E800877F80938A
:103A9000E8000E9481088091E80080FFFCCF8091BF
:103AA000E30080688093E30082E0111183E080935B
:103AB0005E065AC18058823008F056C120915806DF
:103AC000309159062C3DE3E03E07A1F583E08A835F
:103AD0008AE289834FB7F894DE01139620E03EE036
:103AE00051E2E32FF0E050935700E49120FF03C030
:103AF000E295EF703F5FEF708E2F90E0EA30C0F0FC
:103B0000C7968D939D932F5F243159F74FBF8091B6
:103B1000E800877F8093E8006AE270E0CE010196BA
:103B20000E942D098091E8008B778093E8001CC1EA
:103B3000C096E7CF80915A0690915B06432F552798
:103B40004330510509F44AC078F54130510509F474
:103B500085C08BE590E0EFE6FEE04230510509F0CC
:103B600003C12091E800277F2093E80020915C06A4
:103B700030915D068217930708F49C0140E02115FF
:103B8000310509F070C041116EC08091E80082FDDE
:103B9000C9CF80915E06882329F2853019F2809181
:103BA000E80083FFF2CFBECF4132510509F447C090
:103BB0004232510509F0D8C08330910508F0D4C0D5
:103BC000FC01EE0FFF1FE951FE4F0190F081E02D47
:103BD0008C519E4FDC018C9190E01DC03327213029
:103BE0003105E9F02115310579F022303105F9F080
:103BF0002330310509F0B8C0ECEDFEE0E4918E2FE2
:103C000090E0ECEDFEE007C0E6E4FFE0E4918E2FEB
:103C100090E0E6E4FFE0009709F4A6C0A2CFE8E157
:103C2000FFE0E4918E2F90E0E8E1FFE0F4CFEAEFCF
:103C3000FEE0E4918E2F90E0EAEFFEE0ECCF8330DF
:103C4000910508F091C0880F991FFC01E351FE4FC8
:103C50000190F081E02D89E090E083CF82E190E057
:103C6000EAECFEE07ECF80915E06882309F45ACF0D
:103C7000853009F457CF8091E80083FD53CF8091C0
:103C8000E80082FD82CF8091E80080FF78CF90919C
:103C9000F3008091F2002115310519F0883091056B
:103CA00050F041E0089709F040E08091E8008E77FD
:103CB0008093E80064CF44914093F1003196215005
:103CC00031090196E8CF803809F04EC08091E800B4
:103CD000877F8093E800809155068093F10092CE13
:103CE000811142C0109158061230F0F58091E80021
:103CF000877F8093E800109355060E948108112366
:103D000011F084E005C08091E30087FDFACF81E0E7
:103D100080935E0642E061EC81E00E94A00842E2EE
:103D200061EC84E00E94A00842E261EC82E00E9423
:103D3000A00842E260EC83E00E94A00880915E0649
:103D400013C080915806813079F481E0933009F0F6
:103D500080E0809354061092E9008091E800877F0C
:103D60008093E8000E9481088091E80083FF0AC0E8
:103D70008091E800877F8093E8008091EB0080626B
:103D80008093EB00AA96E3E00C94AB351F920F9260
:103D90000FB60F9211242F933F934F935F936F931E
:103DA0007F938F939F93AF93BF93CF93DF93EF93C3
:103DB000FF93D091E900DF708091EC00C82FC170B3
:103DC00080FDC0E81092E9008091F000877F809329
:103DD000F00078940E94FD1B1092E9008091F000A1
:103DE00088608093F000CD2BCF70C093E900FF91E5
:103DF000EF91DF91CF91BF91AF919F918F917F9183
:103E00006F915F914F913F912F910F900FBE0F9047
:103E10001F9018950E94E71B2FEF84E39CE0215030
:103E200080409040E1F700C0000088E19CE00FB6C0
:103E3000F894A895809360000FBE90936000FFCF28
:103E4000882341F080959091DE0289238093DE02E1
:103E50000E940D1B0895882339F09091DE02982B63
:103E60009093DE020E940D1B0895882321F00E948A
:103E7000E20C0E940D1B0895882339F09091DD0219
:103E8000982B9093DD020E940D1B0895882351F119
:103E90009CEF980F913A40F4682F86EF91E00E94D2
:103EA0009D090E940D1B089590E2980F983050F4E0
:103EB000877091E001C0990F8A95EAF7892F0E94D7
:103EC000E20CEFCF9BE5980F933028F490E080E070
:103ED0000E94120A0895885A873120F490E080E009
:103EE0000E94FC090895CF93C82F8823D9F18CEF45
:103EF0008C0F813AC8F580917C01882311F1809163
:103F00002B0687FF1EC0EC2FE695E695E695F0E0C0
:103F1000EA50FE4F828190E04C2F477021E030E064
:103F200002C0220F331F4A95E2F782239323892B85
:103F300091F06C2F86EF91E00E949D090E940D1B6D
:103F40000AC0E8EFF1E08EEF91E02191C21789F30A
:103F50008E179F07D1F76C2F86EF91E00E94C7095B
:103F60000E940D1BCF91089580E28C0F883068F479
:103F7000C77021E030E001C0220FCA95EAF78091B6
:103F8000DD02822B8093DD02EBCFEBE5EC0FE3301B
:103F900040F4F0E0EB57FE4F808190E00E94120A5F
:103FA000E1CFC85AC731F0F6EC2FF0E0EE0FFF1F5B
:103FB000E857FE4F808191810E94FC09D3CF1F9367
:103FC000CF93DF93182FEB010E94731F8FE99FE0BF
:103FD0000197F1F700C000002197C1F7812F0E94DF
:103FE000461FDF91CF911F910895B0E0A0E0EBEF65
:103FF000FFE10C948735EC01A62E8AE0982E2881EB
:10400000222309F4B3C0213009F051C089818130E5
:10401000C1F48E010E5F1F4F8A816AE070E0893320
:1040200011F460E570E00E94DF1FE80121968A2DFF
:10403000815028F3EFE9FFE03197F1F700C000006D
:10404000F7CF823039F48E010E5F1F4F8A810E94B4
:10405000731FEBCF833039F48E010E5F1F4F8A81BF
:104060000E94461FE2CF843011F02196DFCF2A81D3
:10407000229690E080E0AE014F5F5F4F2053330BFC
:104080002A30310548F0019788F2EFE9FFE03197D7
:10409000F1F700C00000F7CF989EB001999E700D17
:1040A0001124C901860F971F2981EA01E4CFE22F6D
:1040B000F0E0E151F24FB490822F86958695869577
:1040C00090E0FC01E152F24FE4902770F12C022EB7
:1040D00002C0F594E7940A94E2F731E0E322FF246A
:1040E000FC01E153F24FC490D12C022E02C0D594B2
:1040F000C7940A94E2F7E1E0CE22DD24FC01E1540A
:10410000F24F049110E002C0159507952A95E2F749
:1041100001701127E114F10419F081EE0E94731F60
:10412000C114D10419F086EE0E94731FF9E36AE00E
:1041300070E0BF1202C060E570E08B2D0E94DF1FAF
:10414000C114D10419F086EE0E94461FE114F10457
:1041500019F081EE0E94461F0115110509F466CF82
:104160006AE070E08CE20E94DF1F60CFCDB7DEB75F
:10417000EBE00C94A33590912C0692FF10C098E0D0
:10418000899F90011124622B60936D020E94D61BBF
:104190000E943F1890936C0280936B0208950E94D6
:1041A000D61B0895A7E1B0E0E8EDF0E20C948F355E
:1041B0004B8B5C8B6D8B7E8B8F8B61111092DE0233
:1041C0001A8A198A85E0FE017396DE011D96019018
:1041D0000D928A95E1F780912C0682FF1CC00E9407
:1041E0003F1820916B0230916C02821B930B883830
:1041F000934120F080916D0282FF79C00E943F18A8
:1042000020918E0230918F02821B930B883893414C
:1042100010F00E94D70C86E0FE013D96DE01179655
:1042200001900D928A95E1F7CE0107960E94D5285C
:10423000882359F016E080916A029091390289131F
:1042400043C06796E3E00C94AB3586E0FE013796F9
:10425000DE01119601900D928A95E1F78A859B8582
:10426000892B41F38F81988589238F3F19F3209102
:10427000390230E0C90101968770992740916A029E
:104280004817190671F40E94E71B10923902109228
:104290006A0286E0E3E3F2E0DF011D928A95E9F726
:1042A000C9CF96E0929FD001939FB00D1124A65CD8
:1042B000BD4FFE01319601900D929A95E1F78093E2
:1042C00039020E94F00CB6CF819FC0011124865C98
:1042D0009D4F0E94D528882309F4B3CF80916A02AC
:1042E00090E001968770992780936A02A4CF82E0BC
:1042F0000E94A51B83CFAAE0B0E0E1E8F1E20C94B4
:104300008E35182F062F662399F10E943F181E83C1
:104310002DEF2F8321E0288781609A8789874E813E
:104320005F81688579858A850E94D2208FE39FE12D
:104330000197F1F700C000000023F9F00E943F1838
:1043400019832DEF2A831B8281609D838C83498191
:104350005A816B817C818D810E94D2208FE39FE105
:104360000197F1F700C000002A96E4E00C94AA350A
:104370000E943F181E832CEFCCCF0E943F18198358
:104380002CEFE0CFA1E0B0E0E8ECF1E20C9489354D
:10439000EE24E394F12C07EA12E09E012F5F3F4FD9
:1043A00048EC52E064E083E00E949016C82E882317
:1043B00039F100E080E01DC0D090FF02D00E2D2D1D
:1043C00030E0A901405F5C4F7A01E1E0F0E0EC0FE2
:1043D000FD1FE00FF11D1081FA019081191BB12E14
:1043E0001B149CF0912F17FD90E0191B111118C0A0
:1043F0000F5F9091FE020917F8F281110E94D40C10
:104400008C2D2196E9E00C94A535BA94F7018081B2
:104410008F5F808360E08D2D0E947B218C2DE0CF0B
:104420001F5FF70180818150808361E08D2D0E94A4
:104430007B218C2DDBCFA5E0B0E0E1E2F2E20C9431
:104440008E358C0190930C0480930B04011580E24F
:104450001807C0F4802F0E94461FC8010E94980DC3
:104460009801205E31092830310518F00115110539
:1044700031F40E94351F2596E4E00C94AA350E9481
:10448000201FF9CF80EF89838A831B820E943F1807
:104490008160782F9D838C8349815A816B818D81C6
:1044A0000E94D220E8CFA5E0B0E0E9E5F2E20C946A
:1044B0008E358C0190930C0480930B04011580E2DF
:1044C0001807C0F4C8010E94980D9801205E3109B8
:1044D0002830310518F00115110549F40E943C1FE0
:1044E000802F0E94731F2596E4E00C94AA350E9449
:1044F0002B1FF6CF80EF89838A8381E08B830E9414
:104500003F188160782F9D838C8349815A816B810C
:104510008D810E94D220E7CFA5E0B0E0E2E9F2E28F
:104520000C9486355C01FC0183819481892B31F0E8
:104530008081918189238F3F09F0D1C52596ECE0D8
:104540000C94A2350E94BE12182F682F89819A817F
:104550000E946B0D69817A81812F0E9494128C01D7
:10456000F5018281882309F4A1C5C80182519F45C4
:10457000409708F04FC58FEF93E00E9417368111E6
:10458000ADC0025157E2C52E52E0D52E011134C004
:1045900019821A821B821C82EE24EA9446013FEFA4
:1045A000831A930AC6010E94173689831A828823C8
:1045B00009F494C0813009F085C086010E5F1F4F59
:1045C000C4010E941736F82E8A83882309F486C016
:1045D000C8010E941736982E8FEF8F0D8330D8F4C4
:1045E0000F5F1F4F9B82992029F060E0CE0101965A
:1045F0000E94F51F6801D2CFC114F4E0DF0609F470
:104600006DC0C6010E941736811101C001502FEF05
:10461000C21AD20ABBCF8BEF8F0D833070F5C60163
:1046200003969B828C01992029F386010C5F1F4F12
:104630000E9417368C838823E9F2CB80DC8041E02E
:10464000C4164FEFD40610F0DC2CCC2456E0F5163F
:1046500081F087E0F81649F0C6010E945322EFE38B
:10466000FCE93197F1F700C00000C6010E941B224F
:10467000C1CFC6010E945322BDCFF4E0FF12BACFD2
:1046800086010C5F1F4FC60103960E9417369920C2
:1046900029F1882319F18150990BE89E9001E99E38
:1046A000300D1124492D4150550BCA01820F931F23
:1046B000019708F49FCFEFE9FFE03197F1F700C0D1
:1046C0000000F6CF6AE0CE0101960E94F51F84013A
:1046D00091CF81E00E94D61B0E948C1B80916D02BD
:1046E000877009F42BCFF5018281882309F426CF46
:1046F00080912C0682FF22CF82E00E94A51B1ECF54
:1047000081E00E94981BE8CF82E0E4CF82E0F9CFFD
:10471000053A4DE5140709F496C4E0F401368DE539
:10472000180709F490C406319CE5190709F02EC258
:104730008091DD028A7A91E009F490E0909316026C
:1047400069E2811165E386EF91E00E94C7090E944A
:104750000D1BC4CFC8018D5A9D45039720F773C424
:1047600080912B0680620730ECE51E07B9F180913D
:104770002B0680610830FCE51F0780F180912B0635
:1047800080642CC00D302CE5120709F4C0C090F4F1
:1047900080912B068E7F0B304CE51407F9F0809149
:1047A0002B068C600C305CE51507C0F080912B0661
:1047B0008D7F14C00F308CE5180709F4B8C008F4D9
:1047C000AAC00031ECE51E0709F4B5C080912B06A4
:1047D0008F7B0131FCE51F0709F05FC480932B0636
:1047E0005CC40F3F2CE5120709F4B3C0A8F50A3FDB
:1047F0004CE5140709F479C0C0F404318CE51807BE
:1048000009F4B5C008F4A1C00531ECE51E0709F0B4
:1048100044C480912B0682FB992790F921E09227CE
:1048200090FB82F990FB83F9D9CF0C3FFCE51F0781
:1048300009F475C008F45DC00D3F3CE5130709F4A9
:1048400072C080912C0683600E3F4CE5140709F07E
:1048500024C480932C0621C401365DE5150709F4B4
:1048600091C090F401309DE5190709F489C008F45E
:1048700074C060E00230FDE51F0709F00EC48EE051
:1048800090E00E942B3609C40D3A2DE51207E9F09D
:1048900060F490912B06892F8E7F90FF8160053AFE
:1048A0004DE5140709F49ACFF8C30E3A5DE51507F4
:1048B00051F10F3A8DE5180709F0EFC390912C06DE
:1048C000892F877F93FF8860C4CF80912C068860F2
:1048D000C0CF80912B06826081CF80912B068460AF
:1048E0007DCF80912B06886079CF80912C068160E6
:1048F000B0CF80912C068260ACCF0E94E71B8091E4
:104900002B0680686BCF80912C06877FA2CF809189
:104910002B068B7F63CF80912B06877F5FCF8091A3
:104920002C068E7F96CF80912C068D7F92CF809122
:104930002B068F7E53CF80912B068F7D4FCF0E9409
:10494000E71B80912B068F7749CF80912B06837FC1
:1049500045CF80912C068C7F7CCF80912C06982FA0
:10496000909591708E7F892B90FB81F972CF0E9478
:10497000E71B90912B06892F97FB87F980582ECF44
:1049800061E07DCF90912B06892F8F7E94FF80610F
:1049900025CF8091DD0282720A3CECE51E0709F406
:1049A000E8C008F073C0053C2CE5120709F4CDC03F
:1049B00008F054C0033C4CE5140709F4BCC008F0EF
:1049C000BFC0023C8CE5180709F489C0F50182815B
:1049D00000811181882309F40FC1C8010E94BE1211
:1049E000F82E682FC8010E946B0DB8018F2D0E9410
:1049F00094120E94530B8C01882EF501E280D58021
:104A0000D2943FE0D32280916D028770C1F0CE2C0A
:104A1000EE20B1F0812F807F803421F080E2800F82
:104A2000883068F080912C0682FF09C082E00E94E5
:104A3000A51B80916D028770CC24C3948111C12C79
:104A4000912E92942FE09222FBE0F91508F440C1D8
:104A5000E92DF0E0E559F94C0C94D735073C9CE57D
:104A6000190709F47CC008F475C0083CFCE51F0771
:104A700009F47AC047EB53E164EC73E1093C2CE59F
:104A8000120709F0A3CF0E943E0A28CE0E3C3CE557
:104A9000130709F478C080F40C3C5CE5150709F4B1
:104AA0006DC04FEF53E161E174E10D3C9CE51907E6
:104AB00050F361E081E03CC0063DECE51E0750F498
:104AC00068E086E0003DFCE51F0708F007CE0E9485
:104AD000C61804CE0D35100709F400CE77CF8091AB
:104AE000020480FF20C08E7F809302046091020444
:104AF0007091030480910404909105040E944B136B
:104B00000E94440A809101048160809301043FEF78
:104B100040E752E0315040405040E1F700C0000013
:104B20000E94CE0EDBCD81608093020461E0869509
:104B30000E947118D3CD41EB58E16BEB78E1A3CF24
:104B40004BEB58E161EB78E19ECF4BEE53E165EF23
:104B500073E199CF45EF53E16BEE73E194CF41EDF3
:104B600053E16EED73E18FCF4EED53E161ED73E1F3
:104B70008ACF44EC53E167EB73E185CF41E154E127
:104B80006FEF73E180CF65E082E0A1CF0A358DE55C
:104B9000180771F158F40115ECE51E0791F00E3D70
:104BA0001C4509F013CF0E943C1409C00C352DE5BB
:104BB0001207A1F0F8F0073A1D4509F007CF0E944F
:104BC0000A1F0E94E71B5FEF84E39CE05150804086
:104BD0009040E1F700C000000E94AA0E80912C06D0
:104BE00082FB882780F991E089270E94C11BEECEC5
:104BF00081E0FBCF80E0F9CFC8010E94210DF82EA3
:104C0000F4CE212F2F70F22E107F19F0F29490EF36
:104C1000F922EE20B9F0FF2069F080E2800F8830A1
:104C200010F0811009C08091DD02F82AF092DD02B7
:104C30000E940D1B802F4AC08091DE02F82AF0925C
:104C4000DE02F6CF802F0E94461FFF2009F440C0ED
:104C5000005E083010F0811004C08F2D0E94E20C1D
:104C600006C0F0948091DE02F822F092DE020E94EB
:104C70000D1B2EC0312F3F70F32E107F103219F014
:104C8000F29480EFF822882089F041E0841609F43C
:104C900086C0EE2009F48FC0DD2009F45CC0F50168
:104CA000858180FFC7CF8F70858355C080912C068A
:104CB00082FD34C0EE2061F1FF2039F08091DD02E9
:104CC000F82AF092DD020E940D1B80E00E94731F03
:104CD000E92DE850FF0B349710F40E94DF0FCC2031
:104CE00009F42CCC80916D0280FD28CCF501128254
:104CF0008595859585950E94D61BC5010E948C22BD
:104D000080916D028595859585950E94981B16CC9E
:104D100080E00E94461FFF20D9F29FCFEE20F9F0DD
:104D2000D11004C08091DF028F2916C051E0D51246
:104D300006C08091DF028F290E94D618C9CF85E076
:104D4000D812F0CF0E94D70C909117028F2D892B8B
:104D50008913809317028F2D0E943C1FB9CFD11069
:104D600003C00E94D70C12C091E0D91213C08091E9
:104D7000DD028F2109F4ACCF0E94D70C909117026D
:104D80008F2D809589238913809317028F2D0E9480
:104D9000351F9ECFE5E0DE1609F49ACFE2CFEE2074
:104DA00029F0F2E0FD1508F493CFD5CF21E02D15C1
:104DB00008F48ECFEBCFDD2049F3F9E38F1222C147
:104DC0002FEF37EE43E0215030404040E1F700C084
:104DD0000000802F0E94461F7BCF812F86958695ED
:104DE000837061F0813009F073CFC8019370E110D6
:104DF00002C090E080E00E94FC096ACFC801937075
:104E0000E11002C090E080E00E94120A61CF812F81
:104E1000837089F5E1105CCF402F4295469547702D
:104E2000440F440F802F8F70042E01C0880F0A9406
:104E3000EAF7202F207104FF07C02FE030E001C007
:104E4000220F4A95EAF720951695169513701230A1
:104E500069F050F43091D402113029F0822B832371
:104E60000E94E21B35CF832B822BFACF282B809117
:104E7000D4028227F5CF8695EE2011F0812F817024
:104E8000882309F425CF402F429546954770440F5B
:104E9000440F802F8F70042E01C0880F0A94EAF708
:104EA000202F207104FF07C02FE030E001C0220F47
:104EB0004A95EAF72095169516951370123069F009
:104EC00050F430915F06113029F0822B83230E9429
:104ED000801BFECE832B822BFACF282B80915F067E
:104EE0008227F5CF1F70EE2029F0812F0E94D61B5C
:104EF000802F32CF802F0E94351F812F0E94981B58
:104F0000E7CE802F92EF8916B1F1981570F0E0EF9F
:104F10008E16D1F0F1EF8F1691F0EE2009F466C0F5
:104F2000D11088CE812F8F712AC023EF821651F1C4
:104F300034EF8312F2CF80912C0682FD2FC0812F97
:104F40008F71EE20D9F21BC0EE2081F041E04D15AB
:104F500008F4BECE1F7181E090E0012E01C0880FE1
:104F60000A94EAF790915F068927B1CF52E05D1568
:104F700008F4AECEEFCF812F8F71E110BFCF0E942A
:104F8000D61BA6CE80E0EE2009F4A1CF1F7181E0F0
:104F9000012E01C0880F0A94EAF799CFEE20C9F0DC
:104FA00080916D028770843041F40E94E90C812F5A
:104FB0008F710E94981BC12C8BCE84E08D15D8F385
:104FC0001F71812F0E94D61B63E0812F0E94BB209E
:104FD000F2CF94E09D1530F40E94E90C64E0812F3B
:104FE0008F71F4CF81E00E94A51BE5CFDD2079F021
:104FF000893341F4EFEFF7EE23E0E150F040204039
:10500000E1F7E5CE8FE39CE90197F1F7E0CE812F40
:105010008F7174CF0031FFE51F0709F45ACB0131BE
:105020002FE5120709F470CB03302DE5120708F0C5
:105030006FCB0A3F3CE5130730F4C80182509C4512
:10504000449708F070CB0E943D1390932C068093F8
:105050002B0602319CE5190709F471CC08F0C1CB8D
:105060000930FCE51F0709F448CC08F08BCB05306C
:105070003CE5130709F435CC08F072CB03305CE54E
:10508000150709F426CC08F028CC80912B06816006
:1050900002309CE5190709F4A1CB80912B06909171
:1050A0002C060E941E120E94E71B18CB00313FE520
:1050B000130709F425CB01314FE5140709F426CB7A
:1050C0000631FCE51F0709F064CC8091160269E205
:1050D000811165E386EF91E00E949D0938CB85E060
:1050E000DE01119601900D928A95E1F7F50122817A
:1050F00089819A81211126CA0E94210D182F2ACA5E
:105100001F93CF93DF9380913802807F09F049C0CD
:1051100080913502882309F444C080916A02D091BD
:1051200039026091330270913402A0913602B0913D
:105130003702C62FC72316E0D81799F190E01097D1
:1051400011F0CF3F19F401968770F6CF189F9001A8
:10515000199F300D1124F901E65CFD4F4181471381
:10516000F2CF40814613EFCF42814111ECCF438112
:1051700054814A1B5B0B4F3A510528F78091380246
:105180008F70806180933802F901E15CFD4F80816E
:105190008F708061808383E392E00E948C220E9462
:1051A000F00CDF91CF911F910895A1E1B0E0EBEDFC
:1051B000F8E20C9488358C0185E0F801DE011D963B
:1051C00001900D928A95E1F7F801E28083E3A82E21
:1051D00082E0B82E60913602709137026115710538
:1051E00009F426C19091330240913402892F84231F
:1051F0008F3F09F41DC120813181C380D480F0909C
:105200003502F601E61BF70BFF2009F4DCC08091A4
:105210003802582F507FEF3AF10508F09FC0511126
:105220006BC0FE2C431314C0921312C0E11010C0C7
:105230008F70806180933802C5010E948C2280911A
:105240003802F80185838F2D6196EAE00C94A4352D
:10525000C114D10429F0822F83238F3F09F003C1A9
:1052600080E0F82FF170DF2E80FF3CC080916A0251
:105270004091390256E0841315C02D873E878D85F5
:105280009E850E94ED12292F22952F702230F0F07A
:10529000243018F59F70F1F0F8019581907FD1F4DA
:1052A000D12C1EC090E0589FF001599FF00D1124A1
:1052B000E65CFD4F6181361306C06081261303C092
:1052C0006281E6120FC001968770D5CF9F7011F0F2
:1052D000882331F3805E883018F3C8010E948C2245
:1052E000FD2CB1CFEE2009F4AECF80913802816061
:1052F00080933802F12CA7CF431306C0921304C049
:10530000F801EE2009F479C0C8010E94FA1288233E
:1053100009F1EE20F9F080913802803270F020918E
:1053200033023091340238872F831986DB86CA8690
:105330008C87CE0107960E948C2286E0F801A3E3B9
:10534000B2E001900D928A95E1F70E948028FF2437
:10535000F39479CFC8010E948C22F9CF51110AC071
:1053600083E392E00E948C2286E0F50111928A95F7
:10537000E9F7C0CF43130FC092130DC0E1100BC06B
:10538000F8018583C8010E948C2286E0F501119204
:105390008A95E9F758CFC8010E94FA128823D1F202
:1053A000EE20C1F280913802803238F2209133022F
:1053B000309134023A8329831B82DD82CC828E8332
:1053C000CE010196B8CFEF3AF105F8F6FE2CEE20AB
:1053D00009F243131FC092131DC08091380280FD53
:1053E00010C0982F907F69F0F8018583903F31F0CD
:1053F000982F907F905F8F70892B8583C8010E94C2
:105400008C2286E0F801A3E3B2E001900D928A9528
:10541000E1F719CFC8010E94FA1281118ECF809155
:105420003802816080933802C8010E948C220BCF21
:10543000EE2009F48FCFC8010E94FA12F82E8823BB
:1054400009F488CF86E0F801A3E3B2E001900D9261
:105450008A95E1F780913302909134020E94ED1217
:105460000E948028F0CE81E08E25FBCE8F938FB7EF
:105470008F939F93EF93FF9380910704909108047B
:1054800001969093080480930704E0910804E69540
:10549000E695F0E0E55CF94FE491FF91EF919F9183
:1054A0008F918FBF8F911895CDB7DEB7E6970FB666
:1054B000F894DEBF0FBECDBF85B7806885BF85B7C6
:1054C000806885BF84B7877F84BF0FB6F894A8959E
:1054D00080916000886180936000109260000FBE30
:1054E00080E890E00FB6F89480936100909361009B
:1054F0000FBE87EF9AE09093F5018093F4010E942C
:10550000DF070E94D2088091E20084608093E2006D
:10551000789480915E068823A1F01091E9001F70B5
:105520009091EC00892F817090FD80E8182B1092EB
:10553000E9008091E80083FD0E94FD1B1F7010931D
:10554000E90082E084BD93E095BD9AEF97BD80931A
:105550006E001092ED021092EE021092EF02109285
:10556000F0020E942413811102C00E940E1225989D
:105570002D988FE891E00197F1F700C0000083B10A
:1055800085FB882780F980936001809160018823E2
:1055900009F46AC0109276018DE1809377010E9430
:1055A000BC0F81110E940A348091600180916001DA
:1055B00095E0811190E09093FC0285E0891B809337
:1055C000FB0208EB11E03DEBE32E31E0F32ED801B6
:1055D0008D918D018F3F11F00E94F90AE016F106BE
:1055E000B1F70DEB11E0F80181918F018F3F11F0C0
:1055F0000E94F90AF1E0033C1F07A9F78AE0E1E401
:10560000F3E0DF01282F1D922A95E9F7E1EFF2E0A0
:10561000DF011D928A95E9F70E941B17811102C0D4
:105620000E943C1482E090E00E94173680930203AF
:105630000E943D1390932C0680932B060E94EA183B
:10564000EFE3FCE93197F1F700C000000E94EA188F
:105650008091410380FF0CC06FEF7FEF90E080E00E
:105660000E9449360E94AA0E8DE18093760195CF63
:1056700083E090E00E9417360E94E21B83B183E032
:105680008093380380E280930F040E94C4326DE05F
:1056900070E083ED91E00E94C90D892BE9F58091BE
:1056A000380363E070E081FDCDC080ED91E00E94A1
:1056B000C90D892B89F56DE070E080EC91E00E94C6
:1056C000C90D892B49F50E949109605A75418F4F88
:1056D0009F4F60931A0670931B0680931C0690934D
:1056E0001D06E2E1F4E080E092E0DF019C011D9202
:1056F00021503040E1F7F0931906E09318068FEF40
:105700009FEF909311048093100481E080931F0613
:1057100080931E06109239038091FD02811138C0DA
:105720000E941B17811104C00E943C140E94231484
:1057300088E090E00E941F36609302047093030497
:105740008093040490930504809101048360809306
:1057500001046E7F71F40E94231488E090E00E949F
:105760001F366093020470930304809304049093A3
:1057700005040E944B0A0E94440A8091020480FFA3
:1057800004C060E086950E94711881E08093FD025C
:105790009091600181E0982790931403382F391B72
:1057A0003093FF0290916001809315039091600106
:1057B0008093FE0280916001811106C085EF809385
:1057C0006E0184EF80936D0180916E01E82FE29568
:1057D000EF70F0E061A18F7021E030E0A90101C01D
:1057E000440F8A95EAF7942F9095962391A382A16E
:1057F000842B82A390916D01E92FE295EF70F0E088
:1058000041A19F70B90102C0660F771F9A95E2F718
:10581000CB01962F9095942391A392A1892B82A3DB
:105820008FE891E00197F1F700C000001091150397
:1058300066E173E04EE651E08DE6E82E81E0F82E59
:10584000FB012BC08DEC91E032CFDA012D91AD013F
:10585000822F82958F7090E0DC0190968C9190E081
:105860002F7002C0959587952A95E2F78170D70130
:105870009D917D01292F22952F7030E0D9019096BE
:105880002C9130E09F7002C0359527959A95E2F7EC
:1058900090E020FD92E0892B81938E2F861B81174B
:1058A000A0F280912B06806880932B0680912B06B6
:1058B00090912C060E941E12809181008860809336
:1058C0008100809181008160809381008FB7F8947E
:1058D00020ED33E030938900209388008FBF0E9431
:1058E000BC0F811102C00E940D3481E691E09093BB
:1058F00024068093230681E493E02AE0222E280EDA
:105900003324339480915E0600E112E1853009F47E
:105910005FC00E94EA1803E013E091E4692E93E06F
:10592000792E2DE033E0D301F80191918D912E175E
:105930003F0709F45AC09817C1F30E94BC0F882E84
:1059400081E4E82E83E0F82ED12CF701C1907F018D
:10595000D8019D908D019C1429F19C24B12CAA247E
:10596000A394892D8A21B1F08820A1F0BEA6DFA6DC
:1059700091E08C2D8A2109F490E098AB0E943F18A9
:105980008160782F9AAB89AB4EA55FA568A98AA9DB
:105990000E94D220B394AA0CB6E0BB12E2CFF80169
:1059A0003197C082D394EAE0DE12CFCF0E949109F2
:1059B000EE24E3943BC080915E06992359F00E9447
:1059C000EA18E1E4F3E081918111C0C52E12FBCF0A
:1059D0009091540680915E06853069F30E94E71B22
:1059E0000E94DF0F0E94561894CF9813A6CF0E94F2
:1059F0003F188C018091000390910103081719074B
:105A0000A1F08FEF89A78AA71BA60E943F1881608B
:105A1000782F9DA78CA749A55AA56BA58DA50E9497
:105A2000D2201093010300930003E12C0E94BC0FCD
:105A300080910004882309F463C08091FF03E09102
:105A40000204E695E81BE093FB03823009F05BC09B
:105A5000F0E0ED51FE4FE4910E2F10E0BDE5CB2EAE
:105A6000BFE0DB2E8091FC03882361F01092FC03E1
:105A70000E944B189093FA038093F9031092FE034F
:105A80001092FD030E944B18E091F903F091FA0384
:105A90009C012E1B3F0B2F3F3F4790F520910F039A
:105AA0002223B1F010920F0320910D0330910E03C9
:105AB000821B930B8F3F9F4758F4205D3A483093E9
:105AC0000E0320930D0380910104886080930104EC
:105AD000A090FD03B090FE030E0F1F1F1093FA035A
