:100000000C94AF070C94E7070C94E7070C94AD36FB
:100010000C94E7070C94E7070C94E7070C94E707A8
:100020000C94E7070C94E7070C9445170C94071FF2
:100030000C94E7070C94E7070C94E7070C94E70788
:100040000C94E7070C946A2C0C94E7070C94E707D0
:100050000C94E7070C942A180C94E7070C94E70714
:100060000C94E7070C94E7070C94E7070C94E70758
:100070000C94E7070C94E7070C94E7070C94E70748
:100080000C94E7070C94E7070C94E7070C94E70738
:100090000C94E7070C94E7070C94E7070C94E70728
:1000A0000C94E7070C94E7070C94E7070501098017
:1000B000A101850319012AB700150126B700950192
:1000C00075108100C0050C0901A101850419012AE0
:1000D000A002150126A002950175108100C005013E
:1000E0000906A1018506050719E029E71500250184
:1000F0009508750181020507190029EF15002501F2
:1001000095F075018102050819012905950575010C
:100110009102950175039101C00660FF0961A1017B
:100120000962150026FF00952075088102096315F4
:100130000026FF00952075089102C005010906A15F
:1001400001050719E029E7150025019508750181CA
:10015000029501750881010507190029FF15002680
:10016000FF00950675088100050819012905950508
:1001700075019102950175039101C00A00417574E2
:100180006F2D5368696674000A00436170732D20F7
:100190006C6F636B000A00556E646566002D5379C1
:1001A00073200A002D4E756D200A002D46756E6372
:1001B0000A002D426173650A004C61796572000A7C
:1001C000004C6F747573202D35382D00000A000027
:1001D000DA0281FFD9F1DB20A4A62EAF00A0C00077
:1001E000A1C800AED580A81FD300408D1420007890
:1001F0003C1E1E140A05FD377A585A000004E6D644
:10020000B4460200210116000000742FE5A3E009A6
:100210004302155D003D8889C65436C3174FE4E29A
:100220001132E3D88794292C1FA5FF53606DDC3170
:1002300009F08B6869C1BAA99C253E2A60CD3E6C45
:10024000C74C7AEFB863F093FA40E654648B1FEC26
:10025000CB2BBF15ADE7E9C378F8A76BC1C4849970
:100260007318D4C3A96355908086985B9510AD58D8
:100270006DCC50825BD064C7151351A4BA7B9FD755
:100280001BEB93BE0600C9BB0F5CF59C99080D3CA7
:10029000E82FFAE70976BAE87DB23A689E3A102468
:1002A000B71083DDFF4BF514E80100686CDDAA226E
:1002B000A92337C51FFB1BAA89055B94C06AE8C345
:1002C000425A328E6B5FABDF1CE449C18442264642
:1002D000F08A199016786FE8C19BA0899369B614CB
:1002E0009D250A1DB9B3C47B948D4A7C44B6AA6A85
:1002F0000025FB315A6E4183CCE023E6001F915468
:100300009B5BEEEBD7B329A955E36156B85C9DD151
:1003100099B820DBBC02F01B00760BDBF3B176AEA4
:1003200065876915E37EC732BCAB00BEF1E34E1CA6
:100330005076A78D51768206F9DAF8A0B2796F006F
:10034000D76074C044F4219D8999A7351E1F313EA2
:10035000CFFFE45C0A84A022718E0863136AA48E26
:100360008AD5E307B1200DF286DB8ECDF17DDEA7C5
:10037000ED0DB9A763678F7E3A78091E90FC86372A
:10038000BB45AA54C6FDAE9D71707F0E0A4801544C
:10039000CCBAECE884FE7149CBDA6E65B88E5DA507
:1003A000B0EB78E6D29BA9B8223535E2B8EF015D13
:1003B000B45DB936C4012996CDA3805D734CB56E8A
:1003C00062676902E094B438F72A281F45E182BCCD
:1003D0006F5B3A9F5FC39222E7427BCD5694A42F76
:1003E000ED575A9EC6F7A497410CA6550E25E67BFD
:1003F000FF22135EDABC6CFC0781D0EACD68BC8BAF
:10040000CB69F5CB2B4E6878C9EF9911E466DF59BB
:1004100008F88D5936DCD845C8A6277EB8AC6CBB29
:100420001A872379C805FE7B7B0000000000639DCE
:10043000F7AA8ED354DF0001B104C412000082BCBD
:10044000CE01B1C467FB020000000004595A00014C
:100450000101010101010101020202020202020284
:100460000203030303030303030404040404040456
:10047000050505050506060606060707070707081A
:10048000080808090909090A0A0A0B0B0B0C0C0CCD
:100490000D0D0D0E0E0E0F0F0F1010111111121267
:1004A00013131414151516161717181819191A1AE4
:1004B0001B1B1C1D1D1E1E1F202021222223242445
:1004C000252626272829292A2B2C2D2D2E2F303181
:1004D0003232333435363738393A3B3C3D3E3F4093
:1004E0004142434445464748494A4C4D4E4F50517E
:1004F0005354555658595A5B5D5E5F616264656638
:1005000068696B6C6D6F7072737577787A7B7D7EBE
:100510008082838587888A8C8E8F91939596989A0E
:100520009C9EA0A2A3A5A7A9ABADAFB1B3B5B7BA26
:10053000BCBEC0C2C4C6C9CBCDCFD1D4D6D8DBDDFA
:10054000DFE2E4E7E9EBEEF0F3F5F8FAFDFF222352
:10055000252628292A2C2D2F3032333536383A3BA0
:100560003D3E4042434547494A4C4E5051535557F2
:10057000595A5C5E6062646668696B6D6F71737511
:1005800077797B7D7F81838587898A8C8E90929411
:1005900096989A9C9E9FA1A3A5A7A8AAACAEAFB11E
:1005A000B3B4B6B8B9BBBCBEBFC1C2C3C5C6C7C968
:1005B000CACBCCCDCED0D1D2D2D3D4D5D6D7D7D822
:1005C000D9D9DADADBDBDBDCDCDCDCDCDDDDDDDD74
:1005D000DCDCDCDCDCDBDBDBDADAD9D9D8D7D7D67C
:1005E000D5D4D3D2D2D1D0CECDCCCBCAC9C7C6C533
:1005F000C3C2C1BFBEBCBBB9B8B6B4B3B1AFAEAC79
:10060000AAA8A7A5A3A19F9E9C9A98969492908E23
:100610008C8A89878583817F7D7B79777573716FFC
:100620006D6B6968666462605E5C5A5957555351D8
:10063000504E4C4A4947454342403E3D3B3A38368E
:10064000353332302F2D2C2A29282625232200004D
:10065000000000000000000000010204060A0F175D
:10066000202C3A4A5D71879DB3C7DAE9F5FCFFFC9F
:10067000F5E9DAC7B39D87715D4A3A2C20170F0A56
:100680000604020100000000000000000000A900B4
:10069000AA00A900AA00A900AA00A900AA00A9000E
:1006A000AA00A900AA00A900AA00A900AA00165C35
:1006B0001E001F002000210022002B0014001A0041
:1006C000080015001700320004001600070009009A
:1006D0000A0050611D001B00060019000500AE0055
:1006E0004C000153E3642C6251002D0027002600CA
:1006F0002500240023002F00130012000C00180016
:100700001C00340033000F000E000D000B004F7171
:1007100038003700360010001100AE002A000253E6
:1007200065742872520001003A003B003C003D0015
:100730003E00010001000100010001000100010074
:1007400001000100010001000100010001000100A1
:100750000100010001000100010001000100010091
:100760004E00440043004200410040003F000100B1
:100770000100010001000100010001000100010071
:100780000100010001000100010001000100010061
:100790000100010001000100010001004B00010007
:1007A0000100010001000100010001000100010041
:1007B0000100010001000100010001000100010031
:1007C0000100010001000100010001000100010021
:1007D0000100010001000100010001000100010011
:1007E0000100010001000100010001000100010001
:1007F00001000100010001000100010001000100F1
:1008000001000100010001000100010001000100E0
:10081000010001000100005C010001000100145C06
:100820001A5C01000100010001000100010001004B
:1008300001000100010001000100010001000100B0
:1008400001000100010001000100010001000100A0
:100850000100C25CCA5CC95C010001000100CD5C02
:10086000C65CC55C010001000100CE5CC85CC75CD1
:10087000010001000100CF5CCC5CCB5C01000100F9
:100880000100010001000100010001000100070852
:100890007F0807003E5B4F5B3E003E6B4F6B3E00A8
:1008A0001C3E7C3E1C00183C7E3C18001C577D57AB
:1008B0001C001C5E7F5E1C0000183C180000FFE757
:1008C000C3E7FF00001824180000FFE7DBE7FF0084
:1008D00030483A060E00262979292600407F050572
:1008E0000700407F05253F005A3CE73C5A007F3E09
:1008F0001C1C0800081C1C3E7F0014227F221400D0
:100900005F5F005F5F0006097F017F0000668995D9
:100910006A0060606060600094A2FFA29400080416
:100920007E04080010207E20100008082A1C080001
:10093000081C2A0808001E10101010000C1E0C1EA7
:100940000C0030383E383000060E3E0E0600000027
:100950000000000000005F0000000007000700002A
:10096000147F147F1400242A7F2A120023130864A2
:100970006200364956205000000807030000001CA2
:10098000224100000041221C00002A1C7F1C2A007A
:1009900008083E08080000807030000008080808B9
:1009A00008000000606000002010080402003E51B2
:1009B00049453E0000427F400000724949494600D7
:1009C0002141494D33001814127F10002745454539
:1009D00039003C4A49493100412111090700364993
:1009E00049493600464949291E000000140000000C
:1009F00000403400000000081422410014141414B4
:100A000014000041221408000201590906003E4169
:100A10005D594E007C1211127C007F494949360015
:100A20003E41414122007F4141413E007F494949C9
:100A300041007F09090901003E41415173007F08CF
:100A400008087F0000417F4100002040413F010035
:100A50007F08142241007F40404040007F021C027A
:100A60007F007F0408107F003E4141413E007F0926
:100A7000090906003E4151215E007F0919294600FF
:100A800026494949320003017F0103003F404040AD
:100A90003F001F2040201F003F4038403F006314AC
:100AA000081463000304780403006159494D4300AE
:100AB000007F4141410002040810200000414141F3
:100AC0007F00040201020400404040404000000357
:100AD000070800002054547840007F284444380020
:100AE000384444442800384444287F00385454543F
:100AF000180000087E09020018A4A49C78007F0852
:100B00000404780000447D4000002040403D000087
:100B10007F102844000000417F4000007C047804DE
:100B200078007C0804047800384444443800FC18F9
:100B30002424180018242418FC007C08040408004D
:100B400048545454240004043F4424003C404020B2
:100B50007C001C2040201C003C4030403C004428CD
:100B6000102844004C9090907C004464544C440005
:100B70000008364100000000770000000041360800
:100B800000000201020402003C2623263C00000073
:100B900000000000404040F0F8F8FF38FFF8F83F50
:100BA000F8F8FF38FFF8F8F040404000000000007F
:100BB0000080C0C0C0800000C0C08000000080C0B5
:100BC000C000C0C0000080C0C00000000000C0C065
:100BD000C0C0C000C0C00000000000000000000055
:100BE0000000000000000000000000000000000005
:100BF00000000000000000000000000000000000F5
:100C000000000000000000000000000000C0F0F83C
:100C1000FC3E1E06010000007F4141417F007F41F4
:100C200041417F000080C0E07E5B4F5BFEC0000062
:100C3000C000DCD7DEDEDED7DC00C0000000000034
:100C400000000000000000000000000000000000A4
:100C500000000000494949FFFFFFFFE0DFBFBF0080
:100C6000BFBFDFE0FFFFFFFF494949000000000070
:100C70001F3F6060E0BF1F007F7F071E381E077F99
:100C80007F007F7F0E1F3B716000000000007F7FB0
:100C90000C0C0C007E7E007F7E0303007F7E03032E
:100CA0007E7E03037F7E000F3E703C063C703E0F4D
:100CB00000327B49493F7E007F7E0303001E3F696F
:100CC000696F2600000000000000000000030F1FF5
:100CD0003F3C7870600000007F4141417F007F41D0
:100CE00041417F00307B7F7830202030787F3B008F
:100CF00003000F7F0F0F0F7F0F00030000000000A5
:100D000000000000000000000000000000000000E3
:100D100000000000010101070F0F7F0F7F0F0F7E02
:100D20000F0F7F0F7F0F0F07010101000000000070
:100D300000000000000101000000000000000000B1
:100D400000000000000000000000000000000000A3
:100D50000000000000000000000000000000000093
:100D60000000000000000000000000000000000083
:100D70000000000000000000000000000000000073
:100D80000000000000000000000000000000000063
:100D90000000000000000000000000000000000053
:100DA0000000000000000000000000000000000043
:100DB0000000000000000000000000000000000033
:100DC000000000000000000000000000000000AF74
:100DD00000AE000000000000000000000000000065
:100DE0000000000000000000000000000000000003
:100DF0000000000000007E0F00D4FFFFFFC70000CE
:100E0000007800000000000000002A2B28000000ED
:100E100000000000000000000000000000290000A9
:100E200000002C1E3420212224342627252E362D86
:100E30003738271E1F202122232425263333362E20
:100E400037381F0405060708090A0B0C0D0E0F1092
:100E50001112131415161718191A1B1C1D2F3130D7
:100E6000232D350405060708090A0B0C0D0E0F107B
:100E70001112131415161718191A1B1C1D2F3130B7
:100E8000354C09025B00030100A0FA0904000001CF
:100E90000301010009211101000122400007058121
:100EA00003080001090401000203000000092111E8
:100EB000010001222200070582032000010705032B
:100EC00003200001090402000103000000092111B0
:100ED000010001226D0007058403200001120100BA
:100EE0000200000008EDFEB0232301010203011CF3
:100EF000037600690061006C003A00660036003439
:100F0000006300320062003300630000001C034CE9
:100F1000006F007400750073002000350038002059
:100F20000047006C006F00770000002C035400772E
:100F300000650065007400790073002000570069A7
:100F4000006C00640020005400680069006E006BB3
:100F50000069006E0067000000040309040011240A
:100F60001FBECFEFDAE0DEBFCDBF04B603FE18C070
:100F70008091920690919306A0919406B091950667
:100F80008730904BA740B04B59F4109292061092C4
:100F900093061092940610929506E0E0FFE30995FF
:100FA00011E0A0E0B1E0E2E0F7E702C005900D92A9
:100FB000AC3FB107D9F726E0ACEFB1E001C01D921C
:100FC000A239B207E1F70E94882C0C945B3B0C9489
:100FD0000000E8EDF0E080818E7F80831092E200D7
:100FE0001092DA001092E100A0EEB0E08C918160E6
:100FF0008C9380818F77808319BCA7EDB0E08C91B2
:101000008E7F8C9380818F7E8083109262060895FC
:101010002091E4003091E50095E6A9012091EC00D3
:10102000822F817020FF06C08091E80080FF06C0FB
:1010300080E008952091E80022FD1AC0809190067A
:10104000882389F0853089F08091EB0085FD0FC001
:101050002091E4003091E50042175307F9F29150D6
:10106000E1F684E0089582E0089583E0089581E048
:101070000895EF92FF920F931F93CF937C018B0102
:101080000E940808C82F811117C08091E80085FDD3
:101090000BC08091E8008E778093E8000E940808DA
:1010A000882399F3C82F08C0F70181917F018093AD
:1010B000F1000150110949F78C2FCF911F910F9129
:1010C000FF90EF900895CF93FC01809190068430BB
:1010D00001F5C091E900CF702091EC00922F917042
:1010E00020FD90E8C92B82E08093E9008091E80020
:1010F00080FF0CC050E040E060E270E0CF010E9451
:1011000039088091E8008E778093E800CF70C09313
:10111000E900CF9108958091880687FF13C08091E0
:10112000E80082FF06C08091E8008B778093E8009A
:1011300004C0809190068111F2CF089580919006AD
:101140008823D9F38091E80080FFF8CF8091E800F0
:101150008E77ECCF982F9093E900242F762F50E0D4
:10116000891731F07091EC002091ED005091F00062
:1011700021FD07C09F5F973071F78093E90081E000
:1011800008953091EB003E7F3093EB003091ED00FD
:101190003D7F3093ED003091EB0031603093EB00F8
:1011A0007093EC002093ED005093F0002091EE003E
:1011B00027FDE0CF80E00895B0E0A0E0E2EEF8E0A7
:1011C0000C94E737C8EDD0E088818F7E8883E7ED07
:1011D000F0E080818160808384E082BF81E0809341
:1011E000620688818E7F888302EE10E0F80110820B
:1011F0001092DA0081EEC82ED12CF601108288817F
:101200008F77888388818068888388818F7D8883B1
:1012100019BC1092900610928706109286061092C2
:10122000850690EEE92EF12CF70180818B7F80837B
:1012300088818160888342E060E080E00E94AA08A3
:10124000F60180818E7F8083F801808181608083B8
:10125000808188608083F70180818E7F8083888190
:1012600080618883CDB7DEB7E8E00C940338FC01D9
:1012700080918E0690918F0686179707A0F06115D2
:10128000710529F49091E8009E779093E80090E032
:101290006115710551F4911108C08091E80082FF39
:1012A00034C080E00895BC01F2CF8091900688237D
:1012B000C1F18530C1F18091E80083FD30C080919B
:1012C000E80082FDEACF8091E80080FFE1CF8091C5
:1012D000F3002091F200382F6115710519F02830C4
:1012E000310558F091E02830310509F090E0209167
:1012F000E8002E772093E800CBCF81918093F10016
:10130000615071092F5F3F4FE7CF8091900688238E
:1013100041F0853041F08091E80083FFBECF81E04D
:10132000089582E0089583E008950895089508954A
:101330008091640608952FB7F894609159067091D2
:101340005A0680915B0690915C062FBF089520910C
:101350007F012223C9F020915D0627FF15C0E62FEB
:10136000E695E695E695EE31D8F4E80FF92FF11DF4
:10137000677021E030E001C0220F6A95EAF72095FE
:101380008281282322830895FC01329608962191B8
:10139000621303C0DF0111971C92E817F907B9F730
:1013A000089520917F012223C1F020915D0627FF3F
:1013B00014C0E62FE695E695E695EE31F8F4E80FD1
:1013C000F92FF11D677021E030E001C0220F6A950E
:1013D000EAF78281822B82830895FC0132962FEFF7
:1013E00030E04191641751F02F3F19F4411101C0D1
:1013F000232F3F5F3630A9F72F3F09F40895820F5E
:10140000911D27FD9A95FC0162830895209157064E
:10141000309158062817390771F090935806809339
:101420005706E0915506F0915606309721F000845A
:10143000F185E02D099508952091530630915406C9
:101440002817390771F09093540680935306E09162
:101450005506F0915606309721F00680F781E02D71
:1014600009950895FC01680F791F8FEF91E3219191
:10147000822728E030E087FF09C0880F89272150A4
:101480003109C9F7E617F70791F70895880FF7CFE5
:10149000FA01811101C0FB0109950895EBE0F4E028
:1014A0001182828184608283089580910E04982F36
:1014B0009E7F61F48170826080930E04809111049C
:1014C000803B18F08FEA8093110408958231B0F3C5
:1014D00081708061F1CFAF92BF92DF92EF92FF9265
:1014E0000F931F93CF93DF93082F162FE901E42F5B
:1014F000F0E0E25BFB4F611110C0E4915E2F4E2FD4
:101500004983E8835A83DF91CF911F910F91FF9018
:10151000EF90DF90BF90AF900895E62EF12C4491AC
:10152000D42EE42FF0E026E0829FC00111242FEF9B
:1015300030E0B9010E94C937802F90E0880F991FD1
:1015400055E5569FD001579FB00D11248A1B9B0B68
:10155000982F990F890F5901AE18BF08AE9ED00180
:10156000AF9EB00DBE9EB00D11245B2F189F800161
:101570001124012F11275901A01AB10AAE9E800132
:10158000AF9E100DBE9E100D11245901A81AB1086E
:10159000AE9CC001AF9C900DBE9C900D1124892F74
:1015A0009927281B390B2E9FC0012F9F900D3E9F1E
:1015B000900D1124E92F62307105A1F050F46115EE
:1015C000710509F49DCF6130710581F0EB2F512F2A
:1015D00097CF6430710569F080F06630710509F4C9
:1015E0008FCFF4CFE42F4B2F592F8ACFE42F412FE9
:1015F00087CFEB2F542F492F83CF4B2F5D2DE12F1A
:101600007FCF80E00895F894E82FE295EF70F0E046
:1016100031A1282F2F7081E090E001C0880F2A951A
:10162000EAF7982F9095932391A392A1892B82A3F7
:101630007894089590915D0692FF06C0282F287136
:101640002830F9F4877F846093FF06C0282F287123
:101650002831F1F4877E846120915E0620FF06C068
:10166000382F38713830D9F4877F816021FF06C068
:10167000282F28712831D1F4877E816194FD877EDF
:101680000895282F24712430F9F68B7F8860DCCFF1
:10169000282F2471243101F78B7E8861DDCF382F0C
:1016A0003171313019F78E7F8860E0CF282F21719A
:1016B000213121F78E7E8861E1CFCF93DF93EC015A
:1016C00082389105B1F108F040C08133910509F4E9
:1016D0009DC048F58932910509F48DC08A9709F4B7
:1016E0009CC0C11522E5D20708F0BDC0C11531E587
:1016F000D30708F025C1C83ED10508F0A3C0C13EFC
:10170000D10588F5C83AD10508F08EC0C53AD10593
:1017100008F0F6C0C130D10531F1209721F1C43075
:10172000D10508F545C08533910509F45FC0C99717
:10173000C1F680915D06837009F037C180915E0625
:1017400083FF11C0C9E2D0E00EC0833E910599F13C
:1017500070F4803E910501F1823E910511F6809171
:101760005D0682FD21C0CE01DF91CF910895863EB6
:10177000910561F1873E910571F1843E910509F073
:10178000B0CF80915E0681FFEECF80915D06C7EEFF
:10179000D0E084FD0DC0E7CF80915D0680FD33C0B1
:1017A00090915E0690FFDFCFC3EED0E084FFDBCFE9
:1017B000D0E0C0E0D8CF80915D0682FDF3C090916B
:1017C0005E0690FDF2C084FFCECFF2CF80915D0621
:1017D00083FDDDCFC8CF80915D0683FDE9C0909188
:1017E0005E0691FFF0CFC4EED0E0BDCF80915D06E4
:1017F00085FFB9CFA7CF80915D0685FDDCC08091C4
:101800005E0683FFB0CFC9E3D0E0ADCF80915D0627
:1018100086FFA9CFCAE2D0E0A6CF80915D0686FF01
:10182000A2CFC1E3D0E09FCFCF3BD10508F6C85A85
:10183000D0E0CC0FDD1FC057DE4F0990D881C02DFE
:10184000D46491CFC11540E5D40708F064C0C11538
:1018500080E4D80708F05CC0CE019A9581159F41BD
:1018600008F481CFA5CFC11536E5D30718F5C1150A
:1018700045E5D40708F07DC0C11584E5D80708F018
:1018800073C09C2F969596959E0123703327C115A2
:10189000D34508F45AC0C1E0D0E002C0CC0FDD1F30
:1018A0002A95E2F730E2939FC0011124C82BD92B6F
:1018B000DA6859CFC1158AE5D80778F4C11529E54A
:1018C000D20708F061C0C11538E5D30708F470CF1E
:1018D000DC2FCC27C06FD06A46CFCE019056811541
:1018E000904208F065CF8D2F8F710E941A0B90E007
:1018F000982F882788279F719C012C2BE90142C0D3
:10190000C55AD0E0C357DE4FC881D0E0D0642BCF9A
:10191000DF70D06A28CF2C2F26952695237080E281
:10192000289F900111248C2F8370C1E0D0E002C069
:10193000CC0FDD1F8A95E2F7C22BD32BDD6813CFC6
:10194000DC2FCC27C16FD06A0ECFC1E0D0E002C03F
:10195000CC0FDD1F2A95E2F720E2929FC0011124EF
:10196000C82BD92BDC68FFCEDC2FCC27C46FD06A04
:10197000FACE8C2F0E941A0BC82FD0E0DC2FCC2778
:10198000CC27DF71D062EFCE8C2F8F700E941A0BA4
:1019900034E0D695C7953A95E1F7CF709C2FEC01CE
:1019A000D069E1CEC2EED0E0DECEC0EED0E0DBCE3C
:1019B000C6EED0E0D8CEC5E3D0E0D5CE0E949B09DC
:1019C00008958091E502882331F01092E50210928B
:1019D0009702109296020895809590912C06982374
:1019E00090932C0608951092750210927402109232
:1019F000730208958091720290914102981301C080
:101A000008958F5F8770FACFA82FA77023E096956F
:101A100087952A95E1F7FC01EE0FFF1FE80FF91FEC
:101A2000E60FF71F50E040E080E0219130E00A2E01
:101A300002C0369527950A94E2F721703327042EC9
:101A400001C0220F0A94EAF7822B4F5F5F4F4330A9
:101A5000510559F70895903FC9F09A3080F48630C7
:101A6000A8F4282F30E063E272E0A901E6E09E9F2F
:101A7000400D511D1124CA010E94040D08959C5F60
:101A8000923020F460E272E090E0F6CF80E00895BA
:101A9000262F277091E001C0990F2A95EAF723E0DD
:101AA000769567952A95E1F7FB01EE0FFF1FE60F8C
:101AB000F71FE40FF51F50E040E0682F70E08191C0
:101AC000DF0111979B01042E02C0369527950A94D9
:101AD000E2F7217021952827292328272C934F5F8F
:101AE0005F4F4330510559F70895282F862F903FB7
:101AF00079F09A3070F4263058F4622F70E026E0C6
:101B0000929F600D711D112443E252E00E94480D26
:101B100008959C5F9230E0F7622F70E040E252E05F
:101B2000F5CF982F92959F7011F0892F94E0282F70
:101B30002695269511F09E5F822F869509F09F5F6E
:101B4000892F08959C013A9521153F4150F5FC01DC
:101B5000EE27F170BC0166277270AC014427547007
:101B60009C012227387094FF0EC080E1EF2B09F40E
:101B700080E0672B09F08062452B09F08064232BFD
:101B800089F08068089581E0EF2B09F480E0672BED
:101B900009F08260452B09F08460232B19F08860DE
:101BA000089580E00895B0E0A0E0E9EDFDE00C9438
:101BB000E7376C017B0164E670E088E70E94273517
:101BC000EC0197FD12C010E000E0F601E00FF11FFC
:101BD000849164E670E00E949335EC01892B29F42E
:101BE0000F5F1F4F0E151F0581F70E940936CE01AA
:101BF000CDB7DEB7E8E00C94033880912A069091C7
:101C00002B06911103C091E089270895882369F07C
:101C100062E070E080ED9DE00E94D30D892B19F009
:101C200080912A06089510922A0680912A06EBCF09
:101C3000CF93C0912A0680912B068823D1F00E9471
:101C40009B09605A75418F4F9F4F60932606709392
:101C500027068093280690932906C11108C062E0E8
:101C600070E08EEC9DE00E94D30D892B29F0C0918D
:101C70002A068C2FCF91089581E080932A06F7CF12
:101C800080935F0670936106609360068091900672
:101C90008430F9F48093E9008FEF9091E80081504F
:101CA00095FD06C095ED9A95F1F700008111F5CFED
:101CB0008091E80085FF0DC050E040E063E070E0F7
:101CC0008FE596E00E9439088091E8008E77809336
:101CD000E8000895BC0184E00E94400E0895BC0114
:101CE00083E00E94400E0895CF93DF93EC01809132
:101CF0007F018823B1F180915D0687FF32C060E2E9
:101D000084E08093E9008FEF9091E800815095FD89
:101D100006C095ED9A95F1F700008111F5CF8091FD
:101D2000E80085FF1BC080917F0170E050E040E03B
:101D3000811104C050E040E068E070E0CE010E94F4
:101D400039088091E8008E778093E80080E2FE01F8
:101D5000A5E6B6E001900D928A95E1F7DF91CF916B
:101D6000089568E081E0CDCF81E08093E00080E2DB
:101D70008093D8001092C9008FE19EE40197F1F79B
:101D800000C0000087E090EBDC0180939206909306
:101D90009306A0939406B093950688E19CE00FB655
:101DA000F894A895809360000FBE90936000FFCFD9
:101DB0006091770180910E0480FF20C080917601B0
:101DC00043E0849FC0011124895A9C4F539A2BB140
:101DD000277F3BB138605FB7F894FC01649FE00D4A
:101DE000F11D1124BF0168177907D1F45FBF8FE59A
:101DF00094E00197F1F700C0000008958091780108
:101E00009091790123E0829FF0011124E95AFC4F5F
:101E10008917A0F61182108212828F5F3396F8CF55
:101E2000FC014191CF01E8E03BB9000000C047FF51
:101E30002BB9440F000000C000C000C02BB900C087
:101E4000EA9591F7D0CF90910E0490FF0EC090913B
:101E500078012091790133E0939FF0011124E95A30
:101E6000FC4F921718F00E94D80E0895818360836A
:101E700042839F5F3396F5CFA3E0B0E0E2E4FFE05A
:101E80000C94ED3790910E0490FF0DC0403B08F08C
:101E90004FEA9E012F5F3F4F0E946B0A4B81698181
:101EA0008A810E94230F2396E2E00C940938CF9395
:101EB000DF93EC01EEE0F4E0438162818C810E94CB
:101EC0003C0F8C818F5F8C83DF91CF910895CF93EE
:101ED000DF93EC01EC81F0E0E25BFA4F4491EEE03D
:101EE000F4E0628181810E943C0F8C818F5F8C8342
:101EF000DF91CF910895EEE0F4E080818E7F8083C2
:101F00000E944E0AEBE0F4E08281816082832FEF31
:101F100080E792E0215080409040E1F700C000004F
:101F20000E94D80E0895B0E0A0E0E9E9FFE00C942B
:101F3000E5377C015B016A018091F20201E010E06B
:101F40008A3010F40AE010E0C1E0D0E0B501C7012A
:101F5000F6010995811104C021960C171D072CF478
:101F6000CDB7DEB7EAE00C940138CC9F9001CD9F4D
:101F7000300D300D112490E080E045E34A95F1F7F3
:101F80000000019682179307C1F7E0CF8091A2026B
:101F9000811110C08091D80080618093D8008AE1BF
:101FA0008A95F1F700C08091D90080FF0AC081E0D6
:101FB0008093A20281E09091A202913009F080E02A
:101FC000089582E08093A2020E94E9071092900691
:101FD000F1CF0E94C60F811103C08091520608956F
:101FE000E0915506F0915606309729F00190F08166
:101FF000E02D0995089580E008950F931F930E94A6
:10200000C60F882329F00E949B091F910F91089504
:102010000E949B090091F3021091F4022091F502B5
:102020003091F602600F711F821F931FEECF1F9336
:10203000CF93DF93162F8A3039F481E00E94BA10D3
:10204000DF91CF911F9108958D3011F480E0F6CF8C
:10205000C0912406D091250696E0FE01AEE1B6E0DF
:1020600001900D929A95E1F7803E90F186E0FE0195
:1020700011928A95E9F7C0912406D0912506111195
:1020800033C046E050E0BE018EE196E00E94573832
:102090009E012E513440892B91F52A5F3F4F40918C
:1020A0001B04642F70E0C9010E94C937481B4630E9
:1020B00010F4240F311D211572E0370710F030E0C5
:1020C00020E0225E3B4F3093250620932406B8CFB4
:1020D000F6E08F9FB00111246257774F46E050E041
:1020E000CE010E944138C7CF9E012A5F3F4FFE01BB
:1020F0002E173F0731F2808180958193F9CFC90176
:1021000045E0969587954A95E1F741E050E0BA01A0
:1021100002C0660F771F8A95E2F7CB0160911C041D
:1021200070911D04862B972BB9016B5F7F4FE5E003
:1021300076956795EA95E1F702C0440F551F6A95B9
:10214000E2F7842B952B90931D0480931C04A5CF5C
:102150001F93CF93DF93EC01162FFE018491811121
:1021600004C0DF91CF911F910895612F0E94171035
:102170002196F3CFCF93382FE0912406F0912506D6
:10218000EE51F44020911B04622F70E0CF010E94B9
:10219000C937281B822F332369F066E00E94143868
:1021A000C82FC15010F4CF91089560E080E20E94E2
:1021B0001710F7CF9F01280F311D2115324018F05D
:1021C00080E0F0E0E0E08E0F9F2F911D825E9B4F3C
:1021D0009093250680932406E6CFCF9360E08DECA4
:1021E00091E00E94A81060E08CEC91E00E94A810A1
:1021F00060E081EC91E00E94A81060E08FEB91E03C
:102200000E94A81060E089EB91E00E94A8108091E4
:1022100091060E94910D8130A1F1882341F0823016
:10222000A1F18330B1F160E087E991E003C060E0A3
:1022300082EB91E00E94A81060E085E991E00E94A5
:10224000A8100E94E90F81FB662760F98AE891E0F7
:102250000E94A81081E00E94BA10C0917E01C17056
:1022600060E088E891E00E94A8106C2F8DE791E073
:102270000E94A81060E08BE791E00E94A810CF9127
:10228000089560E08BEA91E0D5CF60E084EA91E0C8
:10229000D1CF60E08DE991E0CDCFCF93DF93C7E25E
:1022A000D2E060E0CE010E94273B2196C11584E078
:1022B000D807B9F7DF91CF9108950F931F93CF936C
:1022C000DF93142F022F843020F5623010F598E050
:1022D000899FE001112484E0689FB0011124C60F9A
:1022E000D71FC95FDD4F82E090E0442311F090E0FA
:1022F00080E0632F8C0F9D1F0E94273B83E090E0BE
:10230000112311F081E090E0602F8C0F9D1F0E943F
:10231000273BDF91CF911F910F9108951F93CF938A
:10232000DF93122F8430E0F46A30D0F44630C0F4EA
:10233000C42FD0E0CC0FDD1F9CE0699FC00DD11DE4
:10234000112498E7899FC00DD11D1124632FCE0160
:1023500087960E94273B612FCE0188960E94273BDB
:10236000DF91CF911F910895B0E0A0E0EAEBF1E199
:102370000C94E137A0901504B090160481E090E031
:1023800090931604809315048EE8C82E86E0D82E0C
:102390009EEAE92E96E0F92EC0E0470110E014C055
:1023A000F301259134914D2F612F8C2F0E948E11B6
:1023B00082E0680E711CDF5FD63091F78CE0880EEA
:1023C000911C1F5F1A3019F03401D0E0E9CF86016B
:1023D000D0E0F8012591349141E06D2F8C2F0E94BF
:1023E0005D11F80132962591349140E06D2F8C2FCC
:1023F0000E945D110C5F1F4FD13099F488E0C80E28
:10240000D11CCF5F88E7E80EF11CC43009F0C5CFBE
:10241000B0921604A0921504CDB7DEB7EEE00C948E
:10242000FD37D1E0D6CFCF93C82F6FEF811163E88E
:1024300083E290E00E94273B6FEFC11166EC84E2DB
:1024400090E00E94273B6FEFC11164EB85E290E0C2
:102450000E94273BCF91089580E00E94131260E014
:1024600086E290E00E94273B0E94B4110E944D1129
:1024700081E00E9413120895CF93C92F682F84E042
:1024800090E00E94273B6C2F82E290E00E94273B65
:10249000CF910895FF920F931F93CF93DF93F42E64
:1024A000843070F5623060F528E0829F800111244D
:1024B00034E0639FB0011124060F171F095F1D4F01
:1024C00082E090E0442311F090E080E0800F911FC3
:1024D0000E94133BC82FD0E0DC2FCC2783E090E094
:1024E000FF2011F081E090E0800F911F0E94133BCC
:1024F0009E01282BC901CDB7DEB7E5E00C94063864
:1025000090E080E0F8CF0F931F93CF93DF93843058
:1025100030F56A3020F5463010F5C42FD0E0CC0FEE
:10252000DD1F2CE0629FC00DD11D112438E7839F71
:10253000C00DD11D1124CE0187960E94133B082F98
:1025400010E0102F0027CE0188960E94133B9801BF
:10255000282BC901DF91CF911F910F91089590E031
:1025600080E0F8CF2091190430911A04232BC9F48C
:10257000703F39F4603FA9F48091170490911804DA
:102580000895843070F47A3038F4663050F4462F71
:10259000672F0E94831208957D3F31F441E062303D
:1025A00040F090E080E008957C3FD9F76230C8F7B2
:1025B00040E00E944A120895CF92DF92FF920F935B
:1025C0001F93CF93DF936C01009191068091DC0201
:1025D000082BC7E0D0E010E0FC2EC8010C2E02C092
:1025E000959587950A94E2F780FD0CC02197A0F796
:1025F000F12C8F2DDF91CF911F910F91FF90DF90E4
:10260000CF900895B6018C2F0E94B2120E945D0BEC
:10261000019761F3EECFCF93DF93EC010E94DC12C0
:10262000BE010E94B2120E945D0BDF91CF9108950E
:10263000FC0183819481892B29F0808191818923F8
:102640008F3F51F480E00895843FE1F717C0883E42
:10265000A8F0813FB9F712C0808191810E940B13CD
:1026600092959F70963099F358F4925F9F709230D4
:1026700048F7803F19F040F7883E20F781E0089541
:102680009A5FF4CF83E290E00E94133B833889F491
:1026900084E290E00E94133B863C59F485E290E08E
:1026A0000E94133B91E0843B09F090E0892F8170F8
:1026B000089580E0FCCFCF9384E090E00E94133B2C
:1026C000C82F82E290E00E94133B982F8C2FCF916D
:1026D0000895CF92DF92EF92FF926B017C010E94EE
:1026E000550AB701A60188E090E00E94393BFF90AF
:1026F000EF90DF90CF900895A3E0B0E0E2E8F3E13F
:102700000C94E937082FF62E142FE22E80910E0438
:1027100080FF3DC0E82FE695F0E0ED51FE4F90813F
:1027200090930B048E7F8230B1F5403B08F04FEA66
:102730009E012F5F3F4F6F2D802F0E946B0A4B81B0
:1027400069818A810E94230F80910F04801308C041
:10275000809110048F1104C080911104811729F019
:1027600080910D04826080930D0400930F04F09219
:10277000100410931104EE2051F060910E0470913A
:102780000F0480911004909111040E946913239604
:10279000E6E00C940538923019F410911104D4CF6E
:1027A000963091F600910F04CFCFEEE0F4E0438134
:1027B00021E1421B08F440E021E0628181810E9416
:1027C0007C130895EEE0F4E0438121E1420F08F428
:1027D0004FEF21E0628181810E947C130895EEE039
:1027E000F4E0628121E1621B08F460E021E04381B2
:1027F00081810E947C130895EEE0F4E0628121E182
:10280000620F08F46FEF21E0438181810E947C1305
:102810000895EEE0F4E0818121E0438162818850F7
:102820000E947C130895EEE0F4E0818121E0438171
:102830006281885F0E947C1308958091120488232E
:1028400019F081508093120460910E0470910F046E
:1028500080911004909111040E9469130895809151
:102860001204833018F48F5F8093120460910E0479
:1028700070910F0480911004909111040E946913CB
:102880000895EEE0F4E083E0808311828FEF82838D
:1028900087E583831482ABE0B4E012968C911297A3
:1028A000836012968C9360817181828193810E94F2
:1028B0006913089568EE7EEF90E080E00E94453B4A
:1028C00060E082E090E00E94273B60E083E090E0DF
:1028D0000E94273B1092DC0260E084E090E00E94BE
:1028E000273B64E082E290E00E94273B60E085E0C5
:1028F00090E00E94273B60E086E090E00E94273B4A
:102900006FEF87E090E00E94273B40E050E0BA0183
:1029100088E090E00E94393B60E08DE090E00E940A
:10292000273B40E050E0BA0188E190E00E94393B4B
:1029300060E087E190E00E94273B40E050E0BA0170
:102940008CE190E00E94393B70E060E080E290E032
:102950000E94453B40E050E0BA0188E190E00E94CF
:10296000393B80E00E9413120E942C1240E050E09C
:10297000BA018FE090E00E94393B40E050E0BA019C
:1029800083E190E00E94393B0895B0E0A0E0EBECD9
:10299000F4E10C94E8377901C82F880FDD0B41155D
:1029A0005105A9F0FE0193E0EE0FFF1F9A95E1F7A4
:1029B000E050FF4F818192818D559D4F208130E005
:1029C0004217530708F49A01A9010E946438CE0106
:1029D0000E945337D82E8823D1F001151105B9F084
:1029E00083E0CC0FDD1F8A95E1F7FE01E050FF4F39
:1029F000438150E00417150708F4A801C050DF4FC9
:102A00006C817D816D557D4FC7010E9464388D2D8D
:102A1000CDB7DEB7E7E00C940438A3E0B0E0E3E123
:102A2000F5E10C94EB378091E6029091E702A091DA
:102A3000E802B091E9022FB7F894409159065091FD
:102A40005A0660915B0670915C062FBF481B590BBC
:102A50006A0B7B0B81E0443651056105710508F472
:102A600080E090912C0699834436510561057105EB
:102A700020F42091B702291381E090912D069A83CA
:102A8000811106C081E02091B802291301C080E0C5
:102A90009091E5029B83811105C08091B90211E0FC
:102AA0008917C9F010E000E030E020E043E050E09A
:102AB000BE016F5F7F4F89E00E94C514182F8823E5
:102AC00051F00E949B096093E6027093E7028093A5
:102AD000E8029093E902812F2396E4E00C940738F2
:102AE000A4E0B0E0E6E7F5E10C94EB374091D402C6
:102AF0005091D5026091D6027091D7022FB7F89409
:102B00008091590690915A06A0915B06B0915C069F
:102B10002FBF841B950BA60BB70B11E084369105D4
:102B2000A105B10518F10E94FD0F6E5F7F4F8F4F19
:102B30009F4F69837A838B839C8310E000E030E0B1
:102B400020E044E050E0BE016F5F7F4F85E00E94CF
:102B5000C514182F882351F00E949B096093D4025A
:102B60007093D5028093D6029093D702812F24963A
:102B7000E4E00C9407388F929F92AF92BF92EF924D
:102B8000FF920F931F93CF937B01942FB901A8015C
:102B9000F70180809180A280B380EFB7F894009114
:102BA000590610915A0620915B0630915C06EFBFE2
:102BB000081919092A093B090436110521053105AF
:102BC00018F4C1E0992381F010E000E030E020E04B
:102BD0000E94C514C82F882339F00E949B09F70171
:102BE00060837183828393838C2FCF911F910F9188
:102BF000FF90EF90BF90AF909F908F900895A1E0CD
:102C0000B0E0E5E0F6E10C94EB3780912A06898389
:102C10002091C20290E041E02817190609F440E033
:102C200001E010E09E012F5F3F4F6EEE72E08BE0FF
:102C30000E94BB152196E4E00C940738A8E0B0E0B0
:102C4000E4E2F6E10C94EB3785E0EEE0F4E0DE013F
:102C5000119601900D928A95E1F780910B04909165
:102C60000C04A0910D048E839F83A88741E0888582
:102C7000811101C040E008E010E09E012F5F3F4F4E
:102C80006AEE72E08AE00E94BB15811110920D0479
:102C90002896E4E00C940738A1E0B0E0E2E5F6E124
:102CA0000C94EB370E94E90F898341E09091B602C2
:102CB000981301C040E001E010E09E012F5F3F4FFC
:102CC00061EE72E088E00E94BB152196E4E00C946E
:102CD00007380F931F9341E09091B40280919106C1
:102CE000981301C040E001E010E021E936E06DED0D
:102CF00072E086E00E94BB15882389F041E0909144
:102D0000B5028091DC02981301C040E001E010E0C0
:102D10002CED32E068ED72E087E00E94BB151F9158
:102D20000F9108950F931F93CF93DF93EC0145E02C
:102D300050E069EA72E00E94573841E0892B09F4BB
:102D400040E005E010E09E016CEC72E082E00E9441
:102D5000BB15DF91CF911F910F910895A1E0B0E0D5
:102D6000E4EBF6E10C94E237762E4A015901680152
:102D700001E010E09E012F5F3F4F50E040E070E027
:102D800060E00E94C514182F882309F440C0F401A4
:102D900040815181628173812FB7F89480915906E7
:102DA00090915A06A0915B06B0915C062FBF841BE0
:102DB000950BA60BB70B84369105A105B10538F428
:102DC000B701C6010E94320A9981891701F1870172
:102DD000950150E040E070E060E0872D0E94C5144E
:102DE000B82EB701C6010E94320A11E099819813EA
:102DF00010E01B2139F00E949B09F401608371836C
:102E000082839383812F2196EDE00C94FE37A701F6
:102E1000B601C5010E946438F5CFA5E0B0E0E3E15A
:102E2000F7E10C94E7376B0185E0E82EF12C04EA1A
:102E300012E09E012F5F3F4F48EC52E061E080E0DE
:102E40000E94AE16882349F095E0FE013196A3EC6E
:102E5000B2E001900D929A95E1F795E0E3ECF2E093
:102E6000D60101900D929A95E1F72596E8E00C9431
:102E7000033890E080E00E94213B883E9E4F19F489
:102E80000E944213089580E008951F920F920FB69A
:102E90000F9211242F933F934F935F936F937F93E0
:102EA0008F939F93AF93BF93EF93FF938091E10034
:102EB00082FF09C08091E20082FF05C08091E1009D
:102EC0008B7F8093E1008091DA0080FF24C08091A5
:102ED000D80080FF20C08091DA008E7F8093DA00D6
:102EE0008091D90080FFA9C080E189BD82E189BDC0
:102EF00009B400FEFDCF81E08093900680916206C8
:102F0000811109C00E94E9070E94DC088091E2005B
:102F100084608093E2008091E10080FF1CC080917A
:102F2000E20080FF18C08091E2008E7F8093E20073
:102F30008091E20080618093E2008091D8008062FD
:102F40008093D80019BC85E08093900680916F0033
:102F5000826080936F008091E10084FF32C0809195
:102F6000E20084FF2EC080E189BD82E189BD89B580
:102F7000982F917080FFFBCF8091D8008F7D809338
:102F8000D8008091E1008F7E8093E1008091E20083
:102F90008F7E8093E2008091E20081608093E20066
:102FA00080918706882309F44EC084E080939006C0
:102FB0008091900680916F008D7F80936F000E94BA
:102FC000E90F8091E10083FF27C08091E20083FF39
:102FD00023C08091E100877F8093E10082E08093AD
:102FE0009006109287068091E1008E7F8093E10029
:102FF0008091E2008E7F8093E2008091E200806108
:103000008093E20042E060E080E00E94AA088091A4
:10301000F00088608093F000FF91EF91BF91AF9135
:103020009F918F917F916F915F914F913F912F91E0
:103030000F900FBE0F901F90189519BC109290061C
:103040001092620668CF8091E30087FD93E0909331
:103050009006AECF78941F921FB61F9211248F93C3
:103060009F93AF93BF938091590690915A06A09178
:103070005B06B0915C060196A11DB11D80935906B7
:1030800090935A06A0935B06B0935C06BF91AF91F4
:103090009F918F911F901FBE1F9018959C014FB755
:1030A000F8948091590690915A06A0915B06B091D0
:1030B0005C064FBF821B930B08952FB7F894809145
:1030C000590690915A06A0915B06B0915C062FBFFD
:1030D00008950E94C60F882319F00E945D18089574
:1030E0000E94FD0FCB01089560910E04669570E07B
:1030F00041E050E08BE791E00E944A38892B19F4B7
:1031000081E080930C040E946918909306048093D8
:10311000050480910D04846080930D0408959091BE
:103120000E0490FF31C0917081112FC09260909376
:103130000E0480910D04816080930D04662351F08C
:1031400060910E0470910F0480911004909111040D
:103150000E94691360910E04669570E041E050E0B2
:103160008BE791E00E944A38892BB1F00E944E0A09
:1031700081E08093080420E04091110460911004E4
:1031800080910F040E947C130895893010F09061A3
:10319000CECF880F982BCBCF0E947418E9CF8091A7
:1031A0000E048695815009F488E061E00E948F1832
:1031B000089580910E0486958F5F893008F081E034
:1031C00061E00E948F18089590910E0490FF08C04E
:1031D0009695981728F0961718F40E94D918089514
:1031E00061E00E948F180895CF93C82F80915E06EA
:1031F00082FF0CC08091E5028C1741F00E945D189F
:103200009093970280939602C093E502CF91089520
:10321000AFE0B0E0EEE0F9E10C94E2378E010F5F31
:103220001F4F8AE0D8011D928A95E9F780ECC82EDD
:1032300081E0D82EF12CE12CAA24A394B12C2BEC04
:10324000822E21E0922EF60181916F018F3F09F4C9
:1032500042C0F894E82FE295EF70F0E021A18F7062
:10326000A50102C0440F551F8A95E2F7CA01922FAB
:10327000982B91A392A18095892382A3789400C072
:10328000E5ECF1E0712C31E021912F3F09F46BC0A6
:10329000A22FA295AF70B0E090968C9190E02F7025
:1032A00002C0959587952A95E2F780FD5CC0832F33
:1032B000782A330F8E169F0639F7F60131978081F1
:1032C0008F3F11F00E94030B50EA5A95F1F7F80175
:1032D000EE0DFF1D70828FEFE81AF80A95E0E916EF
:1032E000F10409F0B0CF4AE050E0B80187EF92E076
:1032F0000E945738009741F02AE0F801A7EFB2E0AA
:1033000001900D922A95E1F700910203892B69F152
:1033100081E080939A020E945D18909399028093B5
:10332000980280919802909199020E944E180597F8
:1033300000F110E0035B1C4F45E050E067EF72E0E6
:10334000C8010E945738D12C892B51F085E0E7EF56
:10335000F2E0D80101900D928A95E1F7DD24D39433
:1033600010929A0207C080E0A3CF80919A02811147
:10337000D8CFD12C0E94C60FC82EE0910203DE01E7
:103380001B967D01882309F4A8C085E01D928A95CB
:10339000E9F70E2F10E0035B1C4F8091F2028A3098
:1033A00008F068C04DE057E1B701C8010E94930FD3
:1033B000882309F481C042E956E1B701C8010E949F
:1033C000930F882309F478C044EF52E2B701C80193
:1033D0000E94930F882309F46FC040E755E1B701BD
:1033E000C8010E94930F882309F466C049E656E19C
:1033F000B701C8010E94930F882309F45DC04CE413
:1034000056E1B701C8010E94930F882309F454C004
:103410004DE055E1B701C8010E94930F882309F4DC
:103420004BC04EE156E1B701C8010E94930F8823BB
:1034300009F442C04FEF55E1B701C8010E94930F54
:103440008823D1F11092F2028091010390E045E0CF
:1034500050E0B701835B9C4F0E94573821E02093D6
:10346000A102892BE1F4C12C8C2D8D292F96EDE042
:103470000C94FE3780919B0290919C020E944E1802
:10348000843F914008F08ECF8091A102882359F3A8
:1034900085E0F70111928A95E9F71092A102A091B7
:1034A0000103B0E0A35BBC4F85E0FE013B960190B9
:1034B0000D928A95E1F7D8CF8091F2028F3F31F0DB
:1034C0008F5F8093F2028A3008F4BECF0E945D18AD
:1034D00090939C0280939B02D7CF0091010310E050
:1034E000035B1C4FF0E0E35BFC4F85E0A4EAB2E035
:1034F00001900D928A95E1F765E070E084EA92E030
:103500000E94320A8093A30285E0E9EAF2E0D80142
:1035100001900D928A95E1F74091210350E060916E
:10352000200370E0645E7C4FC7010E9464388B8585
:103530008093AF0261E070E0C7010E94320A80937D
:10354000AE028090B0029090B102A090B202B09012
:10355000B30280919D0290919E02A0919F02B09132
:10356000A00288169906AA06BB06D1F080929D0299
:1035700090929E02A0929F02B092A0020E94C60F5B
:1035800081110EC00E949B09861A970AA80AB90ADF
:103590008092F3029092F402A092F502B092F602A9
:1035A0008091B402809391068091B5028093DC02F1
:1035B0008091B602809352068091B70280932C06C8
:1035C0008091B80280932D068091B9020E94F41870
:1035D0008091C102882379F180FF0DC08091BA02E9
:1035E00080FF30C090910E04916090930E0460E0D3
:1035F00086950E948F188091C10281FF09C020E04A
:103600004091BD026091BC028091BB020E947C137C
:103610008091C10282FF06C08091C0028823A9F078
:103620000E9474188091C10283FF03C081E08093DF
:1036300008041092C1028091C202882349F00E94BE
:10364000180E12CF0E947B0FD6CF0E944E0AEACFEF
:103650000E94FD0D09CF80912C0690912D06892B9B
:103660008093FE018091E502882329F10E945D1874
:103670002091960230919702821B930B88389341D8
:1036800010F00E94E10C8091FE019091E502892BDF
:103690008093FE0180917F018823E1F180915D0696
:1036A00087FF38C08EE1E0E0F2E090E08150A0F5C5
:1036B00091110E94E10C40E250E066E772E08EEF6B
:1036C00091E00E945738892B21F180E2EEEFF1E082
:1036D000A6E7B2E001900D928A95E1F7E0915506D8
:1036E000F09156063097A9F080917F01882359F018
:1036F00080915D0687FF07C08091FE018093FF01E6
:1037000086E08093FE010280F381E02D8EEF91E050
:103710000995089586E0C7CF2191222339F29F5F52
:10372000C5CF80917E01877F80937E0190912D0689
:103730009D7F90932D0684FF08C08F7E80937E012D
:1037400080912C06826080932C0680917E0185FFFB
:1037500008C08F7D80937E0180912C0680628093CB
:103760002C060E942B1B089590E080E00E941C0A0A
:1037700090E080E00E94060A10922D060E942B1B0A
:103780000895982F9670963031F488608093910652
:103790000E94B41B0895877FF9CF80919106982FDE
:1037A0009670963021F488600E94C11B0895877F2F
:1037B000FBCF21E030E001C0220F8A95EAF7209587
:1037C0008091910682230E94C11B089590917502F9
:1037D0008095892380937502282F277091F4282FD4
:1037E000082E000C330B9217130659F090915E06C9
:1037F00092FF07C08595859585950E94D91B0E94EB
:10380000F30C089590915E0692FB222720F9281769
:1038100069F080FB92F990935E0680915D0690912D
:103820005E060E943C1282E00E94E61B089521E0A1
:1038300030E001C0220F8A95EAF780919106822B31
:103840000E94C11B08958093DC020E94B41B08955E
:1038500010922C0680917F01E0E0F2E0882361F075
:1038600080915D0687FF08C08EE1DF011D928A9579
:10387000E9F70E94B41B089586E0F7CFAAE2B0E012
:10388000E4E4FCE10C94EC3788E896E02091F10048
:10389000DC012D93CD01B6E080399B07B9F780910B
:1038A0008906833009F472C0B8F4813009F449C044
:1038B000823009F4B3C08091E80083FF96C2809102
:1038C0008806909189069A3008F08FC2E92FF0E0BF
:1038D000E35AF44C0C9434388A3009F48EC08B309F
:1038E00009F471C0893039F780918806813219F75F
:1038F00080918C0690918D06009711F00297D9F671
:103900008091E800877F8093E8008091E80082FF43
:1039100038C09091F3008091F200029731F48091C9
:10392000F100813011F0863021F48091F100809314
:1039300064068091E8008B778093E8000E948B08F2
:10394000BACF80918806813A09F0B5CF8091E8001E
:10395000877F8093E80080918C0690918D06892B5B
:1039600061F460E285E696E070E00E94370980919C
:10397000E8008B778093E8009ECF60E090E080E0E5
:10398000F3CF809190068111C0CF95CF80918806AA
:10399000813A09F090CF80918C0690918D06892B09
:1039A00009F089CF8091E800877F8093E8008091BB
:1039B000E80080FFFCCF80917F018093F10080912F
:1039C000E8008E77B9CF80918806813209F073CFF5
:1039D00080918C0690918D06892B09F06CCF809197
:1039E000E800877F8093E8000E948B0880918A0618
:1039F00080937F010E94281C5ECF809188068132CF
:103A000009F059CF8091E800877F8093E8000E94F9
:103A10008B0880918B06809363064DCF809188063A
:103A2000813A09F048CF8091E800877F8093E800D1
:103A30008091E80080FFFCCF80916306BECF803884
:103A400099F0823809F0D1C180918C068F7087304F
:103A500008F0CBC18093E9008091EB0085FB8827BB
:103A600080F91092E90006C0809185069091860643
:103A7000911182609091E800977F9093E800809385
:103A8000F1001092F1008091E8008E77AAC188239E
:103A900009F498C1823009F0A8C180918A06811189
:103AA0009BC180918C068F702FEF280F263008F075
:103AB0009CC18093E9002091EB0020FF8DC19330E1
:103AC00031F48091EB0080628093EB0085C190918E
:103AD000EB0090619093EB0021E030E001C0220FF9
:103AE0008A95EAF72093EA001092EA008091EB00B1
:103AF0008860EACF811179C110918A061F77809181
:103B0000E3008078812B8093E3008091E800877F39
:103B10008093E8000E948B088091E80080FFFCCF32
:103B20008091E30080688093E30082E0111183E0DC
:103B3000809390065AC18058823008F056C1209177
:103B40008A0630918B062C3DE3E03E07A1F583E029
:103B50008A838AE289834FB7F894DE01139620E0C6
:103B60003EE051E2E32FF0E050935700E49120FF54
:103B700003C0E295EF703F5FEF708E2F90E0EA3068
:103B8000C0F0C7968D939D932F5F243159F74FBF97
:103B90008091E800877F8093E8006AE270E0CE01C0
:103BA00001960E9437098091E8008B778093E800A6
:103BB0001CC1C096E7CF80918C0690918D06432F53
:103BC00055274330510509F44AC078F54130510575
:103BD00009F485C08BE590E0E2E8FEE04230510553
:103BE00009F003C12091E800277F2093E80020918D
:103BF0008E0630918F068217930708F49C0140E0EF
:103C00002115310509F070C041116EC08091E800A6
:103C100082FDC9CF80919006882329F2853019F260
:103C20008091E80083FFF2CFBECF4132510509F405
:103C300047C04232510509F0D8C08330910508F0E1
:103C4000D4C0FC01EE0FFF1FE151FE4F0190F08147
:103C5000E02D84519E4FDC018C9190E01DC03327F4
:103C600021303105E9F02115310579F02230310597
:103C7000F9F02330310509F0B8C0EFEEFEE0E49131
:103C80008E2F90E0EFEEFEE007C0E9E5FFE0E49163
:103C90008E2F90E0E9E5FFE0009709F4A6C0A2CFDF
:103CA000EBE2FFE0E4918E2F90E0EBE2FFE0F4CF57
:103CB000EDE0FFE0E4918E2F90E0EDE0FFE0ECCF4F
:103CC0008330910508F091C0880F991FFC01EB50DB
:103CD000FE4F0190F081E02D89E090E083CF82E1FA
:103CE00090E0EDEDFEE07ECF80919006882309F410
:103CF0005ACF853009F457CF8091E80083FD53CF28
:103D00008091E80082FD82CF8091E80080FF78CF2B
:103D10009091F3008091F2002115310519F088305F
:103D2000910550F041E0089709F040E08091E800EB
:103D30008E778093E80064CF44914093F1003196F0
:103D4000215031090196E8CF803809F04EC08091AA
:103D5000E800877F8093E800809187068093F100D8
:103D600092CE811142C010918A061230F0F58091F6
:103D7000E800877F8093E800109387060E948B08F5
:103D8000112311F084E005C08091E30087FDFACF94
:103D900081E08093900642E061EC81E00E94AA08F5
:103DA00042E261EC84E00E94AA0842E261EC82E017
:103DB0000E94AA0842E260EC83E00E94AA08809177
:103DC000900613C080918A06813079F481E09330A7
:103DD00009F080E0809386061092E9008091E80067
:103DE000877F8093E8000E948B088091E80083FF22
:103DF0000AC08091E800877F8093E8008091EB0003
:103E000080628093EB00AA96E3E00C9408381F923E
:103E10000F920FB60F9211242F933F934F935F93FE
:103E20006F937F938F939F93AF93BF93CF93DF93C2
:103E3000EF93FF93D091E900DF708091EC00C82FE1
:103E4000C17080FDC0E81092E9008091F000877F8A
:103E50008093F00078940E943E1C1092E9008091BB
:103E6000F00088608093F000CD2BCF70C093E90004
:103E7000FF91EF91DF91CF91BF91AF919F918F9182
:103E80007F916F915F914F913F912F910F900FBE56
:103E90000F901F9018950E94281C2FEF84E39CE040
:103EA000215080409040E1F700C0000088E19CE094
:103EB0000FB6F894A895809360000FBE90936000B1
:103EC000FFCF882341F0809590912D068923809320
:103ED0002D060E942B1B0895882339F090912D0602
:103EE000982B90932D060E942B1B0895882321F078
:103EF0000E94EC0C0E942B1B0895882339F09091AE
:103F00002C06982B90932C060E942B1B0895882337
:103F100051F19CEF980F913A40F4682F8EEF91E0A9
:103F20000E94A7090E942B1B089590E2980F9830D9
:103F300050F4877091E001C0990F8A95EAF7892FB4
:103F40000E94EC0CEFCF9BE5980F933028F490E0A3
:103F500080E00E941C0A0895885A873120F490E07E
:103F600080E00E94060A0895CF93DF93EC010E943F
:103F7000871FCE010E94A20D9E01205E31092830CC
:103F8000310510F0CD2B29F40E94761FDF91CF91DF
:103F900008950E94611FFACFCF93C82F8823D9F1CB
:103FA0008CEF8C0F813AC8F580917F01882311F145
:103FB00080915D0687FF1EC0EC2FE695E695E6959D
:103FC000F0E0E250FE4F828190E04C2F477021E0FC
:103FD00030E002C0220F331F4A95E2F78223932379
:103FE000892B91F06C2F8EEF91E00E94A7090E941F
:103FF0002B1B0AC0E0E0F2E086E092E02191C217BC
:1040000089F38E179F07D1F76C2F8EEF91E00E94F6
:10401000D1090E942B1BCF91089580E28C0F88302C
:1040200068F4C77021E030E001C0220FCA95EAF7BA
:1040300080912C06822B80932C06EBCFEBE5EC0FC6
:10404000E33040F4F0E0E357FE4F808190E00E94BF
:104050001C0AE1CFC85AC731F0F6EC2FF0E0EE0FA2
:10406000FF1FE057FE4F808191810E94060AD3CF47
:104070001F93CF93DF93182FEB010E94CC1F8FE982
:104080009FE00197F1F700C000002197C1F7812F51
:104090000E94871FDF91CF911F910895B0E0A0E0AB
:1040A000E4E5F0E20C94E437EC01A62E8AE0982EC9
:1040B0002881222309F4B3C0213009F051C089813D
:1040C0008130C1F48E010E5F1F4F8A816AE070E07B
:1040D000893311F460E570E00E943820E8012196F0
:1040E0008A2D815028F3EFE9FFE03197F1F700C006
:1040F0000000F7CF823039F48E010E5F1F4F8A81A6
:104100000E94CC1FEBCF833039F48E010E5F1F4F1E
:104110008A810E94871FE2CF843011F02196DFCF81
:104120002A81229690E080E0AE014F5F5F4F2053DE
:10413000330B2A30310548F0019788F2EFE9FFE0B0
:104140003197F1F700C00000F7CF989EB001999E1B
:10415000700D1124C901860F971F2981EA01E4CF50
:10416000E22FF0E0EE5FF14FB490822F86958695B6
:10417000869590E0FC01EE50F24FE4902770F12C10
:10418000022E02C0F594E7940A94E2F731E0E322AC
:10419000FF24FC01EE51F24FC490D12C022E02C03C
:1041A000D594C7940A94E2F7E1E0CE22DD24FC0125
:1041B000EE52F24F049110E002C0159507952A9532
:1041C000E2F701701127E114F10419F081EE0E9469
:1041D000CC1FC114D10419F086EE0E94CC1FF9E364
:1041E0006AE070E0BF1202C060E570E08B2D0E94B3
:1041F0003820C114D10419F086EE0E94871FE11403
:10420000F10419F081EE0E94871F0115110509F4D0
:1042100066CF6AE070E08CE20E94382060CFCDB7B4
:10422000DEB7EBE00C940038CF93DF93EC010E94F3
:10423000A20D9E01205E31092830310510F0209733
:1042400041F40E947D1F8C2F0E94CC1FDF91CF91E3
:1042500008950E946C1FF7CFB0E0A0E0E2E3F1E226
:104260000C94E837EC018B0180917E0182FF96C0AF
:10427000E0905006F0905106EC16FD0619F02097DC
:1042800009F08CC080917E018B7F80937E0181FD3F
:104290007EC080914E0690914F06A801481B590B95
:1042A00081E020917C0130917D014217530708F491
:1042B00080E08170D82E80917E01D0FA81F98093C0
:1042C0007E01E701DD27FE0184E0F695E7958A95FA
:1042D000E1F7EE0FFF1FE25DF94F20813181A70169
:1042E0004F70552781E090E002C0880F991F4A95D2
:1042F000E2F7DD2009F44DC0822B932B918380835C
:1043000080912C0681FF08C080917E01806180939E
:104310007E0182E00E94EC0C80912C0685FF08C093
:1043200080917E01806280937E0180E20E94EC0C8D
:10433000DD2029F080912D06826080932D06C70133
:104340009056811520E2920728F0905E81159041E9
:1043500008F0E701CE010E9414218FE39CE9019748
:10436000F1F700C0000080915006909151069C0129
:104370003056211540E2340720F0305E21153041DF
:1043800008F499270E94B41F0E94911B1DC081E070
:1043900090CF8095909582239323B0CFCE0199271B
:1043A0009E013056211540E2340728F0305E211579
:1043B000304108F0CE010E94B41F809150069091C8
:1043C0005106C817D90701F310934F0600934E0604
:1043D000CDB7DEB7E7E00C94043890915E0692FF0B
:1043E00010C098E0899F90011124622B60937502A0
:1043F0000E94171C0E945D189093740280937302B0
:1044000008950E94171C0895A7E1B0E0EAE0F2E2E7
:104410000C94EC374B8B5C8B6D8B7E8B8F8B61118F
:1044200010922D061A8A198A85E0FE017396DE0124
:104430001D9601900D928A95E1F780915E0682FFAC
:104440001CC00E945D182091730230917402821B7F
:10445000930B8838934120F08091750282FF79C0D8
:104460000E945D182091960230919702821B930B57
:104470008838934110F00E94E10C86E0FE013D96E1
:10448000DE01179601900D928A95E1F7CE0107960D
:104490000E94092B882359F016E0809172029091B6
:1044A0004102891343C06796E3E00C94083886E024
:1044B000FE013796DE01119601900D928A95E1F783
:1044C0008A859B85892B41F38F81988589238F3F2E
:1044D00019F32091410230E0C901019687709927B4
:1044E000409172024817190671F40E94281C10921C
:1044F00041021092720286E0EBE3F2E0DF011D92CE
:104500008A95E9F7C9CF96E0929FD001939FB00DAD
:104510001124AE5BBD4FFE01319601900D929A952C
:10452000E1F7809341020E94FA0CB6CF819FC0014F
:1045300011248E5B9D4F0E94092B882309F4B3CF71
:104540008091720290E001968770992780937202A1
:10455000A4CF82E00E94E61B83CFAAE0B0E0E3EBA9
:10456000F2E20C94EB37182F062F662399F10E9484
:104570005D181E832DEF2F8321E0288781609A87A5
:1045800089874E815F81688579858A850E940422AA
:104590008FE39FE10197F1F700C000000023F9F0DD
:1045A0000E945D1819832DEF2A831B8281609D83F1
:1045B0008C8349815A816B817C818D810E94042288
:1045C0008FE39FE10197F1F700C000002A96E4E035
:1045D0000C9407380E945D181E832CEFCCCF0E94EC
:1045E0005D1819832CEFE0CFA1E0B0E0EAEFF2E232
:1045F0000C94E637EE24E394F12C0FEA12E09E01CE
:104600002F5F3F4F40ED52E064E083E00E94AE1622
:10461000C82E882339F100E080E01DC0D09005034A
:10462000D00E2D2D30E0A901445E5C4F7A01E1E00F
:10463000F0E0EC0FFD1FE00FF11D1081FA019081F9
:10464000191BB12E1B149CF0912F17FD90E0191B24
:10465000111118C00F5F909104030917F8F281112E
:104660000E94DE0C8C2D2196E9E00C940238BA945D
:10467000F70180818F5F808360E08D2D0E94AD22E5
:104680008C2DE0CF1F5FF70180818150808361E036
:104690008D2D0E94AD228C2DDBCFA5E0B0E0E3E5AF
:1046A000F3E20C94ED37909318048093170481156E
:1046B00020E2920730F40E94B41F2596E2E00C94A9
:1046C000093880EF89838A831B820E945D1881608C
:1046D000782F9D838C8349815A816B818D810E94C3
:1046E0000422EBCFA5E0B0E0E8E7F3E20C94ED376D
:1046F0009093180480931704811520E2920730F4F8
:104700000E9414212596E2E00C94093880EF8983F9
:104710008A8381E08B830E945D188160782F9D835E
:104720008C8349815A816B818D810E940422EACF5A
:10473000A8E0B0E0EEE9F3E20C94E2376C01FC0192
:1047400083819481892B31F08081918189238F3FEE
:1047500009F0E7C62896EDE00C94FE370E94DC12C3
:10476000182F682F89819A810E94750D69817A813D
:10477000812F0E94B2128C01F6018281882309F4F4
:10478000C4C6C80182519F45409708F038C68FEFD4
:1047900093E00E94133B8111AEC07EEEB72EB00EA7
:1047A00007E212E0B11036C019821A821B821C8205
:1047B00077247A9448012FEF821A920AC8010E9446
:1047C000133B89831A82882309F495C0813009F04C
:1047D00087C0580132E0A30EB11CC4010E94133BF4
:1047E000882E8A83882309F486C0C5010E94133B62
:1047F000982E8FEF880D8330D8F4580143E0A40E33
:10480000B11C9B82992021F060E0C7010E944E20DC
:104810008501D0CF0115F4E01F0709F46CC0C80171
:104820000E94133B811101C0BA940F5F1F4FBACF92
:104830008BEF880D833070F5C80103969B825C0175
:10484000992031F3580154E0A50EB11C0E94133B8E
:104850008C838823E9F20B811C8101308FEF1807CC
:1048600010F0102F002796E0891681F0E7E08E16F1
:1048700049F0C8010E9472238FE39CE90197F1F788
:1048800000C00000C8010E944D23C2CFC8010E9491
:104890007223BECF94E08912BBCF5801E4E0AE0E84
:1048A000B11CC80103960E94133B992021F1882373
:1048B00011F18150990B789E9001799E300D112451
:1048C000492D4150550BCA01820F931F019708F4DF
:1048D0009FCFEFE9FFE03197F1F700C00000F6CF7E
:1048E0006AE0C7010E944E20540192CF81E00E94ED
:1048F000171C0E94CD1B80917502877009F42ACF86
:10490000F6018281882309F425CF80915E0682FF1B
:1049100021CF82E00E94E61B1DCF81E00E94D91BBF
:10492000E8CF82E0E4CF0B315CE51507A9F068F031
:1049300080917E018E7F0C319CE5190709F092C5AC
:1049400080937E010E94911B8DC590917E01892FDD
:104950008E7F90FF8160F4CF80917E018160809393
:104960007E0180C580917C0190917D010596909398
:104970007D0180937C0176C580917D018F9380912C
:104980007C018F9388E891E09F938F931F9288E03A
:104990008F93FF92EF920E94743860E0C7010E94EB
:1049A0004E200FB6F894DEBF0FBECDBF5BC5809121
:1049B0007E018F7E013E110531F0053E1105C1F4E7
:1049C00080917E018F7D80937E0180917E0180FFAA
:1049D00058C5F60182810B32110549F1F8F49801AE
:1049E000245031092432310510F1811146C549C5E1
:1049F000C8019056811530E2930720F0905E811532
:104A0000904118F780917E0182FF3BC543E153E05E
:104A1000B50190E080E00E942C2133C50D321105D4
:104A200020F30933110518F004361105F1F6882337
:104A300009F459C08091E50290912C06982B292FFA
:104A40002D7F61F11092510610925006F80144E05A
:104A5000F695E7954A95E1F7EE0FFF1FE25DF94FF6
:104A600098012F70332781E090E002C0880F991FD2
:104A70002A95E2F7809590952081318182239323B6
:104A800091838083C8010E9414218091E5028D7F6B
:104A90000E94F41882E00E94E61B2DCF26E0F6016A
:104AA000A3E1B3E001900D922A95E1F7109215036E
:104AB000109217031092160320917E0191FB21F9A9
:104AC00020937E018D7F0E94F4181093510600936D
:104AD0005006B0924F06A0924E0680917E018460EF
:104AE00080937E01D7CFA601B501C8010E942C2179
:104AF00002CF053A3DE5130709F4D7C4E0F40136C7
:104B00005DE5150709F4D1C406318CE5180709F0F5
:104B100032C280912C068A7A91E009F490E0909359
:104B20001E0269E2811165E38EEF91E00E94D109D6
:104B30000E942B1BE0CEC8018D5A9D45039720F79C
:104B4000B4C480915D06806207309CE51907B9F115
:104B500080915D0680610830ECE51E0780F1809150
:104B60005D0680642CC00D30FCE51F0709F4C4C04D
:104B700090F480915D068E7F0B303CE51307F9F0D1
:104B800080915D068C600C304CE51407C0F080917C
:104B90005D068D7F14C00F305CE5150709F4BCC0BD
:104BA00008F4AEC000319CE5190709F4B9C0809142
:104BB0005D068F7B0131ECE51E0709F09DC48093F3
:104BC0005D069AC40F3FFCE51F0709F4B7C0A8F5BE
:104BD0000A3F3CE5130709F47DC0C0F404315CE5ED
:104BE000150709F4B9C008F4A5C005319CE51907FB
:104BF00009F082C480915D0682FB992790F921E03B
:104C0000922790FB82F990FB83F9D9CF0C3FECE51A
:104C10001E0709F479C008F461C00D3F2CE51207A6
:104C200009F476C080915E0683600E3F3CE5130771
:104C300009F062C480935E065FC401364DE5140737
:104C400009F495C090F401308DE5180709F48DC082
:104C500008F478C060E00230EDE51E0709F04CC4AE
:104C60008EE090E00E94273B47C40D3AFDE51F0708
:104C700009F160F490915D06892F8E7F90FF81602D
:104C8000053A3DE5130709F49ACF36C40E3A4DE5CF
:104C9000140771F10F3A5DE5150709F02DC49091E5
:104CA0005E06892F877F93FF8860C4CF80915D0661
:104CB000816085CF80915E068860BCCF80915D0663
:104CC00082607DCF80915D06846079CF80915D06A2
:104CD000886075CF80915E068160ACCF80915E0662
:104CE0008260A8CF0E94281C80915D06806867CFF3
:104CF00080915E06877F9ECF80915D068B7F5FCF20
:104D000080915D06877F5BCF80915E068E7F92CF1C
:104D100080915E068D7F8ECF80915D068F7E4FCF16
:104D200080915D068F7D4BCF0E94281C80915D068F
:104D30008F7745CF80915D06837F41CF80915E065E
:104D40008C7F78CF80915E06982F909591708E7FA2
:104D5000892B90FB81F96ECF0E94281C90915D06F3
:104D6000892F97FB87F980582ACF61E079CF9091FE
:104D70005D06892F8F7E94FF806121CF80912C0664
:104D800082720A3C9CE5190709F4E8C008F073C078
:104D9000053CFCE51F0709F4CDC008F054C0033CF6
:104DA0003CE5130709F4BCC008F0BFC0023C5CE559
:104DB000150709F489C0F6018281008111818823D9
:104DC00009F40FC1C8010E94DC12F82E682FC80137
:104DD0000E94750DB8018F2D0E94B2120E945D0BCA
:104DE0008C01882EF601E280B580B2943FE0B322B8
:104DF000809175028770C1F0AE2CEE20B1F0812F4A
:104E0000807F803421F080E2800F883068F08091CC
:104E10005E0682FF09C082E00E94E61B8091750257
:104E20008770AA24A3948111A12C912E92942FE033
:104E30009222FBE0F91508F440C1E92DF0E0E959B0
:104E4000F44C0C943438073C9CE5190709F47CC0F9
:104E500008F475C0083CFCE51F0709F47AC045ED6D
:104E600053E162EE73E1093C2CE5120709F0A3CF90
:104E70000E94480A40CD0E3C3CE5130709F478C077
:104E800080F40C3C5CE5150709F46DC04DE154E17C
:104E90006FE274E10D3C9CE5190750F361E081E09D
:104EA0003CC0063DECE51E0750F468E086E0003D9E
:104EB000FCE51F0708F01FCD0E94E4181CCD0D353E
:104EC000100709F418CD77CF80910E0480FF20C021
:104ED0008E7F80930E0460910E0470910F04809178
:104EE0001004909111040E9469130E944E0A80914F
:104EF0000D04816080930D043FEF40E752E0315094
:104F000040405040E1F700C000000E94D80EF3CCB2
:104F1000816080930E0461E086950E948F18EBCC2F
:104F20004FEC58E169ED78E1A3CF49ED58E16FEC22
:104F300078E19ECF49E054E163E174E199CF43E128
:104F400054E169E074E194CF4FEE53E16CEF73E10B
:104F50008FCF4CEF53E16FEE73E18ACF42EE53E116
:104F600065ED73E185CF4FE254E16DE174E180CFEF
:104F700065E082E0A1CF0A358DE5180771F158F49C
:104F80000115ECE51E0791F00E3D1C4509F013CF0D
:104F90000E945A1409C00C352DE51207A1F0F8F053
:104FA000073A1D4509F007CF0E944B1F0E94281C9D
:104FB0005FEF84E39CE0515080409040E1F700C0F7
:104FC00000000E94B40E80915E0682FB882780F963
:104FD00091E089270E94021CEECE81E0FBCF80E0A9
:104FE000F9CFC8010E942B0DF82EF4CE212F2F707F
:104FF000F22E107F19F0F29490EFF922EE20B9F022
:10500000FF2069F080E2800F883010F0811009C025
:1050100080912C06F82AF0922C060E942B1B802FE0
:105020004AC080912D06F82AF0922D06F6CF802FE7
:105030000E94871FFF2009F440C0005E083010F076
:10504000811004C08F2D0E94EC0C06C0F09480915A
:105050002D06F822F0922D060E942B1B2EC0312F18
:105060003F70F32E107F103219F0F29480EFF82287
:10507000882089F041E0841609F486C0EE2009F406
:105080008FC0BB2009F45CC0F601858180FFC7CFCB
:105090008F70858355C080915E0682FD34C0EE20FE
:1050A00061F1FF2039F080912C06F82AF0922C064D
:1050B0000E942B1B80E00E94CC1FE92DE850FF0BC3
:1050C000349710F40E94E90FAA2009F443CB809191
:1050D000750280FD3FCBF6011282859585958595F9
:1050E0000E94171CC6010E94982380917502859525
:1050F000859585950E94D91B2DCB80E00E94871F46
:10510000FF20D9F29FCFEE20F9F0B11004C08091BA
:10511000E5028F2916C051E0B51206C08091E50264
:105120008F290E94F418C9CF85E0B812F0CF0E94F1
:10513000E10C90911F028F2D892B891380931F0200
:105140008F2D0E947D1FB9CFB11003C00E94E10CCA
:1051500012C091E0B91213C080912C068F2109F47E
:10516000ACCF0E94E10C90911F028F2D8095892376
:10517000891380931F028F2D0E94761F9ECFE5E03A
:10518000BE1609F49ACFE2CFEE2029F0F2E0FB152B
:1051900008F493CFD5CF21E02B1508F48ECFEBCFB9
:1051A000BB2049F3F9E38F1222C12FEF37EE43E022
:1051B000215030404040E1F700C00000802F0E94A5
:1051C000871F7BCF812F86958695837061F0813014
:1051D00009F073CFC8019370E11002C090E080E045
:1051E0000E94060A6ACFC8019370E11002C090E0E5
:1051F00080E00E941C0A61CF812F837089F5E11045
:105200005CCF402F429546954770440F440F802F46
:105210008F70042E01C0880F0A94EAF7202F2071A6
:1052200004FF07C02FE030E001C0220F4A95EAF7E3
:105230002095169516951370123069F050F4309140
:10524000DC02113029F0822B83230E94231C35CFEE
:10525000832B822BFACF282B8091DC028227F5CF7B
:105260008695EE2011F0812F8170882309F425CFD7
:10527000402F429546954770440F440F802F8F7002
:10528000042E01C0880F0A94EAF7202F207104FF32
:1052900007C02FE030E001C0220F4A95EAF72095C1
:1052A000169516951370123069F050F430919106EE
:1052B000113029F0822B83230E94C11BFECE832B49
:1052C000822BFACF282B809191068227F5CF1F7071
:1052D000EE2029F0812F0E94171C802F32CF802FC3
:1052E0000E94761F812F0E94D91BE7CE802F92EF5C
:1052F0008916B1F1981570F0E0EF8E16D1F0F1EF4C
:105300008F1691F0EE2009F466C0B11088CE812F7F
:105310008F712AC023EF821651F134EF8312F2CF3E
:1053200080915E0682FD2FC0812F8F71EE20D9F211
:105330001BC0EE2081F041E04B1508F4BECE1F717A
:1053400081E090E0012E01C0880F0A94EAF7909165
:1053500091068927B1CF52E05B1508F4AECEEFCFAE
:10536000812F8F71E110BFCF0E94171CA6CE80E065
:10537000EE2009F4A1CF1F7181E0012E01C0880F3A
:105380000A94EAF799CFEE20C9F0809175028770F0
:10539000843041F40E94F30C812F8F710E94D91B3D
:1053A000A12C8BCE84E08B15D8F31F71812F0E9426
:1053B000171C63E0812F0E94ED21F2CF94E09B1532
:1053C00030F40E94F30C64E0812F8F71F4CF81E000
:1053D0000E94E61BE5CFBB2079F0893341F4EFEF63
:1053E000F7EE23E0E150F0402040E1F7E5CE8FE317
:1053F0009CE90197F1F7E0CE812F8F7174CF0031D6
:10540000FFE51F0709F472CA01312FE5120709F4FD
:1054100088CA0E945D185C01F6018281882309F424
:10542000C6CA80917E0182FF07C043E153E0B50107
:1054300090E080E00E942C210931FCE51F0709F46F
:105440009BCA08F070CA07313CE5130709F48ACA01
:1054500080917C0190917D01059708314CE51407FE
:1054600009F485CAC80190568115F0E29F0728F01B
:10547000905E8115904108F0A8CA109251061092D2
:105480005006F6018281882309F45FC00330FDE5F0
:105490001F0708F02ECB0A3F2CE5120730F4C80195
:1054A00082509C45449708F02FCB0E945B13909349
:1054B0005E0680935D0602318CE5180709F434CC52
:1054C00008F080CB0930ECE51E0709F40BCC08F09E
:1054D0004ACB05302CE5120709F4F8CB08F031CBA4
:1054E00003304CE5140709F4E9CB08F0EBCB0230AC
:1054F0008CE5180709F4DACB80915D0690915E0681
:105500000E943C120E94281CF6C900313FE5130797
:1055100009F403CA01314FE5140709F07ACF82E09C
:10552000FDC985E09E012F5F3F4F7901D9010190B0
:105530000D928A95E1F7F601228189819A812111E4
:105540000DC90E942B0D182F11C90631FCE51F074C
:1055500009F014CC80911E0269E2811165E38EEF9F
:1055600091E00E94A709E4CA1F93CF93DF93809133
:105570004002807F09F049C080913D02882309F4F0
:1055800044C080917202D091410260913B027091BF
:105590003C02A0913E02B0913F02C62FC72316E005
:1055A000D81799F190E0109711F0CF3F19F40196B8
:1055B0008770F6CF189F9001199F300D1124F901C3
:1055C000EE5BFD4F41814713F2CF40814613EFCF91
:1055D00042814111ECCF438154814A1B5B0B4F3A0E
:1055E000510528F7809140028F70806180934002BE
:1055F000F901E95BFD4F80818F70806180838BE3CF
:1056000092E00E9498230E94FA0CDF91CF911F91A3
:105610000895A1E1B0E0EFE0FBE20C94E5378C01E6
:1056200085E0F801DE011D9601900D928A95E1F763
:10563000F801E2808BE3A82E82E0B82E60913E0252
:1056400070913F026115710509F426C190913B02EA
:1056500040913C02892F84238F3F09F41DC1208192
:105660003181C380D480F0903D02F601E61BF70B38
:10567000FF2009F4DCC080914002582F507FEF3AA0
:10568000F10508F09FC051116BC0FE2C431314C0EC
:10569000921312C0E11010C08F708061809340029D
:1056A000C5010E94982380914002F80185838F2DC7
:1056B0006196EAE00C940138C114D10429F0822FDC
:1056C00083238F3F09F003C180E0F82FF170DF2EB4
:1056D00080FF3CC0809172024091410256E08413E9
:1056E00015C02D873E878D859E850E940B13292F1F
:1056F00022952F702230F0F0243018F59F70F1F0D1
:10570000F8019581907FD1F4D12C1EC090E0589F74
:10571000F001599FF00D1124EE5BFD4F61813613AE
:1057200006C06081261303C06281E6120FC0019695
:105730008770D5CF9F7011F0882331F3805E883059
:1057400018F3C8010E949823FD2CB1CFEE2009F474
:10575000AECF80914002816080934002F12CA7CFB0
:10576000431306C0921304C0F801EE2009F479C077
:10577000C8010E941813882309F1EE20F9F08091E6
:105780004002803270F020913B0230913C02388719
:105790002F831986DB86CA868C87CE0107960E94E6
:1057A000982386E0F801ABE3B2E001900D928A9570
:1057B000E1F70E94B42AFF24F39479CFC8010E9434
:1057C0009823F9CF51110AC08BE392E00E949823ED
:1057D00086E0F50111928A95E9F7C0CF43130FC017
:1057E00092130DC0E1100BC0F8018583C8010E941F
:1057F000982386E0F50111928A95E9F758CFC80100
:105800000E9418138823D1F2EE20C1F28091400249
:10581000803238F220913B0230913C023A83298356
:105820001B82DD82CC828E83CE010196B8CFEF3A07
:10583000F105F8F6FE2CEE2009F243131FC0921377
:105840001DC08091400280FD10C0982F907F69F0AC
:10585000F8018583903F31F0982F907F905F8F7093
:10586000892B8583C8010E94982386E0F801ABE369
:10587000B2E001900D928A95E1F719CFC8010E941C
:10588000181381118ECF8091400281608093400275
:10589000C8010E9498230BCFEE2009F48FCFC801D6
:1058A0000E941813F82E882309F488CF86E0F801A7
:1058B000ABE3B2E001900D928A95E1F780913B0253
:1058C00090913C020E940B130E94B42AF0CE81E01A
:1058D0008E25FBCE8F938FB78F939F93EF93FF937C
:1058E0008091130490911404019690931404809372
:1058F0001304E0911404E695E695F0E0E25BF94FBD
:10590000E491FF91EF919F918F918FBF8F911895A7
:10591000CDB7DEB7E6970FB6F894DEBF0FBECDBFAA
:1059200085B7806885BF85B7806885BF84B7877F66
:1059300084BF0FB6F894A895809160008861809329
:105940006000109260000FBE80E890E00FB6F894FF
:1059500080936100909361000FBE81E09BE0909383
:10596000FD018093FC010E94E9070E94DC08809100
:10597000E20084608093E20078948091900688230E
:10598000A1F01091E9001F709091EC00892F8170B7
:1059900090FD80E8182B1092E9008091E80083FDCB
:1059A0000E943E1C1F701093E90082E084BD93E0CA
:1059B00095BD9AEF97BD80936E001092F3021092FE
:1059C000F4021092F5021092F6020E944213811125
:1059D00002C00E942C1225982D988FE891E0019723
:1059E000F1F700C0000083B185FB882780F9809320
:1059F000600180916001882309F46AC010927601E9
:105A00008DE1809377010E94C60F81110E94673655
:105A1000809160018091600195E0811190E0909308
:105A2000020385E0891B8093010300EC11E035EC53
:105A3000E32E31E0F32ED8018D918D018F3F11F0CF
:105A40000E94030BE016F106B1F705EC11E0F80136
:105A500081918F018F3F11F00E94030BF1E00B3C0D
:105A60001F07A9F78AE0EDE4F3E0DF01282F1D927C
:105A70002A95E9F7E7EFF2E0DF011D928A95E9F751
:105A80000E943917811102C00E945A1482E090E0EE
:105A90000E94133B809308030E945B1390935E0661
:105AA00080935D060E940819EFE3FCE93197F1F756
:105AB00000C000000E94081980914D0380FF0CC0B7
:105AC0006FEF7FEF90E080E00E94453B0E94B40EB4
:105AD0008DE18093760195CF83E090E00E94133BA7
