:100000000C94B6050C94FD050C94FD050C94972BEF
:100010000C94FD050C94FD050C94FD050C94FD0558
:100020000C94FD050C94FD050C94F0180C94AC1880
:100030000C94DE240C94FD050C94FD050C94FD0538
:100040000C94FD050C94FD050C94FD050C94FD0528
:100050000C94FD050C94C9190C94FD050C94FD0538
:100060000C94FD050C94FD050C94FD050C94FD0508
:100070000C94FD050C94FD050C94FD050C94FD05F8
:100080000C94FD050C94FD050C94FD050C94FD05E8
:100090000C94FD050C94FD050C94FD050C94FD05D8
:1000A0000C94FD050C94FD050C94FD05000000006A
:1000B0000000000000000000000000000000000040
:1000C0000000000000000000000000000000000030
:1000D0007E0F00D4FFFFFFC7000000780000000083
:1000E000000000002A2B2800000000000000000093
:1000F0000000000000000029000000002C1E342039
:10010000212224342627252E362D3738271E1F205E
:100110002122232425263333362E37381F040506A3
:100120000708090A0B0C0D0E0F10111213141516E7
:100130001718191A1B1C1D2F3130232D35040506E5
:100140000708090A0B0C0D0E0F10111213141516C7
:100150001718191A1B1C1D2F3130354C165C1E0048
:100160001F002000210022002B0014001A000800AC
:1001700015001700320004001600070009000A00ED
:1001800050611D001B00060019000500E300035725
:100190000158E7642C6202572D0027002600250035
:1001A000240023002F00130012000C0018001C0074
:1001B000340033000F000E000D000B004F713800AB
:1001C0003700360010001100AE002A000258657496
:1001D0002872015701003A003B003C003D003E0000
:1001E000010000005200000000000000000050006C
:1001F00051004F002F003000010000005500570053
:1002000054002E0001000100010001000100010066
:1002100000000000610060005F0023020000000099
:100220005E005D005C002002000000005B005A00E0
:1002300059002402010056003302630062002102CB
:1002400001000100010001000100010001003A006D
:100250003B003C003D003E000100010001000100A8
:100260000100010001000100010001000100010086
:100270000100010001000100010001000100010076
:1002800001000100010001000100430042004100A3
:1002900040003F00010001000100010001000100D9
:1002A0000100010001000100010001000100010046
:1002B0000100010001000100010001000100010036
:1002C000010001000000000000000000000000002C
:1002D000005C0000A65D000000001A5C0000000049
:1002E00000000000000039000000000000000000D5
:1002F00000000000010001000100010001000000F9
:1003000000000000000000000000000000000000ED
:1003100000000000000000000000000000000000DD
:1003200000000000000000000000000000000000CD
:1003300001000100010001000100000000DA02815B
:10034000FFD9F1DB20A4A62EAF00A0C000A1C800F9
:10035000AED580A81FD300408D1420000A0041753F
:10036000746F2D5368696674000A00436170732DC1
:10037000206C6F636B000A00556E646566002D5338
:100380007973200A002D4E756D200A002D46756E7A
:10039000630A002D426173650A004C617965720041
:1003A0000A004C6F747573202D35382D00000A003B
:1003B000808182838485868788898A8B8C8D8E8FC5
:1003C0009091929394A0A1A2A3A4A5A6A7A8A9AA3C
:1003D000ABACADAEAFB0B1B2B3B4C0C1C2C3C4C5B3
:1003E000C6C7C8C9CACBCCCDCECFD0D1D2D3D4000A
:1003F00000010101010101010101020202020202E8
:1004000002020203030303030303030404040404BA
:100410000404050505050506060606060707070781
:100420000708080808090909090A0A0A0B0B0B0C36
:100430000C0C0D0D0D0E0E0E0F0F0F1010111111D3
:100440001212131314141515161617171818191954
:100450001A1A1B1B1C1D1D1E1E1F202021222223B9
:100460002424252626272829292A2B2C2D2D2E2FFA
:1004700030313232333435363738393A3B3C3D3E11
:100480003F404142434445464748494A4C4D4E4F00
:1004900050515354555658595A5B5D5E5F616264C2
:1004A000656668696B6C6D6F7072737577787A7B4F
:1004B0007D7E8082838587888A8C8E8F91939596A6
:1004C000989A9C9EA0A2A3A5A7A9ABADAFB1B3B5C6
:1004D000B7BABCBEC0C2C4C6C9CBCDCFD1D4D6D8A2
:1004E000DBDDDFE2E4E7E9EBEEF0F3F5F8FAFDFF40
:1004F00007087F0807003E5B4F5B3E003E6B4F6B7B
:100500003E001C3E7C3E1C00183C7E3C18001C57E4
:100510007D571C001C5E7F5E1C0000183C1800000C
:10052000FFE7C3E7FF00001824180000FFE7DBE740
:10053000FF0030483A060E00262979292600407F20
:1005400005050700407F05253F005A3CE73C5A005F
:100550007F3E1C1C0800081C1C3E7F0014227F22CA
:1005600014005F5F005F5F0006097F017F00006687
:1005700089956A0060606060600094A2FFA29400A8
:1005800008047E04080010207E20100008082A1CA1
:100590000800081C2A0808001E10101010000C1E6D
:1005A0000C1E0C0030383E383000060E3E0E0600A1
:1005B00000000000000000005F00000000070007CE
:1005C0000000147F147F1400242A7F2A12002313B2
:1005D00008646200364956205000000807030000F6
:1005E000001C224100000041221C00002A1C7F1C2C
:1005F0002A0008083E080800008070300000080843
:1006000008080800000060600000201008040200D4
:100610003E5149453E0000427F4000007249494931
:1006200046002141494D33001814127F1000274520
:10063000454539003C4A494931004121110907002B
:10064000364949493600464949291E000000140030
:10065000000000403400000000081422410014147F
:100660001414140000412214080002015909060064
:100670003E415D594E007C1211127C007F49494970
:1006800036003E41414122007F4141413E007F49C9
:10069000494941007F09090901003E414151730068
:1006A0007F0808087F0000417F4100002040413F53
:1006B00001007F08142241007F40404040007F023B
:1006C0001C027F007F0408107F003E4141413E0034
:1006D0007F09090906003E4151215E007F09192961
:1006E000460026494949320003017F0103003F408B
:1006F00040403F001F2040201F003F4038403F0047
:100700006314081463000304780403006159494D1D
:100710004300007F414141000204081020000041D5
:1007200041417F000402010204004040404040007B
:100730000003070800002054547840007F284444F8
:100740003800384444442800384444287F00385452
:100750005454180000087E09020018A4A49C7800D4
:100760007F080404780000447D4000002040403DA4
:1007700000007F102844000000417F4000007C04FE
:10078000780478007C080404780038444444380035
:10079000FC182424180018242418FC007C080404E5
:1007A000080048545454240004043F4424003C40AE
:1007B00040207C001C2040201C003C4030403C007D
:1007C0004428102844004C9090907C004464544C81
:1007D000440000083641000000007700000000419E
:1007E000360800000201020402003C2623263C00D9
:1007F000000000000000404040F0F8F8FF38FFF82B
:10080000F83FF8F8FF38FFF8F8F0404040000000EB
:1008100000000080C0C0C0800000C0C08000000098
:1008200080C0C000C0C0000080C0C0000000000048
:10083000C0C0C0C0C000C0C0000000000000000078
:1008400000000000000000000000000000000000A8
:100850000000000000000000000000000000000098
:10086000000000000000000000000000000000C0C8
:10087000F0F8FC3E1E06010000007F4141417F0070
:100880007F4141417F000080C0E07E5B4F5BFEC046
:100890000000C000DCD7DEDEDED7DC00C0000000D8
:1008A0000000000000000000000000000000000048
:1008B000000000000000494949FFFFFFFFE0DFBFE3
:1008C000BF00BFBFDFE0FFFFFFFF49494900000055
:1008D00000001F3F6060E0BF1F007F7F071E381EC3
:1008E000077F7F007F7F0E1F3B71600000000000CC
:1008F0007F7F0C0C0C007E7E007F7E0303007F7EDA
:1009000003037E7E03037F7E000F3E703C063C7037
:100910003E0F00327B49493F7E007F7E0303001E6D
:100920003F69696F2600000000000000000000031E
:100930000F1F3F3C7870600000007F4141417F0005
:100940007F4141417F00307B7F7830202030787FAD
:100950003B0003000F7F0F0F0F7F0F00030000000D
:100960000000000000000000000000000000000087
:10097000000000000000010101070F0F7F0F7F0F33
:100980000F7E0F0F7F0F7F0F0F0701010100000087
:100990000000000000000001010000000000000055
:1009A0000000000000000000000000000000000047
:1009B0000000000000000000000000000000000037
:1009C0000000000000000000000000000000000027
:1009D0000000000000000000000000000000000017
:1009E0000000000000000000000000000000000007
:1009F00000000000000000000000000000000000F7
:100A000000000000000000000000000000000000E6
:100A100000000000000000000000000000000000D6
:100A200000000000000000000000000000000000C6
:100A300000AF00AE05010980A101850319012AB7A5
:100A400000150126B700950175108100C0050C093D
:100A500001A101850419012AA002150126A0029511
:100A60000175108100C005010906A1018506050771
:100A700019E029E715002501950875018102050790
:100A8000190029EF1500250195F07501810205086F
:100A900019012905950575019102950175039101CB
:100AA000C005010906A101050719E029E715002580
:100AB00001950875018102950175088101050719E5
:100AC0000029FF150026FF0095067508810005081E
:100AD000190129059505750191029501750391018B
:100AE000C009023B00020100A0FA09040000010352
:100AF00001010009211101000122400007058103C5
:100B000008000A0904010001030000000921110185
:100B10000001226D000705820320000A1201000275
:100B200000000008EDFE58000100010200011C0356
:100B30004C006F0074007500730020003500380011
:100B4000200047006C006F00770000001A0354007B
:100B50007700650065007400790044006100420080
:100B600069007200640000000403090411241FBE20
:100B7000CFEFDAE0DEBFCDBF04B603FE27C0809121
:100B8000040690910506A0910606B09107068730ED
:100B9000904BA740B04BD1F410920406109205067A
:100BA000109206061092070614BE84B7877F84BF92
:100BB0000FB6F894A89580916000886180936000DA
:100BC000109260000FBEE0E0F8E3099512E0A0E0AB
:100BD000B1E0E4E3F1E602C005900D92A833B1075D
:100BE000D9F726E0A8E3B2E001C01D92A430B20715
:100BF000E1F70E9405250C9474300C940000E8ED98
:100C0000F0E080818E7F80831092E2001092DA0003
:100C10001092E100A0EEB0E08C9181608C93808115
:100C20008F77808319BCA7EDB0E08C918E7F8C9379
:100C300080818F7E80831092D40508952091E400F6
:100C40003091E50095E6A9012091EC00822F81709A
:100C500020FF06C08091E80080FF06C080E0089574
:100C60002091E80022FD1AC08091FA05882389F0BE
:100C7000853089F08091EB0085FD0FC02091E40064
:100C80003091E50042175307F9F29150E1F684E004
:100C9000089582E0089583E0089581E00895EF9239
:100CA000FF920F931F93CF937C018B010E941E062E
:100CB000C82F811117C08091E80085FD0BC080917D
:100CC000E8008E778093E8000E941E06882399F33F
:100CD000C82F08C0F70181917F018093F100015076
:100CE000110949F78C2FCF911F910F91FF90EF9031
:100CF00008958091FC0587FF13C08091E80082FF72
:100D000006C08091E8008B778093E80004C0809152
:100D1000FA058111F2CF08958091FA058823D9F35D
:100D20008091E80080FFF8CF8091E8008E77ECCFCB
:100D3000982F9093E900242F762F50E0891731F0F7
:100D40007091EC002091ED005091F00021FD07C062
:100D50009F5F973071F78093E90081E008953091AB
:100D6000EB003E7F3093EB003091ED003D7F309300
:100D7000ED003091EB0031603093EB007093EC00AC
:100D80002093ED005093F0002091EE0027FDE0CF7E
:100D900080E00895CF92DF92EF92FF920F931F931E
:100DA000CF93DF93C8EDD0E088818F7E8883E7ED15
:100DB000F0E080818160808384E082BF81E0809365
:100DC000D40588818E7F888302EE10E0F8011082BE
:100DD0001092DA0081EEC82ED12CF60110828881A3
:100DE0008F77888388818068888388818F7D8883D6
:100DF00019BC1092FA051092FB051092F905109299
:100E0000F80590EEE92EF12CF70180818B7F80832D
:100E100088818160888342E060E080E00E949806DB
:100E2000F60180818E7F8083F801808181608083DC
:100E3000808188608083F70180818E7F80838881B4
:100E400080618883DF91CF911F910F91FF90EF9088
:100E5000DF90CF900895FC018091020690910306E7
:100E600086179707A0F06115710529F49091E800A5
:100E70009E779093E80090E06115710551F491110F
:100E800008C08091E80082FF34C080E00895BC0172
:100E9000F2CF8091FA058823C1F18530C1F18091AC
:100EA000E80083FD30C08091E80082FDEACF8091A8
:100EB000E80080FFE1CF8091F3002091F200382F0D
:100EC0006115710519F02830310558F091E028308E
:100ED000310509F090E02091E8002E772093E8009A
:100EE000CBCF81918093F100615071092F5F3F4F0B
:100EF000E7CF8091FA05882341F0853041F0809159
:100F0000E80083FFBECF81E0089582E0089583E08A
:100F10000895089508958091D705089587E797E784
:100F2000909301088093000888E19AE00FB6F89446
:100F3000A895809360000FBE90936000FFCF2FB7FD
:100F4000F8946091CB057091CC058091CD0590917E
:100F5000CE052FBF08952091D4012223C9F02091FE
:100F6000CF0527FF15C0E62FE695E695E695EE310D
:100F7000D8F4E80FF92FF11D677021E030E001C0CF
:100F8000220F6A95EAF7209582812823228308950B
:100F9000FC01329608962191621303C0DF0111977C
:100FA0001C92E817F907B9F708952091D40122237C
:100FB000C1F02091CF0527FF14C0E62FE695E695F6
:100FC000E695EE31F8F4E80FF92FF11D677021E096
:100FD00030E001C0220F6A95EAF78281822B82837A
:100FE0000895FC0132962FEF30E04191641751F0E3
:100FF0002F3F19F4411101C0232F3F5F3630A9F76D
:101000002F3F09F40895820F911D27FD9A95FC0149
:10101000628308952091C8053091C90528173907C2
:1010200071F09093C9058093C805E091C605F091D1
:10103000C705309721F00084F185E02D09940895CB
:101040002091C4053091C5052817390771F0909398
:10105000C5058093C405E091C605F091C70530979A
:1010600021F00680F781E02D09940895FC01680FB6
:10107000791F8FEF91E32191822728E030E087FFED
:1010800009C0880F892721503109C9F7E617F707EA
:1010900091F70895880FF7CFFA01811101C0FB0184
:1010A000099480918703982F9E7F39F4809187035C
:1010B000817082608093870308958430B8F7089523
:1010C00080E0089578940895F894E82FE295EF7001
:1010D000F0E031A1282F2F7081E090E001C0880F4F
:1010E0002A95EAF7982F9095932391A392A1892BA3
:1010F00082A30C9462089091CF0592FF06C0282F1E
:1011000028712830F9F4877F846093FF06C0282F68
:1011100028712831F1F4877E84612091D00520FF69
:1011200006C0382F38713830D9F4877F816021FFAD
:1011300006C0282F28712831D1F4877E816194FD63
:10114000877E0895282F24712430F9F68B7F8860DC
:10115000DCCF282F2471243101F78B7E8861DDCF0D
:10116000382F3171313019F78E7F8860E0CF282F0A
:101170002171213121F78E7E8861E1CFCF93DF93FA
:10118000EC018238910581F1B0F58133910509F4C4
:1011900091C020F58932910509F485C08A9709F438
:1011A00090C0C11521E5D20708F0AAC0C11530E5ED
:1011B000D30708F0F2C0CF3BD10508F089C0C83A88
:1011C000D10508F0DFC0C53AD10508F0D3C0C4305E
:1011D000D105F8F4C130D105E1F040C08533910567
:1011E00009F45AC0C997E9F68091CF05837089F058
:1011F000C0EED0E00EC0833E910599F170F4803EC0
:10120000910501F1823E910561F68091CF0582FD45
:1012100021C0CE01DF91CF910895863E910561F105
:10122000873E910571F1843E910509F0BACF809116
:10123000D00581FFEECF8091CF05C7EED0E084FDD1
:101240000DC0E7CF8091CF0580FDF7C09091D0050C
:1012500090FFDFCFC3EED0E084FFDBCFD0E0C0E073
:10126000D8CF8091CF0582FDEBC09091D00590FD45
:10127000BFCF84FFCECFF2CF8091CF0583FDDDCFEE
:10128000C8CF8091CF0583FDDEC09091D00591FF3E
:10129000F0CFC4EED0E0BDCF8091CF0585FFB9CFB0
:1012A000C9E2D0E0B6CF8091CF0585FFB2CFC5E3CC
:1012B000D0E0AFCF8091CF0586FFABCFCAE2D0E0C0
:1012C000A8CF8091CF0586FFA4CFC1E3D0E0A1CF06
:1012D000C11540E2D40760F4C11581E0D80708F0D9
:1012E00098CFCE01815E9109079708F492CFB6CFCF
:1012F000C11590E4D90708F4B1CFDF70D06A89CF67
:10130000C11524E5D20778F4C11533E5D30708F0F9
:1013100072C0C11542E5D40708F05CC0DC2FCC27B1
:10132000C16FD06A76CFC1158AE5D80778F4C115A8
:1013300099E5D90708F073C0C11528E5D20708F46C
:101340008DCFDC2FCC27C06FD06A63CFCE019056F3
:101350008115904208F082CF8D2F8F710E947B08FB
:1013600090E0982F882788279F719C012C2BE901FA
:10137000D0624FCFC55AD0E0C652DE4FC881D0E010
:10138000D06447CFC85AD0E0CC0FDD1FC352DE4F28
:101390000990D881C02DD4643CCFCE0164E09695ED
:1013A00087956A95E1F783702C2F269526952370F3
:1013B00040E2249F90011124382B8C2F8370C1E0D0
:1013C000D0E002C0CC0FDD1F8A95E2F7C22BD32BF1
:1013D000DC681FCFCE018370992721E030E002C086
:1013E000220F331F8A95E2F7C695C69580E2C89F03
:1013F000E0011124EBCFCE018370992721E030E08A
:1014000002C0220F331F8A95E2F7C695C69590E277
:10141000C99FE0011124C22BD32BDA68FACE8C2F9E
:101420008F700E947B0834E0D695C7953A95E1F716
:10143000CF709C2FEC01D069ECCEC9E3D0E0E9CEAF
:10144000C2EED0E0E6CEC6EED0E0E3CE0C949F072D
:1014500080959091D50598239093D5050895809116
:10146000D5059091C305892B9091BC02892B80935F
:101470003A02E091C605F091C705309799F0909136
:10148000D401992349F09091CF0597FF05C080932F
:101490003B0286E080933A020280F381E02D8AE3EA
:1014A00092E009940895CF93DF93EC0181E0898B5A
:1014B0008091D5059F81892B8093D5058091C305A7
:1014C0009885892B8093C3050E942F0AEA81FB81AE
:1014D000309739F06C897D89CE010696DF91CF91E6
:1014E0000994DF91CF910895EF92FF920F931F938C
:1014F000CF93DF93EC018A85811139C0EB80FC80AA
:1015000087E5F81A26E12E9DC0012F9D900D11242C
:10151000DC01A458BE4F1496ED91FC9115973097BD
:1015200031F054966D917C918E579E4F099586E1CE
:101530008E9D80018F9D100D112404581E4FF801BF
:1015400087810E94280AF8018085982F90958091C4
:10155000C30589238093C3050E942F0A1882198628
:101560001B861E821D821092C2051092C105DF915A
:10157000CF911F910F91FF90EF90089580917B0183
:10158000877F80937B019091C3059D7F9093C305D6
:1015900084FF08C08F7E80937B018091D505826097
:1015A0008093D50580917B0185FF08C08F7D809356
:1015B0007B018091D50580628093D5050C942F0A1C
:1015C0008091BB0290918A02981301C008958F5FA9
:1015D0008770FACFAF92BF92CF92DF92EF92FF92D5
:1015E0000F931F93CF93DF93C0902C03D0902D03C4
:1015F000E0902E03F0902F034091BD025091BE0267
:101600006091BF027091C002C42AD52AE62AF72A47
:10161000CFE1D0E0082F10E026E0929F000D111DD1
:1016200011249CE3A92EBC2ED701C6010C2E04C0A8
:10163000B695A795979587950A94D2F780FD0FC028
:10164000219788F7B12C8B2DDF91CF911F910F91AE
:10165000FF90EF90DF90CF90BF90AF900895AC9E39
:10166000F001AD9EF00D1124E00FF11FEE0FFF1FF2
:10167000E45AFE4F859194910E94BE08019701F3B0
:10168000E2CFCF93DF93EC010E94EA0AEC2FF0E067
:1016900096E0D99FE00DF11D11249CE3899FE00D98
:1016A000F11D1124EE0FFF1FE45AFE4F8591949116
:1016B000DF91CF910C94BE08E92FEE0FE90FEE0FEA
:1016C0008E0F982F977086958695869525E0829F38
:1016D000F0011124E45AFD4F50E040E080E02191F8
:1016E00030E0092E02C0369527950A94E2F7217062
:1016F0003327042E01C0220F0A94EAF7822B4F5F92
:101700005F4F4530510559F70895E92FEE0FE90F66
:10171000EE0F8E0F982F977041E001C0440F9A95FD
:10172000EAF786958695869595E0899FF0011124C4
:10173000E45AFD4F30E020E070E05191DF01119755
:10174000CB01022E02C0969587950A94E2F781702C
:1017500081958527842385278C932F5F3F4F2530E4
:10176000310559F70895FC01808191810E94410B58
:10177000292F2F7092959F7092509E3078F4E92F08
:10178000F0E0EA58FF4C0C94312D803F19F020F422
:10179000883E20F481E00895843FE1F380E00895DD
:1017A000883EC0F3813FD1F7F5CF822F869586958D
:1017B0008695089590E080E00E94200890E080E007
:1017C0000E940A081092C3051092BC020C942F0AC2
:1017D0000F931F938B019C0106701127222733273B
:1017E000063011052105310569F4686060932C030A
:1017F00070932D0380932E0390932F031F910F91CD
:101800000C94DA0B677FF2CF0F931F9341E050E007
:1018100060E070E004C0440F551F661F771F8A9573
:10182000D2F7CB01BA0160957095809590950091A3
:101830002C0310912D0320912E0330912F03602350
:101840007123822393231F910F910C94E80B0F9324
:101850001F9341E050E060E070E004C0440F551F6A
:10186000661F771F8A95D2F780912C0390912D03E4
:10187000A0912E03B0912F038A019B01082B192BF5
:101880002A2B3B2BC901B8011F910F910C94E80B37
:101890006093BD027093BE028093BF029093C0021A
:1018A0000C94DA0B882341F080959091C30589232D
:1018B0008093C3050C942F0A0895882339F09091E2
:1018C000C305982B9093C3050C942F0A0895882381
:1018D00021F00E94280A0C942F0A0895882339F0D9
:1018E0009091D505982B9093D5050C942F0A0895C7
:1018F000882341F19CEF980F913A38F4682F8AE3DE
:1019000092E00E94AB070C942F0A90E2980F983057
:1019100050F4877091E001C0990F8A95EAF7892FFA
:101920000E94280AF0CF9BE5980F933020F490E0B6
:1019300080E00C942008885A873120F490E080E001
:101940000C940A080895CF93C82F882309F467C020
:101950008CEF8C0F813AC0F58091D401882311F16E
:101960008091CF0587FF1EC0EC2FE695E695E695A2
:10197000F0E0E65CFD4F828190E04C2F477021E063
:1019800030E002C0220F331F4A95E2F782239323EF
:10199000892B91F06C2F8AE392E00E94AB070E94A2
:1019A0002F0A0AC0ECE3F2E082E492E02191C21730
:1019B00089F38E179F07D1F76C2F8AE392E00E947C
:1019C000D507CF910C942F0A80E28C0F883068F4F1
:1019D000C77021E030E001C0220FCA95EAF780917C
:1019E000D505822B8093D505ECCFEBE5EC0FE330EA
:1019F00040F4F0E0E652FE4F808190E0CF910C94ED
:101A00002008C85AC73158F4EC2FF0E0EE0FFF1F42
:101A1000E352FE4F80819181CF910C940A08CF91BF
:101A200008959C013A9521153F4150F5FC01EE27A0
:101A3000F170BC0166277270AC01442754709C01A0
:101A40002227387094FF0EC080E1EF2B09F480E06C
:101A5000672B09F08062452B09F08064232B89F005
:101A60008068089581E0EF2B09F480E0672B09F08E
:101A70008260452B09F08460232B19F0886008955B
:101A800080E00895CF93DF93EC010E94780CCE01A3
:101A90000E94110D9E01205E31092830310510F0A1
:101AA000CD2B21F4DF91CF910C94670CDF91CF9176
:101AB0000C94520CCF93DF93EC010E94110D9E0108
:101AC000205E31092830310510F0209739F40E944A
:101AD0006E0C8C2FDF91CF910C94A30C0E945D0CA7
:101AE000F8CFFC018081813029F4FB018081918154
:101AF0000C945A0D823021F4FB0182819381F8CF3E
:101B00000895CF93DF93EC018881823039F4FB0193
:101B1000828193810E945A0D81E08B87DF91CF9162
:101B20000895CF92DF92EF92FF920F931F93CF937E
:101B3000DF936C017B0164E670E088E70E94EE2988
:101B4000EC0197FD12C010E000E0F601E00FF11F7C
:101B5000849164E670E00E94682AEC01892B29F4E4
:101B60000F5F1F4F0E151F0581F70E94EB2ACE0154
:101B7000DF91CF911F910F91FF90EF90DF90CF9069
:101B8000089580919B0590919C05911103C091E06F
:101B900089270895882369F062E070E082E39AE083
:101BA0000E94910D892B19F080919B050895109248
:101BB0009B0580919B05EBCFCF93C0919B058091B6
:101BC0009C058823D1F00E949F07605A75418F4F72
:101BD0009F4F609397057093980580939905909314
:101BE0009A05C11108C062E070E080E39AE00E94AB
:101BF000910D892B29F0C0919B058C2FCF910895D1
:101C000081E080939B05F7CF8093D1057093D30536
:101C10006093D2058091FA05843001F582E08093CB
:101C2000E9008FEF9091E800815095FD06C095ED99
:101C30009A95F1F700008111F5CF8091E80085FFBA
:101C40000DC050E040E063E070E081ED95E00E945F
:101C50004F068091E8008E778093E8000895BC01DC
:101C600084E00C94040EBC0183E00C94040ECF932A
:101C7000DF93EC018091D4018823B1F18091CF05ED
:101C800087FF32C060E282E08093E9008FEF90919D
:101C9000E800815095FD06C095ED9A95F1F700009A
:101CA0008111F5CF8091E80085FF1BC08091D401A0
:101CB00070E050E040E0811104C050E040E068E096
:101CC00070E0CE010E944F068091E8008E778093ED
:101CD000E80080E2FE01A8EDB5E001900D928A9542
:101CE000E1F7DF91CF91089568E081E0CDCFEFE398
:101CF000FCE93197F1F700C00000FC0180818130E0
:101D000029F4FB01808191810C94420D823021F4F1
:101D1000FB0182819381F8CF0895DF92EF92FF92C9
:101D20000F931F93CF93DF93EC018B0180917B0185
:101D300082FF96C0E090BF05F090C005EC16FD064E
:101D400019F0209709F08CC080917B018B7F8093E4
:101D50007B0181FD7EC08091BD059091BE05A801EB
:101D6000481B590B81E02091790130917A0142178B
:101D7000530708F480E08170D82E80917B01D0FA5F
:101D800081F980937B01E701DD27FE0184E0F69570
:101D9000E7958A95E1F7EE0FFF1FE356FA4F208192
:101DA0003181A7014F70552781E090E002C0880F74
:101DB000991F4A95E2F7DD2009F44DC0822B932B41
:101DC000918380838091D50581FF08C080917B013C
:101DD000806180937B0182E00E94280A8091D50572
:101DE00085FF08C080917B01806280937B0180E247
:101DF0000E94280ADD2029F08091C305826080932B
:101E0000C305C7019056811520E2920728F0905E25
:101E10008115904108F0E701CE010E945A0D8FE331
:101E20009CE90197F1F700C000008091BF059091F7
:101E3000C0059C013056211540E2340720F0305E89
:101E40002115304108F499270E94420D0E94BE0AD4
:101E50001DC081E090CF8095909582239323B0CFD1
:101E6000CE0199279E013056211540E2340728F013
:101E7000305E2115304108F0CE010E94420D809164
:101E8000BF059091C005C817D90701F31093BE058F
:101E90000093BD05DF91CF911F910F91FF90EF90BF
:101EA000DF900895609175018091870380FF20C0C5
:101EB0008091740143E0849FC00111248D599C4F8F
:101EC000539A2BB1277F3BB138605FB7F894FC0180
:101ED000649FE00DF11D1124BF0168177907D1F44B
:101EE0005FBF8FE594E00197F1F700C0000008950F
:101EF000809176019091770123E0829FF001112477
:101F0000ED59FC4F8917A0F61182108212828F5F63
:101F10003396F8CFFC014191CF01E8E03BB90000D6
:101F200000C047FF2BB9440F000000C000C000C034
:101F30002BB900C0EA9591F7D0CF9F92AF92BF9294
:101F4000CF92DF92EF92FF920F931F93CF93DF9385
:101F50007C015B016A0180910A0301E010E08A3094
:101F600010F40AE010E0C1E0D0E0F894B501C70138
:101F7000F6010995982E0E946208911004C02196DE
:101F80000C171D076CF4892DDF91CF911F910F91D4
:101F9000FF90EF90DF90CF90BF90AF909F9008950B
:101FA000CC9F9001CD9F300D300D112490E080E04A
:101FB00045E34A95F1F70000019682179307C1F7B0
:101FC000D4CF8091D102811110C08091D80080615E
:101FD0008093D8008AE18A95F1F700C08091D900FA
:101FE00080FF0AC081E08093D10281E09091D1020C
:101FF000913009F080E0089582E08093D1020E9440
:10200000FF051092FA05F1CF0E94E10F882351F0ED
:10201000E091C605F091C705309721F00190F0815D
:10202000E02D099480E008951F93CF93DF93182F3C
:10203000CAE0D0E0893311F4C0E5D0E0812F0E94DE
:10204000A30C8FE99FE00197F1F700C000002197F2
:10205000C1F7812FDF91CF911F910C94780C1F93C2
:10206000CF93DF93162F8A3031F481E0DF91CF9147
:102070001F910C94D4108D3011F480E0F7CFC091F3
:102080009505D091960596E0FE01AFE8B5E0019088
:102090000D929A95E1F7803EA8F186E0FE0111923B
:1020A0008A95E9F7C0919505D0919605111136C032
:1020B00046E050E0BE018FE895E00E94772D9E013A
:1020C0002F583340892BA9F52A5F3F4F40918C034D
:1020D000642F70E0C9010E94112D481B463010F496
:1020E000240F311D211572E0370710F030E020E099
:1020F00021573C4F3093960520939505DF91CF9162
:102100001F910895F6E08F9FB001112460517B4F1D
:1021100046E050E0CE010E946E2DC4CF9E012A5FA2
:102120003F4FFE012E173F0719F280818095819362
:10213000F9CFC90145E0969587954A95E1F741E0C9
:1021400050E0BA0102C0660F771F8A95E2F7CB0113
:1021500060918D0370918E03862B972BB9016B5F75
:102160007F4FE5E076956795EA95E1F702C0440F69
:10217000551F6A95E2F7842B952B90938E038093DD
:102180008D03A2CF1F93CF93DF93EC01162FFE0197
:102190008491811104C0DF91CF911F910895612F27
:1021A0000E942F102196F3CFCF93382FE091950501
:1021B000F0919605EF58F34020918C03622F70E068
:1021C000CF010E94112D281B822F332369F066E076
:1021D0000E94252DC82FC15010F4CF91089560E0C2
:1021E00080E20E942F10F7CF9F01280F311D21158B
:1021F000324018F080E0F0E0E0E08E0F9F2F911D5C
:1022000081579C4F9093960580939505E6CF8091DA
:10221000D401ECE3F2E0882359F08091CF0587FFE9
:1022200007C08EE1DF011D928A95E9F70C94DA0B65
:1022300086E0F8CF1F93CF93DF93CDB7DEB7AA9791
:102240000FB6F894DEBF0FBECDBF8CEF95E02091A6
:10225000F100FC012193CF01F6E084309F07B9F72C
:102260008091FD05833009F470C0B8F4813009F421
:1022700047C0823009F4B3C08091E80083FF80C278
:102280008091FC059091FD059A3008F079C2E92F04
:10229000F0E0EC57FF4C0C94312D8A3009F48EC0DD
:1022A0008B3009F46FC0893039F78091FC05813299
:1022B00019F780910006909101060297E8F6809147
:1022C000E800877F8093E8008091E80082FF38C0B3
:1022D0009091F3008091F200029731F48091F10027
:1022E000813011F0863021F48091F1008093D70580
:1022F0008091E8008B778093E8000E947906BCCF3C
:102300008091FC05813A09F0B7CF8091E800877F82
:102310008093E8008091000690910106892B61F47A
:1023200060E288ED95E070E00E942B078091E80064
:102330008B778093E800A0CF60E090E080E0F3CF5F
:102340008091FA058111C0CF97CF8091FC05813A29
:1023500009F092CF8091000690910106892B09F037
:102360008BCF8091E800877F8093E8008091E80020
:1023700080FFFCCF8091D4018093F1008091E80030
:102380008E77B9CF8091FC05813209F075CF8091AD
:10239000000690910106892B09F06ECF8091E8002C
:1023A000877F8093E8000E9479068091FE058093E4
:1023B000D4011092D5050E9407115ECF8091FC05D3
:1023C000813209F059CF8091E800877F8093E8003F
:1023D0000E9479068091FF058093D6054DCF8091AC
:1023E000FC05813A09F048CF8091E800877F80930F
:1023F000E8008091E80080FFFCCF8091D605BCCF3B
:10240000803899F0823809F0BBC1809100068F7046
:10241000873008F0B5C18093E9008091EB0085FB1F
:10242000882780F91092E90006C08091F805909104
:10243000F905911182609091E800977F9093E800F0
:102440008093F1001092F1008091E8008E7794C1A2
:10245000882309F482C1823009F092C18091FE057F
:10246000811185C1809100068F702FEF280F2630D3
:1024700008F086C18093E9002091EB0020FF77C12E
:10248000933031F48091EB0080628093EB006FC158
:102490009091EB0090619093EB0021E030E001C05F
:1024A000220F8A95EAF72093EA001092EA008091C1
:1024B000EB008860EACF811163C11091FE051F77A0
:1024C0008091E3008078812B8093E3008091E80085
:1024D000877F8093E8000E9479068091E80080FF62
:1024E000FCCF8091E30080688093E30082E01111CB
:1024F00083E08093FA0544C18058823008F040C1DF
:102500008091FE059091FF058C3D23E09207A1F597
:1025100083E08A838AE289834FB7F894DE011396B9
:1025200020E03EE051E2E32FF0E050935700E491C9
:1025300020FF03C0E295EF703F5FEF708E2F90E0B9
:10254000EA30C0F0C7968D939D932F5F243159F7E1
:102550004FBF8091E800877F8093E8006AE270E0D7
:10256000CE0101960E942B078091E8008B77809323
:10257000E80006C1C096E7CF4091000650910106E1
:10258000292F33272330310509F444C078F5213051
:10259000310509F46FC08BE390E0E1EEFAE0223000
:1025A000310509F0EDC02091E800277F2093E80075
:1025B00020910206309103068217930708F49C01CC
:1025C00040E02115310509F064C0411162C08091DD
:1025D000E80082FDC9CF8091FA05882329F2853071
:1025E00019F28091E80083FFF2CFBECF213231058E
:1025F000A9F12232310509F0C3C04115510509F492
:1026000043C04130510509F0BBC08DE690E0E4E3E2
:10261000FAE0C9CF992781309105C1F0009759F0B0
:10262000029709F0ADC0EEE2FBE0E4918E2F90E05E
:10263000EEE2FBE007C0E8E6FBE0E4918E2F90E0DD
:10264000E8E6FBE0009709F49BC0ADCFECE4FBE0CB
:10265000E4918E2F90E0ECE4FBE0F4CF41155105BE
:1026600071F04130510509F08BC089E090E0ECE059
:10267000FBE099CF82E190E0ECE1FBE094CF89E0D0
:1026800090E0E3EFFAE08FCF80E490E0E1EAFAE057
:102690008ACF8091FA05882309F466CF853009F442
:1026A00063CF8091E80083FD5FCF8091E80082FDD9
:1026B0008ECF8091E80080FF84CF9091F3008091CD
:1026C000F2002115310519F08830910550F041E0F4
:1026D000089709F040E08091E8008E778093E80049
:1026E00070CF44914093F100319621503109019609
:1026F000E8CF803809F044C08091E800877F80935C
:10270000E8008091FB058093F1009ECE811138C0D6
:102710001091FE051230A0F58091E800877F80932C
:10272000E8001093FB050E947906112311F084E064
:1027300005C08091E30087FDFACF81E08093FA0520
:1027400042E061EC81E00E94980642E261EC82E0A6
:102750000E9498068091FA0513C08091FE05813091
:1027600079F481E0933009F080E08093F9051092CC
:10277000E9008091E800877F8093E8000E94790655
:102780008091E80083FF0AC08091E800877F8093F2
:10279000E8008091EB0080628093EB00AA960FB670
:1027A000F894DEBF0FBECDBFDF91CF911F9108958A
:1027B000CF92DF92EF92FF926B017C010E94510851
:1027C000B701A60188E090E0FF90EF90DF90CF90F6
:1027D0000C9452308F929F92AF92BF92CF92DF9221
:1027E000EF92FF920F931F93CF93DF93D82FC62FB3
:1027F000142F822E0091870300FFD5C0E02FE695AD
:10280000F0E0EB5CFD4F808180936003802F8E7F32
:102810008230D1F4E42FF0E0E051FC4F611144C06C
:102820002491F22FE22F00FF0FC08091760190914A
:10283000770133E0839FD0011124AD59BC4F891734
:1028400008F4A7C00E94520F809188038D1308C01E
:10285000809189038C1304C080918A03811729F029
:1028600080916203826080936203D0938803C09357
:10287000890310938A03882009F495C06091870327
:10288000709188038091890390918A03DF91CF91A1
:102890001F910F91FF90EF90DF90CF90BF90AF907E
:1028A0009F908F900C94D813E62EF12CE4919E2EDD
:1028B000CE2ED12C26E0D29FC00111242FEF30E084
:1028C000B9010E94112D8D2F90E0880F991FF5E519
:1028D000F69FA001F79F500D1124841B950BB82E75
:1028E000BB0CB80EA9014E195F094C9DC0014D9D4E
:1028F000900D5C9D900D1124F92FCB9DA00111240A
:10290000452F5527D901A41BB50BAC9DA001AD9D4A
:10291000500DBC9D500D1124D901AB19B1095D01B9
:10292000AE9CD001AF9CB00DBE9CB00D1124AB2F5E
:10293000BB272A1B3B0B2C9DD0012D9DB00D3C9D30
:10294000B00D11242B2F62307105A1F050F46115E8
:10295000710509F468CF6130710581F0292FF52FD9
:1029600062CF6430710569F080F06630710509F45A
:102970005ACFF4CF2E2FE92FFB2F55CF2E2FE52F37
:1029800052CF292FFE2FEB2F4ECFE92FF92D252FD8
:102990004ACF1196EC9311972C931296FC931297B1
:1029A0008F5F13964CCFDF91CF911F910F91FF90C6
:1029B000EF90DF90CF90BF90AF909F908F90089551
:1029C000E7E8F3E0438121E1421B08F440E021E025
:1029D000628181810C94EA13E7E8F3E0438121E10D
:1029E000420F08F44FEF21E0628181810C94EA13D9
:1029F000E7E8F3E0628121E1621B08F460E021E096
:102A0000438181810C94EA13E7E8F3E0628121E1DC
:102A1000620F08F46FEF21E0438181810C94EA1387
:102A2000E7E8F3E0818121E04381628188500C94E2
:102A3000EA13E7E8F3E0818121E043816281885F66
:102A40000C94EA1380918B03882319F081508093B2
:102A50008B03609187037091880380918903909123
:102A60008A030C94D81380918B03833018F48F5F02
:102A700080938B0360918703709188038091890311
:102A800090918A030C94D8138091870380FF1EC015
:102A9000817082608093870380916203816080935C
:102AA0006203662351F060918703709188038091DF
:102AB000890390918A030E94D81320E040918A03F1
:102AC00060918903809188030C94EA1308958091A2
:102AD00087038695815009F481E061E00C944415E8
:102AE00061E081E00C944415E7E8F3E083E0808343
:102AF00011828FEF828383831482A0E6B3E0129663
:102B00008C911297836012968C936081718182817F
:102B100093810C94D813EF92FF920F931F93CF934E
:102B2000DF937901C82F880FDD0B41155105A9F0FE
:102B30008AE08C9FF0018D9FF00D1124E25FFE4F23
:102B4000838194818E529D4F228130E0421753073A
:102B500008F49A01A9010E94842DCE010E945D2CE7
:102B6000892B11F501151105E9F08AE08C9FF00120
:102B70008D9FF00D1124E25FFE4F458150E0041758
:102B8000150708F4A8018AE08C9FF0018D9FF00DD5
:102B90001124E25FFE4F668177816E527D4FC7013F
:102BA0000E94842D81E001C080E0DF91CF911F91D0
:102BB0000F91FF90EF9008950F931F93CF93DF93A2
:102BC00000D0CDB7DEB7409102035091030360916E
:102BD0000403709105032FB7F8948091CB05909171
:102BE000CC05A091CD05B091CE052FBF841B950BD0
:102BF000A60BB70B21E084369105A105B10508F4B9
:102C000020E03091D505398384369105A105B105C1
:102C100020F48091E302831321E08091C3058A832D
:102C2000211105C09091E40211E09817C9F010E05D
:102C300000E030E020E042E050E0BE016F5F7F4FF7
:102C400086E00E948B15182F882351F00E949F0761
:102C5000609302037093030380930403909305032E
:102C6000812F0F900F90DF91CF911F910F910895B9
:102C70000F931F93CF93DF9300D000D0CDB7DEB773
:102C80004091FE025091FF02609100037091010398
:102C90002FB7F8948091CB059091CC05A091CD05EC
:102CA000B091CE052FBF841B950BA60BB70B11E07F
:102CB00084369105A105B10538F10E94E10F882302
:102CC00069F10E949F076E5F7F4F8F4F9F4F69830F
:102CD0007A838B839C8310E000E030E020E044E0C6
:102CE00050E0BE016F5F7F4F85E00E948B15182F6B
:102CF000882351F00E949F076093FE027093FF02A9
:102D00008093000390930103812F0F900F900F90F9
:102D10000F90DF91CF911F910F9108950E949F070F
:102D200000910B0310910C0320910D0330910E03C1
:102D3000600F711F821F931FC6CF8F929F92AF9219
:102D4000BF92EF92FF920F931F93CF937B01942F2B
:102D5000B901A801F70180809180A280B380EFB70C
:102D6000F8940091CB051091CC052091CD053091C0
:102D7000CE05EFBF081919092A093B0904361105C8
:102D80002105310518F4C1E0992381F010E000E03D
:102D900030E020E00E948B15C82F882339F00E9474
:102DA0009F07F70160837183828393838C2FCF9178
:102DB0001F910F91FF90EF90BF90AF909F908F90D9
:102DC00008950F931F93CF93DF93CDB7DEB7289766
:102DD0000FB6F894DEBF0FBECDBF85E0E7E8F3E0A5
:102DE000DE01119601900D928A95E1F780916003C2
:102DF00090916103A09162038E839F83A88741E035
:102E00008885811101C040E008E010E09E012F5F3D
:102E10003F4F66E073E087E00E949D16811110929B
:102E2000620328960FB6F894DEBF0FBECDBFDF91C8
:102E3000CF911F910F9108950F931F93CF93DF931D
:102E4000EC0145E050E068ED72E00E94772D41E032
:102E5000892B09F440E005E010E09E0166EF72E086
:102E600082E00E949D16DF91CF911F910F910895EE
:102E70007F928F929F92AF92BF92CF92DF92EF920A
:102E8000FF920F931F93CF93DF930F92CDB7DEB7CF
:102E9000762E4A015901680101E010E09E012F5F82
:102EA0003F4F50E040E070E060E00E948B15182F2B
:102EB000882309F44BC0F401408151816281738100
:102EC0002FB7F8948091CB059091CC05A091CD05BA
:102ED000B091CE052FBF841B950BA60BB70B843684
:102EE0009105A105B10538F4B701C6010E94360865
:102EF0009981891759F18701950150E040E070E010
:102F000060E0872D0E948B15B82EB701C6010E9484
:102F1000360811E09981981310E01B2139F00E94C6
:102F20009F07F4016083718382839383812F0F90C5
:102F3000DF91CF911F910F91FF90EF90DF90CF9095
:102F4000BF90AF909F908F907F900895A701B6019A
:102F5000C5010E94842DEACFCF92DF92EF92FF92BB
:102F60000F931F93CF93DF930F92CDB7DEB7EE246D
:102F7000E394F12C0EED12E09E012F5F3F4F4AEFDC
:102F800052E064E083E00E943817082F882329F17B
:102F9000C0901C038C2D90E09C01295D3C4F790171
:102FA0001981F9018081181BD12E80E00BC0DA94C1
:102FB000F70180818F5F8083C11003C08BE40E9482
:102FC0001410802F1D149CF3912F17FD90E0191BF6
:102FD00011110EC081110E94260A802F0F90DF91DF
:102FE000CF911F910F91FF90EF90DF90CF900895B8
:102FF0001F5FF701808181508083C11003C08EE480
:103000000E941410802FE4CFCF92DF92EF92FF92B4
:103010000F931F93CF93DF9300D000D00F92CDB7C3
:10302000DEB76B0185E0E82EF12C03ED12E09E0186
:103030002F5F3F4F42EF52E061E080E00E9438177F
:10304000882349F095E0FE013196ADEEB2E00190A3
:103050000D929A95E1F795E0EDEEF2E0D601019040
:103060000D929A95E1F70F900F900F900F900F909F
:10307000DF91CF911F910F91FF90EF90DF90CF9054
:10308000089569EE7EEF90E080E00E945E3060E09F
:1030900082E090E00E94403060E083E090E00E9497
:1030A00040301092BD021092BE021092BF021092E8
:1030B000C00260E084E090E00E94403060E082E284
:1030C00090E00E94403060E085E090E00E94403057
:1030D00060E086E090E00E9440306FEF87E090E093
:1030E0000E94403040E050E0BA0188E090E00E9449
:1030F000523060E08DE090E00E94403040E050E0CF
:10310000BA0188E190E00E94523060E087E190E0EF
:103110000E94403040E050E0BA018CE190E00E9413
:10312000523070E060E080E290E00E945E3040E06B
:1031300050E0BA0188E190E00E94523040E050E057
:10314000BA018FE090E00E94523040E050E0BA01B6
:1031500083E190E00C9452301F920F920FB60F92C1
:1031600011242F933F934F935F936F937F938F938C
:103170009F93AF93BF93CF93DF93EF93FF93D09140
:10318000E900DF708091EC00C82FC17080FDC0E8BD
:103190001092E9008091F000877F8093F00078948E
:1031A0000E941A111092E9008091F00088608093CB
:1031B000F000CD2BCF70C093E900FF91EF91DF912C
:1031C000CF91BF91AF919F918F917F916F915F91BF
:1031D0004F913F912F910F900FBE0F901F90189518
:1031E0001F920F920FB60F9211242F933F934F937C
:1031F0005F936F937F938F939F93AF93BF93EF935F
:10320000FF938091E10082FF09C08091E20082FF7C
:1032100005C08091E1008B7F8093E1008091DA000E
:1032200080FF24C08091D80080FF20C08091DA0008
:103230008E7F8093DA008091D90080FF9DC080E16D
:1032400089BD82E189BD09B400FEFDCF81E0809394
:10325000FA058091D405811109C00E94FF050E94E2
:10326000CA068091E20084608093E2008091E100D0
:1032700080FF17C08091E20080FF13C08091E200C0
:103280008E7F8093E2008091E20080618093E20073
:103290008091D80080628093D80019BC85E080932B
:1032A000FA058091E10084FF2BC08091E20084FF49
:1032B00027C080E189BD82E189BD89B5982F9170D1
:1032C00080FFFBCF8091D8008F7D8093D8008091C4
:1032D000E1008F7E8093E1008091E2008F7E8093F9
:1032E000E2008091E20081608093E2008091FB0522
:1032F000882309F447C084E08093FA058091FA0599
:103300008091E10083FF27C08091E20083FF23C00A
:103310008091E100877F8093E10082E08093FA054D
:103320001092FB058091E1008E7F8093E1008091F7
:10333000E2008E7F8093E2008091E20080618093C2
:10334000E20042E060E080E00E9498068091F00098
:1033500088608093F000FF91EF91BF91AF919F91B2
:103360008F917F916F915F914F913F912F910F902E
:103370000FBE0F901F90189519BC1092FA0510926D
:10338000D40574CF8091E30087FD93E09093FA0514
:10339000B5CF78941F921FB61F9211248F939F93DD
:1033A000AF93BF938091CB059091CC05A091CD05B3
:1033B000B091CE050196A11DB11D8093CB059093D0
:1033C000CC05A093CD05B093CE05BF91AF919F9151
:1033D0008F911F901FBE1F9018959C014FB7F894B6
:1033E0008091CB059091CC05A091CD05B091CE05F3
:1033F0004FBF821B930B08952FB7F8948091CB0594
:103400009091CC05A091CD05B091CE052FBF089528
:103410007F928F929F92AF92BF92CF92DF92EF9264
:10342000FF920F931F93CF93DF93CDB7DEB72F9704
:103430000FB6F894DEBF0FBECDBF8E010F5F1F4FDA
:103440008AE0D8011D928A95E9F73DE0C32E32E06B
:10345000D32EF12CE12CAA24A394B12C5DE1852E6E
:1034600052E0952EF60181916F018F3F09F443C020
:10347000F894E82FE295EF70F0E021A18F70A5019C
:1034800002C0440F551F8A95E2F7CA01922F982B6C
:1034900091A392A18095892382A30E94620800C013
:1034A000E7E1F2E0712C31E021912F3F09F47AC07D
:1034B000A22FA295AF70B0E090968C9190E02F7003
:1034C00002C0959587952A95E2F780FD6BC0832F02
:1034D000782A330F8E169F0639F7F60131978081CF
:1034E0008F3F11F00E94640850EA5A95F1F7F801F5
:1034F000EE0DFF1D70828FEFE81AF80A95E0E916CD
:10350000F10409F0AFCF4AE050E0B8018FE093E05A
:103510000E94772D7C01892B41F08AE0F801AFE011
:10352000B3E001900D928A95E1F710911A03E1142E
:10353000F104D1F181E08093C3020E94FC199093C1
:10354000C2028093C1028091C1029091C2020E9486
:10355000ED19059778F0AFE0B3E0E12FF0E0E35E1E
:10356000FC4F84E193E02D9121938A179B07D9F7B3
:103570001092C30281E090E0EF28D1F02F960FB6B1
:10358000F894DEBF0FBECDBFDF91CF911F910F9199
:10359000FF90EF90DF90CF90BF90AF909F908F9073
:1035A0007F90089580E094CF8091C3028111CBCFAA
:1035B0000E94E10FD82EE0911A03DE011B967D01D7
:1035C000882309F4F2C085E01D928A95E9F70E2F51
:1035D00010E0035E1C4F80910A038A3008F06EC031
:1035E00044E058E1B701C8010E949D0F882309F407
:1035F00087C04CE157E1B701C8010E949D0F8823A5
:1036000009F47EC04CEA57E1B701C8010E949D0F42
:10361000882309F475C048E356E1B701C8010E9448
:103620009D0F882309F46CC04CED55E1B701C8012A
:103630000E949D0F882309F463C041EE56E1B70153
:10364000C8010E949D0F882309F45AC010920A03F2
:103650008091190390E045E050E0B701835E9C4FF4
:103660000E94772D21E02093D002892BE1F5D12C07
:1036700080910C0190910D01019609F092C080910A
:103680007B0182FF19C00E94FC192091BD05309179
:10369000BE05AC01421B530B2091790130917A0198
:1036A0004217530748F046EC52E0BC018091BF0539
:1036B0009091C0050E948D0E8D2D60CF8091C40227
:1036C0009091C5020E94ED19843F914008F088CF87
:1036D0008091D002882359F285E0F70111928A95F2
:1036E000E9F71092D002A0911903B0E0A35EBC4F9D
:1036F00085E0FE013B9601900D928A95E1F7B8CFE7
:1037000080910A038F3F31F08F5F80930A038A30E4
:1037100008F49ECF0E94FC199093C5028093C402C6
:10372000D7CFE89EF001E99EF00D1124E458FE4F3A
:10373000A288B388A114B10419F42FEAA22EB12CE7
:10374000E89E8001E99E100D112404581E4FD801F7
:1037500016968C9116978823C9F01D968D919C9191
:103760000E94ED19A816B90688F4FE9C5001112498
:10377000F8018189811105C0C50184589E4F0E94BE
:10378000530AC5018E579E4F0E94740AF3948F2DE1
:1037900090E020910C0130910D01281739070CF6AB
:1037A0006ECFF12C86E1E82EF2CFF0E0E35EFC4F25
:1037B0000091190310E0035E1C4FF89485E0A3ED1F
:1037C000B2E001900D928A95E1F765E070E083ED3B
:1037D00092E00E9436088093D2020E946208F89418
:1037E00085E0E8EDF2E0D80101900D928A95E1F7CD
:1037F0000E946208F894E0912A03F0E0E95DFC4F32
:1038000080818B878093DE0261E070E0C7010E94B7
:1038100036088093DD020E946208F894C090DF02AF
:10382000D090E002E090E102F090E2028091CC02C0
:103830009091CD02A091CE02B091CF02C816D906C8
:10384000EA06FB06D1F0C092CC02D092CD02E09203
:10385000CE02F092CF020E94E10F81110EC00E94B1
:103860009F07C61AD70AE80AF90AC0920B03D0923A
:103870000C03E0920D03F0920E030E946208F8948C
:103880008091E3028093D5058091E4028093C30583
:103890000E946208F8948091EC028823F1F080FF86
:1038A0000DC08091E5029091870380FF1AC091605E
:1038B0009093870360E086950E9444158091EC0206
:1038C00081FF09C020E04091E8026091E702809109
:1038D000E6020E94EA131092EC020E94620880E065
:1038E0004DCE9E7F90938703809162038160809389
:1038F0006203FFEF20E742E0F15020404040E1F753
:1039000000C000000E94520FD9CF2F923F924F92D9
:103910005F926F927F928F929F92AF92BF92CF925F
:10392000DF92EF92FF920F931F93CF93DF93CDB768
:10393000DEB729970FB6F894DEBF0FBECDBF7C016E
:10394000DC0113968D919C911497892B41F01C9169
:103950001196DC90812F8D218F3F09F0B8C52996F3
:103960000FB6F894DEBF0FBECDBFDF91CF911F9190
:103970000F91FF90EF90DF90CF90BF90AF909F900E
:103980008F907F906F905F904F903F902F90089511
:103990000E94EA0A082F682F89819A810E94850B6C
:1039A000E12FF0E0B6E0DB9EE00DF11D11242CE3E9
:1039B000029FE00DF11D1124EE0FFF1FE45AFE4F90
:1039C00005911491D70112968C91811117C0063A76
:1039D000BDE51B0709F051C0D70112968C918823D1
:1039E00009F4BDCF61E083E090E00E94403061E0E7
:1039F00070E080E090E00E94480CB1CF80910C0113
:103A000090910D01019619F34CE7C42E41E0D42E9C
:103A1000B12CA12C9924939480910C0190910D01CB
:103A20008A159B05A4F2D60116968C9116978823C9
:103A3000E9F019968D919C918017910739F4809146
:103A4000C1059091C2058017910781F0F601978614
:103A5000148703878189811103C0C6010E94530A1C
:103A6000C60106960E94740A1092C305FFEFAF1AB2
:103A7000BF0A26E1C20ED11CCFCFC80197558F3F98
:103A8000910509F008F45BC00E94FC194C01D701B4
:103A900012968C91882309F48BC180917B0182FF5F
:103AA00007C046EC52E0B40190E080E00E948D0E29
:103AB0000931BCE51B0709F4BFC008F094C0073109
:103AC000FCE51F0709F4AEC08091790190917A015D
:103AD000059708312CE5120709F4A9C0C8019056D2
:103AE000811530E2930728F0905E8115904108F02F
:103AF0006DC11092C0051092BF05D70112969C911E
:103B00000631BCE51B0709F0EDC18091D505282FD2
:103B100021718A7A211180E0992309F4D9C191E0B9
:103B2000811101C090E090935B0269E2811165E32D
:103B30008AE392E00E94D5070E942F0A10CF2091BD
:103B40000C0130910D012817390724F490930D01D1
:103B500080930C01F701228136E1389F5001399F93
:103B6000B00C1124A50144585E4F6A01DA01509649
:103B70002C935097928116968C911697992329F140
:103B80001A961C930E9319978F5F16968C930E942A
:103B9000FC19F6019687858717828091C30590915D
:103BA000D505892B80870190F081E02D309741F079
:103BB000D60154966D917C91C5018E579E4F099503
:103BC0001093C2050093C1055FCF882309F45CCF31
:103BD000FA018189882309F457CFC5018E579E4F7A
:103BE0000E94740A51CF0B313CE51307A9F068F02D
:103BF00080917B018E7F0C315CE5150709F06ECF5B
:103C000080937B010E94BE0A69CF90917B01892F2E
:103C10008E7F90FF8160F4CF80917B0181608093E3
:103C20007B015CCF8091790190917A010596909308
:103C30007A018093790152CF80917A018F9380919C
:103C400079018F9385ED91E09F938F931F9288E088
:103C50008F937F926F920E948D2D0FB6F894DEBFE6
:103C60000FBECDBF6301D6012C91222309F436CFBC
:103C7000213009F04AC011969C91119712968C91AF
:103C8000913031F4B2E0CB0ED11C0E94141007C069
:103C9000923049F4E2E0CE0ED11C0E94A30C2FEF2B
:103CA000C21AD20AE0CF933031F4F2E0CF0ED11C29
:103CB0000E94780CF4CF943021F02FEFC21AD20A70
:103CC000EECF32E0C30ED11C30E020E0A6014F5F02
:103CD0005F4F8053990B8A30910550F02150310984
:103CE000F0F28FE99FE00197F1F700C00000F6CFF6
:103CF000AAE0A29FB001A39F700D11249C01260F82
:103D0000371FF60181816A01E1CFE22FF0E0E45232
:103D1000FF4FA491A987822F86958695869590E07E
:103D2000FC01E453FF4F24902770312C022E02C077
:103D3000359427940A94E2F7B1E02B223324FC0156
:103D4000E454FF4F4490512C022E02C055944794E6
:103D50000A94E2F7E1E04E225524FC01E455FF4FBE
:103D6000A490B12C02C0B594A7942A95E2F7F1E093
:103D7000AF22BB242114310419F081EE0E94A30C60
:103D80004114510419F086EE0E94A30C89850E940B
:103D90001410452819F086EE0E94780C232819F09B
:103DA00081EE0E94780CAB2809F479CF8CE26DCFBC
:103DB00080917B018F7E013E110531F0053E11059A
:103DC000C1F480917B018F7D80937B0180917B0189
:103DD00080FF93CEF70182810B32110549F1F8F48F
:103DE0009801245031092432310510F1811181CE1E
:103DF00084CEC8019056811550E2950720F0905E60
:103E00008115904118F780917B0182FF76CE46ECB8
:103E100052E0B40190E080E00E948D0E6ECE0D3233
:103E2000110520F30933110518F004361105F1F6D8
:103E3000882309F447C09091D505892F8D7F21F102
:103E40001092C0051092BF05F80124E0F695E795A1
:103E50002A95E1F7EE0FFF1FE356FA4F98012F70F6
:103E6000332781E090E002C0880F991F2A95E2F77E
:103E70008095909520813181822393239183808343
:103E8000C8010E945A0D6BCD86E0F701A6ECB2E0A6
:103E900001900D928A95E1F71092C8021092CA0221
:103EA0001092C90280917B0191FB81F91093C005AA
:103EB0000093BF059092BE058092BD0584608093FB
:103EC0007B014DCDA701B401C8010E948D0E47CDE5
:103ED00080915B0269E2811165E38AE392E00E94CE
:103EE000AB072ACE9111D7C08091D50582720A3CCA
:103EF000ECE51E0709F4C7C008F065C0063C2CE5D8
:103F0000120709F4BBC008F048C0043C4CE5140794
:103F100009F4A8C008F0ADC0033C1C4509F478C002
:103F2000D7011C9111960C91812F992309F4CDC0D2
:103F3000902F0E94EA0AD82E682F812F902F0E947E
:103F4000850BE12FF0E0B6E00B9FE00DF11D112491
:103F50002CE3D29EE00DF11D1124EE0FFF1FE45A59
:103F6000FE4F859194910E94BE08182FB82ED7015C
:103F700012962C91129715964C91342F32953F70D2
:103F8000892F82958F70C82ED12C8C3008F0D2C02A
:103F9000F601E257FF4C0C94312D48EF54E164E0F8
:103FA00075E1083C9CE5190709F460C049E155E159
:103FB00060E175E1093C1C4508F458C044E055E156
:103FC00068EF74E153C00E3CBCE51B0709F460C008
:103FD000A8F442E255E163E375E10C3CFCE51F0700
:103FE00009F444C04CEE54E160EE74E10D3C1C4514
:103FF000E8F143E355E162E275E138C0073D3CE595
:10400000130708F4ACCC0E351D4509F4A8CC88CFB5
:104010008091870380FF1EC08E7F8093870360910D
:104020008703709188038091890390918A030E948D
:10403000D813809162038160809362035FEF80E711
:1040400092E0515080409040E1F700C000000E9493
:10405000520F85CC81608093870361E086950E9432
:1040600044157DCC47E655E160E775E10E944C08B8
:1040700076CC40E755E167E675E1F8CF40E155E1E0
:1040800069E175E1F3CF40EE54E16CEE74E1EECFFF
:1040900061E081E0E4CF0115ACE51A0739F00F3D8E
:1040A0001C4509F03DCF0E94411859CC1092D5050E
:1040B0000E940711EFEFF4E32CE0E150F0402040C4
:1040C000E1F700C000000E948E07902F0E945C0B59
:1040D000D82E37CF092F0F70907F11F00295007FF7
:1040E000812F2223C9F0002369F090E2910F9830CC
:1040F00010F011110BC08091D505082B0093D50548
:104100000E942F0A812F0E94A30C14C08091C30526
:10411000082B0093C305F4CF0E94780C002351F0C4
:10412000105E183010F0B1102DC0802F0E94280AA8
:104130000E942F0A98E0C91AD108A4E0CA16D10437
:1041400010F40E94041085E0F701D30101900D9254
:104150008A95E1F789819A810E945C0B9A81E981B5
:10416000F0E0B6E09B9FE00DF11D11242CE3829F4F
:10417000E00DF11D1124EE0FFF1FE45AFE4F859153
:104180009491EDCB00958091C30508230093C3055E
:10419000CFCF892F8F70907F903211F08295807FE2
:1041A000B1E0BB120EC0222331F0333008F0C2CF91
:1041B0000E946E0CBFCF323008F0BCCF0E94670C5B
:1041C000B9CF222341F0332399F340FF9BCF4F70A7
:1041D000F7014583EDCF332389F3193309F06FC11C
:1041E000FFEF27EE33E0F15020403040E1F700C010
:1041F0000000812F0E94780C9DCF892F869586958F
:10420000837061F0813009F095CF812F9370211177
:1042100002C090E080E00E940A088CCF812F93704A
:10422000211102C090E080E00E94200883CF892FF6
:10423000837009F065C021117DCF812F829586950D
:104240008770880F880F612F6F70862E912CB12C8C
:10425000A12C082E04C0880C991CAA1CBB1C0A9413
:10426000D2F740E050E0BA0114FF0FC04FE050E039
:1042700060E070E004C0440F551F661F771F8A95E9
:10428000D2F7409550956095709596959695937058
:10429000923019F1D8F40091BD021091BE02209124
:1042A000BF023091C002913069F0482959296A292A
:1042B0007B29CB01BA0160237123822393230E94BF
:1042C000480C38CF802A912AA22AB32ACB01BA01FE
:1042D000682979298A299B29F2CF482959296A29ED
:1042E0007B290091BD021091BE022091BF02309146
:1042F000C002CB01BA016027712782279327DFCF45
:104300008695222311F0892F8170882309F412CF1A
:10431000812F829586958770880F880F612F6F7027
:10432000862E912CB12CA12C082E04C0880C991C2F
:10433000AA1CBB1C0A94D2F740E050E0BA0114FF5B
:104340000FC04FE050E060E070E004C0440F551F24
:10435000661F771F8A95D2F74095509560957095A6
:10436000969596959370923019F1D8F400912C039C
:1043700010912D0320912E0330912F03913069F07D
:10438000482959296A297B29CB01BA016023712365
:10439000822393230E94E80BCDCE802A912AA22A61
:1043A000B32ACB01BA01682979298A299B29F2CF3E
:1043B000482959296A297B2900912C0310912D0342
:1043C00020912E0330912F03CB01BA016027712772
:1043D00082279327DFCF092F0F70222329F0802F08
:1043E0000E94270C812FE4CE812F0E94670C802F22
:1043F0000E94040C9FCE812FA1EF1A1709F442C02E
:10440000A11758F0B0EF1B17F1F0222309F44BC0AD
:10441000311178CE892F8F713AC0E2EF1E17D1F19A
:10442000F3EF1F13F2CF2223D1F1292F2F7161E077
:1044300070E080E090E004C0660F771F881F991F2E
:104440002A95D2F7A7CF2223C9F0323008F072CED6
:10445000292F2F7161E070E080E090E004C0660FCA
:10446000771F881F991F2A95D2F700912C0310916E
:104470002D0320912E0330912F03A8CF333008F065
:1044800059CEE6CF892F8F71222309F4B1CF0E9434
:10449000270C50CE892F8F712223C9F3A9CF60E05A
:1044A00070E0CB0177CF332379F0893341F42FEFDC
:1044B00037EE43E0215030404040E1F798CE8FE3A3
:1044C0009CE90197F1F793CE892F8F7191CF85E009
:1044D000F701AE014F5F5F4F3A01DA0101900D9293
:1044E0008A95E1F7D70112962C9189819A81211141
:1044F0004FCA0E945C0B082F53CA1F93CF93DF93C0
:1045000080918902807FA9F480918602882389F0B6
:104510008091BB02D0918A026091840270918502E1
:10452000A0918702B0918802C62FC72316E0D81346
:1045300004C0DF91CF911F91089590E0109711F082
:10454000CF3F19F401968770F2CF189F9001199F01
:10455000300D1124F901E557FD4F41814713F2CF8A
:1045600040814613EFCF42814111ECCF438154810A
:104570004A1B5B0B4F3A510528F7809189028F70D7
:10458000806180938902F901E057FD4F80818F702F
:104590008061808384E892E00E94851CDF91CF9146
:1045A0001F910C94E00AAF92BF92CF92DF92EF92EC
:1045B000FF920F931F93CF93DF93CDB7DEB7619731
:1045C0000FB6F894DEBF0FBECDBF8C0185E0F801B9
:1045D000DE011D9601900D928A95E1F7F801E280C7
:1045E00084E8A82E82E0B82E60918702709188023C
:1045F0006115710509F432C19091840240918502E0
:10460000892F84238F3F09F429C120813181C38000
:10461000D480F0908602F601E61BF70BFF2009F428
:10462000E8C080918902582F507FEF3AF10508F0D9
:10463000ABC0511177C0FE2C431321C092131FC091
:10464000E1101DC08F70806180938902C5010E94B6
:10465000851C80918902F80185838F2D61960FB6A4
:10466000F894DEBF0FBECDBFDF91CF911F910F91A8
:10467000FF90EF90DF90CF90BF90AF900895CD283E
:1046800029F0822F83238F3F09F003C180E0F82FA8
:10469000F170DF2E80FF3CC08091BB0240918A0206
:1046A00056E0841315C02D873E878D859E850E9418
:1046B000410B292F22952F702230F0F0243018F56D
:1046C0009F70F1F0F8019581907FD1F4D12C1EC03C
:1046D00090E0589FF001599FF00D1124E557FD4FD0
:1046E0006181361306C06081261303C06281E61221
:1046F0000FC001968770D5CF9F7011F0882331F3DA
:10470000805E883018F3C8010E94851CFD2CA5CF5F
:10471000EE2009F4A2CF8091890281608093890202
:10472000F12C9BCF431306C0921304C0F801EE2076
:1047300009F479C0C8010E94B30B882309F1EE2067
:10474000F9F080918902803270F0209184023091DA
:10475000850238872F831986DB86CA868C87CE012F
:1047600007960E94851C86E0F801A4E8B2E001905B
:104770000D928A95E1F70E947D22FF24F3946DCF7C
:10478000C8010E94851CF9CF51110AC084E892E04B
:104790000E94851C86E0F50111928A95E9F7C0CF49
:1047A00043130FC092130DC0E1100BC0F8018583B5
:1047B000C8010E94851C86E0F50111928A95E9F7EF
:1047C0004CCFC8010E94B30B8823D1F2EE20C1F276
:1047D00080918902803238F22091840230918502E2
:1047E0003A8329831B82DD82CC828E83CE0101969F
:1047F000B8CFEF3AF105F8F6FE2CEE2009F243139C
:104800001FC092131DC08091890280FD10C0982F97
:10481000907F69F0F8018583903F31F0982F907F69
:10482000905F8F70892B8583C8010E94851C86E06C
:10483000F801A4E8B2E001900D928A95E1F70DCF5E
:10484000C8010E94B30B81118ECF809189028160D3
:1048500080938902C8010E94851CFFCEEE2009F4D6
:104860008FCFC8010E94B30BF82E882309F488CF9C
:1048700086E0F801A4E8B2E001900D928A95E1F794
:1048800080918402909185020E94410B0E947D22BA
:10489000E4CE81E08E25FBCE1F93CF93DF93CDB77F
:1048A000DEB767970FB6F894DEBF0FBECDBF4B8B58
:1048B0005C8B6D8B7E8B8F8B61111092C3051A8A76
:1048C000198A85E0FE017396DE011D9601900D9216
:1048D0008A95E1F786E0FE013D96DE01179601908C
:1048E0000D928A95E1F7CE0107960E94D322882384
:1048F00089F016E08091BB0290918A0289134BC027
:1049000067960FB6F894DEBF0FBECDBFDF91CF9193
:104910001F91089586E0FE013796DE011196019001
:104920000D928A95E1F78A859B85892B11F38F81FA
:10493000988589238F3FE9F220918A0230E0C901EE
:104940000196877099274091BB024817190681F498
:104950001092D5050E94071110928A021092BB0294
:1049600086E0E4E8F2E0DF011D928A95E9F7C1CF25
:1049700096E0929FD001939FB00D1124A557BD4F93
:10498000FE01319601900D929A95E1F780938A028B
:104990000E94E00AAECF819FC001112485579D4F30
:1049A0000E94D322882309F4ABCF8091BB0290E010
:1049B0000196877099278093BB029CCF1F921FB6E8
:1049C0001F9211248F939F93AF93BF938091CA0539
:1049D000811113C08091CB059091CC05A091CD059C
:1049E000B091CE054196A11DB11D8093CB0590934A
:1049F000CC05A093CD05B093CE05BF91AF919F910B
:104A00008F911F901FBE1F901895CDB7DEB72C97C2
:104A10000FB6F894DEBF0FBECDBF84B7877F84BFCB
:104A20000FB6F894A895809160008861809360002B
:104A3000109260000FBE80E890E00FB6F89480936B
:104A40006100909361000FBE85B7806885BF85B710
:104A5000806885BF80E698E09093390280933802A1
:104A60000E94FF050E94CA068091E2008460809344
:104A7000E20078948091FA058823A1F01091E90072
:104A80001F709091EC00892F817090FD80E8182BA9
:104A90001092E9008091E80083FD0E941A111F70B6
:104AA0001093E90082E084BD93E095BD9AEF97BD35
:104AB00080936E0010920B0310920C0310920D0362
:104AC00010920E0325982D9883B185FB882780F9D5
:104AD00080935E0180915E01882309F479C0109271
:104AE000740186E0809375010E94E10F81110E949C
:104AF000502B80915E0180915E0195E0811190E0E4
:104B000090931A0385E0891B809319030DE012E04E
:104B100092E1E92E92E0F92ED8018D918D018F3F1F
:104B200011F00E946408E016F106B1F707E112E007
:104B30008DE1E82E82E0F82EF80181918F018F3F00
:104B400011F00E946408E016F106B1F78AE0EDE189
:104B5000F3E0DF01282F1D922A95E9F7EFE0F3E05B
:104B6000DF011D928A95E9F790E080E00E943A30DB
:104B7000893E9E4F11F00E94411882E090E00E9411
:104B80002C308093550384E090E00E942C30182F45
:104B900082E290E00E942C30982F812F9093D005D4
:104BA0008093CF050E94081AEFE3FCE93197F1F7F3
:104BB00000C000000E94081A80911D0380FF0CC0F5
:104BC0006FEF7FEF90E080E00E945E300E948E07E2
:104BD00086E08093740186CF83E090E00E942C30C1
:104BE000682F70E090E080E00E94480C0E94E10F86
:104BF000811102C00E94532B0E94E10F882309F407
:104C000092C183E08093500380FD8FC180E8809340
:104C10008C030E94E8296DE070E08FE493E00E942D
:104C2000910D892BE9F58091500363E070E081FDDF
:104C30007EC18CE493E00E94910D892B89F56DE093
:104C400070E08CE393E00E94910D892B49F50E945E
:104C50009F07605A75418F4F9F4F609397057093E0
:104C600098058093990590939A05EFE8F3E080E02A
:104C700092E0DF019C011D9221503040E1F7F0935A
:104C80009605E09395058FEF9FEF90938E038093A9
:104C90008D0381E080939C0580939B0510925103C6
:104CA00080911B03811139C090E080E00E943A306E
:104CB000893E9E4F21F00E9441180E94741588E0A1
:104CC00090E00E9434306093870370938803809350
:104CD000890390938A0380916203836080936203C7
:104CE0006E7F71F40E94741588E090E00E94343069
:104CF00060938703709388038093890390938A035A
:104D00000E9451088091870380FF04C060E086956F
:104D10000E94441581E080931B0380915E01811104
:104D200006C084EF80936C0185EF80936B01209126
:104D30006C01A22FA295AF70B0E091963C91919733
:104D40002F7081E090E0BC01022E01C0660F0A9432
:104D5000EAF7462F4095432391964C93919792966C
:104D60003C919297362B92963C93929740916B018F
:104D7000E42FE295EF70F0E031A14F70042E01C0F6
:104D8000880F0A94EAF7982F9095932391A392A104
:104D9000892B82A390968C9190E002C0959587957F
:104DA0002A95E2F7817020A130E002C03595279561
:104DB0004A95E2F792E020FF90E0892B80932B0345
:104DC00090915E0181E0982790932A03891B80933C
:104DD0001C038FE591E09093C7058093C60500E121
:104DE000602E8091FA0512E1853009F4DDC00E9441
:104DF000081AE82E81110E949F07ADE1B3E0E6E5B5
:104E0000F3E010E000E0B02EDD9081918D1509F403
:104E1000DCC08D25C12CFF24F394982F9F2109F429
:104E2000CFC00E94E10F882399F0C982BA82DF20A7
:104E300081E009F480E08B830E94FC198160782F67
:104E40009D838C8349815A816B818D810E944C2482
:104E5000F801EA5AFC4F8081F826F08280912B03FA
:104E6000E82FEE0FEE0F90916C01A92FA295AF7075
:104E7000B0E090962C9130E09F7002C03595279558
:104E80009A95E2F72170332790916B01A92FA29593
:104E9000AF70B0E090964C9150E09F7002C0559575
:104EA00047959A95E2F7CA018170992740FF02C0A1
:104EB00082E090E0822B8E2B80932B0310912A03AB
:104EC0008F70E82FF0E0E35EFD4F80819091290321
:104ED000890F80932903F12C181674F4E12FF0E068
:104EE000E95DFC4F80818F5F8083111103C08BE4EB
:104EF0000E941410FF24F3948091290387FF7CC043
:104F0000E12FF0E0E95DFC4F808181508083111139
:104F100003C08EE40E941410109229030E94260AF6
:104F2000FF24F3946DC080E06DCE80E270CE89E402
:104F300093E081CE8091FA05843031F10E94C10D59
:104F40001092CA0588E190E0A0E40FB6F894A89505
:104F5000809360000FBEA093600083B7817F846060
:104F600083BF83B7816083BF7894889583B78E7F32
:104F700083BF0FB6F894A8958091600088618093F4
:104F80006000109260000FBE8091F905882361F0E7
:104F90000E94081AEDE1F3E08191811101C227E23C
:104FA00033E02E173F07C1F78091FA05853009F4E9
:104FB000C1CF1092D5050E9407110E94041017CF8F
:104FC000C394FF0C36E0C31228CF0F5F1F4F0A3087
:104FD000110509F018CF8FEF8E838F8318860E94FA
:104FE000FC198160782F9A8789874E815F81688557
:104FF0008A850E944C2432CF10922903F1108ECF63
:1050000080919C05882349F180915203909153032C
:105010000E94ED19C29790F520918D0330918E0377
:105020002115310509F0E9C080919B058823A9F07D
:105030000E949F070091970510919805209199056E
:1050400030919A05601B710B820B930B6F3F7F4F62
:105050008F4F9F4710F40E94C10DE11001C0F11065
:105060000E94DC0D0E94041090915403891709F4EA
:10507000B8CE0E94041080935403B3CE0E94FC1952
:1050800090935303809352038FE893E09093960597
:10509000809395050E94E10F60E0882309F4AAC07F
:1050A0008EEA93E00E94C21060E08DEA93E00E94D5
:1050B000C21060E082EA93E00E94C21060E080EAE1
:1050C00093E00E94C21060E08AE993E00E94C2105F
:1050D00040912C0350912D0360912E0370912F036A
:1050E000CB01AA27BB270097A105B10509F446C04B
:1050F000AC01BD0180E1052F162F272F33270115A5
:1051000011052105310519F0885FB901A8018A014F
:105110009B01A4E03695279517950795AA95D1F799
:10512000011511052105310519F08C5FB901A801A0
:105130008A019B01F2E03695279517950795FA9518
:10514000D1F7011511052105310519F08E5FB9015F
:10515000A8017695679557954795452B462B472B84
:1051600009F08F5F8130F1F1882351F08230B1F185
:105170008330E1F160E088E793E005C080E0BBCFD9
:1051800060E083E993E00E94C21060E086E793E06C
:105190000E94C2100E94041081FB662760F98BE612
:1051A00093E00E94C21081E00E94D41010917B0114
:1051B000117060E089E693E00E94C210612F8EE5D5
:1051C00093E00E94C21060E08CE593E00E94C21060
:1051D00080919C05882309F427CF1ECF60E08CE8DE
:1051E00093E0D1CF60E085E893E0CDCF60E08EE73B
:1051F00093E0C9CF80EB93E0E9CF8091510361E068
:1052000070E0811111CF082F10E02B01082E02C091
:10521000440C551C0A94E2F7A90144215521452B61
:1052200009F448C09091500390FD46C08295880FC4
:10523000807680936F01980136952795369527954E
:1052400020937201815E809370011092730124E6B5
:1052500030E047E050E06DE671E088E70E94972A71
:10526000892B09F0E1CEA80195E0440F551F9A95CE
:10527000E1F78091500380FD2DC041575C4F04E65B
:1052800010E020E230E060E488E70E94BE2A892B2B
:1052900009F0CACE0E94DC0DC20180959095409025
:1052A0008D0350908E034822592250928E034092D3
:1052B0008D03BACE8F5FA7CF880F880F880F80939A
:1052C0006F0110927201895F8093700183E0809377
:1052D0007301BDCFE0E3F3E080E2DF011D928A9528
:1052E000E9F7E1E3F2E0FC87EB870DE212E087E00B
:1052F000A82E99249394AB85BC852D91BC87AB8750
:10530000F80121908F01240E352E311CC1018157E7
:105310009C4F1C01E22FF0E0E05DFC4F30E020E00C
:105320007A2C721AB92C022E01C0BB0C0A94EAF72F
:10533000610190E0D6018D916D018B21672D691B74
:105340006770862E062E000C770BB82F01C0BB0F9E
:105350008A94EAF78B2E71956195710967707727AA
:1053600001C086956A95EAF7882A8081882A80821A
:105370009F5F9830F9F62F5F3F4F31962830310507
:1053800079F6E5E3F2E02B853C85E217F30709F0B7
:10539000B2CF04E610E020E230E040E353E073CF08
:1053A00069BC19BD09B400FEFDCF8091D8008F7D86
:1053B0008093D8008091E00082608093E00080912B
:1053C000E00081FDFCCF1092D5050E940711ECCDC5
:1053D0001092B9008CE08093B80008959F92AF922C
:1053E000BF92CF92DF92EF92FF920F931F93CF93D2
:1053F000DF93B82EEB010E94FC196C01EE24E394BC
:10540000F12CC431D10560F025E0E22EF12CCF3F24
:10541000DC0731F0CE0164E170E00E94112D7B01C8
:1054200084EAA82E94E8992E1092BC00A092BC00A9
:105430000E94FC198C018091BC0087FF0DC08091F7
:10544000B900887F883039F18091B900887F803138
:1054500011F10FEF1FEF09C00E94FC19801B910B87
:105460008E159F0540F30EEF1FEFCF3FDC07E1F2F3
:10547000C6010E94ED198C179D07B0F2C801DF919B
:10548000CF911F910F91FF90EF90DF90CF90BF9041
:10549000AF909F900895B092BB009092BC000E9484
:1054A000FC198C018091BC0087FF0AC08091B90073
:1054B000887F883111F0803461F610E000E0DECFA3
:1054C0000E94FC19801B910B8E159F0558F3CBCFC2
:1054D0000F931F93CF93DF93EB018093BB0084E87E
:1054E0008093BC000E94FC198C018091BC0087FF56
:1054F00011C02091B900287F81E090E0283211F49A
:1055000090E080E0919581959109DF91CF911F9175
:105510000F910895CF3FDC0741F30E94FC19801BD7
:10552000910B8C179D0708F38EEF9FEFEECFCF9274
:10553000DF92EF92FF920F931F93CF93DF936B0154
:105540008A017901B9010E94EE29E6010C0D1D1DA9
:10555000C017D10761F424E92093BC00DF91CF91FB
:105560001F910F91FF90EF90DF90CF90089597FDDE
:10557000F2CFB70189910E94682AEACFCF92DF92D9
:10558000EF92FF920F931F93CF93DF93C62F6A0181
:105590007901B8010E94EE2997FD0CC0B8018C2F4B
:1055A0000E94682AE601EC0CFD1CCE15DF0511F007
:1055B00097FF0CC024E92093BC00DF91CF911F918D
:1055C0000F91FF90EF90DF90CF900895B8018991EF
:1055D0000E94682AEACF84E98093BC0008958EE196
:1055E0004A9B02C08150E1F74A9BFECF08955A982A
:1055F00080E28A95F1F75A9A0895FC013BE03A95CA
:10560000F1F798E020E080E031E040E14A95F1F7E1
:10561000880F4A9B02C08160232742E04A95F1F738
:10562000000040E14A95F1F7915079F790E19A95A1
:10563000F1F799B132E03A95F1F7000040E14A956F
:10564000F1F792FB992790F992272081920F90838E
:105650000895EF92FF920F931F93CF93DF930F92D2
:10566000CDB7DEB719828C017C01E60EF11C0E1558
:105670001F0561F481E09981911180E00F90DF9125
:10568000CF911F910F91FF90EF9008950E94EF2A04
:10569000CE0101960E94FD2AF80181938F01E7CF88
:1056A000529A5A9A089552985A9AEA9AE9E6F0E07C
:1056B00080818F7C808308956150770B91E001C0D9
:1056C000990F6A95EAF720E031E0911108C0222392
:1056D00091F05A9A80E28A95F1F75A980895492FE5
:1056E000482339F05A9A232740E24A95F1F79695D4
:1056F000ECCF5A98F9CF5A98EDCFFF920F931F93A2
:10570000CF93DF93EC018C01060F111DC017D10759
:1057100031F4DF91CF911F910F91FF900895F9908F
:105720000E94F72A68E08F2D0E945C2BEFCF1F921A
:105730000F920FB60F921124EF92FF920F931F93C7
:105740002F933F934F935F936F937F938F939F9389
:10575000AF93BF93EF93FF93CF93DF930F92CDB7A8
:10576000DEB719820E94EF2ACE0101960E94FD2A1F
:10577000A82FA695A695A695282F229525709A2F35
:105780009570290F922F937026952695920F982742
:1057900097708981982B09F075C0A93008F072C004
:1057A00080E18A95F1F75A9A529AB2E0BA95F1F7E8
:1057B00000C05A98EA2EF12CEAE0AE9FD0011124E5
:1057C000A25FBE4F1896ED91FC9119973097B1F0FA
:1057D00060910B0270910C0216962D913C911797D7
:1057E000260F371F13968D919C911497680F791F80
:1057F00015964C91159712968C9109958AE08E9D7D
:10580000F0018F9DF00D1124E25FFE4F658166234C
:1058100051F020910B0230910C0286819781820F0A
:10582000931F0E947D2B0E94F72AF0E1FA95F1F771
:105830005A9852985A9A80E18A95F1F78AE08E9D9B
:1058400080018F9D100D1124025F1E4FD80112960A
:105850006C911297662371F120910B0230910C022A
:1058600013968D919C91820F931F0E94292BD80132
:10587000ED91FC91882311F088E001C082E08083E3
:105880000E94EF2A0F90DF91CF91FF91EF91BF918E
:10589000AF919F918F917F916F915F914F913F91C8
:1058A0002F911F910F91FF90EF900F900FBE0F90CF
:1058B0001F901895ED91FC91DFCF0F931F93CF931D
:1058C000DF93EC0109970CF0A9C08AE08C9FF001EE
:1058D0008D9FF00D1124E25FFE4F80819181892B15
:1058E00009F49CC0F894529A5A9885E08A95F1F789
:1058F00000008C2F869585709C2F9570890F982FAE
:10590000937086958695890F8E0193E0000F111F85
:105910009A95E1F7082B0E94F72A00C068E0802FD3
:105920000E945C2BA0E1AA95F1F752985A9A4A9BE3
:1059300027C087E090E04A9925C08AE08C9F8001CB
:105940008D9F100D1124025F1E4FF80165816623A3
:10595000A1F120910B0230910C0286819781820F78
:10596000931F0E94292B811128C0529A5A9AD8015C
:10597000ED91FC9182E08083789482E090E016C003
:1059800000C0D5CF0197B9F4529A5A9A8AE08C9FF9
:10599000F0018D9FF00D1124E25FFE4F0190F08128
:1059A000E02D81E08083789481E090E0DF91CF91D9
:1059B0001F910F91089500C0BECF0E94EF2AB0E260
:1059C000BA95F1F75A98529AE0E1EA95F1F78AE030
:1059D0008C9FF0018D9FF00D1124E25FFE4F6281DC
:1059E000662351F020910B0230910C028381948147
:1059F000820F931F0E947D2B0E94F72A8AE08C9FC2
:105A0000F0018D9FF00D1124E25FFE4F0190F081B7
:105A1000E02D1082789490E080E0C8CF84E090E0A0
:105A2000C5CFAA1BBB1B51E107C0AA1FBB1FA617EE
:105A3000B70710F0A61BB70B881F991F5A95A9F737
:105A400080959095BC01CD010895991B79E004C023
:105A5000991F961708F0961B881F7A95C9F78095AD
:105A60000895EE0FFF1F0590F491E02D09942F92F9
:105A70003F924F925F926F927F928F929F92AF92DE
:105A8000BF92CF92DF92EF92FF920F931F93CF932B
:105A9000DF93CDB7DEB7CA1BDB0B0FB6F894DEBFC2
:105AA0000FBECDBF09942A88398848885F846E84E8
:105AB0007D848C849B84AA84B984C884DF80EE8032
:105AC000FD800C811B81AA81B981CE0FD11D0FB63B
:105AD000F894DEBF0FBECDBFED010895FB01DC01E0
