:100000000C94DA030C9421040C9421040C94892E92
:100010000C9421040C9421040C9421040C942104CC
:100020000C9421040C9421040C945D180C94191860
:100030000C9480250C9421040C9421040C9421042C
:100040000C9421040C9421040C9421040C9421049C
:100050000C9421040C9436190C9421040C94210462
:100060000C9421040C9421040C9421040C9421047C
:100070000C9421040C9421040C9421040C9421046C
:100080000C9421040C9421040C9421040C9421045C
:100090000C9421040C9421040C9421040C9421044C
:1000A0000C9421040C9421040C9421040501098072
:1000B000A101850319012AB700150126B700950192
:1000C00075108100C0050C0901A101850419012AE0
:1000D000A002150126A002950175108100C005013E
:1000E0000906A1018506050719E029E71500250184
:1000F0009508750181020507190029EF15002501F2
:1001000095F075018102050819012905950575010C
:100110009102950175039101C00660FF0961A1017B
:100120000962150026FF00952075088102096315F4
:100130000026FF00952075089102C005010906A15F
:1001400001050719E029E7150025019508750181CA
:10015000029501750881010507190029FF15002680
:10016000FF00950675088100050819012905950508
:1001700075019102950175039101C0000000000016
:10018000000000000000000000000000000000006F
:100190000000000000000000000000000000007EE1
:1001A0000F00D4FFFFFFC700000078000000000030
:1001B0000000002A2B2800000000000000000000C2
:1001C00000000000000029000000002C1E34202147
:1001D0002224342627252E362D3738271E1F20218E
:1001E00022232425263333362E37381F04050607ED
:1001F00008090A0B0C0D0E0F101112131415161707
:1002000018191A1B1C1D2F3130232D350405060724
:1002100008090A0B0C0D0E0F1011121314151617E6
:1002200018191A1B1C1D2F3130354C00DA0281FFC2
:10023000D9F1DB20A4A62EAF00A0C000A1C800AE5B
:10024000D580A81FD300408D142000FD377A585A5E
:10025000000004E6D6B44602002101160000007436
:100260002FE5A3E008DA01F35D003D8889C6543626
:10027000C3174FE4E21132E3D889270AFB0DEDFBE7
:10028000724F632633C2175CDDAD9C8BC5576D9CE6
:10029000C76F89DC3008DD03E30E1EA57D136F6E8A
:1002A00008DABCDDA12989A3D081DA5655BAE7075F
:1002B00062BB5342CB8129283314505ABCE17E23C0
:1002C000AB80E5DE09ED2F2ED53F559CA3ADB4469E
:1002D0003D08BCB5798C54609EC877D4ECA4D9FA9B
:1002E00028CB4D66C1FD8ED20D08BB8B69769A4F27
:1002F000B4901883AAF9402F319F1B3F9BF9FDF45E
:10030000FFF01CB33ECE87BCA2FF6480D78BCA0728
:10031000AC171BC913E24AF2D6062CEA3B4F5DA28A
:100320007E553D929EC418C06C26FEE15B3FBE1711
:1003300086C646D35F3E3D99D4698A4BFE989B2F73
:1003400029332070DBE213A41A9022E796F868A004
:10035000F98BEA7E50258642C00AC3DA1CE3FB0F04
:10036000EBD6F0A5FD3BAA4C5CC6E884EBFB9C6198
:100370006DE28D5513F0B12E4D998799FF9D23574E
:100380000097CE76CF3DB307831A7FA9790E7829DF
:100390006D1FF3A8CD5BBD654B7415C284884FED0E
:1003A0005F83252D8A0BDD2256ABA0EF5747D2A0E5
:1003B0006684AFD5405EDF0B0F621B3B05E16F909B
:1003C000E530F8856D2A3BBBBE2E217E348E9667C4
:1003D00045BB1B8D7C178C79F50C4FB6FB0534BCE7
:1003E000C1A0BCA8F1A7D5128A1D215F35F833DB67
:1003F000AC30797A0D683B031DD1C361169CF122A4
:1004000076087636C5B9FA01BC5B3E8E4B25CDE544
:10041000DB5D10CE647A9F8B6E5DAF871FC1534F3B
:10042000305F6630428C588B4A7ADC26E90F47D61B
:10043000878446F8C7ACFE87C4FDF43A406EAA2311
:100440001152E27665745A3A7E75C4783EC1FD8BCE
:100450006CD1A00217E1A117DFCE60AB00000094C1
:10046000AC0C97E5FC44DB00018F04DB110000CFEE
:10047000238235B1C467FB020000000004595A0012
:100480000101010101010101010202020202020255
:100490000202030303030303030304040404040428
:1004A00004050505050506060606060707070707EE
:1004B00008080808090909090A0A0A0B0B0B0C0CA1
:1004C0000C0D0D0D0E0E0E0F0F0F1010111111123D
:1004D0001213131414151516161717181819191ABC
:1004E0001A1B1B1C1D1D1E1E1F202021222223241F
:1004F00024252626272829292A2B2C2D2D2E2F305E
:10050000313232333435363738393A3B3C3D3E3F71
:10051000404142434445464748494A4C4D4E4F505E
:10052000515354555658595A5B5D5E5F616264651C
:100530006668696B6C6D6F7072737577787A7B7DA6
:100540007E8082838587888A8C8E8F9193959698FA
:100550009A9C9EA0A2A3A5A7A9ABADAFB1B3B5B716
:10056000BABCBEC0C2C4C6C9CBCDCFD1D4D6D8DBED
:10057000DDDFE2E4E7E9EBEEF0F3F5F8FAFDFF2961
:10058000001E001F002000210022002B0014001A72
:1005900000080015001700320004001600070009CB
:1005A000000A00E0001D001B00060019000500E322
:1005B000004C000158E200D85C51002D00270026B5
:1005C000002500240023002F00130012000C001847
:1005D000001C00340033000F000E000D000B00E47F
:1005E000003800370036001000110027002A0002F2
:1005F00058E600280052000100010001000100013E
:1006000000010001000100010001000100010001E2
:1006100000010001000100010001000100010001D2
:1006200000010001000100010001000100010001C2
:1006300000010001000100010001000100010001B2
:1006400000010001000100010001000100010001A2
:100650000001000100010001000100010001000192
:100660000001000100010001000100010001000182
:100670000001000100010001000100010001000172
:100680000001000100010001000100010001000162
:100690000001000100010001000100010001000152
:1006A0000001000100010001000100010001000142
:1006B0000001000100010001000100010001000132
:1006C0000001000100010001000100010001000122
:1006D0000001000100010001000100010001000112
:1006E0000001000100010000AF00AE09025B000341
:1006F0000100A0FA09040000010301010009211111
:100700000100012240000705810308000A090401D5
:10071000000203000000092111010001222200074C
:1007200005820320000107050303200001090402DC
:10073000000103000000092111010001226D0007E2
:1007400005840320000A1201000200000008EDFEEB
:1007500058000100010203011C03760069006100DA
:100760006C003A006600360034006300320062001C
:100770003300630000001C034C006F007400750020
:100780007300200035003800200047006C006F0027
:10079000770000001A0354007700650065007400BC
:1007A00079004400610042006900720064000000AA
:1007B0000403090411241FBECFEFDAE0DEBFCDBF72
:1007C00004B603FE27C08091610690916206A09155
:1007D0006306B09164068730904BA740B04BD1F4CC
:1007E00010926106109262061092630610926406DF
:1007F00014BE84B7877F84BF0FB6F894A895809104
:100800006000886180936000109260000FBEE0E09D
:10081000F8E3099511E0A0E0B1E0E8E6F7E602C0F0
:1008200005900D92AC3EB107D9F726E0ACEEB1E0F1
:1008300001C01D92A136B207E1F70E94A7250C94D2
:1008400080330C940000E8EDF0E080818E7F80839F
:100850001092E2001092DA001092E100A0EEB0E0F7
:100860008C9181608C9380818F77808319BCA7EDF8
:10087000B0E08C918E7F8C9380818F7E80831092EC
:10088000300608952091E4003091E50095E6A90135
:100890002091EC00822F817020FF06C08091E8003B
:1008A00080FF06C080E008952091E80022FD1AC074
:1008B00080915606882389F0853089F08091EB007D
:1008C00085FD0FC02091E4003091E50042175307E9
:1008D000F9F29150E1F684E0089582E0089583E012
:1008E000089581E00895EF92FF920F931F93CF93A5
:1008F0007C018B010E944204C82F811117C0809196
:10090000E80085FD0BC08091E8008E778093E800B9
:100910000E944204882399F3C82F08C0F7018191EF
:100920007F018093F1000150110949F78C2FCF917D
:100930001F910F91FF90EF9008958091580687FFC7
:1009400013C08091E80082FF06C08091E8008B7799
:100950008093E80004C0809156068111F2CF08957B
:10096000809156068823D9F38091E80080FFF8CF64
:100970008091E8008E77ECCF982F9093E900242F98
:10098000762F50E0891731F07091EC002091ED0046
:100990005091F00021FD07C09F5F973071F7809361
:1009A000E90081E008953091EB003E7F3093EB0049
:1009B0003091ED003D7F3093ED003091EB003160E0
:1009C0003093EB007093EC002093ED005093F00017
:1009D0002091EE0027FDE0CF80E00895CF92DF92D6
:1009E000EF92FF920F931F93CF93DF93C8EDD0E068
:1009F00088818F7E8883E7EDF0E08081816080834D
:100A000084E082BF81E08093300688818E7F888376
:100A100002EE10E0F80110821092DA0081EEC82E8A
:100A2000D12CF601108288818F7788838881806835
:100A3000888388818F7D888319BC10925606109216
:100A40005706109255061092540690EEE92EF12C9E
:100A5000F70180818B7F808388818160888342E079
:100A600060E080E00E94BC04F60180818E7F80837C
:100A7000F801808181608083808188608083F701B4
:100A800080818E7F8083888180618883DF91CF9190
:100A90001F910F91FF90EF90DF90CF900895FC0190
:100AA00080915E0690915F0686179707A0F061150A
:100AB000710529F49091E8009E779093E80090E00A
:100AC0006115710551F4911108C08091E80082FF11
:100AD00034C080E00895BC01F2CF8091560688238F
:100AE000C1F18530C1F18091E80083FD30C0809173
:100AF000E80082FDEACF8091E80080FFE1CF80919D
:100B0000F3002091F200382F6115710519F028309B
:100B1000310558F091E02830310509F090E020913E
:100B2000E8002E772093E800CBCF81918093F100ED
:100B3000615071092F5F3F4FE7CF809156068823A0
:100B400041F0853041F08091E80083FFBECF81E025
:100B5000089582E0089583E00895089508958091AE
:100B60003306089587E797E790930108809300087C
:100B700088E19AE00FB6F894A895809360000FBEC4
:100B800090936000FFCF2FB7F89460912706709183
:100B900028068091290690912A062FBF089520915A
:100BA00072012223C9F020912B0627FF15C0E62FE2
:100BB000E695E695E695EE31D8F4E80FF92FF11DAC
:100BC000677021E030E001C0220F6A95EAF72095B6
:100BD0008281282322830895FC0132960896219170
:100BE000621303C0DF0111971C92E817F907B9F7E8
:100BF000089520912406309125062817390771F0B1
:100C00009093250680932406E0912206F091230616
:100C1000309721F00084F185E02D0994089520910A
:100C20002006309121062817390771F0909321068C
:100C300080932006E0912206F0912306309721F060
:100C40000680F781E02D09940895FC01680F791F53
:100C50008FEF91E32191822728E030E087FF09C0E0
:100C6000880F892721503109C9F7E617F70791F74F
:100C70000895880FF7CFFA01811101C0FB01099493
:100C800080912705982F9E7F39F4809127058170E8
:100C900082608093270508958430B8F7089580E036
:100CA000089578940895F894E82FE295EF70F0E0B5
:100CB00031A1282F2F7081E090E001C0880F2A9584
:100CC000EAF7982F9095932391A392A1892B82A361
:100CD0000C94510690912B0692FF06C0282F287184
:100CE0002830F9F4877F846093FF06C0282F28718D
:100CF0002831F1F4877E846120912C0620FF06C004
:100D0000382F38713830D9F4877F816021FF06C0D1
:100D1000282F28712831D1F4877E816194FD877E48
:100D20000895282F24712430F9F68B7F8860DCCF5A
:100D3000282F2471243101F78B7E8861DDCF382F75
:100D40003171313019F78E7F8860E0CF282F217103
:100D5000213121F78E7E8861E1CFCF93DF93EC01C3
:100D60008238910581F1B0F58133910509F491C084
:100D700020F58932910509F485C08A9709F490C05D
:100D8000C11521E5D20708F0AAC0C11530E5D30787
:100D900008F0F2C0CF3BD10508F089C0C83AD105B0
:100DA00008F0DFC0C53AD10508F0D3C0C430D10582
:100DB000F8F4C130D105E1F040C08533910509F464
:100DC0005AC0C997E9F680912B06837089F0C0EE6E
:100DD000D0E00EC0833E910599F170F4803E9105FC
:100DE00001F1823E910561F680912B0682FD21C0C2
:100DF000CE01DF91CF910895863E910561F1873E46
:100E0000910571F1843E910509F0BACF80912C06CD
:100E100081FFEECF80912B06C7EED0E084FD0DC0A0
:100E2000E7CF80912B0680FDF7C090912C0690FFB4
:100E3000DFCFC3EED0E084FFDBCFD0E0C0E0D8CF7F
:100E400080912B0682FDEBC090912C0690FDBFCFC8
:100E500084FFCECFF2CF80912B0683FDDDCFC8CFAC
:100E600080912B0683FDDEC090912C0691FFF0CF80
:100E7000C4EED0E0BDCF80912B0685FFB9CFC9E28B
:100E8000D0E0B6CF80912B0685FFB2CFC5E3D0E08E
:100E9000AFCF80912B0686FFABCFCAE2D0E0A8CFC0
:100EA00080912B0686FFA4CFC1E3D0E0A1CFC1156E
:100EB00040E2D40760F4C11581E0D80708F098CF6C
:100EC000CE01815E9109079708F492CFB6CFC11584
:100ED00090E4D90708F4B1CFDF70D06A89CFC1158B
:100EE00024E5D20778F4C11533E5D30708F072C0C2
:100EF000C11542E5D40708F05CC0DC2FCC27C16FD8
:100F0000D06A76CFC1158AE5D80778F4C11599E57E
:100F1000D90708F073C0C11528E5D20708F48DCFB2
:100F2000DC2FCC27C06FD06A63CFCE0190568115DD
:100F3000904208F082CF8D2F8F710E946A0690E058
:100F4000982F882788279F719C012C2BE901D0625C
:100F50004FCFC55AD0E0C058DE4FC881D0E0D06432
:100F600047CFC85AD0E0CC0FDD1FCD57DE4F0990D8
:100F7000D881C02DD4643CCFCE0164E0969587958E
:100F80006A95E1F783702C2F26952695237040E211
:100F9000249F90011124382B8C2F8370C1E0D0E066
:100FA00002C0CC0FDD1F8A95E2F7C22BD32BDC6881
:100FB0001FCFCE018370992721E030E002C0220FBD
:100FC000331F8A95E2F7C695C69580E2C89FE00177
:100FD0001124EBCFCE018370992721E030E002C0CD
:100FE000220F331F8A95E2F7C695C69590E2C99FF6
:100FF000E0011124C22BD32BDA68FACE8C2F8F702C
:101000000E946A0634E0D695C7953A95E1F7CF700D
:101010009C2FEC01D069ECCEC9E3D0E0E9CEC2EE62
:10102000D0E0E6CEC6EED0E0E3CE0C94C3058095CA
:10103000909131069823909331060895809131065E
:1010400090916D05892B90915F02892B8093EE0121
:10105000E0912206F0912306309799F09091720169
:10106000992349F090912B0697FF05C08093EF01DB
:1010700086E08093EE010280F381E02D8EEE91E018
:1010800009940895EF92FF920F931F93CF93DF93EC
:10109000EC018A85811139C0EB80FC8087E5F81A64
:1010A00026E12E9DC0012F9D900D1124DC01A05939
:1010B000BA4F1496ED91FC911597309731F05496F4
:1010C0006D917C918A589A4F099586E18E9D800199
:1010D0008F9D100D112400591A4FF80187810E942D
:1010E0001708F8018085982F909580916D058923C8
:1010F00080936D050E941E08188219861B861E8229
:101100001D8210926F0510926E05DF91CF911F9195
:101110000F91FF90EF900895CF93DF93EC018989B1
:1011200081111BC081E0898B809131069F81892BC1
:101130008093310680916D059885892B80936D058C
:101140000E941E08EA81FB81309739F06C897D8905
:10115000CE010696DF91CF910994DF91CF9108954A
:1011600080917101877F8093710190916D059D7FC2
:1011700090936D0584FF08C08F7E809371018091EC
:1011800031068260809331068091710185FF08C02D
:101190008F7D80937101809131068062809331064A
:1011A0000C941E0880915E0290912D02981301C04C
:1011B00008958F5F8770FACF9E3F51F1292F220F3C
:1011C000E22FE90FEE0FE80F9E2F9770E695E69558
:1011D000E69583E0E89FF0011124E15FFD4F50E0C8
:1011E00040E080E0219130E0092E02C0369527953D
:1011F0000A94E2F721703327042E01C0220F0A94CB
:10120000EAF7822B4F5F5F4F4330510559F708953E
:1012100080E008959E3F71F1292F220FE22FE90F00
:10122000EE0FE80F8E2F877041E001C0440F8A95C2
:10123000EAF7E695E695E69583E0E89FF00111244C
:10124000E15FFD4F30E020E070E05191DF01119748
:10125000CB01022E02C0969587950A94E2F7817021
:1012600081958527842385278C932F5F3F4F2330DB
:10127000310559F7089590E080E00E940F0690E054
:1012800080E00E94F90510926D0510925F020C94A7
:101290001E08809360060C943B0980916006982F8D
:1012A0009670963019F488600C944909877FFCCFBA
:1012B00021E030E001C0220F8A95EAF72095809165
:1012C000600682230C94490921E030E001C0220F1E
:1012D0008A95EAF780916006822B0C9449098093E5
:1012E0002C050C943B09882341F0809590916D0565
:1012F000892380936D050C941E080895882339F086
:1013000090916D05982B90936D050C941E0808958F
:10131000882321F00E9417080C941E080895882342
:1013200039F090913106982B909331060C941E0859
:101330000895882341F19CEF980F913A38F4682F73
:101340008EEE91E00E94CF050C941E0890E2980F5B
:10135000983050F4877091E001C0990F8A95EAF7B0
:10136000892F0E941708F0CF9BE5980F933020F447
:1013700090E080E00C940F06885A873120F490E0CA
:1013800080E00C94F9050895CF93C82F882309F4C1
:1013900097C08CEF8C0F813A08F067C08091720182
:1013A0008823E9F180912B0687FF39C0EC2FE69561
:1013B000E695E695F0E0E251FE4F828190E04C2FF9
:1013C000477021E030E002C0220F331F4A95E2F758
:1013D00082239323892B61F06C2F8EEE91E00E9483
:1013E000CF050E941E0825C080912B0687FF25C0CF
:1013F000AC2FA695A695A695B0E0A251BE4FC7709A
:1014000021E030E001C0220FCA95EAF712968C91D4
:101410001297822B12968C93CF910C941E08E0EFBA
:10142000F1E086EF91E02191C217B1F28E179F078C
:10143000D1F7809172018111D7CFA0EFB1E0EFEF2A
:1014400080E09D91C91741F3EF3F19F4911101C05C
:10145000E82F8F5F8630A9F7EF3FF1F20E2E000CD8
:10146000FF0BE251FE4FC283D7CF80E28C0F883052
:1014700068F4C77021E030E001C0220FCA95EAF796
:1014800080913106822B80933106C6CFEBE5EC0FBD
:10149000E33040F4F0E0E058FE4F808190E0CF91DF
:1014A0000C940F06C85AC73158F4EC2FF0E0EE0F39
:1014B000FF1FED57FE4F80819181CF910C94F9056C
:1014C000CF9108959C013A9521153F4150F5FC01BB
:1014D000EE27F170BC0166277270AC01442754708E
:1014E0009C012227387094FF0EC080E1EF2B09F495
:1014F00080E0672B09F08062452B09F08064232B84
:1015000089F08068089581E0EF2B09F480E0672B73
:1015100009F08260452B09F08460232B19F0886064
:10152000089580E00895CF93DF93EC010E9499091C
:10153000CE010E94620A9E01205E310928303105E9
:1015400010F0CD2B21F4DF91CF910C948809DF911D
:10155000CF910C947309CF93DF93EC010E94620A40
:101560009E01205E31092830310510F0209739F4B2
:101570000E948F098C2FDF91CF910C94C4090E9497
:101580007E09F8CFCF92DF92EF92FF920F931F93D5
:10159000CF93DF936C017B0164E670E088E70E94E3
:1015A000E02CEC0197FD12C010E000E0F601E00F26
:1015B000F11F849164E670E00E945A2DEC01892BA2
:1015C00029F40F5F1F4F0E151F0581F70E94DD2DB7
:1015D000CE01DF91CF911F910F91FF90EF90DF909F
:1015E000CF9008958091470590914805911103C0CF
:1015F00091E089270895882369F062E070E089EE20
:1016000096E00E94C20A892B19F08091470508953F
:101610001092470580914705EBCFCF93C0914705C6
:10162000809148058823D1F00E94C305605A754116
:101630008F4F9F4F609343057093440580934505FA
:1016400090934605C11108C062E070E087EE96E015
:101650000E94C20A892B29F0C09147058C2FCF9197
:10166000089581E080934705F7CF80932D0670930E
:101670002F0660932E06809156068430F9F48093ED
:10168000E9008FEF9091E800815095FD06C095ED3F
:101690009A95F1F700008111F5CF8091E80085FF60
:1016A0000DC050E040E063E070E08DE296E00E9403
:1016B00073048091E8008E778093E8000895BC0160
:1016C00084E00C94350BBC0183E00C94350BCF9374
:1016D000DF93EC01809172018823B1F180912B0698
:1016E00087FF32C060E284E08093E9008FEF909141
:1016F000E800815095FD06C095ED9A95F1F7000040
:101700008111F5CF8091E80085FF1BC080917201A7
:1017100070E050E040E0811104C050E040E068E03B
:1017200070E0CE010E9473048091E8008E77809370
:10173000E80080E2FE01A4E3B6E001900D928A95F4
:10174000E1F7DF91CF91089568E081E0CDCFDF929E
:10175000EF92FF920F931F93CF93DF93EC018B01D6
:101760008091710182FF96C0E0906B05F0906C054E
:10177000EC16FD0619F0209709F08CC080917101DC
:101780008B7F8093710181FD7EC08091690590916E
:101790006A05A801481B590B81E020916F01309127
:1017A00070014217530708F480E08170D82E8091B1
:1017B0007101D0FA81F980937101E701DD27FE0103
:1017C00084E0F695E7958A95E1F7EE0FFF1FE75B5A
:1017D000FA4F20813181A7014F70552781E090E0B9
:1017E00002C0880F991F4A95E2F7DD2009F44DC029
:1017F000822B932B918380838091310681FF08C0D7
:101800008091710180618093710182E00E941708CC
:101810008091310685FF08C08091710180628093BC
:10182000710180E20E941708DD2029F080916D058A
:10183000826080936D05C7019056811520E2920762
:1018400028F0905E8115904108F0E701CE010E94DA
:10185000AB0A8FE39CE90197F1F700C0000080918B
:101860006B0590916C059C013056211540E23407C0
:1018700020F0305E2115304108F499270E94930A28
:101880000E94B0081DC081E090CF80959095822382
:101890009323B0CFCE0199279E013056211540E207
:1018A000340728F0305E2115304108F0CE010E9447
:1018B000930A80916B0590916C05C817D90701F3C5
:1018C00010936A0500936905DF91CF911F910F91E5
:1018D000FF90EF90DF900895609169018091270556
:1018E00080FF20C08091680143E0849FC0011124E3
:1018F0008D5F9A4F539A2BB1277F3BB138605FB70A
:10190000F894FC01649FE00DF11D1124BF016817DC
:101910007907D1F45FBF8FE594E00197F1F700C03C
:101920000000089580916A0190916B0123E0829FED
:10193000F0011124ED5FFA4F8917A0F61182108291
:1019400012828F5F3396F8CFFC014191CF01E8E01E
:101950003BB9000000C047FF2BB9440F000000C096
:1019600000C000C02BB900C0EA9591F7D0CFE7E2E4
:10197000F5E080818E7F8083E0E0F5E08281816008
:1019800082832FEF80E792E0215080409040E1F782
:1019900000C000000C946C0C9F92AF92BF92CF924B
:1019A000DF92EF92FF920F931F93CF93DF937C010F
:1019B0005B016A018091A90201E010E08A3010F415
:1019C0000AE010E0C1E0D0E0F894B501C701F601EB
:1019D0000995982E0E945106911004C021960C176B
:1019E0001D076CF4892DDF91CF911F910F91FF900E
:1019F000EF90DF90CF90BF90AF909F900895CC9FD5
:101A00009001CD9F300D300D112490E080E045E332
:101A10004A95F1F70000019682179307C1F7D4CFDA
:101A200080917002811110C08091D80080618093F4
:101A3000D8008AE18A95F1F700C08091D90080FF33
:101A40000AC081E08093700281E090917002913031
:101A500009F080E0089582E0809370020E942304E0
:101A600010925606F1CF0E94100D882351F0E0919C
:101A70002206F0912306309721F00190F081E02DAD
:101A8000099480E008951F93CF93DF93182FEB0103
:101A90000E94C4098FE99FE00197F1F700C00000A0
:101AA0002197C1F7812FDF91CF911F910C94990954
:101AB000AF92BF92CF92DF92EF92FF920F931F935C
:101AC000CF93DF93EC018AE0A82E2881222309F42A
:101AD0009CC0213009F03FC099818A81913051F436
:101AE00022966AE070E0893311F460E570E00E94AC
:101AF000430D05C0923029F422960E94C409219614
:101B0000E4CF933021F422960E949909F8CF9430C3
:101B100011F02196F4CF229630E020E0AE014F5F25
:101B20005F4F8053990B8A30910550F02150310955
:101B300030F38FE99FE00197F1F700C00000F6CF86
:101B4000A29EB001A39E700D11249C01260F371F89
:101B50008981EA01E3CFE22FF0E0E555FE4FB49032
:101B6000822F86958695869590E0FC01E556FE4F7E
:101B7000E4902770F12C022E02C0F594E7940A94A9
:101B8000E2F731E0E322FF24FC01E557FE4FC49069
:101B9000D12C022E02C0D594C7940A94E2F731E00A
:101BA000C322DD24FC01E558FE4F049110E002C081
:101BB000159507952A95E2F701701127E114F104B4
:101BC00019F081EE0E94C409C114D10419F086EE07
:101BD0000E94C40989E36AE070E0B81202C060E5BF
:101BE00070E08B2D0E94430DCD2819F086EE0E94E7
:101BF0009909EF2819F081EE0E949909012B09F447
:101C00007ECF6AE070E08CE272CFDF91CF911F91BE
:101C10000F91FF90EF90DF90CF90BF90AF9008951D
:101C2000CF93DF93C7EFD1E060E0CE010E94443351
:101C30002196C11584E0D807B9F7DF91CF910895B7
:101C40000F931F93CF93DF938901833068F5623040
:101C500058F5423048F501152CE5120731F4209172
:101C60006D0130916E01232BF9F028E0829FC001B5
:101C7000112424E0629FB0011124860F971FC42F06
:101C8000D0E0CC0FDD1FC80FD91FC157DE4F612F29
:101C9000CE010E944433602FCE010196DF91CF9197
:101CA0001F910F910C944433DF91CF911F910F91AD
:101CB00008950F931F93CF93DF938901833048F5E5
:101CC0006A3038F5463028F521153C4531F420912D
:101CD0006D0130916E01232BE1F0C42FD0E0CC0FC9
:101CE000DD1F9CE0699FC00DD11D112498E7899FDD
:101CF000C00DD11D1124612FCE0187960E9444335F
:101D0000602FCE018896DF91CF911F910F910C9497
:101D10004433DF91CF911F910F910895CF93C82F36
:101D20006FEF811169E283E290E00E9444336FEF2C
:101D3000C1116FE384E290E00E9444336FEFC11160
:101D400061E885E290E0CF910C9444337F928F92CA
:101D50009F92AF92BF92CF92DF92EF92FF920F933A
:101D60001F93CF93DF93CDB7DEB72A970FB6F894C2
:101D7000DEBF0FBECDBFA0906D01B0906E0181E0BF
:101D800090E090936E0180936D018FE7C82E85E0FF
:101D9000D82E10E0760100E015C0F40125913491B1
:101DA000472D602F812F0E94590E82E0880E911CD2
:101DB000739486E07812F1CF8CE0E80EF11C0F5F8F
:101DC0000A3019F04701712CE8CF21E030E040E003
:101DD00060E0812F0E94200E21E030E041E060E0D1
:101DE000812F0E94200E21E030E040E061E0812F51
:101DF0000E94200E21E030E041E061E0812F0E944E
:101E0000200E1F5F88E7C80ED11C133009F0C2CF27
:101E10001A8219821C821B821E821D8218861F82D2
:101E20008FEA90E09A87898707EA11E04AE050E05C
:101E3000B801CE0101960E946833065F1F4F073F2D
:101E400081E0180799F7B0926E01A0926D012A9671
:101E50000FB6F894DEBF0FBECDBFDF91CF911F91BB
:101E60000F91FF90EF90DF90CF90BF90AF909F9039
:101E70008F907F90089580E00E948E0E60E086E251
:101E800090E00E9444330E94A60E0E94100E81E052
:101E90000C948E0E9B01883070F49AE0899FB001FB
:101EA000112469557E4F4AE050E0C9010E94203359
:101EB00090E080E008958FEF9FEF08958F929F92BA
:101EC000AF92BF92CF92DF92EF92FF920F931F9348
:101ED000CF93DF93CDB7DEB72A970FB6F894DEBF66
:101EE0000FBECDBF00E715E0F12CE12C8AEDC82E26
:101EF00084E2D82E94E0A92E95E2B92E21EB822E11
:101F000023E2922EF801D182C082B382A28295820E
:101F10008482F58AE48ABE016F5F7F4F8E2D0E9416
:101F20004A0F892B29F489859A85F801938B828B36
:101F3000FFEFEF1AFF0A0A5E1F4F88E0E816F10470
:101F400009F72A960FB6F894DEBF0FBECDBFDF911A
:101F5000CF911F910F91FF90EF90DF90CF90BF90A6
:101F6000AF909F908F9008950F931F93CF93DF931F
:101F7000833038F5623028F528E0829FC0011124B3
:101F800034E0639FB0011124860F971FC42FD0E067
:101F9000CC0FDD1FC80FD91FC157DE4FCE010E94E5
:101FA0003033082F10E0102F0027CE0101960E9439
:101FB00030339801282BC901DF91CF911F910F91E8
:101FC000089590E080E0F8CF0F931F93CF93DF93B5
:101FD000833030F56A3020F5463010F5C42FD0E05C
:101FE000CC0FDD1F2CE0629FC00DD11D112438E7FE
:101FF000839FC00DD11D1124CE0187960E943033DE
:10200000082F10E0102F0027CE0188960E94303351
:102010009801282BC901DF91CF911F910F9108954D
:1020200090E080E0F8CF462F2091410530914205A5
:10203000232B91F47E3F39F46E3F71F480913F057C
:10204000909140050895833038F47A3028F4663052
:1020500018F4672F0C94E40F90E080E00895CF927D
:10206000DF92FF920F931F93CF93DF936C01009148
:10207000600680912C05082BC7E0D0E010E0FC2E14
:10208000C8010C2E02C0959587950A94E2F780FD51
:102090000CC02197A0F7F12C8F2DDF91CF911F91CC
:1020A0000F91FF90DF90CF900895B6018C2F0E9482
:1020B00013100E94AD06019761F3EECFCF93DF932B
:1020C000EC010E942F10BE010E941310DF91CF91EE
:1020D0000C94AD06FC01808191810E945E10292F35
:1020E0002F7092959F7092509E3078F4E92FF0E017
:1020F000EE57FC4C0C941730803F19F020F4883ECA
:1021000020F481E00895843FE1F380E00895883E63
:10211000C0F3813FD1F7F5CF822F869586958695BE
:10212000089583E290E00E943033893289F484E29A
:1021300090E00E9430338F3359F485E290E00E94A2
:10214000303391E0813809F090E0892F8170089553
:1021500080E0FCCFCF92DF92EF92FF926B017C0187
:102160000E944006B701A60188E090E0FF90EF9042
:10217000DF90CF900C9456338F929F92AF92BF9284
:10218000CF92DF92EF92FF920F931F93CF93DF9343
:10219000D82FC62F142F822E0091270500FFD5C0FF
:1021A000E02FE695F0E0E552FE4F80818093000538
:1021B000802F8E7F8230D1F4E42FF0E0E158FB4F86
:1021C000611144C02491F22FE22F00FF0FC08091D3
:1021D0006A0190916B0133E0839FD0011124AD5FC0
:1021E000BA4F891708F4A7C00E946C0C809128058B
:1021F0008D1308C0809129058C1304C080912A0595
:10220000811729F080910205826080930205D093A6
:102210002805C093290510932A05882009F495C044
:1022200060912705709128058091290590912A05D4
:10223000DF91CF911F910F91FF90EF90DF90CF90A2
:10224000BF90AF909F908F900C94AA10E62EF12C27
:10225000E4919E2ECE2ED12C26E0D29FC0011124D7
:102260002FEF30E0B9010E9403308D2F90E0880FEE
:10227000991FF5E5F69FA001F79F500D1124841BCF
:10228000950BB82EBB0CB80EA9014E195F094C9DD9
:10229000C0014D9D900D5C9D900D1124F92FCB9D9B
:1022A000A0011124452F5527D901A41BB50BAC9DC6
:1022B000A001AD9D500DBC9D500D1124D901AB194D
:1022C000B1095D01AE9CD001AF9CB00DBE9CB00DBC
:1022D0001124AB2FBB272A1B3B0B2C9DD0012D9D1E
:1022E000B00D3C9DB00D11242B2F62307105A1F073
:1022F00050F46115710509F468CF6130710581F002
:10230000292FF52F62CF6430710569F080F06630B7
:10231000710509F45ACFF4CF2E2FE92FFB2F55CF9B
:102320002E2FE52F52CF292FFE2FEB2F4ECFE92F47
:10233000F92D252F4ACF1196EC9311972C931296D5
:10234000FC9312978F5F13964CCFDF91CF911F9123
:102350000F91FF90EF90DF90CF90BF90AF909F9044
:102360008F900895E7E2F5E0438121E1421B08F4F4
:1023700040E021E0628181810C94BC10E7E2F5E04D
:10238000438121E1420F08F44FEF21E06281818116
:102390000C94BC10E7E2F5E0628121E1621B08F4D5
:1023A00060E021E0438181810C94BC10E7E2F5E01C
:1023B000628121E1620F08F46FEF21E043818181A6
:1023C0000C94BC10E7E2F5E0818121E04381628159
:1023D00088500C94BC10E7E2F5E0818121E0438154
:1023E0006281885F0C94BC1080912B05882319F0C2
:1023F000815080932B05609127057091280580916D
:10240000290590912A050C94AA1080912B05833000
:1024100018F48F5F80932B05609127057091280534
:102420008091290590912A050C94AA108091270586
:1024300080FF1EC081708260809327058091020515
:10244000816080930205662351F0609127057091A9
:1024500028058091290590912A050E94AA1020E064
:1024600040912A0560912905809128050C94BC10A3
:102470000895809127058695815009F481E061E0F7
:102480000C94161261E081E00C941612E7E2F5E07C
:1024900083E0808311828FEF828383831482A0E0A4
:1024A000B5E012968C911297836012968C9360819E
:1024B0007181828193810C94AA1080917201E0EF66
:1024C000F1E0882359F080912B0687FF07C08EE149
:1024D000DF011D928A95E9F70C943B0986E0F8CF5D
:1024E0001F93CF93DF93CDB7DEB7AA970FB6F894BB
:1024F000DEBF0FBECDBF88E596E02091F100DC0184
:102500002D93CD01B6E080369B07B9F7809159062F
:10251000833009F472C0B8F4813009F449C08230C4
:1025200009F4B5C08091E80083FF98C280915806F5
:10253000909159069A3008F091C2E92FF0E0E057E7
:10254000FC4C0C9417308A3009F490C08B3009F49D
:1025500071C0893039F780915806813219F780911E
:102560005C0690915D06009711F00297D9F6809174
:10257000E800877F8093E8008091E80082FF38C000
:102580009091F3008091F200029731F48091F10074
:10259000813011F0863021F48091F1008093330670
:1025A0008091E8008B778093E8000E949D04BACF69
:1025B00080915806813A09F0B5CF8091E800877F75
:1025C0008093E80080915C0690915D06892B61F410
:1025D00060E284E396E070E00E944F058091E8009D
:1025E0008B778093E8009ECF60E090E080E0F3CFAF
:1025F000809156068111C0CF95CF80915806813ABF
:1026000009F090CF80915C0690915D06892B09F0CE
:1026100089CF8091E800877F8093E8008091E8006F
:1026200080FFFCCF809172018093F1008091E800DF
:102630008E77B9CF80915806813209F073CF80919F
:102640005C0690915D06892B09F06CCF8091E800C3
:10265000877F8093E8000E949D0480915A068093B2
:102660007201109231060E945D125CCF8091580673
:10267000813209F057CF8091E800877F8093E8008E
:102680000E949D0480915B06809332064BCF80911F
:102690005806813A09F046CF8091E800877F809301
:1026A000E8008091E80080FFFCCF80913206BCCF2B
:1026B000803899F0823809F0D1C180915C068F7022
:1026C000873008F0CBC18093E9008091EB0085FB57
:1026D000882780F91092E90006C0809154069091F5
:1026E0005506911182609091E800977F9093E800E1
:1026F0008093F1001092F1008091E8008E77AAC1DA
:10270000882309F498C1823009F0A8C180915A0643
:1027100081119BC180915C068F702FEF280F2630AE
:1027200008F09CC18093E9002091EB0020FF8DC14F
:10273000933031F48091EB0080628093EB0085C18F
:102740009091EB0090619093EB0021E030E001C0AC
:10275000220F8A95EAF72093EA001092EA0080910E
:10276000EB008860EACF811179C110915A061F777A
:102770008091E3008078812B8093E3008091E800D2
:10278000877F8093E8000E949D048091E80080FF8D
:10279000FCCF8091E30080688093E30082E0111118
:1027A00083E0809356065AC18058823008F056C1A3
:1027B00020915A0630915B062C3DE3E03E07A1F5DF
:1027C00083E08A838AE289834FB7F894DE01139607
:1027D00020E03EE051E2E32FF0E050935700E49117
:1027E00020FF03C0E295EF703F5FEF708E2F90E007
:1027F000EA30C0F0C7968D939D932F5F243159F72F
:102800004FBF8091E800877F8093E8006AE270E024
:10281000CE0101960E944F058091E8008B7780934E
:10282000E8001CC1C096E7CF80915C0690915D06E0
:10283000432F55274330510509F44AC078F54130FC
:10284000510509F485C08BE590E0EBEEF6E04230EF
:10285000510509F003C12091E800277F2093E8008B
:1028600020915E0630915F068217930708F49C0161
:1028700040E02115310509F070C041116EC0809112
:10288000E80082FDC9CF80915606882329F2853061
:1028900019F28091E80083FFF2CFBECF413251059B
:1028A00009F447C04232510509F0D8C08330910580
:1028B00008F0D4C0FC01EE0FFF1FE052FE4F019064
:1028C000F081E02D83529E4FDC018C9190E01DC081
:1028D000332721303105E9F02115310579F0223017
:1028E0003105F9F02330310509F0B8C0E8E5F7E02B
:1028F000E4918E2F90E0E8E5F7E007C0E0EBF7E029
:10290000E4918E2F90E0E0EBF7E0009709F4A6C089
:10291000A2CFE4E9F7E0E4918E2F90E0E4E9F7E05C
:10292000F4CFE6E7F7E0E4918E2F90E0E6E7F7E0FA
:10293000ECCF8330910508F091C0880F991FFC01FE
:10294000EA51FE4F0190F081E02D89E090E083CFC5
:1029500082E190E0E6E4F7E07ECF8091560688239E
:1029600009F45ACF853009F457CF8091E80083FDF0
:1029700053CF8091E80082FD82CF8091E80080FFF4
:1029800078CF9091F3008091F2002115310519F074
:102990008830910550F041E0089709F040E08091BF
:1029A000E8008E778093E80064CF44914093F10073
:1029B0003196215031090196E8CF803809F04EC098
:1029C0008091E800877F8093E8008091570680938C
:1029D000F10092CE811142C010915A061230F0F5EA
:1029E0008091E800877F8093E800109357060E944B
:1029F0009D04112311F084E005C08091E30087FD60
:102A0000FACF81E08093560642E061EC81E00E94BB
:102A1000BC0442E261EC84E00E94BC0442E261EC4E
:102A200082E00E94BC0442E260EC83E00E94BC04AD
:102A30008091560613C080915A06813079F481E066
:102A4000933009F080E0809355061092E900809160
:102A5000E800877F8093E8000E949D048091E80051
:102A600083FF0AC08091E800877F8093E80080910F
:102A7000EB0080628093EB00AA960FB6F894DEBF5D
:102A80000FBECDBFDF91CF911F9108956AEE7EEF0B
:102A900090E080E00E94623360E082E090E00E947B
:102AA000443360E083E090E00E94443310922C05B0
:102AB00060E084E090E00E94443360E082E290E0D5
:102AC0000E94443360E085E090E00E94443360E07F
:102AD00086E090E00E9444336FEF87E090E00E9430
:102AE000443340E050E0BA0188E090E00E94563361
:102AF00060E08DE090E00E94443340E050E0BA0195
:102B000088E190E00E94563360E087E190E00E9407
:102B1000443340E050E0BA018CE190E00E9456332B
:102B200070E060E080E290E00E94623340E050E0BC
:102B3000BA0188E190E00E94563380E00E948E0E38
:102B40000E943B0F40E050E0BA018FE090E00E940D
:102B5000563340E050E0BA0183E190E00C945633E4
:102B6000EF92FF920F931F93CF93DF937901C82FBA
:102B7000880FDD0B41155105A9F08AE08C9FF0010B
:102B80008D9FF00D1124EE5FFE4F838194818F584D
:102B90009D4F228130E04217530708F49A01A901A2
:102BA0000E947130CE010E944F2F892B11F5011523
:102BB0001105E9F08AE08C9FF0018D9FF00D112442
:102BC000EE5FFE4F458150E00417150708F4A80199
:102BD0008AE08C9FF0018D9FF00D1124EE5FFE4F77
:102BE000668177816F587D4FC7010E94713081E007
:102BF00001C080E0DF91CF911F910F91FF90EF9086
:102C000008950F931F93CF93DF9300D0CDB7DEB716
:102C10004091A1025091A2026091A3027091A4027E
:102C20002FB7F8948091270690912806A091290645
:102C3000B0912A062FBF841B950BA60BB70B21E082
:102C400084369105A105B10508F420E030913106E4
:102C5000398384369105A105B10520F48091820263
:102C6000831321E080916D058A83211105C0909125
:102C7000830211E09817C9F010E000E030E020E096
:102C800042E050E0BE016F5F7F4F86E00E94B015CA
:102C9000182F882351F00E94C3056093A1027093FE
:102CA000A2028093A3029093A402812F0F900F9011
:102CB000DF91CF911F910F9108950F931F93CF93A1
:102CC000DF9300D000D0CDB7DEB740919D02509188
:102CD0009E0260919F027091A0022FB7F89480919C
:102CE000270690912806A0912906B0912A062FBFA9
:102CF000841B950BA60BB70B11E084369105A1053B
:102D0000B10538F10E94100D882369F10E94C305B6
:102D10006E5F7F4F8F4F9F4F69837A838B839C8336
:102D200010E000E030E020E044E050E0BE016F5FE2
:102D30007F4F85E00E94B015182F882351F00E9424
:102D4000C30560939D0270939E0280939F029093AF
:102D5000A002812F0F900F900F900F90DF91CF91D5
:102D60001F910F9108950E94C3050091AA0210912E
:102D7000AB022091AC023091AD02600F711F821F37
:102D8000931FC6CF8F929F92AF92BF92EF92FF9206
:102D90000F931F93CF937B01942FB901A801F701E3
:102DA00080809180A280B380EFB7F89400912706CD
:102DB000109128062091290630912A06EFBF0819A4
:102DC00019092A093B09043611052105310518F4B2
:102DD000C1E0992381F010E000E030E020E00E94A3
:102DE000B015C82F882339F00E94C305F70160830E
:102DF0007183828393838C2FCF911F910F91FF90CA
:102E0000EF90BF90AF909F908F9008950F931F9376
:102E1000CF93DF93CDB7DEB728970FB6F894DEBF18
:102E20000FBECDBF85E0E7E2F5E0DE01119601902F
:102E30000D928A95E1F78091000590910105A0918E
:102E400002058E839F83A88741E08885811101C098
:102E500040E008E010E09E012F5F3F4F65EA72E01E
:102E600087E00E94C21681111092020528960FB6C3
:102E7000F894DEBF0FBECDBFDF91CF911F910F91B0
:102E800008950F931F93CF93DF93EC0145E050E03B
:102E900067E772E00E94643041E0892B09F440E06A
:102EA00005E010E09E0165E972E082E00E94C21632
:102EB000DF91CF911F910F9108957F928F929F92F2
:102EC000AF92BF92CF92DF92EF92FF920F931F9338
:102ED000CF93DF930F92CDB7DEB7762E4A0159011B
:102EE000680101E010E09E012F5F3F4F50E040E09D
:102EF00070E060E00E94B015182F882309F44BC0E1
:102F0000F40140815181628173812FB7F8948091DF
:102F1000270690912806A0912906B0912A062FBF76
:102F2000841B950BA60BB70B84369105A105B10543
:102F300038F4B701C6010E9425069981891759F115
:102F40008701950150E040E070E060E0872D0E942D
:102F5000B015B82EB701C6010E94250611E099816F
:102F6000981310E01B2139F00E94C305F40160831F
:102F7000718382839383812F0F90DF91CF911F9173
:102F80000F91FF90EF90DF90CF90BF90AF909F9008
:102F90008F907F900895A701B601C5010E947130FE
:102FA000EACFCF92DF92EF92FF920F931F93CF93CE
:102FB000DF9300D000D00F92CDB7DEB76B0185E074
:102FC000E82EF12C02E712E09E012F5F3F4F41E90E
:102FD00052E061E080E00E945D17882349F095E0AF
:102FE000FE013196ACE8B2E001900D929A95E1F7BE
:102FF00095E0ECE8F2E0D60101900D929A95E1F7A8
:103000000F900F900F900F900F90DF91CF911F9125
:103010000F91FF90EF90DF90CF90089590E080E0C7
:103020000E943E338A3E9E4F11F40C94911080E032
:1030300008951F920F920FB60F9211242F933F9372
:103040004F935F936F937F938F939F93AF93BF93B0
:10305000CF93DF93EF93FF93D091E900DF708091DE
:10306000EC00C82FC17080FDC0E81092E90080918B
:10307000F000877F8093F00078940E947012109285
:10308000E9008091F00088608093F000CD2BCF7034
:10309000C093E900FF91EF91DF91CF91BF91AF9184
:1030A0009F918F917F916F915F914F913F912F9160
:1030B0000F900FBE0F901F9018951F920F920FB692
:1030C0000F9211242F933F934F935F936F937F93AE
:1030D0008F939F93AF93BF93EF93FF938091E10002
:1030E00082FF09C08091E20082FF05C08091E1006B
:1030F0008B7F8093E1008091DA0080FF24C0809173
:10310000D80080FF20C08091DA008E7F8093DA00A3
:103110008091D90080FF9DC080E189BD82E189BD99
:1031200009B400FEFDCF81E0809356068091300601
:10313000811109C00E9423040E94EE048091E200E4
:1031400084608093E2008091E10080FF17C080914D
:10315000E20080FF13C08091E2008E7F8093E20046
:103160008091E20080618093E2008091D8008062CB
:103170008093D80019BC85E0809356068091E100C9
:1031800084FF2BC08091E20084FF27C080E189BDCD
:1031900082E189BD89B5982F917080FFFBCF809126
:1031A000D8008F7D8093D8008091E1008F7E80933E
:1031B000E1008091E2008F7E8093E2008091E20046
:1031C00081608093E20080915706882309F447C00C
:1031D00084E080935606809156068091E10083FF3B
:1031E00027C08091E20083FF23C08091E100877FA8
:1031F0008093E10082E080935606109257068091FA
:10320000E1008E7F8093E1008091E2008E7F8093C9
:10321000E2008091E20080618093E20042E060E0A1
:1032200080E00E94BC048091F00088608093F000F0
:10323000FF91EF91BF91AF919F918F917F916F918E
:103240005F914F913F912F910F900FBE0F901F9064
:10325000189519BC109256061092300674CF8091C2
:10326000E30087FD93E090935606B5CF78941F92C4
:103270001FB61F9211248F939F93AF93BF9380919A
:10328000270690912806A0912906B0912A0601965A
:10329000A11DB11D8093270690932806A0932906AF
:1032A000B0932A06BF91AF919F918F911F901FBE3F
:1032B0001F9018959C014FB7F89480912706909124
:1032C0002806A0912906B0912A064FBF821B930BB6
:1032D00008952FB7F8948091270690912806A09121
:1032E0002906B0912A062FBF08957F928F929F9250
:1032F000AF92BF92CF92DF92EF92FF920F931F9304
:10330000CF93DF93CDB7DEB72F970FB6F894DEBF1C
:103310000FBECDBF8E010F5F1F4F8AE0D8011D92F7
:103320008A95E9F733EBC32E31E0D32EF12CE12C53
:10333000AA24A394B12C53EC852E51E0952EF601CE
:1033400081916F018F3F09F443C0F894E82FE29513
:10335000EF70F0E021A18F70A50102C0440F551F4E
:103360008A95E2F7CA01922F982B91A392A180959A
:10337000892382A30E94510600C0EDEBF1E0712C7D
:1033800031E021912F3F09F47AC0A22FA295AF70AE
:10339000B0E090968C9190E02F7002C09595879543
:1033A0002A95E2F780FD6BC0832F782A330F8E16A3
:1033B0009F0639F7F601319780818F3F11F00E9407
:1033C000530650EA5A95F1F7F801EE0DFF1D708291
:1033D0008FEFE81AF80A95E0E916F10409F0AFCF8B
:1033E0004AE050E0B8018EEA92E00E9464307C012D
:1033F000892B41F08AE0F801AEEAB2E001900D922B
:103400008A95E1F71091B902E114F104D1F181E05C
:10341000809362020E946919909361028093600216
:1034200080916002909161020E945A19059778F08C
:10343000AEEAB2E0E12FF0E0EA50FB4F83EB92E01E
:103440002D9121938A179B07D9F71092620281E090
:1034500090E0EF28D1F02F960FB6F894DEBF0FBEA4
:10346000CDBFDF91CF911F910F91FF90EF90DF9033
:10347000CF90BF90AF909F908F907F90089580E005
:1034800094CF809162028111CBCF0E94100DD82E73
:10349000E091B902DE011B967D01882309F4E8C0A2
:1034A00085E01D928A95E9F70E2F10E00A501B4F18
:1034B0008091A9028A3008F070C041ED57E1B70150
:1034C000C8010E94CC0C882309F489C041E457E16B
:1034D000B701C8010E94CC0C882309F480C044E8DD
:1034E00054E2B701C8010E94CC0C882309F477C0CC
:1034F0004DE556E1B701C8010E94CC0C882309F4C0
:103500006EC041E056E1B701C8010E94CC0C88238F
:1035100009F465C046E057E1B701C8010E94CC0C30
:10352000882309F45CC01092A9028091B80290E04F
:1035300045E050E0B7018A509B4F0E94643021E083
:1035400020936F02892BF1F5D12C8091000190918D
:10355000010110E006E1019609F080C0809171013F
:1035600082FF19C00E9469192091690530916A058E
:10357000AC01421B530B20916F0130917001421737
:10358000530748F045E652E0BC0180916B059091ED
:103590006C050E94A70B8D2D5ECF809163029091E8
:1035A00064020E945A19843F914008F086CF8091AE
:1035B0006F02882349F285E0F70111928A95E9F7B5
:1035C00010926F02A091B802B0E0AA50BB4F85E004
:1035D000FE013B9601900D928A95E1F7B6CF80915E
:1035E000A9028F3F31F08F5F8093A9028A3008F4DF
:1035F0009CCF0E9469199093640280936302D7CF95
:10360000089FF001099FF00D1124E059FA4FE2885C
:10361000F388E114F10419F42FEAE22EF12C089F4B
:10362000F001099FF00D1124E059FA4F868188239B
:10363000A1F0858596850E945A19E816F90668F466
:10364000109F70011124C70180599A4F0E948C0865
:10365000C7018A589A4F0E9442081F5F812F90E04D
:103660002091000130910101281739074CF676CFDF
:10367000F0E0EA50FB4F0091B80210E00A501B4FF7
:10368000F89485E0A2E7B2E001900D928A95E1F707
:1036900065E070E082E792E00E9425068093710267
:1036A0000E945106F89485E0E7E7F2E0D801019026
:1036B0000D928A95E1F70E945106F894E091BF02BD
:1036C000F0E0E454FD4F80818B8780937D0261E0C0
:1036D00070E0C7010E94250680937C020E9451067B
:1036E000F894C0907E02D0907F02E0908002F0902B
:1036F000810280916B0290916C02A0916D02B09159
:103700006E02C816D906EA06FB06D1F0C0926B021B
:10371000D0926C02E0926D02F0926E020E94100D47
:1037200081110EC00E94C305C61AD70AE80AF90A19
:10373000C092AA02D092AB02E092AC02F092AD022B
:103740000E945106F8948091820280933106809104
:10375000830280936D050E945106F89480918B023C
:103760008823F1F080FF0DC08091840280FF1CC08F
:103770009091270591609093270560E086950E94BF
:10378000161280918B0281FF09C020E040918702D0
:1037900060918602809185020E94BC1010928B027B
:1037A0000E94510680E057CE0E94B70CEACF7F926C
:1037B0008F929F92AF92BF92CF92DF92EF92FF9241
:1037C0000F931F93CF93DF93CDB7DEB728970FB634
:1037D000F894DEBF0FBECDBF7C01DC0113968D9146
:1037E0009C911497892B39F08C9111969C91892387
:1037F0008F3F09F010C528960FB6F894DEBF0FBEB4
:10380000CDBFDF91CF911F910F91FF90EF90DF908F
:10381000CF90BF90AF909F908F907F9008950E941F
:103820002F10182F682F89819A810E940A096981B7
:103830007A81812F0E9413108C01F70182818111FE
:1038400011C0D70112968C91811149C00031FFE55A
:103850001F0709F4CBC001312FE5120709F04DC451
:1038600082E0C5C08091000190910101019649F369
:1038700030E7C32E35E0D32E912C812C772473941E
:10388000809100019091010188159905D4F2F6010B
:1038900086818823E9F0818592850817190739F414
:1038A00080916E0590916F050817190789F0D60170
:1038B0001F967C921F971C961C930E931B97C60114
:1038C0000E948C08C60106960E94420810926D055F
:1038D000BFEF8B1A9B0AE6E1CE0ED11CD1CF980127
:1038E00022513F452031310508F0FDC38FEF93E0B1
:1038F0000E9430332EEEF22EF00E07EF11E0811110
:103900007ACFF11035C019821A821B821C82EE24F4
:10391000EA9448012FEF821A920AC8010E943033BC
:1039200089831A82882309F466CF813009F055C053
:10393000680132E0C30ED11CC4010E943033982EBE
:103940008A83882309F457CFC6010E943033F82EAA
:103950008FEF890D8330D0F4680143E0C40ED11C91
:10396000FB82FF2019F0C5010E94580D8601D1CFBE
:103970000115F4E01F0709F43ECFC8010E9430335F
:10398000811101C0FA940F5F1F4FBBCF54E0951215
:10399000EDCF680184E0C80ED11CC80103960E94D7
:1039A0003033FF2009F427CF882309F424CF815036
:1039B000990BE89E9001E99E300D1124AF2DA15086
:1039C000BB0BCD01820F931F019780F2EFE9FFE05F
:1039D0003197F1F700C00000F7CFC5010E94580DE4
:1039E0006401C4CF81E00E94640903C081E00E94A9
:1039F00058090E944D09FFCE82E0F5CF4FEFC41663
:103A0000D10411F008F085C365E375E08C2D0E94A8
:103A10004A0F892B29F586E18C9DF0018D9DF00DD3
:103A20001124E059FA4F8681813009F05FC08091FE
:103A3000350590913605892B99F080913705909145
:103A40003805892B69F08091390590913A052091CC
:103A50003B0530913C05822B932B892B09F450C0F8
:103A600080910001909101018C159D0524F4D09264
:103A70000101C0920001F701828196E19C9D400105
:103A80009D9D900C1124940120593A4F6901D90150
:103A900050968C935097928116968C9116979923F5
:103AA000E9F11A961C930E9319978F5F16968C93D3
:103AB0000E946919F60196878587178280916D05A6
:103AC00090913106892B80870190F081E02D30970D
:103AD00041F0D60154966D917C91C4018A589A4F59
:103AE000099510936F0500936E0513C3823009F09A
:103AF000B7CF8091390590913A05892B09F4B0CF61
:103B000026E12C9DC0012D9D900D112480599A4FC6
:103B1000DC0150961C920E948C08A2CF882309F4E5
:103B2000F8C2F9018189882309F4F3C2C4018A58D3
:103B30009A4F0E944208EDC20B313CE51307A9F0F1
:103B400068F0809171018E7F0C315CE5150709F0FA
:103B50000AC3809371010E94B00805C3909171015E
:103B6000892F8E7F90FF8160F4CF809171018160F9
:103B700080937101F8C280916F0190917001059658
:103B80009093700180936F01EEC2809170018F93CA
:103B900080916F018F938BE791E09F938F931F929A
:103BA00088E08F93BF92AF920E948130C5010E943E
:103BB000580D0FB6F894DEBF0FBECDBFD4C28091B2
:103BC00071018F7E013E110531F0053E1105C9F4EA
:103BD000809171018F7D809371018091710180FFCF
:103BE000D1C2D70112968C910B32110549F1F8F42C
:103BF0009801245031092432310510F18111BEC2DF
:103C0000C1C2C80190568115E0E29E0720F0905E87
:103C10008115904110F78091710182FFB3C245E692
:103C200052E0B60190E080E00E94A70BABC20D32DB
:103C3000110520F30933110518F004361105F1F6CA
:103C4000882309F447C090913106892F8D7F21F197
:103C500010926C0510926B05F80184E0F695E795DB
:103C60008A95E1F7EE0FFF1FE75BFA4F98012F707F
:103C7000332781E090E002C0880F991F2A95E2F770
:103C80008095909520813181822393239183808335
:103C9000C8010E94AB0AAFCD86E0F701A5E6B2E00D
:103CA00001900D928A95E1F71092670210926902D5
:103CB000109268028091710191FB81F910936C055B
:103CC00000936B05D0926A05C09269058460809369
:103CD000710191CDA701B601C8010E94A70B8BCD40
:103CE0004AEC51E166ED71E1073CECE51E0709F491
:103CF00057C04BEE51E162EE71E1083C1C4508F4FF
:103D00004FC046ED51E16AEC71E14AC00D3C2CE533
:103D1000120709F461C060F40B3C4CE5140709F488
:103D200056C008F44FC045E052E164EF71E138C07D
:103D3000063D8CE5180708F45ECD0D351D4509F4E8
:103D40005ACD40C28091270580FF1EC08E7F809390
:103D5000270560912705709128058091290590918C
:103D60002A050E94AA1080910205816080930205B5
:103D7000BFEFE0E7F2E0B150E040F040E1F700C013
:103D800000000E946C0C37CD81608093270561E0B4
:103D900086950E9416122FCD49E352E162E472E14A
:103DA0000E943B0628CD42E452E169E372E1F8CF7C
:103DB00042EE51E16BEE71E1F3CF42EB51E16EEB7C
:103DC00071E1EECF4EEB51E162EB71E1E9CF44EFEF
:103DD00051E165E072E1E4CF61E081E0DACF011505
:103DE0002CE5120739F00E3D1C4509F0EBC10E948D
:103DF000461501CD109231060E945D124FEF54E33B
:103E00008CE0415050408040E1F700C000000E942B
:103E1000B205C8010E94DC08D82EE2C1092F0F703C
:103E2000907F11F00295007F812F2223C9F000239B
:103E300069F090E2910F983010F011110BC0809151
:103E40003106082B009331060E941E08812F0E9424
:103E5000C40914C080916D05082B00936D05F4CF43
:103E60000E949909002351F0105E183010F0B11033
:103E700010C0802F0E9417080E941E0898E0C91ADF
:103E8000D108A4E0CA16D10408F0B5CC0E94330DC5
:103E9000B2CC009580916D05082300936D05ECCFA1
:103EA000892F8F70907F903211F08295807FF1E0A2
:103EB000BF120CC0222329F0333000F70E948F0973
:103EC000DDCF3230D8F60E948809D8CF222349F0BE
:103ED0003323A1F340FFBACF4F70D70115964C930F
:103EE000EDCF332381F3193309F0F5C0BFEFE7EECF
:103EF000F3E0B150E040F040E1F700C00000812F56
:103F00000E949909BBCF892F86958695837061F0B1
:103F1000813009F0B3CF812F9370211102C090E05E
:103F200080E00E94F905AACF812F9370211102C071
:103F300090E080E00E940F06A1CF892F8370A1F549
:103F400021119CCF812F829586958770880F880FCD
:103F5000412F4F70082E01C0440F0A94EAF7212F19
:103F6000207114FF07C02FE030E001C0220F8A95B6
:103F7000EAF72095969596959370923081F0822F6E
:103F8000842B933030F480912C05913029F0242B30
:103F900082230E946F0972CF842B822BFACF242BAD
:103FA00080912C058227F5CF8695222311F0892F49
:103FB0008170882309F462CF812F8295869587705E
:103FC000880F880F412F4F70082E01C0440F0A94AC
:103FD000EAF7212F207114FF07C02FE030E001C065
:103FE000220F8A95EAF720959695969593709230D0
:103FF00081F0822F842B933030F4809160069130D1
:1040000029F0242B82230E94490938CF842B822B4C
:10401000FACF242B809160068227F5CF092F0F70ED
:10402000222329F0802F0E946409812F47CF812FFE
:104030000E948809802F0E94580920CF812FA1EF6C
:104040001A1789F1A11750F0B0EF1B17B9F022230E
:10405000B1F13111FBCE892F8F7129C0E2EF1E170C
:1040600049F1F3EF1F13F3CF80E0222361F29F7138
:1040700081E001C0880F9A95EAF7C5CF222379F035
:10408000323008F0FBCE292F2F7181E090E001C083
:10409000880F2A95EAF7909160068927B4CF3330CC
:1040A00008F0ECCEF0CF892F8F71222321F20E94ED
:1040B0006409E4CE892F8F712223C9F3BCCF332347
:1040C00079F0893341F42FEF37EE43E0215030404F
:1040D0004040E1F712CF8FE39CE90197F1F70DCF54
:1040E000892F8F71A8CF0031BFE51B0709F47ACC67
:1040F0000131EFE51E0709F47FCC680127E5D21AEC
:10410000882309F47BCC3FEFC316D10409F008F4EF
:10411000A7CC0E9469196C01D70112968C91882353
:1041200009F44DCD8091710182FF07C045E652E050
:10413000B60190E080E00E94A70B0931BCE51B07A7
:1041400009F423CD08F0F8CC0731FCE51F0709F48A
:1041500012CD80916F0190917001059708312CE587
:10416000120709F40DCDC80190568115A0E29A07F7
:1041700028F0905E8115904108F02FCD10926C05CB
:1041800010926B05F7019281911129CE8091310631
:104190008272093CFCE51F0709F40FCE08F0B6CD8A
:1041A000053C3CE5130709F403CE08F099CD033C28
:1041B0005CE5150709F4F0CD08F0F5CD023C1C458F
:1041C00009F4C0CDD7010D911C91992309F421CE9A
:1041D000C8010E942F10D82E682FC8010E940A091A
:1041E000B8018D2D0E9413100E94AD06182FB82E15
:1041F000F70122814581342F32953F70892F8295B6
:104200008F70C82ED12C8C3008F038CEF601E656CF
:10421000FC4C0C94173085E0F701AE014F5F5F4F07
:104220005A01DA0101900D928A95E1F7D7011296B1
:104230002C9189819A812111F2CA0E94DC08182FE1
:10424000F6CA1F93CF93DF9380912C02807FA9F44D
:1042500080912902882389F080915E02D0912D02FD
:104260006091270270912802A0912A02B0912B023E
:10427000C62FC72316E0D81304C0DF91CF911F913A
:10428000089590E0109711F0CF3F19F401968770D0
:10429000F2CF189F9001199F300D1124F901E25DB2
:1042A000FD4F41814713F2CF40814613EFCF42814A
:1042B0004111ECCF438154814A1B5B0B4F3A5105AE
:1042C00028F780912C028F70806180932C02F90175
:1042D000ED5CFD4F80818F708061808387E292E08A
:1042E0000E94D71BDF91CF911F910C94D208AF92FF
:1042F000BF92CF92DF92EF92FF920F931F93CF93D3
:10430000DF93CDB7DEB761970FB6F894DEBF0FBE6F
:10431000CDBF8C0185E0F801DE011D9601900D9264
:104320008A95E1F7F801E28087E2A82E82E0B82EB4
:1043300060912A0270912B026115710509F432C156
:104340009091270240912802892F84238F3F09F4FE
:1043500029C120813181C380D480F0902902F601E7
:10436000E61BF70BFF2009F4E8C080912C02582FC0
:10437000507FEF3AF10508F0ABC0511177C0FE2C29
:10438000431321C092131FC0E1101DC08F708061C4
:1043900080932C02C5010E94D71B80912C02F8014A
:1043A00085838F2D61960FB6F894DEBF0FBECDBF0B
:1043B000DF91CF911F910F91FF90EF90DF90CF9001
:1043C000BF90AF900895CD2829F0822F83238F3F8F
:1043D00009F003C180E0F82FF170DF2E80FF3CC0B0
:1043E00080915E0240912D0256E0841315C02D8706
:1043F0003E878D859E850E945E10292F22952F7005
:104400002230F0F0243018F59F70F1F0F80195811A
:10441000907FD1F4D12C1EC090E0589FF001599F9D
:10442000F00D1124E25DFD4F6181361306C06081FD
:10443000261303C06281E6120FC001968770D5CFA4
:104440009F7011F0882331F3805E883018F3C80123
:104450000E94D71BFD2CA5CFEE2009F4A2CF80919E
:104460002C02816080932C02F12C9BCF431306C059
:10447000921304C0F801EE2009F479C0C8010E942B
:104480006A10882309F1EE20F9F080912C02803225
:1044900070F0209127023091280238872F831986E7
:1044A000DB86CA868C87CE0107960E94D71B86E0E2
:1044B000F801A7E2B2E001900D928A95E1F70E941F
:1044C0002121FF24F3946DCFC8010E94D71BF9CF9F
:1044D00051110AC087E292E00E94D71B86E0F501E5
:1044E00011928A95E9F7C0CF43130FC092130DC004
:1044F000E1100BC0F8018583C8010E94D71B86E03C
:10450000F50111928A95E9F74CCFC8010E946A1013
:104510008823D1F2EE20C1F280912C02803238F251
:1045200020912702309128023A8329831B82DD8261
:10453000CC828E83CE010196B8CFEF3AF105F8F622
:10454000FE2CEE2009F243131FC092131DC0809170
:104550002C0280FD10C0982F907F69F0F8018583B0
:10456000903F31F0982F907F905F8F70892B8583DB
:10457000C8010E94D71B86E0F801A7E2B2E00190D3
:104580000D928A95E1F70DCFC8010E946A10811142
:104590008ECF80912C02816080932C02C8010E94F2
:1045A000D71BFFCEEE2009F48FCFC8010E946A10FE
:1045B000F82E882309F488CF86E0F801A7E2B2E05C
:1045C00001900D928A95E1F780912702909128023F
:1045D0000E945E100E942121E4CE81E08E25FBCE58
:1045E0001F93CF93DF93CDB7DEB767970FB6F894DD
:1045F000DEBF0FBECDBF4B8B5C8B6D8B7E8B8F8BED
:10460000611110926D051A8A198A85E0FE01739670
:10461000DE011D9601900D928A95E1F786E0FE017C
:104620003D96DE01179601900D928A95E1F7CE0135
:1046300007960E947721882389F016E080915E0218
:1046400090912D0289134BC067960FB6F894DEBF88
:104650000FBECDBFDF91CF911F91089586E0FE017F
:104660003796DE01119601900D928A95E1F78A85C1
:104670009B85892B11F38F81988589238F3FE9F2E0
:1046800020912D0230E0C901019687709927409151
:104690005E024817190681F4109231060E945D12DD
:1046A00010922D0210925E0286E0E7E2F2E0DF0156
:1046B0001D928A95E9F7C1CF96E0929FD001939F12
:1046C000B00D1124A25DBD4FFE01319601900D92F7
:1046D0009A95E1F780932D020E94D208AECF819F78
:1046E000C0011124825D9D4F0E947721882309F427
:1046F000ABCF80915E0290E00196877099278093FE
:104700005E029CCFCF93DF9300D000D00F92CDB745
:10471000DEB79093400580933F05811520E2920714
:1047200048F40F900F900F900F900F90DF91CF9162
:104730000C94930A8EEF89838A831B820E946919E5
:104740008160782F9D838C8349815A816B818D8113
:104750000F900F900F900F900F90DF91CF910C94CE
:10476000F0220F931F93CF93DF938C01EB0165E34E
:1047700075E08C2F0E944A0F892BA1F48FE39CE9EE
:104780000197F1F700C00000DD27C35DDA4F888193
:10479000F80110821882833009F148F4813059F011
:1047A000823081F0DF91CF911F910F910895843075
:1047B000D1F08530B9F78091350590913605009795
:1047C00089F306C08091370590913805009799F3D9
:1047D000DF91CF911F910F910C9482238091390525
:1047E00090913A05F3CF80913B0590913C0500975D
:1047F00079F72091350530913605809137059091F4
:10480000380521153105D9F2009711F7C901E0CF1C
:10481000CF93DF9300D000D00F92CDB7DEB7909347
:10482000400580933F05811520E2920748F40F90E0
:104830000F900F900F900F90DF91CF910C94AB0AD7
:104840008EEF89838A8381E08B830E94691981605E
:10485000782F9D838C8349815A816B818D810F9044
:104860000F900F900F900F90DF91CF910C94F0224A
:10487000CF93DF93EC010E9408248FE39CE901971A
:10488000F1F700C00000CE01DF91CF910C9482239C
:10489000CF92DF92EF92FF920F931F93CF93DF930C
:1048A000182F062FC090600680912C05C82AC7E0FB
:1048B000D0E0D12CF12CE12CD701C6010C2E04C084
:1048C000B695A795979587950A94D2F780FF14C05F
:1048D000402F612F8C2F0E94B40F8130910561F021
:1048E0000E94382481E0DF91CF911F910F91FF90BA
:1048F000EF90DF90CF9008952197F0F6402F612F31
:1049000080E00E94B40FECCFCF92DF92EF92FF9243
:104910000F931F93CF93DF930F92CDB7DEB7EE24A3
:10492000E394F12C0DE712E09E012F5F3F4F49E920
:1049300052E064E083E00E945D17082F882321F194
:10494000C090BB028C2D90E09C0124543D4F790116
:104950001981F9018081181BD12E80E00AC0DA94F8
:10496000F70180818F5F808360E08C2D0E94482456
:10497000802F1D14A4F3912F17FD90E0191B111126
:104980000EC081110E941508802F0F90DF91CF91EA
:104990001F910F91FF90EF90DF90CF9008951F5FD0
:1049A000F70180818150808361E08C2D0E94482432
:1049B000802FE5CF0F931F93CF93DF938C01862F2A
:1049C00065E375E00E944A0F892BC9F4C091350553
:1049D000D0913605209799F0F8018081833069F4F1
:1049E000CE010E943824CE010E943824CE01DF91EE
:1049F000CF911F910F910C9438248430B8F7DF9138
:104A0000CF911F910F9108950F931F93CF93DF9331
:104A10008C01EB0165E375E08C2F0E944A0F892B16
:104A200009F064C0FE01FF27D8018C91E35DFA4FC5
:104A30008130D9F419969C911997992311F08083AC
:104A40000CC01A969C919923D1F382E080838091C7
:104A50003705909138050097D9F4809135059091EC
:104A60003605009709F442C013C08230E9F5199663
:104A70008C91199781112DC01A968C9181110EC0BD
:104A800083E080838091390590913A05009719F170
:104A9000DF91CF911F910F910C94082484E08083C3
:104AA00080913B0590913C05009791F780913505E9
:104AB000909136050097F9F00E94382480913705CF
:104AC00090913805009721F7809135059091360532
:104AD000DFCF85E080838091350590913605009782
:104AE00029F00E943824F0CF86E08083DF91CF91B7
:104AF0001F910F9108958091370590913805B1CF9E
:104B00001F921FB61F9211248F939F93AF93BF9351
:104B100080912606811113C0809127069091280666
:104B2000A0912906B0912A064196A11DB11D80933E
:104B3000270690932806A0932906B0932A06BF91D2
:104B4000AF919F918F911F901FBE1F901895CDB769
:104B5000DEB7E9970FB6F894DEBF0FBECDBF84B7BE
:104B6000877F84BF0FB6F894A89580916000886114
:104B700080936000109260000FBE80E890E00FB656
:104B8000F89480936100909361000FBE85B78068B0
:104B900085BF85B7806885BF8FE496E09093ED016F
:104BA0008093EC010E945E0F0E9423040E94EE0499
:104BB0008091E20084608093E200789480915606B0
:104BC0008823A1F01091E9001F709091EC00892FCB
:104BD000817090FD80E8182B1092E9008091E80028
:104BE00083FD0E9470121F701093E90082E084BD63
:104BF00093E095BD9AEF97BD80936E001092AA0244
:104C00001092AB021092AC021092AD020E94911071
:104C1000811102C00E943B0F25982D9883B185FB1E
:104C2000882780F98093520180915201882309F4EA
:104C300076C01092680186E0809369010E94100D91
:104C400081110E94422E809152018091520195E083
:104C5000811190E09093B90285E0891B8093B8029E
:104C600003EB11E0B8EBEB2EB1E0FB2ED8018D91F8
:104C70008D018F3F11F00E945306E016F106B1F747
:104C80000DEB11E0A3ECEA2EA1E0FA2EF8018191E0
:104C90008F018F3F11F00E945306E016F106B1F725
:104CA0008AE0E6EFF4E0DF01282F1D922A95E9F76C
:104CB000EEEAF2E0DF011D928A95E9F70E940E18F4
:104CC000811102C00E94461582E090E00E943033BC
:104CD0008093E90484E090E00E943033182F82E250
:104CE00090E00E943033982F812F90932C06809370
:104CF0002B060E947519EFE3FCE93197F1F700C02C
:104D000000000E9475198091F60480FF0CC06FEFBF
:104D10007FEF90E080E00E9462330E94B20586E05F
:104D20008093680189CF83E090E00E9430330E9435
:104D30006F090E94100D811102C00E94452E109231
:104D4000E20480E88093C1020E94DA2C6DE070E0FA
:104D50008EE392E00E94C20A892BC9F58091E20499
:104D600063E070E081FD76C18BE392E00E94C20AAD
:104D7000892B69F56DE070E08BE292E00E94C20A37
:104D8000892B29F50E94C305605A75418F4F9F4FAB
:104D900060934305709344058093450590934605C1
:104DA000E2EEF2E080E092E0DF019C011D922150F2
:104DB0003040E1F78FEF9FEF9093E5048093E40498
:104DC00081E080934805809347051092E304809129
:104DD000BA02811136C00E940E18811104C00E94CF
:104DE00046150E94461288E090E00E943833609396
:104DF0002705709328058093290590932A058091B3
:104E000002058360809302056E7F71F40E94461252
:104E100088E090E00E94383360932705709328055E
:104E20008093290590932A050E94400680912705CA
:104E300080FF04C060E086950E94161281E0809396
:104E4000BA0280915201811106C084EF8093600103
:104E500085EF80935F0120916001A22FA295AF7032
:104E6000B0E091963C9191972F7081E090E0BC0169
:104E7000022E01C0660F0A94EAF7462F409543239D
:104E800091964C93919792963C919297362B92964D
:104E90003C93929740915F01E42FE295EF70F0E030
:104EA00031A14F70042E01C0880F0A94EAF7982FA1
:104EB0009095932391A392A1892B82A390968C9194
:104EC00090E002C0959587952A95E2F7817020A120
:104ED00030E002C0359527954A95E2F792E020FF31
:104EE00090E0892B8093C0029091520181E0982735
:104EF0009093BF02891B8093BB0283E591E090935E
:104F0000230680932206CE0101967C0180915606ED
:104F100000E112E1853009F4DAC00E947519C82E4B
:104F200081110E94C305F6EF2F2EF4E03F2EEAEE2A
:104F3000F4E0D10110E000E0902EBD9081918B153E
:104F400009F4D6C08B25A12CDD24D394982F9D2164
:104F500009F4C9C00E94100D882399F0ABA69CA645
:104F6000BD2081E009F480E08DA70E94691981606D
:104F7000782F9FA78EA74BA55CA56DA58FA50E9436
:104F8000F022F801E651FB4F8081D826D082809133
:104F9000C002E82FEE0FEE0F80916001A82FA295BE
:104FA000AF70B0E090962C9130E08F7002C03595D4
:104FB00027958A95E2F72170332790915F01A92FF9
:104FC000A295AF70B0E090964C9150E09F7002C0F7
:104FD000559547959A95E2F7CA018170992740FF48
:104FE00002C082E090E0822B8E2B8093C002109151
:104FF000BF028F70E82FF0E0ED53FE4F808190915B
:10500000BE02890F8093BE02D12C18166CF4E12FDA
:10501000F0E0E454FD4F80818F5F808360E0812F5A
:105020000E944824DD24D3948091BE0287FF77C07C
:10503000E12FF0E0E454FD4F80818150808361E0F6
:10504000812F0E9448241092BE020E941508DD2480
:10505000D39469C088E392E089CE8091560684306B
:1050600031F10E94F20A10922606A8E1B0E0E0E4D5
:105070000FB6F894A895A09360000FBEE09360006F
:1050800083B7817F846083BF83B7816083BF789457
:10509000889583B78E7F83BF0FB6F894A8958091CB
:1050A0006000886180936000109260000FBE809164
:1050B0005506882361F00E947519E6EFF4E08191AE
:1050C000811157C420E035E02E173F07C1F78091CA
:1050D0005606853009F4C1CF109231060E945D1248
:1050E0000E94330D1ACFA394DD0C36E0A3122ECF0D
:1050F0000F5F1F4F0A30110509F01ECF8FEF88ABED
:1051000089AB1AAA0E9469198160782F9CAB8BAB7E
:1051100048A959A96AA98CA90E94F02238CF1092F7
:10512000BE02D11092CF809148058823A9F18091C9
:10513000E6049091E7040E945A19C29730F00E9449
:1051400069199093E7048093E6042091E404309178
:10515000E5042115310539F08091E30461E070E048
:10516000882309F46AC0809147058823A9F00E942A
:10517000C3050091430510914405209145053091E8
:105180004605601B710B820B930B6F3F7F4F8F4F58
:105190009F4710F40E94F20AC11001C0D1100E9472
:1051A0000D0B0E94330D9091E804891721F00E94A5
:1051B000330D8093E80480915606843009F0A6CE22
:1051C00083E08093E9008091E80082FF9FCE809188
:1051D000E80090E085FF0CC00E94420430E2C32E3C
:1051E000D12C8E010F5F1F4F882309F4FDC091E081
:1051F0008091E8008B778093E800992309F486CEAC
:10520000009141051091420589810115110509F4AC
:10521000F9C08E3F09F07DC18A81833020F085502E
:10522000833008F076C1EA81EE3008F072C1F0E018
:10523000EA55FC4C0C9417308F5F082F10E02B01BF
:10524000082E02C0440C551C0A94E2F7A90144211F
:105250005521452B89F39091E20490FD44C082953D
:10526000880F80768093630198013695279536954F
:10527000279520936601815E8093640110926701F7
:1052800024E630E047E050E061E671E088E70E9404
:10529000892D892B09F067CFA80175E0440F551FB0
:1052A0007A95E1F78091E20480FD2BC04E515D4F6D
:1052B00004E610E020E230E060E488E70E94B02DD0
:1052C000892B09F050CF0E940D0BC201809590955B
:1052D0004090E4045090E504482259225092E5049D
:1052E0004092E40440CF880F880F880F80936301B9
:1052F00010926601895F8093640183E08093670167
:10530000BFCFE2ECF2E080E2DF011D928A95E9F77F
:10531000E7EDF1E0F9AFE8AF03ED11E067E0A62EAD
:1053200099249394A8ADB9AD6D91B9AFA8AFF80128
:1053300081918F01840F952F911D9C012E513D4F1E
:105340003EAB2DABE62FF0E0EE53FD4F30E020E01A
:105350008A2D821B8FABB92C022E01C0BB0C0A9484
:10536000EAF76DA87EA890E0D3018D913D018B21D5
:105370006FA9691B6770862E062E000C770BB82F5D
:1053800001C0BB0F8A94EAF78B2E71956195710964
:105390006770772701C086956A95EAF7882A808129
:1053A000882A80829F5F9830F9F62F5F3F4F3196B1
:1053B0002830310569F6EBEDF1E028AD39ADE217A3
:1053C000F30709F0AFCF04E610E020E230E042EC52
:1053D00052E072CF8091F100D8018D938D01B1E040
:1053E000CB1AD10809F403CF8091E80085FDF2CFF4
:1053F0008091E8008B778093E8000E944204882324
:1054000099F3F5CE893009F42EC130F5843009F4D2
:10541000C7C058F4823009F46BC008F0B2C08130C4
:1054200009F463C08FEF898374C0863009F4CEC05D
:1054300008F4C1C0873009F4CCC0883099F78A815C
:10544000813809F405C108F0F7C0803809F061C05F
:1054500080912A058B835DC0803109F43DC1C8F578
:105460008D3009F40BC128F48C30E1F680E18A8399
:1054700050C08E3009F405C18F30A1F680916D01C6
:1054800090916E01892B09F444C0CC80D12C3DE170
:10549000C316D104F0F50A811B81102701271027BC
:1054A000CE0101965C01C00ED11EC80189509E4FED
:1054B0000C151D0571F10930A2E01A0720F4F50161
:1054C00064810E944433FFEFAF1ABF0A0F5F1F4F82
:1054D000ECCF823109F405C108F401C1833109F42C
:1054E0002AC18E3F09F09ECF9ECE1A8289E0B2CFAC
:1054F0008A81823009F455C2833089F1813009F004
:1055000091CF0E94C3050E941D306B837C838D83E5
:105510009E8380915606843009F0F8CC1091E90002
:105520001F709091EC00892F817090FD80E8182BFE
:1055300082E08093E9008091E80080FF0CC050E099
:1055400040E060E270E0C7010E9473048091E800CF
:105550008E778093E8001F701093E900D7CC80917C
:105560006D0190916E01892BA1F2FE013396D1015C
:105570008D911D018193B0E02B16B5E03B06B9F784
:10558000C8CF8A81823009F04DCF6B817C818D81BB
:105590009E810E941D3086E290E00E944433B9CF84
:1055A0004C816B818A810E94E40F98278927982774
:1055B0009E838D83AECF2D813E81322723273227D4
:1055C0004C816B818A810E94590EA3CF0E94A60E46
:1055D000A0CF8A818138C1F060F4803809F099CF7A
:1055E00020E04B8160912905809128050E94BC1024
:1055F00090CF8238E9F0833809F08BCF20E04091DA
:105600002A056C818B81F2CF60E08B810E9416129B
:105610008B81811103C00E94B70C7BCF809127053D
:1056200081608093270560E086950E94161271CFF5
:105630008B8180932B056DCF823891F0833809F0F0
:1056400068CF809128058B83809129058C8361CF59
:105650008091270580FF02C08695FCCE80E0FACEBF
:1056600080912B05F7CE60912705709128058091D8
:10567000290590912A050E94AA104BCF82E08A83C7
:1056800035CF0C8110E00D31110508F042CFAA8012
:10569000BB80BA24AB24BA24FE0131966F010E0FF1
:1056A0001F1FC50189509E4FC016D10609F431CF86
:1056B000F9E0AF16F2E0BF0660F40E943033D60185
:1056C00014968C93FFEFAF1ABF0A2FEFC21AD20ABB
:1056D000E8CFF6011482F6CF0E94100E1ACF83E0B5
:1056E000C6CECC80D12C2DE1C216D10408F011CF4A
:1056F000AA80BB80BA24AB24BA248E010F5F1F4F4F
:10570000C00ED11EC5018796C016D10609F401CF7F
:1057100038E6A31631E0B30658F40E943033D801BE
:1057200014968C93FFEFAF1ABF0A0F5F1F4FEACF9B
:10573000F8011482F7CFCC80D12C2DE1C216D10410
:1057400008F0E7CE0A811B811027012710270836B1
:1057500031E0130708F0DDCE88E691E0801B910B65
:105760008C159D0508F4D5CECE0101965C01C00EC6
:10577000D11EC8018796C016D10609F4CACE0836D4
:10578000A1E01A0720F4F50164810E944433FFEF81
:10579000AF1ABF0A0F5F1F4FECCF88E0E3E7F1E0DD
:1057A000DE01919601900D928A95E1F780E2D70192
:1057B0001D928A95E9F784E0898388E0FE01B1961D
:1057C000DE01159601900D928A95E1F7A2CE84E351
:1057D000898382E08A831B821C829BCE8C81682F06
:1057E00070E0762F66278B81860F972F911D092EEB
:1057F000000CAA0BBB0B25E0880F991FAA1FBB1F2B
:105800002A95D1F7AC01BD01405E5F4F6F4F7F4FCE
:10581000481759076A077B0708F47BCE8433E2E018
:105820009E07A105B10508F074CE4533F2E05F078D
:105830006105710520F044E352E060E070E0481B30
:10584000590BBC01655B7D4FC7010E945B3061CE87
:105850001B810C8140E0602F812F0E94B40F98279C
:10586000892798279A83898341E0602F812F0E949E
:10587000B40F9827892798279C838B834ACE2E8143
:105880003F813227232732274D816C818B810E94F3
:10589000200E3FCE4EE150E06FEF70E0CE01039658
:1058A0000E947A3080916D0189830A8332CE81E033
:1058B00090E0909342058093410582E390E09093BD
:1058C000F5048093F4040E94691923CE80916D0140
:1058D00089830A838091F404BDCD40E250E06FEFEC
:1058E00070E0C7010E947A3014CE8B81813051F173
:1058F000882309F1823009F00CCE6C818AE0FE0128
:105900003596DE01919601900D928A95E1F78FEF21
:10591000683068F43AE0639FB001112469557E4F06
:105920004AE050E0CE0181960E94683380E089838E
:105930000E945E0FEECD80E2D7011D928A95E9F7B5
:1059400088E071CD8C811AE06E01B1E2CB0ED11CE2
:10595000F601212F11922A95E9F7B6010E944A0F0C
:105960008983F601DE01129601900D921A95E1F7F6
:10597000D0CD09BD19BD09B400FEFDCF8091D8007E
:105980008F7D8093D8008091E00082608093E0005A
:105990008091E00081FDFCCF109231060E945D12E3
:1059A00096CB86E290E00E9430331B821C821D82DF
:1059B0008E83AFCD1092B9008CE08093B80008952B
:1059C0009F92AF92BF92CF92DF92EF92FF920F938E
:1059D0001F93CF93DF93B82EEB010E9469196C01DE
:1059E000EE24E394F12CC431D10560F025E0E22EE1
:1059F000F12CCF3FDC0731F0CE0164E170E00E9472
:105A000003307B0184EAA82E94E8992E1092BC0002
:105A1000A092BC000E9469198C018091BC0087FF94
:105A20000DC08091B900887F883039F18091B9002C
:105A3000887F803111F10FEF1FEF09C00E946919B3
:105A4000801B910B8E159F0540F30EEF1FEFCF3F8C
:105A5000DC07E1F2C6010E945A198C179D07B0F2CB
:105A6000C801DF91CF911F910F91FF90EF90DF90D0
:105A7000CF90BF90AF909F900895B092BB0090924E
:105A8000BC000E9469198C018091BC0087FF0AC08C
:105A90008091B900887F883111F0803461F610E080
:105AA00000E0DECF0E946919801B910B8E159F05C7
:105AB00058F3CBCF0F931F93CF93DF93EB018093DA
:105AC000BB0084E88093BC000E9469198C0180911E
:105AD000BC0087FF11C02091B900287F81E090E0D1
