:100000000C9408040C944F040C944F040C94263167
:100010000C944F040C944F040C944F040C944F0414
:100020000C944F040C944F040C9467190C942319EE
:100030000C949D270C944F040C944F040C944F0483
:100040000C944F040C944F040C944F040C944F04E4
:100050000C944F040C94401A0C944F040C944F04CD
:100060000C944F040C944F040C944F040C944F04C4
:100070000C944F040C944F040C944F040C944F04B4
:100080000C944F040C944F040C944F040C944F04A4
:100090000C944F040C944F040C944F040C944F0494
:1000A0000C944F040C944F040C944F0405010980E8
:1000B000A101850319012AB700150126B700950192
:1000C00075108100C0050C0901A101850419012AE0
:1000D000A002150126A002950175108100C005013E
:1000E0000906A1018506050719E029E71500250184
:1000F0009508750181020507190029EF15002501F2
:1001000095F075018102050819012905950575010C
:100110009102950175039101C00660FF0961A1017B
:100120000962150026FF00952075088102096315F4
:100130000026FF00952075089102C005010906A15F
:1001400001050719E029E7150025019508750181CA
:10015000029501750881010507190029FF15002680
:10016000FF00950675088100050819012905950508
:1001700075019102950175039101C0000000000016
:10018000000000000000000000000000000000006F
:100190000000000000000000000000000000007EE1
:1001A0000F00D4FFFFFFC700000078000000000030
:1001B0000000002A2B2800000000000000000000C2
:1001C00000000000000029000000002C1E34202147
:1001D0002224342627252E362D3738271E1F20218E
:1001E00022232425263333362E37381F04050607ED
:1001F00008090A0B0C0D0E0F101112131415161707
:1002000018191A1B1C1D2F3130232D350405060724
:1002100008090A0B0C0D0E0F1011121314151617E6
:1002200018191A1B1C1D2F3130354C00DA0281FFC2
:10023000D9F1DB20A4A62EAF00A0C000A1C800AE5B
:10024000D580A81FD300408D142000FD377A585A5E
:10025000000004E6D6B44602002101160000007436
:100260002FE5A3E007CE01FF5D003D8889C6543627
:10027000C3174FE4E21132E3D889270AFB0DEDFBE7
:10028000724F632633C2175CDDAD9C8BC5576D9CE6
:10029000C76F89DC3008DD03E30E1EA57D136F6E8A
:1002A00008DABCDDA12989A3D081DA5655BAE7075F
:1002B00062BB5342CB8129283314505ABCE17E23C0
:1002C000AB80E5DE09ED2F2ED53F559CA3ADB4469E
:1002D0003D08BCB5798C54609EC877D4ECA4D9FA9B
:1002E00028CB4D65EE25DD346C3198BB272055FCBD
:1002F000588A24AF62C30BDCFD67F517BB537D3012
:10030000106A3AD37D12328391A8159031711EE59F
:10031000F767C00AEBEB623760546FC6A78C406E7C
:10032000845B5A9F19C6934B53807636709E93D93F
:10033000A2A4BC6C9584E19220268A35E44379B16D
:10034000037D99FA649341C96831F9FC89E414A7E3
:100350002FCE79BB45831EE58B86581C3758461F28
:10036000A0B1BDF0954B9E62FE3A556DAA223ED8D3
:10037000B3395394F3AC76731FDF22C27BBD8FDB9E
:10038000314B69E34839AC7DA87863FDE39BF339D1
:10039000AF255AB4F21F1A878592A5E885333CB978
:1003A000BC606F0E1196C1EC2C28CDBEFA5D3F45A6
:1003B0001D0DCCBC644DD4FE98B7B55399CB7536A2
:1003C0001B1745DF3708C61812671CF46FDD11973D
:1003D0009C80C0DD95591D51096EADD6F0E9624E85
:1003E00061DA0AB2353221814F5C34CEA00414A800
:1003F00094D85F325E5C16D82F7066A5FF83A7C7BE
:100400007A05050E984FE2AF633D276E29B95D91DD
:10041000ED0B3B6754A57D0EFB3EA919EF1FF4348D
:100420001DA5E230BE891C545129AE8A232C99FFA8
:10043000DF895E0ED5594C2E0FEC259EB2A46025A7
:1004400098E1398E09E84EB12A9868924ADF65052D
:100450000289B3646C5669B5B99A6453453879A773
:1004600096D429ECFECF3A7A3500002CA91AF20B6B
:1004700045BC7D00019B04CF0F0000F02D0664B148
:10048000C467FB020000000004595A000101010189
:10049000010101010102020202020202020203033F
:1004A000030303030303040404040404040505050F
:1004B00005050606060606070707070708080808D1
:1004C000090909090A0A0A0B0B0B0C0C0C0D0D0D7E
:1004D0000E0E0E0F0F0F1010111111121213131414
:1004E00014151516161717181819191A1A1B1B1C8C
:1004F0001D1D1E1E1F2020212222232424252626E6
:10050000272829292A2B2C2D2D2E2F30313232331A
:100510003435363738393A3B3C3D3E3F4041424323
:100520004445464748494A4C4D4E4F505153545507
:100530005658595A5B5D5E5F616264656668696BB7
:100540006C6D6F7072737577787A7B7D7E80828335
:100550008587888A8C8E8F91939596989A9C9EA079
:10056000A2A3A5A7A9ABADAFB1B3B5B7BABCBEC086
:10057000C2C4C6C9CBCDCFD1D4D6D8DBDDDFE2E44F
:10058000E7E9EBEEF0F3F5F8FAFDFF29001E001F96
:10059000002000210022002B0014001A0008001582
:1005A000001700320004001600070009000A00E0EE
:1005B000001D001B00060019000500E3004C0001AF
:1005C00058E200D85C51002D0027002600250024A9
:1005D0000023002F00130012000C0018001C003430
:1005E0000033000F000E000D000B00E40038003750
:1005F0000036001000110027002A000258E60028EB
:100600000052000100010001000100010001000191
:1006100000010001000100010001000100010001D2
:1006200000010001000100010001000100010001C2
:1006300000010001000100010001000100010001B2
:1006400000010001000100010001000100010001A2
:100650000001000100010001000100010001000192
:100660000001000100010001000100010001000182
:100670000001000100010001000100010001000172
:100680000001000100010001000100010001000162
:100690000001000100010001000100010001000152
:1006A0000001000100010001000100010001000142
:1006B0000001000100010001000100010001000132
:1006C0000001000100010001000100010001000122
:1006D0000001000100010001000100010001000112
:1006E0000001000100010001000100010001000102
:1006F0000001000100010081050000020002007DF0
:1007000005000003000100820500000400020067EC
:100710000569060500010083050000060002006966
:10072000050000070002007F0500000800010084AA
:10073000050000120002008505000013000200877A
:1007400005000000AF00AE09025B00030100A0FA43
:100750000904000001030101000921110100012227
:1007600040000705810308000A0904010002030094
:100770000000092111010001222200070582032047
:100780000001070503032000010904020001030022
:100790000000092111010001226D000705840320DA
:1007A000000A1201000200000008EDFE58000100DE
:1007B000010203011C037600690061006C003A002D
:1007C00066003600340063003200620033006300CC
:1007D00000001C034C006F007400750073002000C3
:1007E00035003800200047006C006F0077000000E3
:1007F0001A03540077006500650074007900440016
:1008000061004200690072006400000004030904F2
:1008100011241FBECFEFDAE0DEBFCDBF04B603FE6A
:1008200027C08091810690918206A0918306B091A5
:1008300084068730904BA740B04BD1F410928106CC
:1008400010928206109283061092840614BE84B71A
:10085000877F84BF0FB6F894A89580916000886167
:1008600080936000109260000FBEE0E0F8E309950D
:1008700011E0A0E0B1E0E6EFF6E602C005900D92CF
:10088000A83EB107D9F726E0A8EEB1E001C01D925D
:10089000A138B207E1F70E94C4270C9447330C94A7
:1008A0000000E8EDF0E080818E7F80831092E2000E
:1008B0001092DA001092E100A0EEB0E08C9181601D
:1008C0008C9380818F77808319BCA7EDB0E08C91E9
:1008D0008E7F8C9380818F7E808310924F06089547
:1008E0002091E4003091E50095E6A9012091EC000B
:1008F000822F817020FF06C08091E80080FF06C033
:1009000080E008952091E80022FD1AC080917506CC
:10091000882389F0853089F08091EB0085FD0FC038
:100920002091E4003091E50042175307F9F291500D
:10093000E1F684E0089582E0089583E0089581E07F
:100940000895EF92FF920F931F93CF937C018B0139
:100950000E947004C82F811117C08091E80085FDA6
:100960000BC08091E8008E778093E8000E947004AD
:10097000882399F3C82F08C0F70181917F018093E4
:10098000F1000150110949F78C2FCF911F910F9160
:10099000FF90EF9008958091770687FF13C08091B4
:1009A000E80082FF06C08091E8008B778093E80022
:1009B00004C0809175068111F2CF0895809175066B
:1009C0008823D9F38091E80080FFF8CF8091E80078
:1009D0008E77ECCF982F9093E900242F762F50E05C
:1009E000891731F07091EC002091ED005091F000EA
:1009F00021FD07C09F5F973071F78093E90081E088
:100A000008953091EB003E7F3093EB003091ED0084
:100A10003D7F3093ED003091EB0031603093EB007F
:100A20007093EC002093ED005093F0002091EE00C5
:100A300027FDE0CF80E00895CF92DF92EF92FF9202
:100A40000F931F93CF93DF93C8EDD0E088818F7E03
:100A50008883E7EDF0E080818160808384E082BF5D
:100A600081E080934F0688818E7F888302EE10E0BC
:100A7000F80110821092DA0081EEC82ED12CF60116
:100A8000108288818F7788838881806888838881B5
:100A90008F7D888319BC109275061092760610928D
:100AA00074061092730690EEE92EF12CF701808106
:100AB0008B7F808388818160888342E060E080E072
:100AC0000E94EA04F60180818E7F8083F801808194
:100AD00081608083808188608083F70180818E7F40
:100AE0008083888180618883DF91CF911F910F91EE
:100AF000FF90EF90DF90CF900895FC0180917D06EC
:100B000090917E0686179707A0F06115710529F46C
:100B10009091E8009E779093E80090E06115710550
:100B200051F4911108C08091E80082FF34C080E048
:100B30000895BC01F2CF809175068823C1F18530FC
:100B4000C1F18091E80083FD30C08091E80082FD12
:100B5000EACF8091E80080FFE1CF8091F3002091FF
:100B6000F200382F6115710519F02830310558F061
:100B700091E02830310509F090E02091E8002E77CF
:100B80002093E800CBCF81918093F10061507109EF
:100B90002F5F3F4FE7CF80917506882341F0853066
:100BA00041F08091E80083FFBECF81E0089582E0AC
:100BB000089583E008950895089580915206089558
:100BC00087E797E7909301088093000888E19AE00F
:100BD0000FB6F894A895809360000FBE90936000C4
:100BE000FFCF2FB7F8946091460670914706809129
:100BF0004806909149062FBF089520917201222343
:100C0000C9F020914A0627FF15C0E62FE695E69524
:100C1000E695EE31D8F4E80FF92FF11D677021E069
:100C200030E001C0220F6A95EAF7209582812823DF
:100C300022830895FC01329608962191621303C025
:100C4000DF0111971C92E817F907B9F70895209171
:100C50004306309144062817390771F090934406F3
:100C600080934306E0914106F0914206309721F0CF
:100C70000084F185E02D0994089520913F0630917C
:100C800040062817390771F09093400680933F067D
:100C9000E0914106F0914206309721F00680F781FD
:100CA000E02D09940895FC01680F791F8FEF91E3FF
:100CB0002191822728E030E087FF09C0880F89272B
:100CC00021503109C9F7E617F70791F70895880F02
:100CD000F7CF80916705909168059093700180939C
:100CE0006F010895FA01811101C0FB0109948091FF
:100CF0002505982F9E7F39F48091250581708260AB
:100D00008093250508958430B8F7089580E008950C
:100D100078940895F894E82FE295EF70F0E031A10F
:100D2000282F2F7081E090E001C0880F2A95EAF704
:100D3000982F9095932391A392A1892B82A30C9431
:100D4000880690914A0692FF06C0282F2871283005
:100D5000F9F4877F846093FF06C0282F287128311B
:100D6000F1F4877E846120914B0620FF06C0382F66
:100D700038713830D9F4877F816021FF06C0282F71
:100D800028712831D1F4877E816194FD877E089592
:100D9000282F24712430F9F68B7F8860DCCF282F30
:100DA0002471243101F78B7E8861DDCF382F3171BA
:100DB000313019F78E7F8860E0CF282F21712131E3
:100DC00021F78E7E8861E1CFCF93DF93EC018238EB
:100DD000910581F1B0F58133910509F491C020F5B9
:100DE0008932910509F485C08A9709F490C0C1152C
:100DF00021E5D20708F0AAC0C11530E5D30708F0F5
:100E0000F2C0CF3BD10508F089C0C83AD10508F03F
:100E1000DFC0C53AD10508F0D3C0C430D105F8F41D
:100E2000C130D105E1F040C08533910509F45AC0C5
:100E3000C997E9F680914A06837089F0C0EED0E048
:100E40000EC0833E910599F170F4803E910501F149
:100E5000823E910561F680914A0682FD21C0CE0155
:100E6000DF91CF910895863E910561F1873E91050E
:100E700071F1843E910509F0BACF80914B0681FF54
:100E8000EECF80914A06C7EED0E084FD0DC0E7CFDB
:100E900080914A0680FDF7C090914B0690FFDFCF0E
:100EA000C3EED0E084FFDBCFD0E0C0E0D8CF8091AC
:100EB0004A0682FDEBC090914B0690FDBFCF84FFA8
:100EC000CECFF2CF80914A0683FDDDCFC8CF80918F
:100ED0004A0683FDDEC090914B0691FFF0CFC4EE31
:100EE000D0E0BDCF80914A0685FFB9CFC9E2D0E0FE
:100EF000B6CF80914A0685FFB2CFC5E3D0E0AFCF31
:100F000080914A0686FFABCFCAE2D0E0A8CF80919D
:100F10004A0686FFA4CFC1E3D0E0A1CFC11540E2CD
:100F2000D40760F4C11581E0D80708F098CFCE014E
:100F3000815E9109079708F492CFB6CFC11590E46E
:100F4000D90708F4B1CFDF70D06A89CFC11524E585
:100F5000D20778F4C11533E5D30708F072C0C11584
:100F600042E5D40708F05CC0DC2FCC27C16FD06A03
:100F700076CFC1158AE5D80778F4C11599E5D90768
:100F800008F073C0C11528E5D20708F48DCFDC2F17
:100F9000CC27C06FD06A63CFCE01905681159042A6
:100FA00008F082CF8D2F8F710E94A10690E0982FBC
:100FB000882788279F719C012C2BE901D0624FCF95
:100FC000C55AD0E0C558DE4FC881D0E0D06447CFC5
:100FD000C85AD0E0CC0FDD1FC258DE4F0990D8812F
:100FE000C02DD4643CCFCE0164E0969587956A9578
:100FF000E1F783702C2F26952695237040E2249FDD
:1010000090011124382B8C2F8370C1E0D0E002C0F6
:10101000CC0FDD1F8A95E2F7C22BD32BDC681FCFE4
:10102000CE018370992721E030E002C0220F331FE8
:101030008A95E2F7C695C69580E2C89FE001112423
:10104000EBCFCE018370992721E030E002C0220F60
:10105000331F8A95E2F7C695C69590E2C99FE001D5
:101060001124C22BD32BDA68FACE8C2F8F700E94FA
:10107000A10634E0D695C7953A95E1F7CF709C2F3D
:10108000EC01D069ECCEC9E3D0E0E9CEC2EED0E00D
:10109000E6CEC6EED0E0E3CE0C94F10580959091BB
:1010A0005006982390935006089580915006909191
:1010B0007F06892B90915D02892B8093EA01E09154
:1010C0004106F0914206309799F090917201992370
:1010D00049F090914A0697FF05C08093EB0186E0A6
:1010E0008093EA010280F381E02D8AEE91E0099479
:1010F0000895EF92FF920F931F93CF93DF93EC012C
:101100008A85811139C0EB80FC8087E5F81A26E1D9
:101110002E9DC0012F9D900D1124DC01A157BA4FC7
:101120001496ED91FC911597309731F054966D918E
:101130007C918B569A4F099586E18E9D80018F9DFB
:10114000100D112401571A4FF80187810E944E0893
:10115000F8018085982F909580917F068923809350
:101160007F060E945508188219861B861E821D82E2
:1011700010928E0510928D05DF91CF911F910F91E6
:10118000FF90EF900895CF93DF93EC01898981114F
:101190001BC081E0898B809150069F81892B8093B1
:1011A000500680917F069885892B80937F060E9448
:1011B0005508EA81FB81309739F06C897D89CE0131
:1011C0000696DF91CF910994DF91CF910895809198
:1011D0007101877F8093710190917F069D7F90932D
:1011E0007F0684FF08C08F7E809371018091500636
:1011F0008260809350068091710185FF08C08F7DC9
:1012000080937101809150068062809350060C9407
:10121000550820915C0290912B0256E0291302C0E0
:1012200080E0089530E0529FF001539FF00D1124AB
:10123000E45DFD4F7181761306C07081781303C0A1
:101240007281741304C02F5F3F4F2770E7CF81E096
:101250000895452B39F0682381E06F3F09F080E065
:101260008170089581E0FCCF80915C0290912B0207
:10127000981301C008958F5F8770FACF9E3F51F198
:10128000292F220FE22FE90FEE0FE80F9E2F977004
:10129000E695E695E69583E0E89FF0011124E35F8B
:1012A000FD4F50E040E080E0219130E0092E02C087
:1012B000369527950A94E2F721703327042E01C052
:1012C000220F0A94EAF7822B4F5F5F4F433051059C
:1012D00059F7089580E008959E3F71F1292F220F5C
:1012E000E22FE90FEE0FE80F8E2F877041E001C06B
:1012F000440F8A95EAF7E695E695E69583E0E89F40
:10130000F0011124E35FFD4F30E020E070E05191E7
:10131000DF011197CB01022E02C0969587950A94A2
:10132000E2F7817081958527842385278C932F5F31
:101330003F4F2330310559F70895E92FE295EF70BB
:10134000E250EE3070F4F0E0E75BFC4C0C94B43209
:10135000803F19F020F4883E20F481E00895843F16
:10136000E1F380E00895883EC0F3813FD1F7F5CFE7
:1013700093FB882780F9089590E080E00E943D0665
:1013800090E080E00E94270610927F0610925D0296
:101390000C945508809380060C94BC0980918006BB
:1013A000982F9670963019F488600C94CA09877F3C
:1013B000FCCF21E030E001C0220F8A95EAF72095AA
:1013C0008091800682230C94CA0921E030E001C09C
:1013D000220F8A95EAF780918006822B0C94CA0925
:1013E00080932A050C94BC09882341F08095909144
:1013F0007F06892380937F060C94550808958823DF
:1014000039F090917F06982B90937F060C945508A5
:101410000895882321F00E944E080C9455080895E1
:10142000882339F090915006982B909350060C9495
:1014300055080895882341F19CEF980F913A38F4AC
:10144000682F8AEE91E00E94FD050C94550890E209
:10145000980F983050F4877091E001C0990F8A95E9
:10146000EAF7892F0E944E08F0CF9BE5980F933042
:1014700020F490E080E00C943D06885A873120F4F7
:1014800090E080E00C9427060895CF93C82F88231E
:1014900009F497C08CEF8C0F813A08F067C08091F7
:1014A00072018823E9F180914A0687FF39C0EC2F49
:1014B000E695E695E695F0E0E651FE4F828190E0F4
:1014C0004C2F477021E030E002C0220F331F4A95B5
:1014D000E2F782239323892B61F06C2F8AEE91E04F
:1014E0000E94FD050E94550825C080914A0687FF8D
:1014F00025C0AC2FA695A695A695B0E0A651BE4FE7
:10150000C77021E030E001C0220FCA95EAF71296B9
:101510008C911297822B12968C93CF910C94550834
:10152000ECEEF1E082EF91E02191C217B1F28E175B
:101530009F07D1F7809172018111D7CFACEEB1E056
:10154000EFEF80E09D91C91741F3EF3F19F491113E
:1015500001C0E82F8F5F8630A9F7EF3FF1F20E2E22
:10156000000CFF0BE651FE4FC283D7CF80E28C0FF9
:10157000883068F4C77021E030E001C0220FCA95BE
:10158000EAF780915006822B80935006C6CFEBE598
:10159000EC0FE33040F4F0E0E558FE4F808190E03E
:1015A000CF910C943D06C85AC73158F4EC2FF0E0A7
:1015B000EE0FFF1FE258FE4F80819181CF910C9476
:1015C0002706CF9108959C013A9521153F4150F58A
:1015D000FC01EE27F170BC0166277270AC01442754
:1015E00054709C012227387094FF0EC080E1EF2BCD
:1015F00009F480E0672B09F08062452B09F08064D4
:10160000232B89F08068089581E0EF2B09F480E0B6
:10161000672B09F08260452B09F08460232B19F0B9
:101620008860089580E00895CF93DF93EC010E94D5
:101630001A0ACE010E94E30A9E01205E3109283079
:10164000310510F0CD2B21F4DF91CF910C94090AD4
:10165000DF91CF910C94F409CF93DF93EC010E94BA
:10166000E30A9E01205E31092830310510F02097F1
:1016700039F40E94100A8C2FDF91CF910C94450A07
:101680000E94FF09F8CF662329F020917F0622608F
:1016900020937F069C013056211540E2340720F04C
:1016A000305E2115304108F499270C942C0BCF9211
:1016B000DF92EF92FF920F931F93CF93DF936C0112
:1016C0007B0164E670E088E70E947D2FEC0197FDC6
:1016D00012C010E000E0F601E00FF11F849164E613
:1016E00070E00E94F72FEC01892B29F40F5F1F4F48
:1016F0000E151F0581F70E947A30CE01DF91CF9140
:101700001F910F91FF90EF90DF90CF9008958091FF
:10171000450590914605911103C091E089270895F0
:10172000882369F062E070E085E497E00E94570B3F
:10173000892B19F0809145050895109245058091F7
:101740004505EBCFCF93C091450580914605882391
:10175000D1F00E94F105605A75418F4F9F4F609301
:101760004105709342058093430590934405C11150
:1017700008C062E070E083E497E00E94570B892B79
:1017800029F0C09145058C2FCF91089581E0809379
:101790004505F7CF80934C0670934E0660934D0637
:1017A000809175068430F9F48093E9008FEF909171
:1017B000E800815095FD06C095ED9A95F1F700007F
:1017C0008111F5CF8091E80085FF0DC050E040E029
:1017D00063E070E08CE496E00E94A1048091E80050
:1017E0008E778093E8000895BC0184E00C94CA0BC6
:1017F000BC0183E00C94CA0BCF93DF93EC01809182
:1018000072018823B1F180914A0687FF32C060E2FD
:1018100084E08093E9008FEF9091E800815095FD7E
:1018200006C095ED9A95F1F700008111F5CF8091F2
:10183000E80085FF1BC08091720170E050E040E03D
:10184000811104C050E040E068E070E0CE010E94E9
:10185000A1048091E8008E778093E80080E2FE0189
:10186000A3E5B6E001900D928A95E1F7DF91CF9163
:10187000089568E081E0CDCF019708F40895EFE97D
:10188000FFE03197F1F700C00000F6CFDF92EF9252
:10189000FF920F931F93CF93DF937C018B01D42E84
:1018A0008091710182FF8CC0C0918B05D0918C0515
:1018B000CE15DF0521F0E114F10409F081C080911B
:1018C00071018B7F8093710181FD73C080918905C7
:1018D00090918A05A801481B590B81E020916F0166
:1018E000309170014217530708F480E08170F82EA0
:1018F00080917101F0FA81F980937101FE0183E01A
:10190000F695E7958A95E1F7EE71FF27E95BFA4FC7
:1019100020813181AE014F70552781E090E002C0F7
:10192000880F991F4A95E2F7FF2009F444C0822BE3
:10193000932B918380838091500681FF08C0809112
:10194000710180618093710182E00E944E08809154
:10195000500685FF08C080917101806280937101FB
:1019600080E20E944E086F2DCE010E94430BDD20C5
:1019700031F08091820585FF02C086FF3BC08091D7
:101980008505909186050E943C0C80918B05909175
:101990008C059C013056211540E2340720F0305E62
:1019A0002115304108F499270E94140B0E94E70882
:1019B0001DC081E09BCF8095909582239323B9CF62
:1019C000C701992797013056211540E2340728F0C6
:1019D000305E2115304108F0C7010E94140B809140
:1019E0008B0590918C058E159F0501F310938A0548
:1019F00000938905DF91CF911F910F91FF90EF9098
:101A0000DF900895609169018091250580FF20C0D5
:101A10008091680143E0849FC00111248F5F9A4F39
:101A2000539A2BB1277F3BB138605FB7F894FC0124
:101A3000649FE00DF11D1124BF0168177907D1F4EF
:101A40005FBF8FE594E00197F1F700C000000895B3
:101A500080916A0190916B0123E0829FF001112433
:101A6000EF5FFA4F8917A0F61182108212828F5F02
:101A70003396F8CFFC014191CF01E8E03BB900007B
:101A800000C047FF2BB9440F000000C000C000C0D9
:101A90002BB900C0EA9591F7D0CFE5E2F5E080815F
:101AA0008E7F8083EEEFF4E08281816082832FEF6E
:101AB00080E792E0215080409040E1F700C00000B4
:101AC0000C94020D9F92AF92BF92CF92DF92EF9251
:101AD000FF920F931F93CF93DF937C015B016A0109
:101AE0008091A70201E010E08A3010F40AE010E0D3
:101AF000C1E0D0E0F894B501C701F6010995982E30
:101B00000E948806911004C021960C171D076CF4E2
:101B1000892DDF91CF911F910F91FF90EF90DF9072
:101B2000CF90BF90AF909F900895CC9F9001CD9F94
:101B3000300D300D112490E080E045E34A95F1F737
:101B40000000019682179307C1F7D4CF80916E02EF
:101B5000811110C08091D80080618093D8008AE103
:101B60008A95F1F700C08091D90080FF0AC081E01A
:101B700080936E0281E090916E02913009F080E0D6
:101B8000089582E080936E020E94510410927506BF
:101B9000F1CF0E94A60D882351F0E0914106F0910B
:101BA0004206309721F00190F081E02D099480E009
:101BB00008951F93CF93DF93182FC0918705D0917D
:101BC0008805893321F0C0918505D0918605812F44
:101BD0000E94450A209731F4812FDF91CF911F9108
:101BE0000C941A0A8FE99FE00197F1F700C00000FA
:101BF0002197F0CFAF92BF92CF92DF92EF92FF92F8
:101C00000F931F93CF93DF93EC018AE0A82E2881D6
:101C1000222309F48CC02130C9F599818A81913041
:101C200021F422960E94D90D05C0923029F4229603
:101C30000E94450A2196EBCF933021F422960E9410
:101C40001A0AF8CF943011F02196F4CF229630E0A2
:101C500020E0AE014F5F5F4F8053990B8A309105B2
:101C600050F02150310930F38FE99FE00197F1F7EF
:101C700000C00000F6CFA29EB001A39E700D1124FB
:101C80009C01260F371F8981EA01E3CFE22FF0E0A4
:101C9000E555FE4FB490822F86958695869590E007
:101CA000FC01E556FE4FE4902770F12C022E02C095
:101CB000F594E7940A94E2F731E0E322FF24FC0173
:101CC000E557FE4FC490D12C022E02C0D594C79484
:101CD0000A94E2F731E0C322DD24FC01E558FE4F0F
:101CE000049110E002C0159507952A95E2F701705E
:101CF0001127E114F10419F081EE0E94450AC11484
:101D0000D10419F086EE0E94450A8B2D0E94D90D50
:101D1000CD2819F086EE0E941A0AEF2819F081EEFC
:101D20000E941A0A012B09F485CF8CE27BCFDF9148
:101D3000CF911F910F91FF90EF90DF90CF90BF90C8
:101D4000AF9008950F931F93CF93DF9307E615E0AD
:101D5000C7EAD1E0CE010E94F732F80181938F01EA
:101D60002196C93CF1E0DF07A9F7C9EFD6E0FE01F3
:101D700085919491009711F0FC0109952896F7E060
:101D8000C934DF07A1F7DF91CF911F910F9108951B
:101D90000F931F93CF93DF93833038F5623028F58C
:101DA00028E0829FC001112434E0639FB001112418
:101DB000860F971FC42FD0E0CC0FDD1FC80FD91F8F
:101DC000C157DE4FCE010E94F732082F10E0102FCE
:101DD0000027CE0101960E94F7329801282BC901F5
:101DE000DF91CF911F910F91089590E080E0F8CF9F
:101DF0000F931F93CF93DF93833030F56A3020F534
:101E0000463010F5C42FD0E0CC0FDD1F2CE0629FD0
:101E1000C00DD11D112438E7839FC00DD11D1124A1
:101E2000CE0187960E94F732082F10E0102F00276E
:101E3000CE0188960E94F7329801282BC901DF91C4
:101E4000CF911F910F91089590E080E0F8CF462F39
:101E500020913F0530914005232B91F47E3F39F4CA
:101E60006E3F71F480913D0590913E050895833059
:101E700038F47A3028F4663018F4672F0C94F80E92
:101E800090E080E00895CF92DF92FF920F931F932E
:101E9000CF93DF936C010091800680912A05082B77
:101EA000C7E0D0E010E0FC2EC8010C2E02C09595D2
:101EB00087950A94E2F780FD0CC02197A0F7F12CDA
:101EC0008F2DDF91CF911F910F91FF90DF90CF90D9
:101ED0000895B6018C2F0E94270F0E94E4060197F7
:101EE00061F3EECFCF93DF93EC010E94430FBE016D
:101EF0000E94270FDF91CF910C94E406FC018081B2
:101F000091810E94720F0C949D091F93CF93DF93D0
:101F100000D000D00F92CDB7DEB749835A838981B4
:101F20009A816623B9F02223A9F00E94430F182F4B
:101F3000682F89819A810E946C0969817A81812F39
:101F40000F900F900F900F900F90DF91CF911F91F6
:101F50000C94270F0E943E09182FEFCFFC01262F6B
:101F6000408151816281738184810C94850F83E269
:101F700090E00E94F7328B3C89F484E290E00E946A
:101F8000F732893B59F485E290E00E94F73291E004
:101F9000833809F090E0892F8170089580E0FCCFAC
:101FA0000F931F93CF93DF9307E615E0C7EAD1E0C5
:101FB000CE010E94F732F80161918F01681719F084
:101FC000CE010E940B332196C93CF1E0DF0781F777
:101FD000DF91CF911F910F910895E7E6F5E0128E02
:101FE000138E8FEA90E09183808325E0248F28E888
:101FF00033E13383228322E330E0378B268B918FCA
:10200000808F158E8AE090E0978F868F80E590E034
:1020100091A380A30E94D00F0C94A20ECF93DF93C4
:10202000C9E1D2E060E0CE010E940B332196C115D8
:1020300084E0D807B9F7DF91CF9108950F931F93EC
:10204000CF93DF938901833068F5623058F54230D1
:1020500048F501152CE5120731F420916D013091FE
:102060006E01232BF9F028E0829FC001112424E0A7
:10207000629FB0011124860F971FC42FD0E0CC0FB0
:10208000DD1FC80FD91FC157DE4F612FCE010E943F
:102090000B33602FCE010196DF91CF911F910F91ED
:1020A0000C940B33DF91CF911F910F9108950F93F3
:1020B0001F93CF93DF938901833048F56A3038F559
:1020C000463028F521153C4531F420916D013091C1
:1020D0006E01232BE1F0C42FD0E0CC0FDD1F9CE07C
:1020E000699FC00DD11D112498E7899FC00DD11D96
:1020F0001124612FCE0187960E940B33602FCE01F1
:102100008896DF91CF911F910F910C940B33DF9143
:10211000CF911F910F910895CF93C82F6FEF811129
:102120006BEC83E290E00E940B336FEFC11169EB1F
:1021300084E290E00E940B336FEFC11163E885E207
:1021400090E0CF910C940B337F928F929F92AF923D
:10215000BF92CF92DF92EF92FF920F931F93CF9394
:10216000DF93CDB7DEB72A970FB6F894DEBF0FBE68
:10217000CDBFA0906D01B0906E0181E090E0909392
:102180006E0180936D018BE8C82E85E0D82E10E09B
:10219000760100E015C0F40125913491472D602FA0
:1021A000812F0E94571082E0880E911C739486E064
:1021B0007812F1CF8CE0E80EF11C0F5F0A3019F0B5
:1021C0004701712CE8CF21E030E040E060E0812F52
:1021D0000E941E1021E030E041E060E0812F0E946B
:1021E0001E1021E030E040E061E0812F0E941E10CF
:1021F00021E030E041E061E0812F0E941E101F5F6E
:1022000088E7C80ED11C133009F0C2CF0E94ED0F31
:102210001A8219821C821B821E821D8218861F82CE
:102220008FEA90E09A87898709EC11E04AE050E054
:10223000B801CE0101960E942F33065F1F4F09316E
:1022400082E0180799F7B0926E01A0926D012A966C
:102250000FB6F894DEBF0FBECDBFDF91CF911F91B7
:102260000F91FF90EF90DF90CF90BF90AF909F9035
:102270008F907F90089580E00E948C1060E086E24D
:1022800090E00E940B330E94A4100E940E1081E087
:102290000C948C109B01883070F49AE0899FB001F7
:1022A000112467537E4F4AE050E0C9010E94E73293
:1022B00090E080E008958FEF9FEF08958F929F92B6
:1022C000AF92BF92CF92DF92EF92FF920F931F9344
:1022D000CF93DF93CDB7DEB72A970FB6F894DEBF62
:1022E0000FBECDBF0FE815E0F12CE12C87EFC82E13
:1022F00086E2D82E91E2A92E97E2B92E26EB822E05
:1023000025E2922EF801D182C082B382A282958208
:102310008482F58AE48ABE016F5F7F4F8E2D0E9412
:102320004A11892B29F489859A85F801938B828B30
:10233000FFEFEF1AFF0A0A5E1F4F88E0E816F1046C
:1023400009F72A960FB6F894DEBF0FBECDBFDF9116
:10235000CF911F910F91FF90EF90DF90CF90BF90A2
:10236000AF909F908F900895CF92DF92EF92FF925F
:102370006B017C010E947706B701A60188E090E01E
:10238000FF90EF90DF90CF900C941D338F929F922F
:10239000AF92BF92CF92DF92EF92FF920F931F9373
:1023A000CF93DF93D82FC62F142F822E00912505AF
:1023B00000FFD5C0E02FE695F0E0EA52FE4F8081A5
:1023C0008093FE04802F8E7F8230D1F4E42FF0E0E2
:1023D000E557FB4F611144C02491F22FE22F00FF1B
:1023E0000FC080916A0190916B0133E0839FD0010F
:1023F0001124AF5FBA4F891708F4A7C00E94020DDD
:10240000809126058D1308C0809127058C1304C088
:1024100080912805811729F08091000582608093C2
:102420000005D0932605C093270510932805882022
:1024300009F495C0609125057091260580912705C6
:1024400090912805DF91CF911F910F91FF90EF9010
:10245000DF90CF90BF90AF909F908F900C94B4116D
:10246000E62EF12CE4919E2ECE2ED12C26E0D29F8A
:10247000C00111242FEF30E0B9010E94A0328D2F4E
:1024800090E0880F991FF5E5F69FA001F79F500D8A
:102490001124841B950BB82EBB0CB80EA9014E1944
:1024A0005F094C9DC0014D9D900D5C9D900D1124C8
:1024B000F92FCB9DA0011124452F5527D901A41B2D
:1024C000B50BAC9DA001AD9D500DBC9D500D1124D0
:1024D000D901AB19B1095D01AE9CD001AF9CB00D23
:1024E000BE9CB00D1124AB2FBB272A1B3B0B2C9D90
:1024F000D0012D9DB00D3C9DB00D11242B2F6230CD
:102500007105A1F050F46115710509F468CF6130CF
:10251000710581F0292FF52F62CF6430710569F0C4
:1025200080F06630710509F45ACFF4CF2E2FE92FD1
:10253000FB2F55CF2E2FE52F52CF292FFE2FEB2F1C
:102540004ECFE92FF92D252F4ACF1196EC931197F5
:102550002C931296FC9312978F5F13964CCFDF91BA
:10256000CF911F910F91FF90EF90DF90CF90BF9090
:10257000AF909F908F900895E5E2F5E0438121E1CF
:10258000421B08F440E021E0628181810C94C61175
:10259000E5E2F5E0438121E1420F08F44FEF21E04D
:1025A000628181810C94C611E5E2F5E0628121E14E
:1025B000621B08F460E021E0438181810C94C61124
:1025C000E5E2F5E0628121E1620F08F46FEF21E0BE
:1025D000438181810C94C611E5E2F5E0818121E01F
:1025E0004381628188500C94C611E5E2F5E0818157
:1025F00021E043816281885F0C94C6118091290596
:10260000882319F0815080932905609125057091E8
:10261000260580912705909128050C94B41180918E
:102620002905833018F48F5F809329056091250573
:102630007091260580912705909128050C94B4117E
:102640008091250580FF1EC08170826080932505E2
:1026500080910005816080930005662351F06091B0
:1026600025057091260580912705909128050E94E7
:10267000B41120E04091280560912705809126053E
:102680000C94C6110895809125058695815009F412
:1026900081E061E00C94201361E081E00C94201350
:1026A000E5E2F5E083E0808311828FEF828383830C
:1026B0001482AEEFB4E012968C911297836012965A
:1026C0008C9360817181828193810C94B41180918B
:1026D0007201ECEEF1E0882359F080914A0687FF01
:1026E00007C08EE1DF011D928A95E9F70C94BC09C1
:1026F00086E0F8CF1F93CF93DF93CDB7DEB7AA97CD
:102700000FB6F894DEBF0FBECDBF87E796E02091ED
:10271000F100DC012D93CD01B6E08F379B07B9F7AF
:1027200080917806833009F472C0B8F4813009F4DE
:1027300049C0823009F4B5C08091E80083FF98C297
:1027400080917706909178069A3008F091C2E92F2F
:10275000F0E0E95AFC4C0C94B4328A3009F490C091
:102760008B3009F471C0893039F780917706813256
:1027700019F780917B0690917C06009711F00297E3
:10278000D9F68091E800877F8093E8008091E80087
:1027900082FF38C09091F3008091F200029731F4EB
:1027A0008091F100813011F0863021F48091F100A8
:1027B000809352068091E8008B778093E8000E9416
:1027C000CB04BACF80917706813A09F0B5CF8091DA
:1027D000E800877F8093E80080917B0690917C06DB
:1027E000892B61F460E283E596E070E00E947D054C
:1027F0008091E8008B778093E8009ECF60E090E0C6
:1028000080E0F3CF809175068111C0CF95CF809184
:102810007706813A09F090CF80917B0690917C06F3
:10282000892B09F089CF8091E800877F8093E800A9
:102830008091E80080FFFCCF809172018093F100CD
:102840008091E8008E77B9CF80917706813209F0C8
:1028500073CF80917B0690917C06892B09F06CCF19
:102860008091E800877F8093E8000E94CB048091EC
:10287000790680937201109250060E9467135CCF14
:1028800080917706813209F057CF8091E800877FE9
:102890008093E8000E94CB0480917A0680935106D1
:1028A0004BCF80917706813A09F046CF8091E800BE
:1028B000877F8093E8008091E80080FFFCCF8091C3
:1028C0005106BCCF803899F0823809F0D1C180918F
:1028D0007B068F70873008F0CBC18093E900809130
:1028E000EB0085FB882780F91092E90006C08091F3
:1028F000730690917406911182609091E800977F21
:102900009093E8008093F1001092F1008091E8002C
:102910008E77AAC1882309F498C1823009F0A8C132
:102920008091790681119BC180917B068F702FEF7A
:10293000280F263008F09CC18093E9002091EB001D
:1029400020FF8DC1933031F48091EB008062809341
:10295000EB0085C19091EB0090619093EB0021E03A
:1029600030E001C0220F8A95EAF72093EA00109226
:10297000EA008091EB008860EACF811179C1109163
:1029800079061F778091E3008078812B8093E300A4
:102990008091E800877F8093E8000E94CB048091BB
:1029A000E80080FFFCCF8091E30080688093E30023
:1029B00082E0111183E0809375065AC180588230FD
:1029C00008F056C12091790630917A062C3DE3E05B
:1029D0003E07A1F583E08A838AE289834FB7F894A2
:1029E000DE01139620E03EE051E2E32FF0E0509349
:1029F0005700E49120FF03C0E295EF703F5FEF7056
:102A00008E2F90E0EA30C0F0C7968D939D932F5F94
:102A1000243159F74FBF8091E800877F8093E80009
:102A20006AE270E0CE0101960E947D058091E80087
:102A30008B778093E8001CC1C096E7CF80917B061E
:102A400090917C06432F55274330510509F44AC025
:102A500078F54130510509F485C08BE590E0E7E455
:102A6000F7E04230510509F003C12091E800277FCB
:102A70002093E80020917D0630917E06821793070F
:102A800008F49C0140E02115310509F070C04111A6
:102A90006EC08091E80082FDC9CF809175068823C1
:102AA00029F2853019F28091E80083FFF2CFBECF82
:102AB0004132510509F447C04232510509F0D8C0EE
:102AC0008330910508F0D4C0FC01EE0FFF1FE552E2
:102AD000FE4F0190F081E02D88529E4FDC018C91D9
:102AE00090E01DC0332721303105E9F02115310573
:102AF00079F022303105F9F02330310509F0B8C002
:102B0000E4EBF7E0E4918E2F90E0E4EBF7E007C010
:102B1000ECE0F8E0E4918E2F90E0ECE0F8E0009734
:102B200009F4A6C0A2CFE0EFF7E0E4918E2F90E089
:102B3000E0EFF7E0F4CFE2EDF7E0E4918E2F90E0E4
:102B4000E2EDF7E0ECCF8330910508F091C0880FFB
:102B5000991FFC01EF51FE4F0190F081E02D89E0BB
:102B600090E083CF82E190E0E2EAF7E07ECF8091CF
:102B70007506882309F45ACF853009F457CF809120
:102B8000E80083FD53CF8091E80082FD82CF8091E1
:102B9000E80080FF78CF9091F3008091F20021153A
:102BA000310519F08830910550F041E0089709F09F
:102BB00040E08091E8008E778093E80064CF4491F4
:102BC0004093F1003196215031090196E8CF8038C9
:102BD00009F04EC08091E800877F8093E8008091E3
:102BE00076068093F10092CE811142C01091790651
:102BF0001230F0F58091E800877F8093E800109311
:102C000076060E94CB04112311F084E005C0809168
:102C1000E30087FDFACF81E08093750642E061EC26
:102C200081E00E94EA0442E261EC84E00E94EA044E
:102C300042E261EC82E00E94EA0442E260EC83E05E
:102C40000E94EA048091750613C080917906813054
:102C500079F481E0933009F080E08093740610925B
:102C6000E9008091E800877F8093E8000E94CB0410
:102C70008091E80083FF0AC08091E800877F8093FD
:102C8000E8008091EB0080628093EB00AA960FB67B
:102C9000F894DEBF0FBECDBFDF91CF911F91089595
:102CA0006AEE7EEF90E080E00E94293360E082E0EF
:102CB00090E00E940B3360E083E090E00E940B33D1
:102CC00010922A0560E084E090E00E940B3360E0FF
:102CD00082E290E00E940B3360E085E090E00E9489
:102CE0000B3360E086E090E00E940B336FEF87E0EB
:102CF00090E00E940B3340E050E0BA0188E090E0A1
:102D00000E941D3360E08DE090E00E940B3340E0B4
:102D100050E0BA0188E190E00E941D3360E087E155
:102D200090E00E940B3340E050E0BA018CE190E06B
:102D30000E941D3370E060E080E290E00E94293341
:102D400040E050E0BA0188E190E00E941D3380E04D
:102D50000E948C100E943B1140E050E0BA018FE0CD
:102D600090E00E941D3340E050E0BA0183E190E022
:102D70000C941D33EF92FF920F931F93CF93DF9329
:102D80007901C82F880FDD0B41155105A9F08AE0A4
:102D90008C9FF0018D9FF00D1124EE5FFE4F83811B
:102DA000948181599D4F228130E04217530708F4E6
:102DB0009A01A9010E94D732CE010E94EC31892BE1
:102DC00011F501151105E9F08AE08C9FF0018D9F46
:102DD000F00D1124EE5FFE4F458150E004171507FA
:102DE00008F4A8018AE08C9FF0018D9FF00D11245A
:102DF000EE5FFE4F6681778161597D4FC7010E946A
:102E0000D73281E001C080E0DF91CF911F910F9117
:102E1000FF90EF9008950F931F93CF93DF9300D00F
:102E2000CDB7DEB740919F025091A0026091A10200
:102E30007091A2022FB7F8948091460690914706B0
:102E4000A0914806B09149062FBF841B950BA60B95
:102E5000B70B21E084369105A105B10508F420E007
:102E600030915006398384369105A105B10520F4CF
:102E700080918002831321E080917F068A83211153
:102E800005C09091810211E09817C9F010E000E0B0
:102E900030E020E042E050E0BE016F5F7F4F86E00F
:102EA0000E94BA16182F882351F00E94F1056093F2
:102EB0009F027093A0028093A1029093A202812F9F
:102EC0000F900F90DF91CF911F910F9108950F9365
:102ED0001F93CF93DF9300D000D0CDB7DEB74091E2
:102EE0009B0250919C0260919D0270919E022FB7AF
:102EF000F8948091460690914706A0914806B091BB
:102F000049062FBF841B950BA60BB70B11E0843627
:102F10009105A105B10538F10E94A60D882369F13C
:102F20000E94F1056E5F7F4F8F4F9F4F69837A83B9
:102F30008B839C8310E000E030E020E044E050E030
:102F4000BE016F5F7F4F85E00E94BA16182F88235D
:102F500051F00E94F10560939B0270939C02809354
:102F60009D0290939E02812F0F900F900F900F90D3
:102F7000DF91CF911F910F9108950E94F10500916B
:102F8000A8021091A9022091AA023091AB02600F11
:102F9000711F821F931FC6CF8F929F92AF92BF92D5
:102FA000EF92FF920F931F93CF937B01942FB90160
:102FB000A801F70180809180A280B380EFB7F894D8
:102FC0000091460610914706209148063091490627
:102FD000EFBF081919092A093B0904361105210513
:102FE000310518F4C1E0992381F010E000E030E0F1
:102FF00020E00E94BA16C82F882339F00E94F105FC
:10300000F70160837183828393838C2FCF911F910B
:103010000F91FF90EF90BF90AF909F908F90089589
:103020000F931F93CF93DF93CDB7DEB728970FB6DB
:10303000F894DEBF0FBECDBF85E0E5E2F5E0DE012E
:10304000119601900D928A95E1F78091FE0490917E
:10305000FF04A09100058E839F83A88741E08885A7
:10306000811101C040E008E010E09E012F5F3F4F5A
:1030700063EA72E087E00E94CC178111109200058C
:1030800028960FB6F894DEBF0FBECDBFDF91CF916B
:103090001F910F9108950F931F93CF93DF93EC012E
:1030A00045E050E065E772E00E94CA3241E0892BBA
:1030B00009F440E005E010E09E0163E972E082E07F
:1030C0000E94CC17DF91CF911F910F9108957F92AD
:1030D0008F929F92AF92BF92CF92DF92EF92FF9228
:1030E0000F931F93CF93DF930F92CDB7DEB7762E5A
:1030F0004A015901680101E010E09E012F5F3F4F36
:1031000050E040E070E060E00E94BA16182F88237B
:1031100009F44BC0F40140815181628173812FB762
:10312000F8948091460690914706A0914806B09188
:1031300049062FBF841B950BA60BB70B8436910550
:10314000A105B10538F4B701C6010E945306998163
:10315000891759F18701950150E040E070E060E087
:10316000872D0E94BA16B82EB701C6010E945306D9
:1031700011E09981981310E01B2139F00E94F105AC
:10318000F4016083718382839383812F0F90DF9199
:10319000CF911F910F91FF90EF90DF90CF90BF9054
:1031A000AF909F908F907F900895A701B601C501C1
:1031B0000E94D732EACFCF92DF92EF92FF920F9325
:1031C0001F93CF93DF9300D000D00F92CDB7DEB71F
:1031D0006B0185E0E82EF12C00E712E09E012F5FE5
:1031E0003F4F4FE852E061E080E00E94671888237B
:1031F00049F095E0FE013196AAE8B2E001900D9207
:103200009A95E1F795E0EAE8F2E0D60101900D9297
:103210009A95E1F70F900F900F900F900F90DF911C
:10322000CF911F910F91FF90EF90DF90CF90089575
:1032300090E080E00E9405338A3E9E4F11F40C948A
:10324000B70F80E008951F920F920FB60F921124CE
:103250002F933F934F935F936F937F938F939F939E
:10326000AF93BF93CF93DF93EF93FF93D091E90098
:10327000DF708091EC00C82FC17080FDC0E8109213
:10328000E9008091F000877F8093F00078940E949D
:103290007A131092E9008091F00088608093F0002A
:1032A000CD2BCF70C093E900FF91EF91DF91CF91CB
:1032B000BF91AF919F918F917F916F915F914F914E
:1032C0003F912F910F900FBE0F901F9018951F9256
:1032D0000F920FB60F9211242F933F934F935F934A
:1032E0006F937F938F939F93AF93BF93EF93FF93CE
:1032F0008091E10082FF09C08091E20082FF05C059
:103300008091E1008B7F8093E1008091DA0080FF63
:1033100024C08091D80080FF20C08091DA008E7F89
:103320008093DA008091D90080FF9DC080E189BD43
:1033300082E189BD09B400FEFDCF81E0809375066E
:1033400080914F06811109C00E9451040E941C0502
:103350008091E20084608093E2008091E10080FF30
:1033600017C08091E20080FF13C08091E2008E7F41
:103370008093E2008091E20080618093E20080917E
:10338000D80080628093D80019BC85E080937506D0
:103390008091E10084FF2BC08091E20084FF27C070
:1033A00080E189BD82E189BD89B5982F917080FF48
:1033B000FBCF8091D8008F7D8093D8008091E10071
:1033C0008F7E8093E1008091E2008F7E8093E20007
:1033D0008091E20081608093E200809176068823EC
:1033E00009F447C084E0809375068091750680914A
:1033F000E10083FF27C08091E20083FF23C080911A
:10340000E100877F8093E10082E08093750610924F
:1034100076068091E1008E7F8093E1008091E2004A
:103420008E7F8093E2008091E20080618093E200D1
:1034300042E060E080E00E94EA048091F000886051
:103440008093F000FF91EF91BF91AF919F918F9189
:103450007F916F915F914F913F912F910F900FBE90
:103460000F901F90189519BC1092750610924F0678
:1034700074CF8091E30087FD93E090937506B5CFFC
:1034800078941F921FB61F9211248F939F93AF932E
:10349000BF938091460690914706A0914806B0914F
:1034A00049060196A11DB11D8093460690934706DB
:1034B000A0934806B0934906BF91AF919F918F9119
:1034C0001F901FBE1F9018959C014FB7F8948091D4
:1034D000460690914706A0914806B09149064FBF15
:1034E000821B930B08952FB7F89480914606909114
:1034F0004706A0914806B09149062FBF08957F92D4
:103500008F929F92AF92BF92CF92DF92EF92FF92F3
:103510000F931F93CF93DF93CDB7DEB72F970FB6DF
:10352000F894DEBF0FBECDBF8E010F5F1F4F8AE044
:10353000D8011D928A95E9F78EEAC82E81E0D82E2F
:10354000F12CE12CAA24A394B12C2EEB822E21E0A5
:10355000922EF60181916F018F3F09F443C0F894D8
:10356000E82FE295EF70F0E021A18F70A50102C075
:10357000440F551F8A95E2F7CA01922F982B91A309
:1035800092A18095892382A30E94880600C0E8EB5F
:10359000F1E0712C31E021912F3F09F47AC0A22F84
:1035A000A295AF70B0E090968C9190E02F7002C021
:1035B000959587952A95E2F780FD6BC0832F782A31
:1035C000330F8E169F0639F7F601319780818F3FB2
:1035D00011F00E948A0650EA5A95F1F7F801EE0DB3
:1035E000FF1D70828FEFE81AF80A95E0E916F104E2
:1035F00009F0AFCF4AE050E0B8018CEA92E00E94B7
:10360000CA327C01892B41F08AE0F801ACEAB2E0D1
:1036100001900D928A95E1F71091B702E114F1043F
:10362000D1F181E0809360020E94731A90935F024F
:1036300080935E0280915E0290915F020E94641A04
:10364000059778F0ACEAB2E0E12FF0E0EC50FB4FE8
:1036500081EB92E02D9121938A179B07D9F7109265
:10366000600281E090E0EF28D1F02F960FB6F89439
:10367000DEBF0FBECDBFDF91CF911F910F91FF90A5
:10368000EF90DF90CF90BF90AF909F908F907F9002
:10369000089580E094CF809160028111CBCF0E9489
:1036A000A60DD82EE091B702DE011B967D0188237E
:1036B00009F4F0C085E01D928A95E9F70E2F10E01D
:1036C0000C501B4F8091A7028A3008F057C04BED79
:1036D00058E1B701C8010E94620D882309F470C047
:1036E0004BE458E1B701C8010E94620D882309F438
:1036F00067C041E956E2B701C8010E94620D882304
:1037000009F45EC047E657E1B701C8010E94620DA7
:10371000882309F455C04BE057E1B701C8010E9466
:10372000620D882309F44CC040E158E1B701C8019B
:103730000E94620D882309F443C01092A702809171
:10374000B60290E045E050E0B7018C509B4F0E94DC
:10375000CA3221E020936D02892B29F5D12C80916A
:1037600000019091010110E006E1019609F068C0A6
:103770008091820580FD6EC08D2D77CF8091610292
:10378000909162020E94641A843F914008F09FCF9A
:1037900080916D02882311F385E0F70111928A95DB
:1037A000E9F710926D02A091B602B0E0AC50BB4FA9
:1037B00085E0FE013B9601900D928A95E1F7CFCF0F
:1037C0008091A7028F3F31F08F5F8093A7028A30EC
:1037D00008F4B5CF0E94731A90936202809361023D
:1037E000D7CF089FF001099FF00D1124E157FA4F40
:1037F000E288F388E114F10421F4E0907F05F09071
:103800008005089FF001099FF00D1124E157FA4F40
:1038100086818823A1F0858596850E94641AE81622
:10382000F90668F4109F70011124C70181579A4F5F
:103830000E94C308C7018B569A4F0E9479081F5FE8
:10384000812F90E020910001309101012817390764
:1038500044F68ECF8091710182FF8ECF0E94731A41
:103860002091890530918A05AC01421B530B2091B0
:103870006F01309170014217530708F47DCF23E6A2
:1038800032E041E0BC0180918B0590918C050E9453
:10389000460C72CFF0E0EC50FB4F0091B60210E006
:1038A0000C501B4FF89485E0A0E7B2E001900D9218
:1038B0008A95E1F765E070E080E792E00E945306A8
:1038C00080936F020E948806F89485E0E5E7F2E0B5
:1038D000D80101900D928A95E1F70E948806F8942C
:1038E000E091BD02F0E0E654FD4F80818B8780932C
:1038F0007B0261E070E0C7010E94530680937A0268
:103900000E948806F894C0907C02D0907D02E090DE
:103910007E02F0907F028091690290916A02A091EC
:103920006B02B0916C02C816D906EA06FB06D1F00C
:10393000C0926902D0926A02E0926B02F0926C022D
:103940000E94A60D81110EC00E94F105C61AD70A69
:10395000E80AF90AC092A802D092A902E092AA024B
:10396000F092AB020E948806F894809180028093C6
:1039700050068091810280937F060E948806F89409
:10398000809189028823F1F080FF0DC0809182022E
:1039900080FF1CC09091250591609093250560E003
:1039A00086950E9420138091890281FF09C020E042
:1039B0004091850260918402809183020E94C61129
:1039C000109289020E94880680E04FCE0E944D0D21
:1039D000EACF8F929F92AF92BF92CF92DF92EF92F7
:1039E000FF920F931F93CF93DF9300D000D0CDB7FA
:1039F000DEB77C01DC0113964D915C911497119612
:103A00006C9111978C910E942909811169C061E024
:103A1000C7010E94AE0F8C01F7018281811111C094
:103A2000D70112968C91811149C00031FFE51F0723
:103A300009F4DAC001312FE5120709F0C8C482E0A9
:103A4000D4C08091000190910101019649F35FE893
:103A5000C52E55E0D52EB12CA12C9924939480919C
:103A60000001909101018A159B05D4F2F60186812F
:103A70008823E9F0818592850817190739F4809128
:103A80008D0590918E050817190789F0D6011F96AC
:103A90009C921F971C961C930E931B97C6010E9425
:103AA000C308C60106960E94790810927F06BFEFF0
:103AB000AB1ABB0AE6E1CE0ED11CD1CF9801225140
:103AC0003F452031310508F078C48FEF93E00E9424
:103AD000F7324EEEF42EF00E09E112E08823E9F001
:103AE0000F900F900F900F90DF91CF911F910F913A
:103AF000FF90EF90DF90CF90BF90AF909F908F900E
:103B000008950115F4E01F0759F3C8010E94F73228
:103B1000811101C0FA940F5F1F4FF110F2CF19828B
:103B20001A821B821C82BB24BA9478012FEFE21AFE
:103B3000F20AC8010E94F73289831A82882381F22F
:103B4000813009F047C0680132E0C30ED11CC701C3
:103B50000E94F732E82E8A83882311F2C6010E9460
:103B6000F732F82E8FEF8E0D833068F4680143E052
:103B7000C40ED11CFB82FF2021F0CE0101960E94D1
:103B8000FA0D8601D2CF54E0E512FBCF680184E044
:103B9000C80ED11CC80103960E94F732FF2009F419
:103BA0009FCF882309F49CCF8150990BB89E900138
:103BB000B99E300D1124AF2DA150BB0BCD01820F4A
:103BC000931F0197F0F2EFE9FFE03197F1F700C0A2
:103BD0000000F7CFCE0101960E94FA0D6701D1CF08
:103BE00081E00E94E50903C081E00E94D9090E949A
:103BF000CE0976CF82E0F5CF4FEFC416D10411F095
:103C000008F0F1C363E375E08C2D0E944A11892B03
:103C100029F586E18C9DF0018D9DF00D1124E15771
:103C2000FA4F8681813009F05FC080913305909111
:103C30003405892B99F08091350590913605892BB3
:103C400069F08091370590913805209139053091C0
:103C50003A05822B932B892B09F450C080910001E7
:103C6000909101018C159D0524F4D0920101C09220
:103C70000001F701828196E19C9D50019D9DB00C51
:103C80001124950121573A4F6901D90150968C931F
:103C90005097928116968C9116979923E9F11A966E
:103CA0001C930E9319978F5F16968C930E94731A2C
:103CB000F60196878587178280917F06909150063E
:103CC000892B80870190F081E02D309741F0D6015B
:103CD00054966D917C91C5018B569A4F099510931E
:103CE0008E0500938D057FC3823009F0B7CF809198
:103CF000370590913805892B09F4B0CF26E12C9D2A
:103D0000C0012D9D900D112481579A4FDC015096D2
:103D10001C920E94C308A2CF882309F464C3F9014E
:103D20008189882309F45FC3C5018B569A4F0E948D
:103D3000790859C38091710181608093710181C3B9
:103D4000809171018E7F809371010E94E70879C391
:103D5000809171018F7E013E110531F0053E110504
:103D6000C9F4809171018F7D8093710180917101FF
:103D700080FF76C3D70112968C910832110528F581
:103D80000E31110508F068C00430110580F581116D
:103D900063C366C3C8019056811540E2940720F0C2
:103DA000905E8115904110F78091710182FF58C398
:103DB0008091840581FD54C323E632E040E0B601E2
:103DC00090E080E00E94460C4BC30933110558F483
:103DD0000D32110518F40B321105C9F690918205C8
:103DE00092FDD5CF08C004361105C1F3D0CF909114
:103DF000820594FDCCCF882309F48CC090915006A5
:103E0000892F8D7F71F110928C0510928B05809116
:103E1000820581FD26C0F80133E0F695E7953A95D5
:103E2000E1F7EE71FF27E95BFA4F98012F70332716
:103E300081E090E002C0880F991F2A95E2F78095F3
:103E4000909520813181822393239183808360E048
:103E5000C8010E94430B44CE9091820593FD97CFF9
:103E6000CACF86E0F701A3E6B2E001900D928A95F1
:103E7000E1F7109265021092670210926602E090DC
:103E80008B05F0908C050E151F05A1F5809182051C
:103E900085FF30C02091710121FBBB24B0F821FFC8
:103EA00002C086FF27C02091890530918A05A601AE
:103EB000421B530B20917F05309180054217530719
:103EC000C8F491FF08C080917101806180937101F5
:103ED00082E00E944E088091500685FF08C08091C4
:103EE000710180628093710180E20E944E086B2D07
:103EF000C701AFCF8091710191FB81F910938C05BF
:103F000000938B05D0928A05C092890584608093C6
:103F10007101E6CD970140E0B601C8010E94460C50
:103F2000DFCD44ED52E160EE72E1073CECE51E07A7
:103F300009F457C045EF52E16CEE72E1083C1C45B4
:103F400008F44FC040EE52E164ED72E14AC00D3C0E
:103F50002CE5120709F461C060F40B3C4CE5140732
:103F600009F456C008F44FC04FE053E16EEF72E120
:103F700038C0063D8CE5180708F4B2CD0D351D4557
:103F800009F4AECD8DC28091250580FF1EC08E7FC5
:103F90008093250560912505709126058091270560
:103FA000909128050E94B411809100058160809352
:103FB0000005BFEFE0E7F2E0B150E040F040E1F78C
:103FC00000C000000E94020D8BCD8160809325050A
:103FD00061E086950E94201383CD43E453E16CE4B5
:103FE00073E10E9472067CCD4CE453E163E473E11B
:103FF000F8CF4CEE52E165EF72E1F3CF4CEB52E1BA
:1040000068EC72E1EECF48EC52E16CEB72E1E9CF83
:104010004EEF52E16FE073E1E4CF61E081E0DACF8F
:1040200001152CE5120739F00E3D1C4509F038C288
:104030000E94501655CD109250060E9467134FEF04
:1040400054E38CE0415050408040E1F700C0000054
:104050000E94E005C8010E943E09D82E2FC2F92F08
:10406000FF709F2E892F807F19F0929490EF9922F4
:10407000DD20C9F0992069F080E2810F883010F0CE
:1040800081100BC080915006982A909250060E9491
:104090005508812F0E94450A16C080917F06982AF4
:1040A00090927F06F4CF812F0E941A0A992059F02E
:1040B00080E2810F883010F081101DC0892D0E9490
:1040C0004E080E945508E8E0AE1AB108F4E0AF16B9
:1040D000B10410F40E94C90D812F902F0E949D09F8
:1040E000811145C110920C0210920B0260E0C701D1
:1040F0000E94AE0FF5CC909480917F06982290920A
:104100007F06DFCF292F2F70922E892F807F80325C
:1041100019F0929480EF982231E0831210C0DD20D4
:1041200039F042E04C1578F2892D0E94100ACBCF6D
:1041300051E05C1540F2892D0E94090AC4CFDD20B0
:10414000E9F0CC2089F320E0D7014C9111965C91E5
:10415000119712966C91129713967C91139714965F
:104160008C910E94850F8091840581FD92CFF7018B
:10417000858180FF8ECF8F708583D6CFCC20D9F2FA
:10418000F9E38F12ECC080918705909188050E9419
:104190003C0C812F0E941A0A96CF892F869586950E
:1041A000837061F0813009F08ECF812F9370D11030
:1041B00002C090E080E00E94270685CF812F937097
:1041C000D11002C090E080E00E943D067CCF892F94
:1041D000837091F5D11077CF412F42954695477066
:1041E000440F440F812F8F70042E01C0880F0A9452
:1041F000EAF7212F207114FF07C02FE030E001C043
:10420000220F4A95EAF72095302F36953695337070
:10421000323069F050F440912A05313029F0822B78
:1042200084230E94F0094FCF842B822BFACF282BB6
:1042300080912A058227F5CF8695DD2011F0892F00
:104240008170882309F43FCF412F429546954770EE
:10425000440F440F812F8F70042E01C0880F0A94E1
:10426000EAF7212F207114FF07C02FE030E001C0D2
:10427000220F4A95EAF72095302F36953695337000
:10428000323069F050F440918006313029F0822BB1
:1042900084230E94CA0917CF842B822BFACF282BA4
:1042A000809180068227F5CF292F2F70922EDD2056
:1042B00029F0822F0E94E509812F37CF812F0E949C
:1042C000090A892D0E94D909FECE812F31EF1317DB
:1042D000A1F1311750F040EF1417C1F0DD20D1F1FA
:1042E000C110D7CE802F8F712DC052EF151769F1F5
:1042F00093EF1913F3CF80E0DD2059F281E0902F86
:104300009F7101C0880F9A95EAF7C3CFDD2081F035
:10431000A1E0AC1508F4D7CE202F2F7181E090E0FA
:1043200001C0880F2A95EAF7909180068927B1CFBE
:10433000B2E0BC1508F4C7CEEFCF892F8F71DD2016
:1043400009F4C0CF0E94E509BECE892F8F71DD2010
:10435000C9F3B8CFCC2041F0893309F414CF809150
:1043600085059091860513CF802F8F71ABCFDD200F
:1043700019F0C110B7CEBACEC110B4CE20E0D7012B
:104380004C9111965C91119712966C91129713961D
:104390007C91139714968C910E94850F80918405CF
:1043A00083FFA0CE80910B0290910C02029709F03E
:1043B00099CE812F0E94D90D95CE0031BFE51B0704
:1043C00009F40ECC0131EFE51E0709F413CC6801A6
:1043D00027E5D21A882309F40FCC3FEFC316D10486
:1043E00009F008F43BCC8091820580FF39C00E941F
:1043F000731A6C01D70112968C91882309F4A8CC0A
:104400008091710182FF08C023E632E040E0B601EE
:1044100090E080E00E94460C0B31BCE51B0709F4DC
:1044200089CC0C31ECE51E0709F48ACC909171011E
:10443000892F8E7F90FF81600A31FCE51F0709F408
:1044400082CCC8019056811520E2920728F0905E38
:104450008115904108F08ACC10928C0510928B0542
:10446000F70192819111DCCD809150068272093C56
:10447000FCE51F0709F4C2CD08F069CD053C3CE519
:10448000130709F4B6CD08F04CCD033C5CE51507E5
:1044900009F4A3CD08F0A8CD023C1C4509F473CD66
:1044A000D7010D911C91992309F4D4CDC8010E9424
:1044B000430FD82E682FC8010E946C09B8018D2DBA
:1044C0000E94270F0E94E406182F092F882EF7015B
:1044D000D280C580C2942FE0C222892F82958F702E
:1044E000A82EB12C8C3008F0EECDF501EF59FC4C24
:1044F0000C94B432BF92CF92DF92EF92FF920F935F
:104500001F93CF93DF9380912A02807F61F4809183
:104510002702882341F0C0915C0286E0B82E80918A
:104520002B028C130AC0DF91CF911F910F91FF9046
:10453000EF90DF90CF90BF900895F0902502E0902B
:104540002602C0902802D0902902A6016E2D8F2D40
:104550000E942909D0E081113DC0BC9E8001BD9E12
:10456000100D1124F801E45DFD4F81818E1132C0E0
:1045700080818F112FC0828181112CC0E380F48053
:10458000EC18FD0860E085E292E00E94AE0F809199
:104590007F0590918005E816F906E0F480912A02E3
:1045A0008F70806180932A02F801EF5CFD4F80815B
:1045B0008F708061808385E292E00E94E91CDF9128
:1045C000CF911F910F91FF90EF90DF90CF90BF9010
:1045D0000C9434092196C770A2CF3F924F925F92FC
:1045E0006F927F928F929F92AF92BF92CF92DF9203
:1045F000EF92FF920F931F93CF93DF93CDB7DEB768
:1046000061970FB6F894DEBF0FBECDBF8C0185E079
:10461000F801DE011D9601900D928A95E1F7D8010F
:104620004C9011965C9011971296EC9012971396FD
:10463000CD90DC9060E085E292E00E94AE0F85E2D2
:10464000A82E82E0B82E8090280290902902A40122
:1046500060912602809125020E942909811197C14B
:10466000F0902702F601E819F9094F0160E0FF20F8
:1046700009F443C1C5010E94AE0F60907F057090A0
:10468000800530902A028614970408F0F8C0409103
:10469000280250912902B0902502A0902602832D75
:1046A000807F6A2D09F0A3C08B2D0E942909FE2C62
:1046B000811131C0D80111968C9111978A112BC0AC
:1046C0008C918B1128C0E11026C0832D8F708061E2
:1046D00080932A0285E292E00E94E91C80912A02DE
:1046E000F80185838F2D61960FB6F894DEBF0FBE5B
:1046F000CDBFDF91CF911F910F91FF90EF90DF9091
:10470000CF90BF90AF909F908F907F906F905F9071
:104710004F903F900895F4EF6F16F1E07F0620F47C
:104720008091840580FF21C0A601652D842D0E9403
:104730002909811118C081E08E2580FF16C04E2DF9
:10474000652D842D0E940909882379F085E292E085
:104750000E94E91C86E0E5E2F2E0DF011D928A9505
:10476000E9F7F12CBFCF80E0E8CFA601652D842DBD
:104770000E942909811124C081E08E25B82FB170D3
:10478000CB2E80FF2BC04E2D652D842D0E94090954
:10479000D82E811123C04D865E868D859E850E9410
:1047A000720F292F22952F70223060F0243088F468
:1047B0009F7061F0F8019581907F41F4FD2C92CFBC
:1047C00080E0DCCF9F7011F08823C1F3805E8830D9
:1047D000A8F3C8010E94E91CDC2CF0CFEE2009F4FC
:1047E00081CF80912A02816080932A02BACF8B2DDB
:1047F0000E942909811119C0D80111968C91119735
:104800008A1113C08C918B1110C0E1100EC0159647
:104810003C92C8010E94E91C86E0F801A5E2B2E0E2
:1048200001900D928A95E1F75DCFC8010E947E0F3D
:10483000882309F1EE20F9F080912A02803270F08D
:10484000209125023091260238872F831986DB8636
:10485000CA868C87CE0107960E94E91C86E0F80183
:10486000A5E2B2E001900D928A95E1F70E947A22CA
:10487000FF24F39437CFC8010E94E91CF9CF832DA0
:10488000807F09F463CF90902502809026024091AA
:10489000280250912902682D892D0E942909811131
:1048A00013C0F801818188110FC0808189110CC06B
:1048B000E1100AC03582C8010E94E91C86E0D501DA
:1048C0001D928A95E9F70ECFC8010E947E0F8823BA
:1048D00091F2EE2081F280912A02803208F4BECF5C
:1048E00020912502309126023A8329831B82DD82A2
:1048F000CC828E83CE010196AFCF85E292E00E94FA
:10490000AE0F80917F059091800588169906B0F6CC
:10491000FE2CEE2009F4AFCFE0902502D0902602C5
:1049200040912802509129026D2D8E2D0E94290957
:1049300081111FC0F80181818D111BC080818E11F2
:1049400018C08091840582FD67CF90912A0290FD66
:1049500063CF907F09F460CF80912A028583903FD6
:1049600009F457CF982F907F905F8F70892B8583A4
:1049700050CFC8010E947E0F811170CF80912A0212
:10498000816080932A02C8010E94E91CABCEEE2010
:1049900009F471CFC8010E947E0FF82E882309F414
:1049A0006ACF86E0F801A5E2B2E001900D928A9507
:1049B000E1F780912502909126020E94720F0E94D9
:1049C0007A2290CE1F93CF93DF93CDB7DEB7679750
:1049D0000FB6F894DEBF0FBECDBF942F4B8B252FA3
:1049E0005C8B6D8B7E8B8F8B4E895F89622F892FBD
:1049F0000E942909811109C080910B0290910C023B
:104A0000019690930C0280930B028D898111109274
:104A10007F061A8A198A85E0FE017396DE011D96CB
:104A200001900D928A95E1F786E0FE013D96DE0148
:104A3000179601900D928A95E1F7CE0107960E9494
:104A4000ED22811111C086E0FE013796DE0111963C
:104A500001900D928A95E1F74A855B8568858F8183
:104A60000E942909882389F016E080915C029091C8
:104A70002B02891339C067960FB6F894DEBF0FBEBC
:104A8000CDBFDF91CF911F91089520912B0230E08F
:104A9000C90101968770992740915C024817190651
:104AA00099F096E0929FD001939FB00D1124A45DE0
:104AB000BD4FFE01319601900D929A95E1F78093DA
:104AC0002B020E943409D0CF109250060E94671327
:104AD00010922B0210925C0286E0E5E2F2E0DF0128
:104AE0001D928A95E9F7C0CF819FC0011124845D92
:104AF0009D4F0E94ED22882309F4BDCF80915C0276
:104B000090E001968770992780935C02AECFCF9397
:104B1000DF9300D000D00F92CDB7DEB790933E0563
:104B200080933D05811520E2920748F40F900F9085
:104B30000F900F900F90DF91CF910C94140B8EEF8C
:104B400089838A831B820E94731A8160782F9D83D8
:104B50008C8349815A816B818D810F900F900F90CA
:104B60000F900F90DF91CF910C94E2240F931F933D
:104B7000CF93DF938C01EB0163E375E08C2F0E94F0
:104B80004A11892BA1F480918505909186050E9498
:104B90003C0CDD27C55DDA4F8881F8011082188250
:104BA000833009F148F4813059F0823081F0DF918F
:104BB000CF911F910F9108958430D1F08530B9F7CE
:104BC0008091330590913405009789F306C0809158
:104BD000350590913605009799F3DF91CF911F919C
:104BE0000F910C9487258091370590913805F3CF6C
:104BF0008091390590913A05009779F72091330516
:104C00003091340580913505909136052115310597
:104C1000D9F2009711F7C901E0CFCF93DF9300D00D
:104C200000D00F92CDB7DEB790933E0580933D053F
:104C3000811520E2920748F40F900F900F900F908B
:104C40000F90DF91CF910C942C0B8EEF89838A8388
:104C500081E08B830E94731A8160782F9D838C83FF
:104C600049815A816B818D810F900F900F900F9029
:104C70000F90DF91CF910C94E224AF92BF92CF922C
:104C8000DF92EF92FF920F931F93CF93DF93B82E93
:104C9000A62EC090800680912A05C82AC7E0D0E0E1
:104CA000D12CF12CE12CD701C6010C2E04C0B695F5
:104CB000A795979587950A94D2F780FF20C04A2D33
:104CC0006B2D8C2F0E94C80E8C0181309105B9F09C
:104CD0000E940D268FE39CE90197F1F700C00000C8
:104CE000C8010E94872581E0DF91CF911F910F912C
:104CF000FF90EF90DF90CF90BF90AF9008952197F5
:104D000090F64A2D6B2D80E00E94C80EEC010E94A7
:104D10000D268FE39CE90197F1F700C00000CE015A
:104D2000E0CFCF92DF92EF92FF920F931F93CF933A
:104D3000DF930F92CDB7DEB7EE24E394F12C0BE7AF
:104D400012E09E012F5F3F4F47E952E064E083E0AD
:104D50000E946718082F882321F1C090B9028C2D7A
:104D600090E09C0126543D4F79011981F901808121
:104D7000181BD12E80E00AC0DA94F70180818F5F82
:104D8000808360E08C2D0E943D26802F1D14A4F3AB
:104D9000912F17FD90E0191B11110EC081110E9477
:104DA0004C08802F0F90DF91CF911F910F91FF90B2
:104DB000EF90DF90CF9008951F5FF70180818150C1
:104DC000808361E08C2D0E943D26802FE5CFCF931C
:104DD000DF93EC010E940D26809185059091860558
:104DE0000E943C0CCE01DF91CF910C9487250F934C
:104DF0001F93CF93DF938C01862F63E375E00E94AE
:104E00004A11892BC9F4C0913305D09134052097FC
:104E100099F0F8018081833069F4CE010E94E72681
:104E2000CE010E94E726CE01DF91CF911F910F9115
:104E30000C94E7268430B8F7DF91CF911F910F9142
:104E400008950F931F93CF93DF938C01EB0163E3DE
:104E500075E08C2F0E944A11892B09F064C0FE0175
:104E6000FF27D8018C91E55DFA4F8130D9F419966E
:104E70009C911997992311F080830CC01A969C91EC
:104E80009923D1F382E08083809135059091360596
:104E90000097D9F48091330590913405009709F477
:104EA00042C013C08230E9F519968C91199781118F
:104EB0002DC01A968C9181110EC083E08083809161
:104EC000370590913805009719F1DF91CF911F9127
:104ED0000F910C940D2684E0808380913905909188
:104EE0003A05009791F7809133059091340500972A
:104EF000F9F00E94E72680913505909136050097DC
:104F000021F78091330590913405DFCF85E08083D0
:104F10008091330590913405009729F00E94E7268F
:104F2000F0CF86E08083DF91CF911F910F9108959C
:104F30008091350590913605B1CF1F921FB61F9213
:104F400011248F939F93AF93BF9380914506811156
:104F500013C08091460690914706A0914806B091F3
:104F600049064196A11DB11D8093460690934706C0
:104F7000A0934806B0934906BF91AF919F918F913E
:104F80001F901FBE1F901895CDB7DEB7E9970FB6DB
:104F9000F894DEBF0FBECDBF84B7877F84BF0FB646
:104FA000F894A895809160008861809360001092C9
:104FB00060000FBE80E890E00FB6F8948093610027
:104FC000909361000FBE85B7806885BF85B7806804
:104FD00085BF86E896E09093E9018093E8010E94FE
:104FE0005E110E94A20E0E9451040E941C05809135
:104FF000E20084608093E2007894809175068823B3
:10500000A1F01091E9001F709091EC00892F817040
:1050100090FD80E8182B1092E9008091E80083FD54
:105020000E947A131F701093E90082E084BD93E020
:1050300095BD9AEF97BD80936E001092A8021092D2
:10504000A9021092AA021092AB020E94B70F81111E
:1050500002C00E943B1125982D9883B185FB8827BB
:1050600080F98093520180915201882309F476C01F
:105070001092680186E0809369010E94A60D81115B
:105080000E94DF30809152018091520195E08111A0
:1050900090E09093B70285E0891B8093B6020EEAF8
:1050A00011E0B3EBEB2EB1E0FB2ED8018D918D0119
:1050B0008F3F11F00E948A06E016F106B1F708EB67
:1050C00011E0AEEBEA2EA1E0FA2EF80181918F01FA
:1050D0008F3F11F00E948A06E016F106B1F78AE0D0
:1050E000E4EFF4E0DF01282F1D922A95E9F7ECEABE
:1050F000F2E0DF011D928A95E9F70E9418198111EB
:1051000002C00E94501682E090E00E94F732809325
:10511000E70484E090E00E94F732182F82E290E0EA
:105120000E94F732982F812F90934B0680934A0666
:105130000E947F1AEFE3FCE93197F1F700C000000D
:105140000E947F1A8091F40480FF0CC06FEF7FEF04
:1051500090E080E00E9429330E94E00586E0809381
:10516000680189CF83E090E00E94F7320E94F00945
:105170000E94A60D811102C00E94E2301092E0044C
:1051800080E88093BF020E94772F6DE070E08EE38D
:1051900092E00E94570B892BC9F58091E00463E0EF
:1051A00070E081FD77C18BE392E00E94570B892B61
:1051B00069F56DE070E08BE292E00E94570B892B5D
:1051C00029F50E94F105605A75418F4F9F4F6093FA
:1051D0004105709342058093430590934405E0EEAA
:1051E000F2E080E092E0DF019C011D92215030400E
:1051F000E1F78FEF9FEF9093E3048093E20481E067
:1052000080934605809345051092E1048091B80291
:10521000811136C00E941819811104C00E945016D5
:105220000E94501388E090E00E94FF3260932505B1
:10523000709326058093270590932805809100059B
:105240008360809300056E7F71F40E94501388E0A4
:1052500090E00E94FF3260932505709326058093AD
:105260002705909328050E9477068091250580FFE9
:1052700004C060E086950E94201381E08093B8020C
:1052800080915201811106C084EF8093600185EF07
:1052900080935F0120916001A22FA295AF70B0E0D2
:1052A00091963C9191972F7081E090E0BC01022E85
:1052B00001C0660F0A94EAF7462F40954323919662
:1052C0004C93919792963C919297362B92963C9361
:1052D000929740915F01E42FE295EF70F0E031A1E9
:1052E0004F70042E01C0880F0A94EAF7982F90950A
:1052F000932391A392A1892B82A390968C9190E005
:1053000002C0959587952A95E2F7817020A130E03B
:1053100002C0359527954A95E2F792E020FF90E08C
:10532000892B8093BE029091520181E0982790933F
:10533000BD02891B8093B90283E591E090934206F8
:1053400080934106CE0101967C018091750600E1B3
:1053500012E1853009F4DBC00E947F1AC82E81114A
:105360000E94F105F4EF2F2EF4E03F2EE8EEF4E07A
:10537000D10110E000E0902EBD9081918B1509F4D1
:10538000D7C08B25A12CDD24D394982F9D2109F41F
:10539000CAC00E94A60D882399F0ABA69CA6BD208A
:1053A00081E009F480E08DA70E94731A8160782F54
:1053B0009FA78EA74BA55CA56DA58FA50E94E22493
:1053C000F801E851FB4F8081D826D0828091BE023F
:1053D000E82FEE0FEE0F80916001A82FA295AF701D
:1053E000B0E090962C9130E08F7002C035952795F3
:1053F0008A95E2F7A9014170552780915F01A82F96
:10540000A295AF70B0E090962C9130E08F7002C002
:10541000359527958A95E2F7C9018170992720FF74
:1054200002C082E090E0842B8E2B8093BE0210910C
:10543000BD028F70E82FF0E0E254FE4F8081909122
:10544000BC02890F8093BC02D12C18166CF4E12F9A
:10545000F0E0E654FD4F80818F5F808360E0812F14
:105460000E943D26DD24D3948091BC0287FF77C043
:10547000E12FF0E0E654FD4F80818150808361E0B0
:10548000812F0E943D261092BC020E944C08DD2410
:10549000D39469C088E392E088CE80917506843009
:1054A00031F10E94870B10924506A8E1B0E0E0E4DC
:1054B0000FB6F894A895A09360000FBEE09360002B
:1054C00083B7817F846083BF83B7816083BF789413
:1054D000889583B78E7F83BF0FB6F894A895809187
:1054E0006000886180936000109260000FBE809120
:1054F0007406882361F00E947F1AE4EFF4E0819142
:1055000081119CC42EEF34E02E173F07C1F7809124
:105510007506853009F4C1CF109250060E946713BA
:105520000E94C90D19CFA394DD0C36E0A3122DCF34
:105530000F5F1F4F0A30110509F01DCF8FEF88ABA9
:1055400089AB1AAA0E94731A8160782F9CAB8BAB2F
:1055500048A959A96AA98CA90E94E22437CF1092C0
:10556000BC02D11092CF809146058823A9F1809189
:10557000E4049091E5040E94641AC29730F00E94FE
:10558000731A9093E5048093E4042091E20430912F
:10559000E3042115310539F08091E10461E070E008
:1055A000882309F464C0809145058823A9F00E94EE
:1055B000F10500914105109142052091430530917C
:1055C0004405601B710B820B930B6F3F7F4F8F4F16
:1055D0009F4710F40E94870BC11001C0D1100E9498
:1055E000A20B0E94C90D9091E604891721F00E9438
:1055F000C90D8093E60480917506843009F0A5CE2C
:1056000083E08093E9008091E80082FF9ECE809144
:10561000E80090E085FF06C00E947004882309F42A
:10562000F3C091E08091E8008B778093E8009923A4
:1056300009F48BCE00913F05109140058981011539
:10564000110509F4FDC08E3F09F081C18A818330C4
:1056500020F08550833008F07AC1EA81EE3008F0FE
:1056600076C1F0E0E359FC4C0C94B4328F5F082F04
:1056700010E02B01082E02C0440C551C0A94E2F7DE
:10568000A90144215521452B89F39091E00490FD17
:1056900044C08295880F8076809363019801369587
:1056A00027953695279520936601815E8093640146
:1056B0001092670124E630E047E050E061E671E0D7
:1056C00088E70E942630892B09F06DCFA80175E08C
:1056D000440F551F7A95E1F78091E00480FD2BC0BF
:1056E00040525D4F04E610E020E230E060E488E7DD
:1056F0000E944D30892B09F056CF0E94A20BC201A7
:10570000809590954090E2045090E30448225922FD
:105710005092E3044092E20446CF880F880F880F2E
:105720008093630110926601895F8093640183E036
:1057300080936701BFCFE0ECF2E080E2DF011D92D1
:105740008A95E9F7E2EDF1E0F9AFE8AF0EEC11E090
:1057500067E0A62E99249394A8ADB9AD6D91B9AF29
:10576000A8AFF80181918F01840F952F911D9C01A5
:1057700020523D4F3EAB2DABE62FF0E0E054FD4F05
:1057800030E020E08A2D821B8FABB92C022E01C0A5
:10579000BB0C0A94EAF76DA87EA890E0D3018D9126
:1057A0003D018B216FA9691B6770862E062E000CA8
:1057B000770BB82F01C0BB0F8A94EAF78B2E719537
:1057C000619571096770772701C086956A95EAF738
:1057D000882A8081882A80829F5F9830F9F62F5F1F
:1057E0003F4F31962830310569F6E6EDF1E028ADFE
:1057F00039ADE217F30709F0AFCF04E610E020E27D
:1058000030E040EC52E072CF00E210E0CE010196B1
:105810006C018091E80085FD0AC08091E8008B77DB
:105820008093E8000E947004882399F3FACE809157
:10583000F100D6018D936D010150110951F7F1CEA0
:10584000893009F42EC120F5843009F4C7C050F422
:10585000823009F46BC008F0B2C0813009F462C034
:105860008FEF1AC3863009F4CFC008F4C2C0873066
:1058700009F4CDC08830A1F78A81813809F406C1C6
:1058800008F0F8C0803809F062C0809128054CC04B
:10589000803109F440C1D0F58D3009F40DC128F4F0
:1058A0008C30F1F680E18A8352C08E3009F408C151
:1058B0008F30B1F680916D0190916E01892B09F4C2
:1058C00046C0CC80D12C2DE1C216D10408F03FC0D7
:1058D0000A811B81102701271027CE0101965C0148
:1058E000C00ED11EC801875E9D4FC016D10679F14A
:1058F000073EA1E01A0720F4F50164810E940B33F2
:10590000FFEFAF1ABF0A0F5F1F4FECCF823109F4D0
:1059100007C108F403C1833109F42CC18E3F09F09B
:105920009FCF9BCE1A8289E08B8311C08A818230FF
:1059300009F4D4C2833089F1813009F091CF0E94FB
:10594000F1050E94BA326B837C838D839E838091A4
:105950007506843009F0F9CC1091E9001F70909120
:10596000EC00892F817090FD80E8182B82E08093F5
:10597000E9008091E80080FF0CC050E040E060E268
:1059800070E0C7010E94A1048091E8008E778093A7
:10599000E8001F701093E900D8CC80916D019091C0
:1059A0006E01892BA1F2FE013396D1018D911D016B
:1059B0008193BEEF2B16B4E03B06B9F7C8CF8A81BE
:1059C000823009F04DCF6B817C818D819E810E9458
:1059D000BA3286E290E00E940B33B9CF4C816B81E2
:1059E0008A810E94F80E9827892798279E838D83A5
:1059F000AECF2D813E813227232732274C816B8108
:105A00008A810E945710A3CF0E94A410A0CF8A8140
:105A10008138C1F060F4803809F099CF20E04B81E3
:105A200060912705809126050E94C61190CF82388B
:105A3000E9F0833809F08BCF20E0409128056C8194
:105A40008B81F2CF60E08B810E9420138B818111CA
:105A500003C00E944D0D7BCF80912505816080930E
:105A6000250560E086950E94201371CF8B8180937D
:105A700029056DCF823891F0833809F068CF809185
:105A800026058B83809127058C8361CF8091250526
:105A900080FF02C0869548CF80E046CF80912905DF
:105AA00043CF60912505709126058091270590913F
:105AB00028050E94B4114BCF81E08A8387EE34CF52
:105AC000CC80D12CEDE1CE16D10408F040CFAA80D5
:105AD000BB80BA24AB24BA248E010F5F1F4FC00EC7
